{
	"contracts/PausedToken.sol": {
		"PausedToken": {
			"abi": [
				{
					"inputs": [],
					"stateMutability": "nonpayable",
					"type": "constructor"
				},
				{
					"inputs": [],
					"name": "getContractStatus",
					"outputs": [
						{
							"internalType": "bool",
							"name": "",
							"type": "bool"
						}
					],
					"stateMutability": "view",
					"type": "function"
				},
				{
					"inputs": [
						{
							"internalType": "address",
							"name": "addr",
							"type": "address"
						}
					],
					"name": "getbalace",
					"outputs": [
						{
							"internalType": "uint256",
							"name": "",
							"type": "uint256"
						}
					],
					"stateMutability": "view",
					"type": "function"
				},
				{
					"inputs": [],
					"name": "pause",
					"outputs": [],
					"stateMutability": "nonpayable",
					"type": "function"
				},
				{
					"inputs": [
						{
							"internalType": "address",
							"name": "to",
							"type": "address"
						},
						{
							"internalType": "uint256",
							"name": "amount",
							"type": "uint256"
						}
					],
					"name": "transfer",
					"outputs": [],
					"stateMutability": "nonpayable",
					"type": "function"
				},
				{
					"inputs": [],
					"name": "unpause",
					"outputs": [],
					"stateMutability": "nonpayable",
					"type": "function"
				}
			],
			"devdoc": {
				"kind": "dev",
				"methods": {},
				"version": 1
			},
			"evm": {
				"assembly": "    /* \"contracts/PausedToken.sol\":60:1095  contract PausedToken{... */\n  mstore(0x40, 0x80)\n    /* \"contracts/PausedToken.sol\":195:301  constructor(){... */\n  callvalue\n  dup1\n  iszero\n  tag_1\n  jumpi\n  0x00\n  dup1\n  revert\ntag_1:\n  pop\n    /* \"contracts/PausedToken.sol\":226:236  msg.sender */\n  caller\n    /* \"contracts/PausedToken.sol\":218:223  owner */\n  0x00\n  dup1\n    /* \"contracts/PausedToken.sol\":218:236  owner = msg.sender */\n  0x0100\n  exp\n  dup2\n  sload\n  dup2\n  0xffffffffffffffffffffffffffffffffffffffff\n  mul\n  not\n  and\n  swap1\n  dup4\n  0xffffffffffffffffffffffffffffffffffffffff\n  and\n  mul\n  or\n  swap1\n  sstore\n  pop\n    /* \"contracts/PausedToken.sol\":257:262  false */\n  0x00\n    /* \"contracts/PausedToken.sol\":246:254  isPaused */\n  dup1\n  0x14\n    /* \"contracts/PausedToken.sol\":246:262  isPaused = false */\n  0x0100\n  exp\n  dup2\n  sload\n  dup2\n  0xff\n  mul\n  not\n  and\n  swap1\n  dup4\n  iszero\n  iszero\n  mul\n  or\n  swap1\n  sstore\n  pop\n    /* \"contracts/PausedToken.sol\":290:294  2000 */\n  0x07d0\n    /* \"contracts/PausedToken.sol\":272:280  balances */\n  0x01\n    /* \"contracts/PausedToken.sol\":272:287  balances[owner] */\n  0x00\n    /* \"contracts/PausedToken.sol\":281:286  owner */\n  dup1\n  0x00\n  swap1\n  sload\n  swap1\n  0x0100\n  exp\n  swap1\n  div\n  0xffffffffffffffffffffffffffffffffffffffff\n  and\n    /* \"contracts/PausedToken.sol\":272:287  balances[owner] */\n  0xffffffffffffffffffffffffffffffffffffffff\n  and\n  0xffffffffffffffffffffffffffffffffffffffff\n  and\n  dup2\n  mstore\n  0x20\n  add\n  swap1\n  dup2\n  mstore\n  0x20\n  add\n  0x00\n  keccak256\n    /* \"contracts/PausedToken.sol\":272:294  balances[owner] = 2000 */\n  dup2\n  swap1\n  sstore\n  pop\n    /* \"contracts/PausedToken.sol\":60:1095  contract PausedToken{... */\n  dataSize(sub_0)\n  dup1\n  dataOffset(sub_0)\n  0x00\n  codecopy\n  0x00\n  return\nstop\n\nsub_0: assembly {\n        /* \"contracts/PausedToken.sol\":60:1095  contract PausedToken{... */\n      mstore(0x40, 0x80)\n      callvalue\n      dup1\n      iszero\n      tag_1\n      jumpi\n      0x00\n      dup1\n      revert\n    tag_1:\n      pop\n      jumpi(tag_2, lt(calldatasize, 0x04))\n      shr(0xe0, calldataload(0x00))\n      dup1\n      0x3f4ba83a\n      eq\n      tag_3\n      jumpi\n      dup1\n      0x8456cb59\n      eq\n      tag_4\n      jumpi\n      dup1\n      0xa9059cbb\n      eq\n      tag_5\n      jumpi\n      dup1\n      0xc032846b\n      eq\n      tag_6\n      jumpi\n      dup1\n      0xdace60d2\n      eq\n      tag_7\n      jumpi\n    tag_2:\n      0x00\n      dup1\n      revert\n        /* \"contracts/PausedToken.sol\":589:661  function unpause() public confirmOwner {... */\n    tag_3:\n      tag_8\n      tag_9\n      jump\t// in\n    tag_8:\n      stop\n        /* \"contracts/PausedToken.sol\":515:583  function pause() public confirmOwner{... */\n    tag_4:\n      tag_10\n      tag_11\n      jump\t// in\n    tag_10:\n      stop\n        /* \"contracts/PausedToken.sol\":667:881  function transfer(address to, uint amount) public confirmPause {... */\n    tag_5:\n      tag_12\n      0x04\n      dup1\n      calldatasize\n      sub\n      dup2\n      add\n      swap1\n      tag_13\n      swap2\n      swap1\n      tag_14\n      jump\t// in\n    tag_13:\n      tag_15\n      jump\t// in\n    tag_12:\n      stop\n        /* \"contracts/PausedToken.sol\":887:989  function getContractStatus() public view  confirmOwner returns (bool) {... */\n    tag_6:\n      tag_16\n      tag_17\n      jump\t// in\n    tag_16:\n      mload(0x40)\n      tag_18\n      swap2\n      swap1\n      tag_19\n      jump\t// in\n    tag_18:\n      mload(0x40)\n      dup1\n      swap2\n      sub\n      swap1\n      return\n        /* \"contracts/PausedToken.sol\":995:1093  function getbalace(address addr) public view  returns (uint){... */\n    tag_7:\n      tag_20\n      0x04\n      dup1\n      calldatasize\n      sub\n      dup2\n      add\n      swap1\n      tag_21\n      swap2\n      swap1\n      tag_22\n      jump\t// in\n    tag_21:\n      tag_23\n      jump\t// in\n    tag_20:\n      mload(0x40)\n      tag_24\n      swap2\n      swap1\n      tag_25\n      jump\t// in\n    tag_24:\n      mload(0x40)\n      dup1\n      swap2\n      sub\n      swap1\n      return\n        /* \"contracts/PausedToken.sol\":589:661  function unpause() public confirmOwner {... */\n    tag_9:\n        /* \"contracts/PausedToken.sol\":363:368  owner */\n      0x00\n      dup1\n      sload\n      swap1\n      0x0100\n      exp\n      swap1\n      div\n      0xffffffffffffffffffffffffffffffffffffffff\n      and\n        /* \"contracts/PausedToken.sol\":349:368  msg.sender == owner */\n      0xffffffffffffffffffffffffffffffffffffffff\n      and\n        /* \"contracts/PausedToken.sol\":349:359  msg.sender */\n      caller\n        /* \"contracts/PausedToken.sol\":349:368  msg.sender == owner */\n      0xffffffffffffffffffffffffffffffffffffffff\n      and\n      eq\n        /* \"contracts/PausedToken.sol\":341:392  require(msg.sender == owner, \"only owner allowed.\") */\n      tag_27\n      jumpi\n      mload(0x40)\n      0x08c379a000000000000000000000000000000000000000000000000000000000\n      dup2\n      mstore\n      0x04\n      add\n      tag_28\n      swap1\n      tag_29\n      jump\t// in\n    tag_28:\n      mload(0x40)\n      dup1\n      swap2\n      sub\n      swap1\n      revert\n    tag_27:\n        /* \"contracts/PausedToken.sol\":649:654  false */\n      0x00\n        /* \"contracts/PausedToken.sol\":638:646  isPaused */\n      dup1\n      0x14\n        /* \"contracts/PausedToken.sol\":638:654  isPaused = false */\n      0x0100\n      exp\n      dup2\n      sload\n      dup2\n      0xff\n      mul\n      not\n      and\n      swap1\n      dup4\n      iszero\n      iszero\n      mul\n      or\n      swap1\n      sstore\n      pop\n        /* \"contracts/PausedToken.sol\":589:661  function unpause() public confirmOwner {... */\n      jump\t// out\n        /* \"contracts/PausedToken.sol\":515:583  function pause() public confirmOwner{... */\n    tag_11:\n        /* \"contracts/PausedToken.sol\":363:368  owner */\n      0x00\n      dup1\n      sload\n      swap1\n      0x0100\n      exp\n      swap1\n      div\n      0xffffffffffffffffffffffffffffffffffffffff\n      and\n        /* \"contracts/PausedToken.sol\":349:368  msg.sender == owner */\n      0xffffffffffffffffffffffffffffffffffffffff\n      and\n        /* \"contracts/PausedToken.sol\":349:359  msg.sender */\n      caller\n        /* \"contracts/PausedToken.sol\":349:368  msg.sender == owner */\n      0xffffffffffffffffffffffffffffffffffffffff\n      and\n      eq\n        /* \"contracts/PausedToken.sol\":341:392  require(msg.sender == owner, \"only owner allowed.\") */\n      tag_32\n      jumpi\n      mload(0x40)\n      0x08c379a000000000000000000000000000000000000000000000000000000000\n      dup2\n      mstore\n      0x04\n      add\n      tag_33\n      swap1\n      tag_29\n      jump\t// in\n    tag_33:\n      mload(0x40)\n      dup1\n      swap2\n      sub\n      swap1\n      revert\n    tag_32:\n        /* \"contracts/PausedToken.sol\":572:576  true */\n      0x01\n        /* \"contracts/PausedToken.sol\":561:569  isPaused */\n      0x00\n      0x14\n        /* \"contracts/PausedToken.sol\":561:576  isPaused = true */\n      0x0100\n      exp\n      dup2\n      sload\n      dup2\n      0xff\n      mul\n      not\n      and\n      swap1\n      dup4\n      iszero\n      iszero\n      mul\n      or\n      swap1\n      sstore\n      pop\n        /* \"contracts/PausedToken.sol\":515:583  function pause() public confirmOwner{... */\n      jump\t// out\n        /* \"contracts/PausedToken.sol\":667:881  function transfer(address to, uint amount) public confirmPause {... */\n    tag_15:\n        /* \"contracts/PausedToken.sol\":469:474  false */\n      0x00\n        /* \"contracts/PausedToken.sol\":457:474  isPaused == false */\n      iszero\n      iszero\n        /* \"contracts/PausedToken.sol\":457:465  isPaused */\n      0x00\n      0x14\n      swap1\n      sload\n      swap1\n      0x0100\n      exp\n      swap1\n      div\n      0xff\n      and\n        /* \"contracts/PausedToken.sol\":457:474  isPaused == false */\n      iszero\n      iszero\n      eq\n        /* \"contracts/PausedToken.sol\":449:491  require(isPaused == false, \"it is paused\") */\n      tag_36\n      jumpi\n      mload(0x40)\n      0x08c379a000000000000000000000000000000000000000000000000000000000\n      dup2\n      mstore\n      0x04\n      add\n      tag_37\n      swap1\n      tag_38\n      jump\t// in\n    tag_37:\n      mload(0x40)\n      dup1\n      swap2\n      sub\n      swap1\n      revert\n    tag_36:\n        /* \"contracts/PausedToken.sol\":758:766  balances */\n      0x01\n        /* \"contracts/PausedToken.sol\":758:778  balances[msg.sender] */\n      0x00\n        /* \"contracts/PausedToken.sol\":767:777  msg.sender */\n      caller\n        /* \"contracts/PausedToken.sol\":758:778  balances[msg.sender] */\n      0xffffffffffffffffffffffffffffffffffffffff\n      and\n      0xffffffffffffffffffffffffffffffffffffffff\n      and\n      dup2\n      mstore\n      0x20\n      add\n      swap1\n      dup2\n      mstore\n      0x20\n      add\n      0x00\n      keccak256\n      sload\n        /* \"contracts/PausedToken.sol\":748:754  amount */\n      dup2\n        /* \"contracts/PausedToken.sol\":748:778  amount <= balances[msg.sender] */\n      gt\n      iszero\n        /* \"contracts/PausedToken.sol\":740:802  require(amount <= balances[msg.sender], \"Insufficient amount\") */\n      tag_40\n      jumpi\n      mload(0x40)\n      0x08c379a000000000000000000000000000000000000000000000000000000000\n      dup2\n      mstore\n      0x04\n      add\n      tag_41\n      swap1\n      tag_42\n      jump\t// in\n    tag_41:\n      mload(0x40)\n      dup1\n      swap2\n      sub\n      swap1\n      revert\n    tag_40:\n        /* \"contracts/PausedToken.sol\":836:842  amount */\n      dup1\n        /* \"contracts/PausedToken.sol\":812:820  balances */\n      0x01\n        /* \"contracts/PausedToken.sol\":812:832  balances[msg.sender] */\n      0x00\n        /* \"contracts/PausedToken.sol\":821:831  msg.sender */\n      caller\n        /* \"contracts/PausedToken.sol\":812:832  balances[msg.sender] */\n      0xffffffffffffffffffffffffffffffffffffffff\n      and\n      0xffffffffffffffffffffffffffffffffffffffff\n      and\n      dup2\n      mstore\n      0x20\n      add\n      swap1\n      dup2\n      mstore\n      0x20\n      add\n      0x00\n      keccak256\n      0x00\n        /* \"contracts/PausedToken.sol\":812:842  balances[msg.sender] -= amount */\n      dup3\n      dup3\n      sload\n      tag_43\n      swap2\n      swap1\n      tag_44\n      jump\t// in\n    tag_43:\n      swap3\n      pop\n      pop\n      dup2\n      swap1\n      sstore\n      pop\n        /* \"contracts/PausedToken.sol\":868:874  amount */\n      dup1\n        /* \"contracts/PausedToken.sol\":852:860  balances */\n      0x01\n        /* \"contracts/PausedToken.sol\":852:864  balances[to] */\n      0x00\n        /* \"contracts/PausedToken.sol\":861:863  to */\n      dup5\n        /* \"contracts/PausedToken.sol\":852:864  balances[to] */\n      0xffffffffffffffffffffffffffffffffffffffff\n      and\n      0xffffffffffffffffffffffffffffffffffffffff\n      and\n      dup2\n      mstore\n      0x20\n      add\n      swap1\n      dup2\n      mstore\n      0x20\n      add\n      0x00\n      keccak256\n      0x00\n        /* \"contracts/PausedToken.sol\":852:874  balances[to] += amount */\n      dup3\n      dup3\n      sload\n      tag_45\n      swap2\n      swap1\n      tag_46\n      jump\t// in\n    tag_45:\n      swap3\n      pop\n      pop\n      dup2\n      swap1\n      sstore\n      pop\n        /* \"contracts/PausedToken.sol\":667:881  function transfer(address to, uint amount) public confirmPause {... */\n      pop\n      pop\n      jump\t// out\n        /* \"contracts/PausedToken.sol\":887:989  function getContractStatus() public view  confirmOwner returns (bool) {... */\n    tag_17:\n        /* \"contracts/PausedToken.sol\":951:955  bool */\n      0x00\n        /* \"contracts/PausedToken.sol\":363:368  owner */\n      dup1\n      0x00\n      swap1\n      sload\n      swap1\n      0x0100\n      exp\n      swap1\n      div\n      0xffffffffffffffffffffffffffffffffffffffff\n      and\n        /* \"contracts/PausedToken.sol\":349:368  msg.sender == owner */\n      0xffffffffffffffffffffffffffffffffffffffff\n      and\n        /* \"contracts/PausedToken.sol\":349:359  msg.sender */\n      caller\n        /* \"contracts/PausedToken.sol\":349:368  msg.sender == owner */\n      0xffffffffffffffffffffffffffffffffffffffff\n      and\n      eq\n        /* \"contracts/PausedToken.sol\":341:392  require(msg.sender == owner, \"only owner allowed.\") */\n      tag_48\n      jumpi\n      mload(0x40)\n      0x08c379a000000000000000000000000000000000000000000000000000000000\n      dup2\n      mstore\n      0x04\n      add\n      tag_49\n      swap1\n      tag_29\n      jump\t// in\n    tag_49:\n      mload(0x40)\n      dup1\n      swap2\n      sub\n      swap1\n      revert\n    tag_48:\n        /* \"contracts/PausedToken.sol\":974:982  isPaused */\n      0x00\n      0x14\n      swap1\n      sload\n      swap1\n      0x0100\n      exp\n      swap1\n      div\n      0xff\n      and\n        /* \"contracts/PausedToken.sol\":967:982  return isPaused */\n      swap1\n      pop\n        /* \"contracts/PausedToken.sol\":887:989  function getContractStatus() public view  confirmOwner returns (bool) {... */\n      swap1\n      jump\t// out\n        /* \"contracts/PausedToken.sol\":995:1093  function getbalace(address addr) public view  returns (uint){... */\n    tag_23:\n        /* \"contracts/PausedToken.sol\":1050:1054  uint */\n      0x00\n        /* \"contracts/PausedToken.sol\":1072:1080  balances */\n      0x01\n        /* \"contracts/PausedToken.sol\":1072:1086  balances[addr] */\n      0x00\n        /* \"contracts/PausedToken.sol\":1081:1085  addr */\n      dup4\n        /* \"contracts/PausedToken.sol\":1072:1086  balances[addr] */\n      0xffffffffffffffffffffffffffffffffffffffff\n      and\n      0xffffffffffffffffffffffffffffffffffffffff\n      and\n      dup2\n      mstore\n      0x20\n      add\n      swap1\n      dup2\n      mstore\n      0x20\n      add\n      0x00\n      keccak256\n      sload\n        /* \"contracts/PausedToken.sol\":1065:1086  return balances[addr] */\n      swap1\n      pop\n        /* \"contracts/PausedToken.sol\":995:1093  function getbalace(address addr) public view  returns (uint){... */\n      swap2\n      swap1\n      pop\n      jump\t// out\n        /* \"#utility.yul\":88:205   */\n    tag_53:\n        /* \"#utility.yul\":197:198   */\n      0x00\n        /* \"#utility.yul\":194:195   */\n      dup1\n        /* \"#utility.yul\":187:199   */\n      revert\n        /* \"#utility.yul\":334:460   */\n    tag_55:\n        /* \"#utility.yul\":371:378   */\n      0x00\n        /* \"#utility.yul\":411:453   */\n      0xffffffffffffffffffffffffffffffffffffffff\n        /* \"#utility.yul\":404:409   */\n      dup3\n        /* \"#utility.yul\":400:454   */\n      and\n        /* \"#utility.yul\":389:454   */\n      swap1\n      pop\n        /* \"#utility.yul\":334:460   */\n      swap2\n      swap1\n      pop\n      jump\t// out\n        /* \"#utility.yul\":466:562   */\n    tag_56:\n        /* \"#utility.yul\":503:510   */\n      0x00\n        /* \"#utility.yul\":532:556   */\n      tag_79\n        /* \"#utility.yul\":550:555   */\n      dup3\n        /* \"#utility.yul\":532:556   */\n      tag_55\n      jump\t// in\n    tag_79:\n        /* \"#utility.yul\":521:556   */\n      swap1\n      pop\n        /* \"#utility.yul\":466:562   */\n      swap2\n      swap1\n      pop\n      jump\t// out\n        /* \"#utility.yul\":568:690   */\n    tag_57:\n        /* \"#utility.yul\":641:665   */\n      tag_81\n        /* \"#utility.yul\":659:664   */\n      dup2\n        /* \"#utility.yul\":641:665   */\n      tag_56\n      jump\t// in\n    tag_81:\n        /* \"#utility.yul\":634:639   */\n      dup2\n        /* \"#utility.yul\":631:666   */\n      eq\n        /* \"#utility.yul\":621:684   */\n      tag_82\n      jumpi\n        /* \"#utility.yul\":680:681   */\n      0x00\n        /* \"#utility.yul\":677:678   */\n      dup1\n        /* \"#utility.yul\":670:682   */\n      revert\n        /* \"#utility.yul\":621:684   */\n    tag_82:\n        /* \"#utility.yul\":568:690   */\n      pop\n      jump\t// out\n        /* \"#utility.yul\":696:835   */\n    tag_58:\n        /* \"#utility.yul\":742:747   */\n      0x00\n        /* \"#utility.yul\":780:786   */\n      dup2\n        /* \"#utility.yul\":767:787   */\n      calldataload\n        /* \"#utility.yul\":758:787   */\n      swap1\n      pop\n        /* \"#utility.yul\":796:829   */\n      tag_84\n        /* \"#utility.yul\":823:828   */\n      dup2\n        /* \"#utility.yul\":796:829   */\n      tag_57\n      jump\t// in\n    tag_84:\n        /* \"#utility.yul\":696:835   */\n      swap3\n      swap2\n      pop\n      pop\n      jump\t// out\n        /* \"#utility.yul\":841:918   */\n    tag_59:\n        /* \"#utility.yul\":878:885   */\n      0x00\n        /* \"#utility.yul\":907:912   */\n      dup2\n        /* \"#utility.yul\":896:912   */\n      swap1\n      pop\n        /* \"#utility.yul\":841:918   */\n      swap2\n      swap1\n      pop\n      jump\t// out\n        /* \"#utility.yul\":924:1046   */\n    tag_60:\n        /* \"#utility.yul\":997:1021   */\n      tag_87\n        /* \"#utility.yul\":1015:1020   */\n      dup2\n        /* \"#utility.yul\":997:1021   */\n      tag_59\n      jump\t// in\n    tag_87:\n        /* \"#utility.yul\":990:995   */\n      dup2\n        /* \"#utility.yul\":987:1022   */\n      eq\n        /* \"#utility.yul\":977:1040   */\n      tag_88\n      jumpi\n        /* \"#utility.yul\":1036:1037   */\n      0x00\n        /* \"#utility.yul\":1033:1034   */\n      dup1\n        /* \"#utility.yul\":1026:1038   */\n      revert\n        /* \"#utility.yul\":977:1040   */\n    tag_88:\n        /* \"#utility.yul\":924:1046   */\n      pop\n      jump\t// out\n        /* \"#utility.yul\":1052:1191   */\n    tag_61:\n        /* \"#utility.yul\":1098:1103   */\n      0x00\n        /* \"#utility.yul\":1136:1142   */\n      dup2\n        /* \"#utility.yul\":1123:1143   */\n      calldataload\n        /* \"#utility.yul\":1114:1143   */\n      swap1\n      pop\n        /* \"#utility.yul\":1152:1185   */\n      tag_90\n        /* \"#utility.yul\":1179:1184   */\n      dup2\n        /* \"#utility.yul\":1152:1185   */\n      tag_60\n      jump\t// in\n    tag_90:\n        /* \"#utility.yul\":1052:1191   */\n      swap3\n      swap2\n      pop\n      pop\n      jump\t// out\n        /* \"#utility.yul\":1197:1671   */\n    tag_14:\n        /* \"#utility.yul\":1265:1271   */\n      0x00\n        /* \"#utility.yul\":1273:1279   */\n      dup1\n        /* \"#utility.yul\":1322:1324   */\n      0x40\n        /* \"#utility.yul\":1310:1319   */\n      dup4\n        /* \"#utility.yul\":1301:1308   */\n      dup6\n        /* \"#utility.yul\":1297:1320   */\n      sub\n        /* \"#utility.yul\":1293:1325   */\n      slt\n        /* \"#utility.yul\":1290:1409   */\n      iszero\n      tag_92\n      jumpi\n        /* \"#utility.yul\":1328:1407   */\n      tag_93\n      tag_53\n      jump\t// in\n    tag_93:\n        /* \"#utility.yul\":1290:1409   */\n    tag_92:\n        /* \"#utility.yul\":1448:1449   */\n      0x00\n        /* \"#utility.yul\":1473:1526   */\n      tag_94\n        /* \"#utility.yul\":1518:1525   */\n      dup6\n        /* \"#utility.yul\":1509:1515   */\n      dup3\n        /* \"#utility.yul\":1498:1507   */\n      dup7\n        /* \"#utility.yul\":1494:1516   */\n      add\n        /* \"#utility.yul\":1473:1526   */\n      tag_58\n      jump\t// in\n    tag_94:\n        /* \"#utility.yul\":1463:1526   */\n      swap3\n      pop\n        /* \"#utility.yul\":1419:1536   */\n      pop\n        /* \"#utility.yul\":1575:1577   */\n      0x20\n        /* \"#utility.yul\":1601:1654   */\n      tag_95\n        /* \"#utility.yul\":1646:1653   */\n      dup6\n        /* \"#utility.yul\":1637:1643   */\n      dup3\n        /* \"#utility.yul\":1626:1635   */\n      dup7\n        /* \"#utility.yul\":1622:1644   */\n      add\n        /* \"#utility.yul\":1601:1654   */\n      tag_61\n      jump\t// in\n    tag_95:\n        /* \"#utility.yul\":1591:1654   */\n      swap2\n      pop\n        /* \"#utility.yul\":1546:1664   */\n      pop\n        /* \"#utility.yul\":1197:1671   */\n      swap3\n      pop\n      swap3\n      swap1\n      pop\n      jump\t// out\n        /* \"#utility.yul\":1677:1767   */\n    tag_62:\n        /* \"#utility.yul\":1711:1718   */\n      0x00\n        /* \"#utility.yul\":1754:1759   */\n      dup2\n        /* \"#utility.yul\":1747:1760   */\n      iszero\n        /* \"#utility.yul\":1740:1761   */\n      iszero\n        /* \"#utility.yul\":1729:1761   */\n      swap1\n      pop\n        /* \"#utility.yul\":1677:1767   */\n      swap2\n      swap1\n      pop\n      jump\t// out\n        /* \"#utility.yul\":1773:1882   */\n    tag_63:\n        /* \"#utility.yul\":1854:1875   */\n      tag_98\n        /* \"#utility.yul\":1869:1874   */\n      dup2\n        /* \"#utility.yul\":1854:1875   */\n      tag_62\n      jump\t// in\n    tag_98:\n        /* \"#utility.yul\":1849:1852   */\n      dup3\n        /* \"#utility.yul\":1842:1876   */\n      mstore\n        /* \"#utility.yul\":1773:1882   */\n      pop\n      pop\n      jump\t// out\n        /* \"#utility.yul\":1888:2098   */\n    tag_19:\n        /* \"#utility.yul\":1975:1979   */\n      0x00\n        /* \"#utility.yul\":2013:2015   */\n      0x20\n        /* \"#utility.yul\":2002:2011   */\n      dup3\n        /* \"#utility.yul\":1998:2016   */\n      add\n        /* \"#utility.yul\":1990:2016   */\n      swap1\n      pop\n        /* \"#utility.yul\":2026:2091   */\n      tag_100\n        /* \"#utility.yul\":2088:2089   */\n      0x00\n        /* \"#utility.yul\":2077:2086   */\n      dup4\n        /* \"#utility.yul\":2073:2090   */\n      add\n        /* \"#utility.yul\":2064:2070   */\n      dup5\n        /* \"#utility.yul\":2026:2091   */\n      tag_63\n      jump\t// in\n    tag_100:\n        /* \"#utility.yul\":1888:2098   */\n      swap3\n      swap2\n      pop\n      pop\n      jump\t// out\n        /* \"#utility.yul\":2104:2433   */\n    tag_22:\n        /* \"#utility.yul\":2163:2169   */\n      0x00\n        /* \"#utility.yul\":2212:2214   */\n      0x20\n        /* \"#utility.yul\":2200:2209   */\n      dup3\n        /* \"#utility.yul\":2191:2198   */\n      dup5\n        /* \"#utility.yul\":2187:2210   */\n      sub\n        /* \"#utility.yul\":2183:2215   */\n      slt\n        /* \"#utility.yul\":2180:2299   */\n      iszero\n      tag_102\n      jumpi\n        /* \"#utility.yul\":2218:2297   */\n      tag_103\n      tag_53\n      jump\t// in\n    tag_103:\n        /* \"#utility.yul\":2180:2299   */\n    tag_102:\n        /* \"#utility.yul\":2338:2339   */\n      0x00\n        /* \"#utility.yul\":2363:2416   */\n      tag_104\n        /* \"#utility.yul\":2408:2415   */\n      dup5\n        /* \"#utility.yul\":2399:2405   */\n      dup3\n        /* \"#utility.yul\":2388:2397   */\n      dup6\n        /* \"#utility.yul\":2384:2406   */\n      add\n        /* \"#utility.yul\":2363:2416   */\n      tag_58\n      jump\t// in\n    tag_104:\n        /* \"#utility.yul\":2353:2416   */\n      swap2\n      pop\n        /* \"#utility.yul\":2309:2426   */\n      pop\n        /* \"#utility.yul\":2104:2433   */\n      swap3\n      swap2\n      pop\n      pop\n      jump\t// out\n        /* \"#utility.yul\":2439:2557   */\n    tag_64:\n        /* \"#utility.yul\":2526:2550   */\n      tag_106\n        /* \"#utility.yul\":2544:2549   */\n      dup2\n        /* \"#utility.yul\":2526:2550   */\n      tag_59\n      jump\t// in\n    tag_106:\n        /* \"#utility.yul\":2521:2524   */\n      dup3\n        /* \"#utility.yul\":2514:2551   */\n      mstore\n        /* \"#utility.yul\":2439:2557   */\n      pop\n      pop\n      jump\t// out\n        /* \"#utility.yul\":2563:2785   */\n    tag_25:\n        /* \"#utility.yul\":2656:2660   */\n      0x00\n        /* \"#utility.yul\":2694:2696   */\n      0x20\n        /* \"#utility.yul\":2683:2692   */\n      dup3\n        /* \"#utility.yul\":2679:2697   */\n      add\n        /* \"#utility.yul\":2671:2697   */\n      swap1\n      pop\n        /* \"#utility.yul\":2707:2778   */\n      tag_108\n        /* \"#utility.yul\":2775:2776   */\n      0x00\n        /* \"#utility.yul\":2764:2773   */\n      dup4\n        /* \"#utility.yul\":2760:2777   */\n      add\n        /* \"#utility.yul\":2751:2757   */\n      dup5\n        /* \"#utility.yul\":2707:2778   */\n      tag_64\n      jump\t// in\n    tag_108:\n        /* \"#utility.yul\":2563:2785   */\n      swap3\n      swap2\n      pop\n      pop\n      jump\t// out\n        /* \"#utility.yul\":2791:2960   */\n    tag_65:\n        /* \"#utility.yul\":2875:2886   */\n      0x00\n        /* \"#utility.yul\":2909:2915   */\n      dup3\n        /* \"#utility.yul\":2904:2907   */\n      dup3\n        /* \"#utility.yul\":2897:2916   */\n      mstore\n        /* \"#utility.yul\":2949:2953   */\n      0x20\n        /* \"#utility.yul\":2944:2947   */\n      dup3\n        /* \"#utility.yul\":2940:2954   */\n      add\n        /* \"#utility.yul\":2925:2954   */\n      swap1\n      pop\n        /* \"#utility.yul\":2791:2960   */\n      swap3\n      swap2\n      pop\n      pop\n      jump\t// out\n        /* \"#utility.yul\":2966:3135   */\n    tag_66:\n        /* \"#utility.yul\":3106:3127   */\n      0x6f6e6c79206f776e657220616c6c6f7765642e00000000000000000000000000\n        /* \"#utility.yul\":3102:3103   */\n      0x00\n        /* \"#utility.yul\":3094:3100   */\n      dup3\n        /* \"#utility.yul\":3090:3104   */\n      add\n        /* \"#utility.yul\":3083:3128   */\n      mstore\n        /* \"#utility.yul\":2966:3135   */\n      pop\n      jump\t// out\n        /* \"#utility.yul\":3141:3507   */\n    tag_67:\n        /* \"#utility.yul\":3283:3286   */\n      0x00\n        /* \"#utility.yul\":3304:3371   */\n      tag_112\n        /* \"#utility.yul\":3368:3370   */\n      0x13\n        /* \"#utility.yul\":3363:3366   */\n      dup4\n        /* \"#utility.yul\":3304:3371   */\n      tag_65\n      jump\t// in\n    tag_112:\n        /* \"#utility.yul\":3297:3371   */\n      swap2\n      pop\n        /* \"#utility.yul\":3380:3473   */\n      tag_113\n        /* \"#utility.yul\":3469:3472   */\n      dup3\n        /* \"#utility.yul\":3380:3473   */\n      tag_66\n      jump\t// in\n    tag_113:\n        /* \"#utility.yul\":3498:3500   */\n      0x20\n        /* \"#utility.yul\":3493:3496   */\n      dup3\n        /* \"#utility.yul\":3489:3501   */\n      add\n        /* \"#utility.yul\":3482:3501   */\n      swap1\n      pop\n        /* \"#utility.yul\":3141:3507   */\n      swap2\n      swap1\n      pop\n      jump\t// out\n        /* \"#utility.yul\":3513:3932   */\n    tag_29:\n        /* \"#utility.yul\":3679:3683   */\n      0x00\n        /* \"#utility.yul\":3717:3719   */\n      0x20\n        /* \"#utility.yul\":3706:3715   */\n      dup3\n        /* \"#utility.yul\":3702:3720   */\n      add\n        /* \"#utility.yul\":3694:3720   */\n      swap1\n      pop\n        /* \"#utility.yul\":3766:3775   */\n      dup2\n        /* \"#utility.yul\":3760:3764   */\n      dup2\n        /* \"#utility.yul\":3756:3776   */\n      sub\n        /* \"#utility.yul\":3752:3753   */\n      0x00\n        /* \"#utility.yul\":3741:3750   */\n      dup4\n        /* \"#utility.yul\":3737:3754   */\n      add\n        /* \"#utility.yul\":3730:3777   */\n      mstore\n        /* \"#utility.yul\":3794:3925   */\n      tag_115\n        /* \"#utility.yul\":3920:3924   */\n      dup2\n        /* \"#utility.yul\":3794:3925   */\n      tag_67\n      jump\t// in\n    tag_115:\n        /* \"#utility.yul\":3786:3925   */\n      swap1\n      pop\n        /* \"#utility.yul\":3513:3932   */\n      swap2\n      swap1\n      pop\n      jump\t// out\n        /* \"#utility.yul\":3938:4100   */\n    tag_68:\n        /* \"#utility.yul\":4078:4092   */\n      0x6974206973207061757365640000000000000000000000000000000000000000\n        /* \"#utility.yul\":4074:4075   */\n      0x00\n        /* \"#utility.yul\":4066:4072   */\n      dup3\n        /* \"#utility.yul\":4062:4076   */\n      add\n        /* \"#utility.yul\":4055:4093   */\n      mstore\n        /* \"#utility.yul\":3938:4100   */\n      pop\n      jump\t// out\n        /* \"#utility.yul\":4106:4472   */\n    tag_69:\n        /* \"#utility.yul\":4248:4251   */\n      0x00\n        /* \"#utility.yul\":4269:4336   */\n      tag_118\n        /* \"#utility.yul\":4333:4335   */\n      0x0c\n        /* \"#utility.yul\":4328:4331   */\n      dup4\n        /* \"#utility.yul\":4269:4336   */\n      tag_65\n      jump\t// in\n    tag_118:\n        /* \"#utility.yul\":4262:4336   */\n      swap2\n      pop\n        /* \"#utility.yul\":4345:4438   */\n      tag_119\n        /* \"#utility.yul\":4434:4437   */\n      dup3\n        /* \"#utility.yul\":4345:4438   */\n      tag_68\n      jump\t// in\n    tag_119:\n        /* \"#utility.yul\":4463:4465   */\n      0x20\n        /* \"#utility.yul\":4458:4461   */\n      dup3\n        /* \"#utility.yul\":4454:4466   */\n      add\n        /* \"#utility.yul\":4447:4466   */\n      swap1\n      pop\n        /* \"#utility.yul\":4106:4472   */\n      swap2\n      swap1\n      pop\n      jump\t// out\n        /* \"#utility.yul\":4478:4897   */\n    tag_38:\n        /* \"#utility.yul\":4644:4648   */\n      0x00\n        /* \"#utility.yul\":4682:4684   */\n      0x20\n        /* \"#utility.yul\":4671:4680   */\n      dup3\n        /* \"#utility.yul\":4667:4685   */\n      add\n        /* \"#utility.yul\":4659:4685   */\n      swap1\n      pop\n        /* \"#utility.yul\":4731:4740   */\n      dup2\n        /* \"#utility.yul\":4725:4729   */\n      dup2\n        /* \"#utility.yul\":4721:4741   */\n      sub\n        /* \"#utility.yul\":4717:4718   */\n      0x00\n        /* \"#utility.yul\":4706:4715   */\n      dup4\n        /* \"#utility.yul\":4702:4719   */\n      add\n        /* \"#utility.yul\":4695:4742   */\n      mstore\n        /* \"#utility.yul\":4759:4890   */\n      tag_121\n        /* \"#utility.yul\":4885:4889   */\n      dup2\n        /* \"#utility.yul\":4759:4890   */\n      tag_69\n      jump\t// in\n    tag_121:\n        /* \"#utility.yul\":4751:4890   */\n      swap1\n      pop\n        /* \"#utility.yul\":4478:4897   */\n      swap2\n      swap1\n      pop\n      jump\t// out\n        /* \"#utility.yul\":4903:5072   */\n    tag_70:\n        /* \"#utility.yul\":5043:5064   */\n      0x496e73756666696369656e7420616d6f756e7400000000000000000000000000\n        /* \"#utility.yul\":5039:5040   */\n      0x00\n        /* \"#utility.yul\":5031:5037   */\n      dup3\n        /* \"#utility.yul\":5027:5041   */\n      add\n        /* \"#utility.yul\":5020:5065   */\n      mstore\n        /* \"#utility.yul\":4903:5072   */\n      pop\n      jump\t// out\n        /* \"#utility.yul\":5078:5444   */\n    tag_71:\n        /* \"#utility.yul\":5220:5223   */\n      0x00\n        /* \"#utility.yul\":5241:5308   */\n      tag_124\n        /* \"#utility.yul\":5305:5307   */\n      0x13\n        /* \"#utility.yul\":5300:5303   */\n      dup4\n        /* \"#utility.yul\":5241:5308   */\n      tag_65\n      jump\t// in\n    tag_124:\n        /* \"#utility.yul\":5234:5308   */\n      swap2\n      pop\n        /* \"#utility.yul\":5317:5410   */\n      tag_125\n        /* \"#utility.yul\":5406:5409   */\n      dup3\n        /* \"#utility.yul\":5317:5410   */\n      tag_70\n      jump\t// in\n    tag_125:\n        /* \"#utility.yul\":5435:5437   */\n      0x20\n        /* \"#utility.yul\":5430:5433   */\n      dup3\n        /* \"#utility.yul\":5426:5438   */\n      add\n        /* \"#utility.yul\":5419:5438   */\n      swap1\n      pop\n        /* \"#utility.yul\":5078:5444   */\n      swap2\n      swap1\n      pop\n      jump\t// out\n        /* \"#utility.yul\":5450:5869   */\n    tag_42:\n        /* \"#utility.yul\":5616:5620   */\n      0x00\n        /* \"#utility.yul\":5654:5656   */\n      0x20\n        /* \"#utility.yul\":5643:5652   */\n      dup3\n        /* \"#utility.yul\":5639:5657   */\n      add\n        /* \"#utility.yul\":5631:5657   */\n      swap1\n      pop\n        /* \"#utility.yul\":5703:5712   */\n      dup2\n        /* \"#utility.yul\":5697:5701   */\n      dup2\n        /* \"#utility.yul\":5693:5713   */\n      sub\n        /* \"#utility.yul\":5689:5690   */\n      0x00\n        /* \"#utility.yul\":5678:5687   */\n      dup4\n        /* \"#utility.yul\":5674:5691   */\n      add\n        /* \"#utility.yul\":5667:5714   */\n      mstore\n        /* \"#utility.yul\":5731:5862   */\n      tag_127\n        /* \"#utility.yul\":5857:5861   */\n      dup2\n        /* \"#utility.yul\":5731:5862   */\n      tag_71\n      jump\t// in\n    tag_127:\n        /* \"#utility.yul\":5723:5862   */\n      swap1\n      pop\n        /* \"#utility.yul\":5450:5869   */\n      swap2\n      swap1\n      pop\n      jump\t// out\n        /* \"#utility.yul\":5875:6055   */\n    tag_72:\n        /* \"#utility.yul\":5923:6000   */\n      0x4e487b7100000000000000000000000000000000000000000000000000000000\n        /* \"#utility.yul\":5920:5921   */\n      0x00\n        /* \"#utility.yul\":5913:6001   */\n      mstore\n        /* \"#utility.yul\":6020:6024   */\n      0x11\n        /* \"#utility.yul\":6017:6018   */\n      0x04\n        /* \"#utility.yul\":6010:6025   */\n      mstore\n        /* \"#utility.yul\":6044:6048   */\n      0x24\n        /* \"#utility.yul\":6041:6042   */\n      0x00\n        /* \"#utility.yul\":6034:6049   */\n      revert\n        /* \"#utility.yul\":6061:6255   */\n    tag_44:\n        /* \"#utility.yul\":6101:6105   */\n      0x00\n        /* \"#utility.yul\":6121:6141   */\n      tag_130\n        /* \"#utility.yul\":6139:6140   */\n      dup3\n        /* \"#utility.yul\":6121:6141   */\n      tag_59\n      jump\t// in\n    tag_130:\n        /* \"#utility.yul\":6116:6141   */\n      swap2\n      pop\n        /* \"#utility.yul\":6155:6175   */\n      tag_131\n        /* \"#utility.yul\":6173:6174   */\n      dup4\n        /* \"#utility.yul\":6155:6175   */\n      tag_59\n      jump\t// in\n    tag_131:\n        /* \"#utility.yul\":6150:6175   */\n      swap3\n      pop\n        /* \"#utility.yul\":6199:6200   */\n      dup3\n        /* \"#utility.yul\":6196:6197   */\n      dup3\n        /* \"#utility.yul\":6192:6201   */\n      sub\n        /* \"#utility.yul\":6184:6201   */\n      swap1\n      pop\n        /* \"#utility.yul\":6223:6224   */\n      dup2\n        /* \"#utility.yul\":6217:6221   */\n      dup2\n        /* \"#utility.yul\":6214:6225   */\n      gt\n        /* \"#utility.yul\":6211:6248   */\n      iszero\n      tag_132\n      jumpi\n        /* \"#utility.yul\":6228:6246   */\n      tag_133\n      tag_72\n      jump\t// in\n    tag_133:\n        /* \"#utility.yul\":6211:6248   */\n    tag_132:\n        /* \"#utility.yul\":6061:6255   */\n      swap3\n      swap2\n      pop\n      pop\n      jump\t// out\n        /* \"#utility.yul\":6261:6452   */\n    tag_46:\n        /* \"#utility.yul\":6301:6304   */\n      0x00\n        /* \"#utility.yul\":6320:6340   */\n      tag_135\n        /* \"#utility.yul\":6338:6339   */\n      dup3\n        /* \"#utility.yul\":6320:6340   */\n      tag_59\n      jump\t// in\n    tag_135:\n        /* \"#utility.yul\":6315:6340   */\n      swap2\n      pop\n        /* \"#utility.yul\":6354:6374   */\n      tag_136\n        /* \"#utility.yul\":6372:6373   */\n      dup4\n        /* \"#utility.yul\":6354:6374   */\n      tag_59\n      jump\t// in\n    tag_136:\n        /* \"#utility.yul\":6349:6374   */\n      swap3\n      pop\n        /* \"#utility.yul\":6397:6398   */\n      dup3\n        /* \"#utility.yul\":6394:6395   */\n      dup3\n        /* \"#utility.yul\":6390:6399   */\n      add\n        /* \"#utility.yul\":6383:6399   */\n      swap1\n      pop\n        /* \"#utility.yul\":6418:6421   */\n      dup1\n        /* \"#utility.yul\":6415:6416   */\n      dup3\n        /* \"#utility.yul\":6412:6422   */\n      gt\n        /* \"#utility.yul\":6409:6445   */\n      iszero\n      tag_137\n      jumpi\n        /* \"#utility.yul\":6425:6443   */\n      tag_138\n      tag_72\n      jump\t// in\n    tag_138:\n        /* \"#utility.yul\":6409:6445   */\n    tag_137:\n        /* \"#utility.yul\":6261:6452   */\n      swap3\n      swap2\n      pop\n      pop\n      jump\t// out\n\n    auxdata: 0xa264697066735822122072214b3d80e298fd34552877d611fe9ee28c68cea5c831114c4cfd256cdedba464736f6c63430008160033\n}\n",
				"bytecode": {
					"linkReferences": {},
					"object": "608060405234801561000f575f80fd5b50335f806101000a81548173ffffffffffffffffffffffffffffffffffffffff021916908373ffffffffffffffffffffffffffffffffffffffff1602179055505f8060146101000a81548160ff0219169083151502179055506107d060015f805f9054906101000a900473ffffffffffffffffffffffffffffffffffffffff1673ffffffffffffffffffffffffffffffffffffffff1673ffffffffffffffffffffffffffffffffffffffff1681526020019081526020015f20819055506107f5806100d95f395ff3fe608060405234801561000f575f80fd5b5060043610610055575f3560e01c80633f4ba83a146100595780638456cb5914610063578063a9059cbb1461006d578063c032846b14610089578063dace60d2146100a7575b5f80fd5b6100616100d7565b005b61006b61017f565b005b61008760048036038101906100829190610520565b610228565b005b6100916103a6565b60405161009e9190610578565b60405180910390f35b6100c160048036038101906100bc9190610591565b610449565b6040516100ce91906105cb565b60405180910390f35b5f8054906101000a900473ffffffffffffffffffffffffffffffffffffffff1673ffffffffffffffffffffffffffffffffffffffff163373ffffffffffffffffffffffffffffffffffffffff1614610164576040517f08c379a000000000000000000000000000000000000000000000000000000000815260040161015b9061063e565b60405180910390fd5b5f8060146101000a81548160ff021916908315150217905550565b5f8054906101000a900473ffffffffffffffffffffffffffffffffffffffff1673ffffffffffffffffffffffffffffffffffffffff163373ffffffffffffffffffffffffffffffffffffffff161461020c576040517f08c379a00000000000000000000000000000000000000000000000000000000081526004016102039061063e565b60405180910390fd5b60015f60146101000a81548160ff021916908315150217905550565b5f15155f60149054906101000a900460ff1615151461027c576040517f08c379a0000000000000000000000000000000000000000000000000000000008152600401610273906106a6565b60405180910390fd5b60015f3373ffffffffffffffffffffffffffffffffffffffff1673ffffffffffffffffffffffffffffffffffffffff1681526020019081526020015f20548111156102fc576040517f08c379a00000000000000000000000000000000000000000000000000000000081526004016102f39061070e565b60405180910390fd5b8060015f3373ffffffffffffffffffffffffffffffffffffffff1673ffffffffffffffffffffffffffffffffffffffff1681526020019081526020015f205f8282546103489190610759565b925050819055508060015f8473ffffffffffffffffffffffffffffffffffffffff1673ffffffffffffffffffffffffffffffffffffffff1681526020019081526020015f205f82825461039b919061078c565b925050819055505050565b5f805f9054906101000a900473ffffffffffffffffffffffffffffffffffffffff1673ffffffffffffffffffffffffffffffffffffffff163373ffffffffffffffffffffffffffffffffffffffff1614610435576040517f08c379a000000000000000000000000000000000000000000000000000000000815260040161042c9061063e565b60405180910390fd5b5f60149054906101000a900460ff16905090565b5f60015f8373ffffffffffffffffffffffffffffffffffffffff1673ffffffffffffffffffffffffffffffffffffffff1681526020019081526020015f20549050919050565b5f80fd5b5f73ffffffffffffffffffffffffffffffffffffffff82169050919050565b5f6104bc82610493565b9050919050565b6104cc816104b2565b81146104d6575f80fd5b50565b5f813590506104e7816104c3565b92915050565b5f819050919050565b6104ff816104ed565b8114610509575f80fd5b50565b5f8135905061051a816104f6565b92915050565b5f80604083850312156105365761053561048f565b5b5f610543858286016104d9565b92505060206105548582860161050c565b9150509250929050565b5f8115159050919050565b6105728161055e565b82525050565b5f60208201905061058b5f830184610569565b92915050565b5f602082840312156105a6576105a561048f565b5b5f6105b3848285016104d9565b91505092915050565b6105c5816104ed565b82525050565b5f6020820190506105de5f8301846105bc565b92915050565b5f82825260208201905092915050565b7f6f6e6c79206f776e657220616c6c6f7765642e000000000000000000000000005f82015250565b5f6106286013836105e4565b9150610633826105f4565b602082019050919050565b5f6020820190508181035f8301526106558161061c565b9050919050565b7f69742069732070617573656400000000000000000000000000000000000000005f82015250565b5f610690600c836105e4565b915061069b8261065c565b602082019050919050565b5f6020820190508181035f8301526106bd81610684565b9050919050565b7f496e73756666696369656e7420616d6f756e74000000000000000000000000005f82015250565b5f6106f86013836105e4565b9150610703826106c4565b602082019050919050565b5f6020820190508181035f830152610725816106ec565b9050919050565b7f4e487b71000000000000000000000000000000000000000000000000000000005f52601160045260245ffd5b5f610763826104ed565b915061076e836104ed565b92508282039050818111156107865761078561072c565b5b92915050565b5f610796826104ed565b91506107a1836104ed565b92508282019050808211156107b9576107b861072c565b5b9291505056fea264697066735822122072214b3d80e298fd34552877d611fe9ee28c68cea5c831114c4cfd256cdedba464736f6c63430008160033",
					"opcodes": "PUSH1 0x80 PUSH1 0x40 MSTORE CALLVALUE DUP1 ISZERO PUSH2 0xF JUMPI PUSH0 DUP1 REVERT JUMPDEST POP CALLER PUSH0 DUP1 PUSH2 0x100 EXP DUP2 SLOAD DUP2 PUSH20 0xFFFFFFFFFFFFFFFFFFFFFFFFFFFFFFFFFFFFFFFF MUL NOT AND SWAP1 DUP4 PUSH20 0xFFFFFFFFFFFFFFFFFFFFFFFFFFFFFFFFFFFFFFFF AND MUL OR SWAP1 SSTORE POP PUSH0 DUP1 PUSH1 0x14 PUSH2 0x100 EXP DUP2 SLOAD DUP2 PUSH1 0xFF MUL NOT AND SWAP1 DUP4 ISZERO ISZERO MUL OR SWAP1 SSTORE POP PUSH2 0x7D0 PUSH1 0x1 PUSH0 DUP1 PUSH0 SWAP1 SLOAD SWAP1 PUSH2 0x100 EXP SWAP1 DIV PUSH20 0xFFFFFFFFFFFFFFFFFFFFFFFFFFFFFFFFFFFFFFFF AND PUSH20 0xFFFFFFFFFFFFFFFFFFFFFFFFFFFFFFFFFFFFFFFF AND PUSH20 0xFFFFFFFFFFFFFFFFFFFFFFFFFFFFFFFFFFFFFFFF AND DUP2 MSTORE PUSH1 0x20 ADD SWAP1 DUP2 MSTORE PUSH1 0x20 ADD PUSH0 KECCAK256 DUP2 SWAP1 SSTORE POP PUSH2 0x7F5 DUP1 PUSH2 0xD9 PUSH0 CODECOPY PUSH0 RETURN INVALID PUSH1 0x80 PUSH1 0x40 MSTORE CALLVALUE DUP1 ISZERO PUSH2 0xF JUMPI PUSH0 DUP1 REVERT JUMPDEST POP PUSH1 0x4 CALLDATASIZE LT PUSH2 0x55 JUMPI PUSH0 CALLDATALOAD PUSH1 0xE0 SHR DUP1 PUSH4 0x3F4BA83A EQ PUSH2 0x59 JUMPI DUP1 PUSH4 0x8456CB59 EQ PUSH2 0x63 JUMPI DUP1 PUSH4 0xA9059CBB EQ PUSH2 0x6D JUMPI DUP1 PUSH4 0xC032846B EQ PUSH2 0x89 JUMPI DUP1 PUSH4 0xDACE60D2 EQ PUSH2 0xA7 JUMPI JUMPDEST PUSH0 DUP1 REVERT JUMPDEST PUSH2 0x61 PUSH2 0xD7 JUMP JUMPDEST STOP JUMPDEST PUSH2 0x6B PUSH2 0x17F JUMP JUMPDEST STOP JUMPDEST PUSH2 0x87 PUSH1 0x4 DUP1 CALLDATASIZE SUB DUP2 ADD SWAP1 PUSH2 0x82 SWAP2 SWAP1 PUSH2 0x520 JUMP JUMPDEST PUSH2 0x228 JUMP JUMPDEST STOP JUMPDEST PUSH2 0x91 PUSH2 0x3A6 JUMP JUMPDEST PUSH1 0x40 MLOAD PUSH2 0x9E SWAP2 SWAP1 PUSH2 0x578 JUMP JUMPDEST PUSH1 0x40 MLOAD DUP1 SWAP2 SUB SWAP1 RETURN JUMPDEST PUSH2 0xC1 PUSH1 0x4 DUP1 CALLDATASIZE SUB DUP2 ADD SWAP1 PUSH2 0xBC SWAP2 SWAP1 PUSH2 0x591 JUMP JUMPDEST PUSH2 0x449 JUMP JUMPDEST PUSH1 0x40 MLOAD PUSH2 0xCE SWAP2 SWAP1 PUSH2 0x5CB JUMP JUMPDEST PUSH1 0x40 MLOAD DUP1 SWAP2 SUB SWAP1 RETURN JUMPDEST PUSH0 DUP1 SLOAD SWAP1 PUSH2 0x100 EXP SWAP1 DIV PUSH20 0xFFFFFFFFFFFFFFFFFFFFFFFFFFFFFFFFFFFFFFFF AND PUSH20 0xFFFFFFFFFFFFFFFFFFFFFFFFFFFFFFFFFFFFFFFF AND CALLER PUSH20 0xFFFFFFFFFFFFFFFFFFFFFFFFFFFFFFFFFFFFFFFF AND EQ PUSH2 0x164 JUMPI PUSH1 0x40 MLOAD PUSH32 0x8C379A000000000000000000000000000000000000000000000000000000000 DUP2 MSTORE PUSH1 0x4 ADD PUSH2 0x15B SWAP1 PUSH2 0x63E JUMP JUMPDEST PUSH1 0x40 MLOAD DUP1 SWAP2 SUB SWAP1 REVERT JUMPDEST PUSH0 DUP1 PUSH1 0x14 PUSH2 0x100 EXP DUP2 SLOAD DUP2 PUSH1 0xFF MUL NOT AND SWAP1 DUP4 ISZERO ISZERO MUL OR SWAP1 SSTORE POP JUMP JUMPDEST PUSH0 DUP1 SLOAD SWAP1 PUSH2 0x100 EXP SWAP1 DIV PUSH20 0xFFFFFFFFFFFFFFFFFFFFFFFFFFFFFFFFFFFFFFFF AND PUSH20 0xFFFFFFFFFFFFFFFFFFFFFFFFFFFFFFFFFFFFFFFF AND CALLER PUSH20 0xFFFFFFFFFFFFFFFFFFFFFFFFFFFFFFFFFFFFFFFF AND EQ PUSH2 0x20C JUMPI PUSH1 0x40 MLOAD PUSH32 0x8C379A000000000000000000000000000000000000000000000000000000000 DUP2 MSTORE PUSH1 0x4 ADD PUSH2 0x203 SWAP1 PUSH2 0x63E JUMP JUMPDEST PUSH1 0x40 MLOAD DUP1 SWAP2 SUB SWAP1 REVERT JUMPDEST PUSH1 0x1 PUSH0 PUSH1 0x14 PUSH2 0x100 EXP DUP2 SLOAD DUP2 PUSH1 0xFF MUL NOT AND SWAP1 DUP4 ISZERO ISZERO MUL OR SWAP1 SSTORE POP JUMP JUMPDEST PUSH0 ISZERO ISZERO PUSH0 PUSH1 0x14 SWAP1 SLOAD SWAP1 PUSH2 0x100 EXP SWAP1 DIV PUSH1 0xFF AND ISZERO ISZERO EQ PUSH2 0x27C JUMPI PUSH1 0x40 MLOAD PUSH32 0x8C379A000000000000000000000000000000000000000000000000000000000 DUP2 MSTORE PUSH1 0x4 ADD PUSH2 0x273 SWAP1 PUSH2 0x6A6 JUMP JUMPDEST PUSH1 0x40 MLOAD DUP1 SWAP2 SUB SWAP1 REVERT JUMPDEST PUSH1 0x1 PUSH0 CALLER PUSH20 0xFFFFFFFFFFFFFFFFFFFFFFFFFFFFFFFFFFFFFFFF AND PUSH20 0xFFFFFFFFFFFFFFFFFFFFFFFFFFFFFFFFFFFFFFFF AND DUP2 MSTORE PUSH1 0x20 ADD SWAP1 DUP2 MSTORE PUSH1 0x20 ADD PUSH0 KECCAK256 SLOAD DUP2 GT ISZERO PUSH2 0x2FC JUMPI PUSH1 0x40 MLOAD PUSH32 0x8C379A000000000000000000000000000000000000000000000000000000000 DUP2 MSTORE PUSH1 0x4 ADD PUSH2 0x2F3 SWAP1 PUSH2 0x70E JUMP JUMPDEST PUSH1 0x40 MLOAD DUP1 SWAP2 SUB SWAP1 REVERT JUMPDEST DUP1 PUSH1 0x1 PUSH0 CALLER PUSH20 0xFFFFFFFFFFFFFFFFFFFFFFFFFFFFFFFFFFFFFFFF AND PUSH20 0xFFFFFFFFFFFFFFFFFFFFFFFFFFFFFFFFFFFFFFFF AND DUP2 MSTORE PUSH1 0x20 ADD SWAP1 DUP2 MSTORE PUSH1 0x20 ADD PUSH0 KECCAK256 PUSH0 DUP3 DUP3 SLOAD PUSH2 0x348 SWAP2 SWAP1 PUSH2 0x759 JUMP JUMPDEST SWAP3 POP POP DUP2 SWAP1 SSTORE POP DUP1 PUSH1 0x1 PUSH0 DUP5 PUSH20 0xFFFFFFFFFFFFFFFFFFFFFFFFFFFFFFFFFFFFFFFF AND PUSH20 0xFFFFFFFFFFFFFFFFFFFFFFFFFFFFFFFFFFFFFFFF AND DUP2 MSTORE PUSH1 0x20 ADD SWAP1 DUP2 MSTORE PUSH1 0x20 ADD PUSH0 KECCAK256 PUSH0 DUP3 DUP3 SLOAD PUSH2 0x39B SWAP2 SWAP1 PUSH2 0x78C JUMP JUMPDEST SWAP3 POP POP DUP2 SWAP1 SSTORE POP POP POP JUMP JUMPDEST PUSH0 DUP1 PUSH0 SWAP1 SLOAD SWAP1 PUSH2 0x100 EXP SWAP1 DIV PUSH20 0xFFFFFFFFFFFFFFFFFFFFFFFFFFFFFFFFFFFFFFFF AND PUSH20 0xFFFFFFFFFFFFFFFFFFFFFFFFFFFFFFFFFFFFFFFF AND CALLER PUSH20 0xFFFFFFFFFFFFFFFFFFFFFFFFFFFFFFFFFFFFFFFF AND EQ PUSH2 0x435 JUMPI PUSH1 0x40 MLOAD PUSH32 0x8C379A000000000000000000000000000000000000000000000000000000000 DUP2 MSTORE PUSH1 0x4 ADD PUSH2 0x42C SWAP1 PUSH2 0x63E JUMP JUMPDEST PUSH1 0x40 MLOAD DUP1 SWAP2 SUB SWAP1 REVERT JUMPDEST PUSH0 PUSH1 0x14 SWAP1 SLOAD SWAP1 PUSH2 0x100 EXP SWAP1 DIV PUSH1 0xFF AND SWAP1 POP SWAP1 JUMP JUMPDEST PUSH0 PUSH1 0x1 PUSH0 DUP4 PUSH20 0xFFFFFFFFFFFFFFFFFFFFFFFFFFFFFFFFFFFFFFFF AND PUSH20 0xFFFFFFFFFFFFFFFFFFFFFFFFFFFFFFFFFFFFFFFF AND DUP2 MSTORE PUSH1 0x20 ADD SWAP1 DUP2 MSTORE PUSH1 0x20 ADD PUSH0 KECCAK256 SLOAD SWAP1 POP SWAP2 SWAP1 POP JUMP JUMPDEST PUSH0 DUP1 REVERT JUMPDEST PUSH0 PUSH20 0xFFFFFFFFFFFFFFFFFFFFFFFFFFFFFFFFFFFFFFFF DUP3 AND SWAP1 POP SWAP2 SWAP1 POP JUMP JUMPDEST PUSH0 PUSH2 0x4BC DUP3 PUSH2 0x493 JUMP JUMPDEST SWAP1 POP SWAP2 SWAP1 POP JUMP JUMPDEST PUSH2 0x4CC DUP2 PUSH2 0x4B2 JUMP JUMPDEST DUP2 EQ PUSH2 0x4D6 JUMPI PUSH0 DUP1 REVERT JUMPDEST POP JUMP JUMPDEST PUSH0 DUP2 CALLDATALOAD SWAP1 POP PUSH2 0x4E7 DUP2 PUSH2 0x4C3 JUMP JUMPDEST SWAP3 SWAP2 POP POP JUMP JUMPDEST PUSH0 DUP2 SWAP1 POP SWAP2 SWAP1 POP JUMP JUMPDEST PUSH2 0x4FF DUP2 PUSH2 0x4ED JUMP JUMPDEST DUP2 EQ PUSH2 0x509 JUMPI PUSH0 DUP1 REVERT JUMPDEST POP JUMP JUMPDEST PUSH0 DUP2 CALLDATALOAD SWAP1 POP PUSH2 0x51A DUP2 PUSH2 0x4F6 JUMP JUMPDEST SWAP3 SWAP2 POP POP JUMP JUMPDEST PUSH0 DUP1 PUSH1 0x40 DUP4 DUP6 SUB SLT ISZERO PUSH2 0x536 JUMPI PUSH2 0x535 PUSH2 0x48F JUMP JUMPDEST JUMPDEST PUSH0 PUSH2 0x543 DUP6 DUP3 DUP7 ADD PUSH2 0x4D9 JUMP JUMPDEST SWAP3 POP POP PUSH1 0x20 PUSH2 0x554 DUP6 DUP3 DUP7 ADD PUSH2 0x50C JUMP JUMPDEST SWAP2 POP POP SWAP3 POP SWAP3 SWAP1 POP JUMP JUMPDEST PUSH0 DUP2 ISZERO ISZERO SWAP1 POP SWAP2 SWAP1 POP JUMP JUMPDEST PUSH2 0x572 DUP2 PUSH2 0x55E JUMP JUMPDEST DUP3 MSTORE POP POP JUMP JUMPDEST PUSH0 PUSH1 0x20 DUP3 ADD SWAP1 POP PUSH2 0x58B PUSH0 DUP4 ADD DUP5 PUSH2 0x569 JUMP JUMPDEST SWAP3 SWAP2 POP POP JUMP JUMPDEST PUSH0 PUSH1 0x20 DUP3 DUP5 SUB SLT ISZERO PUSH2 0x5A6 JUMPI PUSH2 0x5A5 PUSH2 0x48F JUMP JUMPDEST JUMPDEST PUSH0 PUSH2 0x5B3 DUP5 DUP3 DUP6 ADD PUSH2 0x4D9 JUMP JUMPDEST SWAP2 POP POP SWAP3 SWAP2 POP POP JUMP JUMPDEST PUSH2 0x5C5 DUP2 PUSH2 0x4ED JUMP JUMPDEST DUP3 MSTORE POP POP JUMP JUMPDEST PUSH0 PUSH1 0x20 DUP3 ADD SWAP1 POP PUSH2 0x5DE PUSH0 DUP4 ADD DUP5 PUSH2 0x5BC JUMP JUMPDEST SWAP3 SWAP2 POP POP JUMP JUMPDEST PUSH0 DUP3 DUP3 MSTORE PUSH1 0x20 DUP3 ADD SWAP1 POP SWAP3 SWAP2 POP POP JUMP JUMPDEST PUSH32 0x6F6E6C79206F776E657220616C6C6F7765642E00000000000000000000000000 PUSH0 DUP3 ADD MSTORE POP JUMP JUMPDEST PUSH0 PUSH2 0x628 PUSH1 0x13 DUP4 PUSH2 0x5E4 JUMP JUMPDEST SWAP2 POP PUSH2 0x633 DUP3 PUSH2 0x5F4 JUMP JUMPDEST PUSH1 0x20 DUP3 ADD SWAP1 POP SWAP2 SWAP1 POP JUMP JUMPDEST PUSH0 PUSH1 0x20 DUP3 ADD SWAP1 POP DUP2 DUP2 SUB PUSH0 DUP4 ADD MSTORE PUSH2 0x655 DUP2 PUSH2 0x61C JUMP JUMPDEST SWAP1 POP SWAP2 SWAP1 POP JUMP JUMPDEST PUSH32 0x6974206973207061757365640000000000000000000000000000000000000000 PUSH0 DUP3 ADD MSTORE POP JUMP JUMPDEST PUSH0 PUSH2 0x690 PUSH1 0xC DUP4 PUSH2 0x5E4 JUMP JUMPDEST SWAP2 POP PUSH2 0x69B DUP3 PUSH2 0x65C JUMP JUMPDEST PUSH1 0x20 DUP3 ADD SWAP1 POP SWAP2 SWAP1 POP JUMP JUMPDEST PUSH0 PUSH1 0x20 DUP3 ADD SWAP1 POP DUP2 DUP2 SUB PUSH0 DUP4 ADD MSTORE PUSH2 0x6BD DUP2 PUSH2 0x684 JUMP JUMPDEST SWAP1 POP SWAP2 SWAP1 POP JUMP JUMPDEST PUSH32 0x496E73756666696369656E7420616D6F756E7400000000000000000000000000 PUSH0 DUP3 ADD MSTORE POP JUMP JUMPDEST PUSH0 PUSH2 0x6F8 PUSH1 0x13 DUP4 PUSH2 0x5E4 JUMP JUMPDEST SWAP2 POP PUSH2 0x703 DUP3 PUSH2 0x6C4 JUMP JUMPDEST PUSH1 0x20 DUP3 ADD SWAP1 POP SWAP2 SWAP1 POP JUMP JUMPDEST PUSH0 PUSH1 0x20 DUP3 ADD SWAP1 POP DUP2 DUP2 SUB PUSH0 DUP4 ADD MSTORE PUSH2 0x725 DUP2 PUSH2 0x6EC JUMP JUMPDEST SWAP1 POP SWAP2 SWAP1 POP JUMP JUMPDEST PUSH32 0x4E487B7100000000000000000000000000000000000000000000000000000000 PUSH0 MSTORE PUSH1 0x11 PUSH1 0x4 MSTORE PUSH1 0x24 PUSH0 REVERT JUMPDEST PUSH0 PUSH2 0x763 DUP3 PUSH2 0x4ED JUMP JUMPDEST SWAP2 POP PUSH2 0x76E DUP4 PUSH2 0x4ED JUMP JUMPDEST SWAP3 POP DUP3 DUP3 SUB SWAP1 POP DUP2 DUP2 GT ISZERO PUSH2 0x786 JUMPI PUSH2 0x785 PUSH2 0x72C JUMP JUMPDEST JUMPDEST SWAP3 SWAP2 POP POP JUMP JUMPDEST PUSH0 PUSH2 0x796 DUP3 PUSH2 0x4ED JUMP JUMPDEST SWAP2 POP PUSH2 0x7A1 DUP4 PUSH2 0x4ED JUMP JUMPDEST SWAP3 POP DUP3 DUP3 ADD SWAP1 POP DUP1 DUP3 GT ISZERO PUSH2 0x7B9 JUMPI PUSH2 0x7B8 PUSH2 0x72C JUMP JUMPDEST JUMPDEST SWAP3 SWAP2 POP POP JUMP INVALID LOG2 PUSH5 0x6970667358 0x22 SLT KECCAK256 PUSH19 0x214B3D80E298FD34552877D611FE9EE28C68CE 0xA5 0xC8 BALANCE GT 0x4C 0x4C REVERT 0x25 PUSH13 0xDEDBA464736F6C634300081600 CALLER "
				},
				"gasEstimates": {
					"creation": {
						"codeDepositCost": "407400",
						"executionCost": "73359",
						"totalCost": "480759"
					},
					"external": {
						"getContractStatus()": "4736",
						"getbalace(address)": "2895",
						"pause()": "26625",
						"transfer(address,uint256)": "infinite",
						"unpause()": "26603"
					}
				},
				"methodIdentifiers": {
					"getContractStatus()": "c032846b",
					"getbalace(address)": "dace60d2",
					"pause()": "8456cb59",
					"transfer(address,uint256)": "a9059cbb",
					"unpause()": "3f4ba83a"
				}
			},
			"storageLayout": {
				"storage": [
					{
						"astId": 3,
						"contract": "contracts/PausedToken.sol:PausedToken",
						"label": "owner",
						"offset": 0,
						"slot": "0",
						"type": "t_address"
					},
					{
						"astId": 5,
						"contract": "contracts/PausedToken.sol:PausedToken",
						"label": "isPaused",
						"offset": 20,
						"slot": "0",
						"type": "t_bool"
					},
					{
						"astId": 9,
						"contract": "contracts/PausedToken.sol:PausedToken",
						"label": "balances",
						"offset": 0,
						"slot": "1",
						"type": "t_mapping(t_address,t_uint256)"
					}
				],
				"types": {
					"t_address": {
						"encoding": "inplace",
						"label": "address",
						"numberOfBytes": "20"
					},
					"t_bool": {
						"encoding": "inplace",
						"label": "bool",
						"numberOfBytes": "1"
					},
					"t_mapping(t_address,t_uint256)": {
						"encoding": "mapping",
						"key": "t_address",
						"label": "mapping(address => uint256)",
						"numberOfBytes": "32",
						"value": "t_uint256"
					},
					"t_uint256": {
						"encoding": "inplace",
						"label": "uint256",
						"numberOfBytes": "32"
					}
				}
			},
			"userdoc": {
				"kind": "user",
				"methods": {},
				"version": 1
			}
		}
	}
}