{
	"data": {
		"bytecode": {
			"linkReferences": {},
			"object": "608060405234801561000f575f80fd5b506107e08061001d5f395ff3fe608060405234801561000f575f80fd5b5060043610610034575f3560e01c806301f1389a14610038578063c09707a514610054575b5f80fd5b610052600480360381019061004d919061033c565b610072565b005b61005c6100e1565b60405161006991906104b8565b60405180910390f35b5f803373ffffffffffffffffffffffffffffffffffffffff1673ffffffffffffffffffffffffffffffffffffffff1681526020019081526020015f2081908060018154018082558091505060019003905f5260205f20015f9091909190915090816100dd91906106db565b5050565b60605f803373ffffffffffffffffffffffffffffffffffffffff1673ffffffffffffffffffffffffffffffffffffffff1681526020019081526020015f20805480602002602001604051908101604052809291908181526020015f905b828210156101e6578382905f5260205f2001805461015b90610505565b80601f016020809104026020016040519081016040528092919081815260200182805461018790610505565b80156101d25780601f106101a9576101008083540402835291602001916101d2565b820191905f5260205f20905b8154815290600101906020018083116101b557829003601f168201915b50505050508152602001906001019061013e565b50505050905090565b5f604051905090565b5f80fd5b5f80fd5b5f80fd5b5f80fd5b5f601f19601f8301169050919050565b7f4e487b71000000000000000000000000000000000000000000000000000000005f52604160045260245ffd5b61024e82610208565b810181811067ffffffffffffffff8211171561026d5761026c610218565b5b80604052505050565b5f61027f6101ef565b905061028b8282610245565b919050565b5f67ffffffffffffffff8211156102aa576102a9610218565b5b6102b382610208565b9050602081019050919050565b828183375f83830152505050565b5f6102e06102db84610290565b610276565b9050828152602081018484840111156102fc576102fb610204565b5b6103078482856102c0565b509392505050565b5f82601f83011261032357610322610200565b5b81356103338482602086016102ce565b91505092915050565b5f60208284031215610351576103506101f8565b5b5f82013567ffffffffffffffff81111561036e5761036d6101fc565b5b61037a8482850161030f565b91505092915050565b5f81519050919050565b5f82825260208201905092915050565b5f819050602082019050919050565b5f81519050919050565b5f82825260208201905092915050565b5f5b838110156103e35780820151818401526020810190506103c8565b5f8484015250505050565b5f6103f8826103ac565b61040281856103b6565b93506104128185602086016103c6565b61041b81610208565b840191505092915050565b5f61043183836103ee565b905092915050565b5f602082019050919050565b5f61044f82610383565b610459818561038d565b93508360208202850161046b8561039d565b805f5b858110156104a657848403895281516104878582610426565b945061049283610439565b925060208a0199505060018101905061046e565b50829750879550505050505092915050565b5f6020820190508181035f8301526104d08184610445565b905092915050565b7f4e487b71000000000000000000000000000000000000000000000000000000005f52602260045260245ffd5b5f600282049050600182168061051c57607f821691505b60208210810361052f5761052e6104d8565b5b50919050565b5f819050815f5260205f209050919050565b5f6020601f8301049050919050565b5f82821b905092915050565b5f600883026105917fffffffffffffffffffffffffffffffffffffffffffffffffffffffffffffffff82610556565b61059b8683610556565b95508019841693508086168417925050509392505050565b5f819050919050565b5f819050919050565b5f6105df6105da6105d5846105b3565b6105bc565b6105b3565b9050919050565b5f819050919050565b6105f8836105c5565b61060c610604826105e6565b848454610562565b825550505050565b5f90565b610620610614565b61062b8184846105ef565b505050565b5b8181101561064e576106435f82610618565b600181019050610631565b5050565b601f8211156106935761066481610535565b61066d84610547565b8101602085101561067c578190505b61069061068885610547565b830182610630565b50505b505050565b5f82821c905092915050565b5f6106b35f1984600802610698565b1980831691505092915050565b5f6106cb83836106a4565b9150826002028217905092915050565b6106e4826103ac565b67ffffffffffffffff8111156106fd576106fc610218565b5b6107078254610505565b610712828285610652565b5f60209050601f831160018114610743575f8415610731578287015190505b61073b85826106c0565b8655506107a2565b601f19841661075186610535565b5f5b8281101561077857848901518255600182019150602085019450602081019050610753565b868310156107955784890151610791601f8916826106a4565b8355505b6001600288020188555050505b50505050505056fea2646970667358221220ee3e10c69d48550cb7701b2f2fedc875654b312dc1f87044838b92cb662b829364736f6c63430008160033",
			"opcodes": "PUSH1 0x80 PUSH1 0x40 MSTORE CALLVALUE DUP1 ISZERO PUSH2 0xF JUMPI PUSH0 DUP1 REVERT JUMPDEST POP PUSH2 0x7E0 DUP1 PUSH2 0x1D PUSH0 CODECOPY PUSH0 RETURN INVALID PUSH1 0x80 PUSH1 0x40 MSTORE CALLVALUE DUP1 ISZERO PUSH2 0xF JUMPI PUSH0 DUP1 REVERT JUMPDEST POP PUSH1 0x4 CALLDATASIZE LT PUSH2 0x34 JUMPI PUSH0 CALLDATALOAD PUSH1 0xE0 SHR DUP1 PUSH4 0x1F1389A EQ PUSH2 0x38 JUMPI DUP1 PUSH4 0xC09707A5 EQ PUSH2 0x54 JUMPI JUMPDEST PUSH0 DUP1 REVERT JUMPDEST PUSH2 0x52 PUSH1 0x4 DUP1 CALLDATASIZE SUB DUP2 ADD SWAP1 PUSH2 0x4D SWAP2 SWAP1 PUSH2 0x33C JUMP JUMPDEST PUSH2 0x72 JUMP JUMPDEST STOP JUMPDEST PUSH2 0x5C PUSH2 0xE1 JUMP JUMPDEST PUSH1 0x40 MLOAD PUSH2 0x69 SWAP2 SWAP1 PUSH2 0x4B8 JUMP JUMPDEST PUSH1 0x40 MLOAD DUP1 SWAP2 SUB SWAP1 RETURN JUMPDEST PUSH0 DUP1 CALLER PUSH20 0xFFFFFFFFFFFFFFFFFFFFFFFFFFFFFFFFFFFFFFFF AND PUSH20 0xFFFFFFFFFFFFFFFFFFFFFFFFFFFFFFFFFFFFFFFF AND DUP2 MSTORE PUSH1 0x20 ADD SWAP1 DUP2 MSTORE PUSH1 0x20 ADD PUSH0 KECCAK256 DUP2 SWAP1 DUP1 PUSH1 0x1 DUP2 SLOAD ADD DUP1 DUP3 SSTORE DUP1 SWAP2 POP POP PUSH1 0x1 SWAP1 SUB SWAP1 PUSH0 MSTORE PUSH1 0x20 PUSH0 KECCAK256 ADD PUSH0 SWAP1 SWAP2 SWAP1 SWAP2 SWAP1 SWAP2 POP SWAP1 DUP2 PUSH2 0xDD SWAP2 SWAP1 PUSH2 0x6DB JUMP JUMPDEST POP POP JUMP JUMPDEST PUSH1 0x60 PUSH0 DUP1 CALLER PUSH20 0xFFFFFFFFFFFFFFFFFFFFFFFFFFFFFFFFFFFFFFFF AND PUSH20 0xFFFFFFFFFFFFFFFFFFFFFFFFFFFFFFFFFFFFFFFF AND DUP2 MSTORE PUSH1 0x20 ADD SWAP1 DUP2 MSTORE PUSH1 0x20 ADD PUSH0 KECCAK256 DUP1 SLOAD DUP1 PUSH1 0x20 MUL PUSH1 0x20 ADD PUSH1 0x40 MLOAD SWAP1 DUP2 ADD PUSH1 0x40 MSTORE DUP1 SWAP3 SWAP2 SWAP1 DUP2 DUP2 MSTORE PUSH1 0x20 ADD PUSH0 SWAP1 JUMPDEST DUP3 DUP3 LT ISZERO PUSH2 0x1E6 JUMPI DUP4 DUP3 SWAP1 PUSH0 MSTORE PUSH1 0x20 PUSH0 KECCAK256 ADD DUP1 SLOAD PUSH2 0x15B SWAP1 PUSH2 0x505 JUMP JUMPDEST DUP1 PUSH1 0x1F ADD PUSH1 0x20 DUP1 SWAP2 DIV MUL PUSH1 0x20 ADD PUSH1 0x40 MLOAD SWAP1 DUP2 ADD PUSH1 0x40 MSTORE DUP1 SWAP3 SWAP2 SWAP1 DUP2 DUP2 MSTORE PUSH1 0x20 ADD DUP3 DUP1 SLOAD PUSH2 0x187 SWAP1 PUSH2 0x505 JUMP JUMPDEST DUP1 ISZERO PUSH2 0x1D2 JUMPI DUP1 PUSH1 0x1F LT PUSH2 0x1A9 JUMPI PUSH2 0x100 DUP1 DUP4 SLOAD DIV MUL DUP4 MSTORE SWAP2 PUSH1 0x20 ADD SWAP2 PUSH2 0x1D2 JUMP JUMPDEST DUP3 ADD SWAP2 SWAP1 PUSH0 MSTORE PUSH1 0x20 PUSH0 KECCAK256 SWAP1 JUMPDEST DUP2 SLOAD DUP2 MSTORE SWAP1 PUSH1 0x1 ADD SWAP1 PUSH1 0x20 ADD DUP1 DUP4 GT PUSH2 0x1B5 JUMPI DUP3 SWAP1 SUB PUSH1 0x1F AND DUP3 ADD SWAP2 JUMPDEST POP POP POP POP POP DUP2 MSTORE PUSH1 0x20 ADD SWAP1 PUSH1 0x1 ADD SWAP1 PUSH2 0x13E JUMP JUMPDEST POP POP POP POP SWAP1 POP SWAP1 JUMP JUMPDEST PUSH0 PUSH1 0x40 MLOAD SWAP1 POP SWAP1 JUMP JUMPDEST PUSH0 DUP1 REVERT JUMPDEST PUSH0 DUP1 REVERT JUMPDEST PUSH0 DUP1 REVERT JUMPDEST PUSH0 DUP1 REVERT JUMPDEST PUSH0 PUSH1 0x1F NOT PUSH1 0x1F DUP4 ADD AND SWAP1 POP SWAP2 SWAP1 POP JUMP JUMPDEST PUSH32 0x4E487B7100000000000000000000000000000000000000000000000000000000 PUSH0 MSTORE PUSH1 0x41 PUSH1 0x4 MSTORE PUSH1 0x24 PUSH0 REVERT JUMPDEST PUSH2 0x24E DUP3 PUSH2 0x208 JUMP JUMPDEST DUP2 ADD DUP2 DUP2 LT PUSH8 0xFFFFFFFFFFFFFFFF DUP3 GT OR ISZERO PUSH2 0x26D JUMPI PUSH2 0x26C PUSH2 0x218 JUMP JUMPDEST JUMPDEST DUP1 PUSH1 0x40 MSTORE POP POP POP JUMP JUMPDEST PUSH0 PUSH2 0x27F PUSH2 0x1EF JUMP JUMPDEST SWAP1 POP PUSH2 0x28B DUP3 DUP3 PUSH2 0x245 JUMP JUMPDEST SWAP2 SWAP1 POP JUMP JUMPDEST PUSH0 PUSH8 0xFFFFFFFFFFFFFFFF DUP3 GT ISZERO PUSH2 0x2AA JUMPI PUSH2 0x2A9 PUSH2 0x218 JUMP JUMPDEST JUMPDEST PUSH2 0x2B3 DUP3 PUSH2 0x208 JUMP JUMPDEST SWAP1 POP PUSH1 0x20 DUP2 ADD SWAP1 POP SWAP2 SWAP1 POP JUMP JUMPDEST DUP3 DUP2 DUP4 CALLDATACOPY PUSH0 DUP4 DUP4 ADD MSTORE POP POP POP JUMP JUMPDEST PUSH0 PUSH2 0x2E0 PUSH2 0x2DB DUP5 PUSH2 0x290 JUMP JUMPDEST PUSH2 0x276 JUMP JUMPDEST SWAP1 POP DUP3 DUP2 MSTORE PUSH1 0x20 DUP2 ADD DUP5 DUP5 DUP5 ADD GT ISZERO PUSH2 0x2FC JUMPI PUSH2 0x2FB PUSH2 0x204 JUMP JUMPDEST JUMPDEST PUSH2 0x307 DUP5 DUP3 DUP6 PUSH2 0x2C0 JUMP JUMPDEST POP SWAP4 SWAP3 POP POP POP JUMP JUMPDEST PUSH0 DUP3 PUSH1 0x1F DUP4 ADD SLT PUSH2 0x323 JUMPI PUSH2 0x322 PUSH2 0x200 JUMP JUMPDEST JUMPDEST DUP2 CALLDATALOAD PUSH2 0x333 DUP5 DUP3 PUSH1 0x20 DUP7 ADD PUSH2 0x2CE JUMP JUMPDEST SWAP2 POP POP SWAP3 SWAP2 POP POP JUMP JUMPDEST PUSH0 PUSH1 0x20 DUP3 DUP5 SUB SLT ISZERO PUSH2 0x351 JUMPI PUSH2 0x350 PUSH2 0x1F8 JUMP JUMPDEST JUMPDEST PUSH0 DUP3 ADD CALLDATALOAD PUSH8 0xFFFFFFFFFFFFFFFF DUP2 GT ISZERO PUSH2 0x36E JUMPI PUSH2 0x36D PUSH2 0x1FC JUMP JUMPDEST JUMPDEST PUSH2 0x37A DUP5 DUP3 DUP6 ADD PUSH2 0x30F JUMP JUMPDEST SWAP2 POP POP SWAP3 SWAP2 POP POP JUMP JUMPDEST PUSH0 DUP2 MLOAD SWAP1 POP SWAP2 SWAP1 POP JUMP JUMPDEST PUSH0 DUP3 DUP3 MSTORE PUSH1 0x20 DUP3 ADD SWAP1 POP SWAP3 SWAP2 POP POP JUMP JUMPDEST PUSH0 DUP2 SWAP1 POP PUSH1 0x20 DUP3 ADD SWAP1 POP SWAP2 SWAP1 POP JUMP JUMPDEST PUSH0 DUP2 MLOAD SWAP1 POP SWAP2 SWAP1 POP JUMP JUMPDEST PUSH0 DUP3 DUP3 MSTORE PUSH1 0x20 DUP3 ADD SWAP1 POP SWAP3 SWAP2 POP POP JUMP JUMPDEST PUSH0 JUMPDEST DUP4 DUP2 LT ISZERO PUSH2 0x3E3 JUMPI DUP1 DUP3 ADD MLOAD DUP2 DUP5 ADD MSTORE PUSH1 0x20 DUP2 ADD SWAP1 POP PUSH2 0x3C8 JUMP JUMPDEST PUSH0 DUP5 DUP5 ADD MSTORE POP POP POP POP JUMP JUMPDEST PUSH0 PUSH2 0x3F8 DUP3 PUSH2 0x3AC JUMP JUMPDEST PUSH2 0x402 DUP2 DUP6 PUSH2 0x3B6 JUMP JUMPDEST SWAP4 POP PUSH2 0x412 DUP2 DUP6 PUSH1 0x20 DUP7 ADD PUSH2 0x3C6 JUMP JUMPDEST PUSH2 0x41B DUP2 PUSH2 0x208 JUMP JUMPDEST DUP5 ADD SWAP2 POP POP SWAP3 SWAP2 POP POP JUMP JUMPDEST PUSH0 PUSH2 0x431 DUP4 DUP4 PUSH2 0x3EE JUMP JUMPDEST SWAP1 POP SWAP3 SWAP2 POP POP JUMP JUMPDEST PUSH0 PUSH1 0x20 DUP3 ADD SWAP1 POP SWAP2 SWAP1 POP JUMP JUMPDEST PUSH0 PUSH2 0x44F DUP3 PUSH2 0x383 JUMP JUMPDEST PUSH2 0x459 DUP2 DUP6 PUSH2 0x38D JUMP JUMPDEST SWAP4 POP DUP4 PUSH1 0x20 DUP3 MUL DUP6 ADD PUSH2 0x46B DUP6 PUSH2 0x39D JUMP JUMPDEST DUP1 PUSH0 JUMPDEST DUP6 DUP2 LT ISZERO PUSH2 0x4A6 JUMPI DUP5 DUP5 SUB DUP10 MSTORE DUP2 MLOAD PUSH2 0x487 DUP6 DUP3 PUSH2 0x426 JUMP JUMPDEST SWAP5 POP PUSH2 0x492 DUP4 PUSH2 0x439 JUMP JUMPDEST SWAP3 POP PUSH1 0x20 DUP11 ADD SWAP10 POP POP PUSH1 0x1 DUP2 ADD SWAP1 POP PUSH2 0x46E JUMP JUMPDEST POP DUP3 SWAP8 POP DUP8 SWAP6 POP POP POP POP POP POP SWAP3 SWAP2 POP POP JUMP JUMPDEST PUSH0 PUSH1 0x20 DUP3 ADD SWAP1 POP DUP2 DUP2 SUB PUSH0 DUP4 ADD MSTORE PUSH2 0x4D0 DUP2 DUP5 PUSH2 0x445 JUMP JUMPDEST SWAP1 POP SWAP3 SWAP2 POP POP JUMP JUMPDEST PUSH32 0x4E487B7100000000000000000000000000000000000000000000000000000000 PUSH0 MSTORE PUSH1 0x22 PUSH1 0x4 MSTORE PUSH1 0x24 PUSH0 REVERT JUMPDEST PUSH0 PUSH1 0x2 DUP3 DIV SWAP1 POP PUSH1 0x1 DUP3 AND DUP1 PUSH2 0x51C JUMPI PUSH1 0x7F DUP3 AND SWAP2 POP JUMPDEST PUSH1 0x20 DUP3 LT DUP2 SUB PUSH2 0x52F JUMPI PUSH2 0x52E PUSH2 0x4D8 JUMP JUMPDEST JUMPDEST POP SWAP2 SWAP1 POP JUMP JUMPDEST PUSH0 DUP2 SWAP1 POP DUP2 PUSH0 MSTORE PUSH1 0x20 PUSH0 KECCAK256 SWAP1 POP SWAP2 SWAP1 POP JUMP JUMPDEST PUSH0 PUSH1 0x20 PUSH1 0x1F DUP4 ADD DIV SWAP1 POP SWAP2 SWAP1 POP JUMP JUMPDEST PUSH0 DUP3 DUP3 SHL SWAP1 POP SWAP3 SWAP2 POP POP JUMP JUMPDEST PUSH0 PUSH1 0x8 DUP4 MUL PUSH2 0x591 PUSH32 0xFFFFFFFFFFFFFFFFFFFFFFFFFFFFFFFFFFFFFFFFFFFFFFFFFFFFFFFFFFFFFFFF DUP3 PUSH2 0x556 JUMP JUMPDEST PUSH2 0x59B DUP7 DUP4 PUSH2 0x556 JUMP JUMPDEST SWAP6 POP DUP1 NOT DUP5 AND SWAP4 POP DUP1 DUP7 AND DUP5 OR SWAP3 POP POP POP SWAP4 SWAP3 POP POP POP JUMP JUMPDEST PUSH0 DUP2 SWAP1 POP SWAP2 SWAP1 POP JUMP JUMPDEST PUSH0 DUP2 SWAP1 POP SWAP2 SWAP1 POP JUMP JUMPDEST PUSH0 PUSH2 0x5DF PUSH2 0x5DA PUSH2 0x5D5 DUP5 PUSH2 0x5B3 JUMP JUMPDEST PUSH2 0x5BC JUMP JUMPDEST PUSH2 0x5B3 JUMP JUMPDEST SWAP1 POP SWAP2 SWAP1 POP JUMP JUMPDEST PUSH0 DUP2 SWAP1 POP SWAP2 SWAP1 POP JUMP JUMPDEST PUSH2 0x5F8 DUP4 PUSH2 0x5C5 JUMP JUMPDEST PUSH2 0x60C PUSH2 0x604 DUP3 PUSH2 0x5E6 JUMP JUMPDEST DUP5 DUP5 SLOAD PUSH2 0x562 JUMP JUMPDEST DUP3 SSTORE POP POP POP POP JUMP JUMPDEST PUSH0 SWAP1 JUMP JUMPDEST PUSH2 0x620 PUSH2 0x614 JUMP JUMPDEST PUSH2 0x62B DUP2 DUP5 DUP5 PUSH2 0x5EF JUMP JUMPDEST POP POP POP JUMP JUMPDEST JUMPDEST DUP2 DUP2 LT ISZERO PUSH2 0x64E JUMPI PUSH2 0x643 PUSH0 DUP3 PUSH2 0x618 JUMP JUMPDEST PUSH1 0x1 DUP2 ADD SWAP1 POP PUSH2 0x631 JUMP JUMPDEST POP POP JUMP JUMPDEST PUSH1 0x1F DUP3 GT ISZERO PUSH2 0x693 JUMPI PUSH2 0x664 DUP2 PUSH2 0x535 JUMP JUMPDEST PUSH2 0x66D DUP5 PUSH2 0x547 JUMP JUMPDEST DUP2 ADD PUSH1 0x20 DUP6 LT ISZERO PUSH2 0x67C JUMPI DUP2 SWAP1 POP JUMPDEST PUSH2 0x690 PUSH2 0x688 DUP6 PUSH2 0x547 JUMP JUMPDEST DUP4 ADD DUP3 PUSH2 0x630 JUMP JUMPDEST POP POP JUMPDEST POP POP POP JUMP JUMPDEST PUSH0 DUP3 DUP3 SHR SWAP1 POP SWAP3 SWAP2 POP POP JUMP JUMPDEST PUSH0 PUSH2 0x6B3 PUSH0 NOT DUP5 PUSH1 0x8 MUL PUSH2 0x698 JUMP JUMPDEST NOT DUP1 DUP4 AND SWAP2 POP POP SWAP3 SWAP2 POP POP JUMP JUMPDEST PUSH0 PUSH2 0x6CB DUP4 DUP4 PUSH2 0x6A4 JUMP JUMPDEST SWAP2 POP DUP3 PUSH1 0x2 MUL DUP3 OR SWAP1 POP SWAP3 SWAP2 POP POP JUMP JUMPDEST PUSH2 0x6E4 DUP3 PUSH2 0x3AC JUMP JUMPDEST PUSH8 0xFFFFFFFFFFFFFFFF DUP2 GT ISZERO PUSH2 0x6FD JUMPI PUSH2 0x6FC PUSH2 0x218 JUMP JUMPDEST JUMPDEST PUSH2 0x707 DUP3 SLOAD PUSH2 0x505 JUMP JUMPDEST PUSH2 0x712 DUP3 DUP3 DUP6 PUSH2 0x652 JUMP JUMPDEST PUSH0 PUSH1 0x20 SWAP1 POP PUSH1 0x1F DUP4 GT PUSH1 0x1 DUP2 EQ PUSH2 0x743 JUMPI PUSH0 DUP5 ISZERO PUSH2 0x731 JUMPI DUP3 DUP8 ADD MLOAD SWAP1 POP JUMPDEST PUSH2 0x73B DUP6 DUP3 PUSH2 0x6C0 JUMP JUMPDEST DUP7 SSTORE POP PUSH2 0x7A2 JUMP JUMPDEST PUSH1 0x1F NOT DUP5 AND PUSH2 0x751 DUP7 PUSH2 0x535 JUMP JUMPDEST PUSH0 JUMPDEST DUP3 DUP2 LT ISZERO PUSH2 0x778 JUMPI DUP5 DUP10 ADD MLOAD DUP3 SSTORE PUSH1 0x1 DUP3 ADD SWAP2 POP PUSH1 0x20 DUP6 ADD SWAP5 POP PUSH1 0x20 DUP2 ADD SWAP1 POP PUSH2 0x753 JUMP JUMPDEST DUP7 DUP4 LT ISZERO PUSH2 0x795 JUMPI DUP5 DUP10 ADD MLOAD PUSH2 0x791 PUSH1 0x1F DUP10 AND DUP3 PUSH2 0x6A4 JUMP JUMPDEST DUP4 SSTORE POP JUMPDEST PUSH1 0x1 PUSH1 0x2 DUP9 MUL ADD DUP9 SSTORE POP POP POP JUMPDEST POP POP POP POP POP POP JUMP INVALID LOG2 PUSH5 0x6970667358 0x22 SLT KECCAK256 0xEE RETURNDATACOPY LT 0xC6 SWAP14 BASEFEE SSTORE 0xC 0xB7 PUSH17 0x1B2F2FEDC875654B312DC1F87044838B92 0xCB PUSH7 0x2B829364736F6C PUSH4 0x43000816 STOP CALLER "
		},
		"gasEstimates": {
			"creation": {
				"codeDepositCost": "403200",
				"executionCost": "434",
				"totalCost": "403634"
			},
			"external": {
				"addWords(string)": "infinite",
				"getIt()": "infinite"
			}
		},
		"methodIdentifiers": {
			"addWords(string)": "01f1389a",
			"getIt()": "c09707a5"
		}
	},
	"abi": [
		{
			"inputs": [
				{
					"internalType": "string",
					"name": "words",
					"type": "string"
				}
			],
			"name": "addWords",
			"outputs": [],
			"stateMutability": "nonpayable",
			"type": "function"
		},
		{
			"inputs": [],
			"name": "getIt",
			"outputs": [
				{
					"internalType": "string[]",
					"name": "",
					"type": "string[]"
				}
			],
			"stateMutability": "view",
			"type": "function"
		}
	]
}