{
	"contracts/array/array1.sol": {
		"Array": {
			"abi": [
				{
					"inputs": [
						{
							"internalType": "uint256",
							"name": "num",
							"type": "uint256"
						}
					],
					"name": "addToArray",
					"outputs": [],
					"stateMutability": "nonpayable",
					"type": "function"
				},
				{
					"inputs": [],
					"name": "getArr",
					"outputs": [
						{
							"internalType": "uint256[]",
							"name": "",
							"type": "uint256[]"
						}
					],
					"stateMutability": "view",
					"type": "function"
				},
				{
					"inputs": [],
					"name": "getFixedSize",
					"outputs": [
						{
							"internalType": "uint256[10]",
							"name": "",
							"type": "uint256[10]"
						}
					],
					"stateMutability": "view",
					"type": "function"
				},
				{
					"inputs": [],
					"name": "getMyArr",
					"outputs": [
						{
							"internalType": "uint256[]",
							"name": "",
							"type": "uint256[]"
						}
					],
					"stateMutability": "view",
					"type": "function"
				},
				{
					"inputs": [],
					"name": "pushIn",
					"outputs": [],
					"stateMutability": "nonpayable",
					"type": "function"
				},
				{
					"inputs": [],
					"name": "pushIt",
					"outputs": [],
					"stateMutability": "nonpayable",
					"type": "function"
				}
			],
			"devdoc": {
				"kind": "dev",
				"methods": {},
				"version": 1
			},
			"evm": {
				"assembly": "    /* \"contracts/array/array1.sol\":59:886  contract Array {... */\n  mstore(0x40, 0x80)\n    /* \"contracts/array/array1.sol\":105:140  uint[] private myArr = [1, 2, 3, 4] */\n  mload(0x40)\n  dup1\n  0x80\n  add\n  0x40\n  mstore\n  dup1\n    /* \"contracts/array/array1.sol\":129:130  1 */\n  0x01\n    /* \"contracts/array/array1.sol\":105:140  uint[] private myArr = [1, 2, 3, 4] */\n  0xff\n  and\n  dup2\n  mstore\n  0x20\n  add\n    /* \"contracts/array/array1.sol\":132:133  2 */\n  0x02\n    /* \"contracts/array/array1.sol\":105:140  uint[] private myArr = [1, 2, 3, 4] */\n  0xff\n  and\n  dup2\n  mstore\n  0x20\n  add\n    /* \"contracts/array/array1.sol\":135:136  3 */\n  0x03\n    /* \"contracts/array/array1.sol\":105:140  uint[] private myArr = [1, 2, 3, 4] */\n  0xff\n  and\n  dup2\n  mstore\n  0x20\n  add\n    /* \"contracts/array/array1.sol\":138:139  4 */\n  0x04\n    /* \"contracts/array/array1.sol\":105:140  uint[] private myArr = [1, 2, 3, 4] */\n  0xff\n  and\n  dup2\n  mstore\n  pop\n  0x01\n  swap1\n  0x04\n  tag_1\n  swap3\n  swap2\n  swap1\n  tag_2\n  jump\t// in\ntag_1:\n  pop\n    /* \"contracts/array/array1.sol\":59:886  contract Array {... */\n  callvalue\n  dup1\n  iszero\n  tag_3\n  jumpi\n  0x00\n  dup1\n  revert\ntag_3:\n  pop\n  jump(tag_4)\ntag_2:\n  dup3\n  dup1\n  sload\n  dup3\n  dup3\n  sstore\n  swap1\n  0x00\n  mstore\n  keccak256(0x00, 0x20)\n  swap1\n  dup2\n  add\n  swap3\n  dup3\n  iszero\n  tag_5\n  jumpi\n  swap2\n  0x20\n  mul\n  dup3\n  add\ntag_6:\n  dup3\n  dup2\n  gt\n  iszero\n  tag_7\n  jumpi\n  dup3\n  mload\n  dup3\n  swap1\n  0xff\n  and\n  swap1\n  sstore\n  swap2\n  0x20\n  add\n  swap2\n  swap1\n  0x01\n  add\n  swap1\n  jump(tag_6)\ntag_7:\ntag_5:\n  pop\n  swap1\n  pop\n  tag_8\n  swap2\n  swap1\n  tag_9\n  jump\t// in\ntag_8:\n  pop\n  swap1\n  jump\t// out\ntag_9:\ntag_10:\n  dup1\n  dup3\n  gt\n  iszero\n  tag_11\n  jumpi\n  0x00\n  dup2\n  0x00\n  swap1\n  sstore\n  pop\n  0x01\n  add\n  jump(tag_10)\ntag_11:\n  pop\n  swap1\n  jump\t// out\ntag_4:\n  dataSize(sub_0)\n  dup1\n  dataOffset(sub_0)\n  0x00\n  codecopy\n  0x00\n  return\nstop\n\nsub_0: assembly {\n        /* \"contracts/array/array1.sol\":59:886  contract Array {... */\n      mstore(0x40, 0x80)\n      callvalue\n      dup1\n      iszero\n      tag_1\n      jumpi\n      0x00\n      dup1\n      revert\n    tag_1:\n      pop\n      jumpi(tag_2, lt(calldatasize, 0x04))\n      shr(0xe0, calldataload(0x00))\n      dup1\n      0x15d96058\n      eq\n      tag_3\n      jumpi\n      dup1\n      0x1aae5609\n      eq\n      tag_4\n      jumpi\n      dup1\n      0x5012505c\n      eq\n      tag_5\n      jumpi\n      dup1\n      0xa7985f91\n      eq\n      tag_6\n      jumpi\n      dup1\n      0xd15ec851\n      eq\n      tag_7\n      jumpi\n      dup1\n      0xfb8cbced\n      eq\n      tag_8\n      jumpi\n    tag_2:\n      0x00\n      dup1\n      revert\n        /* \"contracts/array/array1.sol\":338:394  function pushIn() public {... */\n    tag_3:\n      tag_9\n      tag_10\n      jump\t// in\n    tag_9:\n      stop\n        /* \"contracts/array/array1.sol\":790:884  function getFixedSize() public view returns (uint[10] memory){... */\n    tag_4:\n      tag_11\n      tag_12\n      jump\t// in\n    tag_11:\n      mload(0x40)\n      tag_13\n      swap2\n      swap1\n      tag_14\n      jump\t// in\n    tag_13:\n      mload(0x40)\n      dup1\n      swap2\n      sub\n      swap1\n      return\n        /* \"contracts/array/array1.sol\":492:784  function pushIt() public {... */\n    tag_5:\n      tag_15\n      tag_16\n      jump\t// in\n    tag_15:\n      stop\n        /* \"contracts/array/array1.sol\":399:485  function getMyArr() public view   returns (uint[] memory){... */\n    tag_6:\n      tag_17\n      tag_18\n      jump\t// in\n    tag_17:\n      mload(0x40)\n      tag_19\n      swap2\n      swap1\n      tag_20\n      jump\t// in\n    tag_19:\n      mload(0x40)\n      dup1\n      swap2\n      sub\n      swap1\n      return\n        /* \"contracts/array/array1.sol\":180:247  function addToArray(uint num) public {... */\n    tag_7:\n      tag_21\n      0x04\n      dup1\n      calldatasize\n      sub\n      dup2\n      add\n      swap1\n      tag_22\n      swap2\n      swap1\n      tag_23\n      jump\t// in\n    tag_22:\n      tag_24\n      jump\t// in\n    tag_21:\n      stop\n        /* \"contracts/array/array1.sol\":252:333  function getArr () public view returns (uint[] memory){... */\n    tag_8:\n      tag_25\n      tag_26\n      jump\t// in\n    tag_25:\n      mload(0x40)\n      tag_27\n      swap2\n      swap1\n      tag_20\n      jump\t// in\n    tag_27:\n      mload(0x40)\n      dup1\n      swap2\n      sub\n      swap1\n      return\n        /* \"contracts/array/array1.sol\":338:394  function pushIn() public {... */\n    tag_10:\n        /* \"contracts/array/array1.sol\":373:378  myArr */\n      0x01\n        /* \"contracts/array/array1.sol\":384:386  66 */\n      0x42\n        /* \"contracts/array/array1.sol\":373:387  myArr.push(66) */\n      swap1\n      dup1\n      0x01\n      dup2\n      sload\n      add\n      dup1\n      dup3\n      sstore\n      dup1\n      swap2\n      pop\n      pop\n      0x01\n      swap1\n      sub\n      swap1\n      0x00\n      mstore\n      keccak256(0x00, 0x20)\n      add\n      0x00\n      swap1\n      swap2\n      swap1\n      swap2\n      swap1\n      swap2\n      pop\n      sstore\n        /* \"contracts/array/array1.sol\":338:394  function pushIn() public {... */\n      jump\t// out\n        /* \"contracts/array/array1.sol\":790:884  function getFixedSize() public view returns (uint[10] memory){... */\n    tag_12:\n        /* \"contracts/array/array1.sol\":835:850  uint[10] memory */\n      tag_30\n      tag_31\n      jump\t// in\n    tag_30:\n        /* \"contracts/array/array1.sol\":868:877  fixedSize */\n      0x02\n        /* \"contracts/array/array1.sol\":861:877  return fixedSize */\n      0x0a\n      dup1\n      0x20\n      mul\n      mload(0x40)\n      swap1\n      dup2\n      add\n      0x40\n      mstore\n      dup1\n      swap3\n      swap2\n      swap1\n      dup3\n      0x0a\n      dup1\n      iszero\n      tag_33\n      jumpi\n      0x20\n      mul\n      dup3\n      add\n      swap2\n    tag_34:\n      dup2\n      sload\n      dup2\n      mstore\n      0x20\n      add\n      swap1\n      0x01\n      add\n      swap1\n      dup1\n      dup4\n      gt\n      tag_34\n      jumpi\n    tag_33:\n      pop\n      pop\n      pop\n      pop\n      pop\n      swap1\n      pop\n        /* \"contracts/array/array1.sol\":790:884  function getFixedSize() public view returns (uint[10] memory){... */\n      swap1\n      jump\t// out\n        /* \"contracts/array/array1.sol\":492:784  function pushIt() public {... */\n    tag_16:\n        /* \"contracts/array/array1.sol\":542:543  1 */\n      0x01\n        /* \"contracts/array/array1.sol\":527:536  fixedSize */\n      0x02\n        /* \"contracts/array/array1.sol\":537:538  0 */\n      0x00\n        /* \"contracts/array/array1.sol\":527:539  fixedSize[0] */\n      0x0a\n      dup2\n      lt\n      tag_36\n      jumpi\n      tag_37\n      tag_38\n      jump\t// in\n    tag_37:\n    tag_36:\n      add\n        /* \"contracts/array/array1.sol\":527:543  fixedSize[0] = 1 */\n      dup2\n      swap1\n      sstore\n      pop\n        /* \"contracts/array/array1.sol\":568:569  1 */\n      0x01\n        /* \"contracts/array/array1.sol\":553:562  fixedSize */\n      0x02\n        /* \"contracts/array/array1.sol\":563:564  1 */\n      0x01\n        /* \"contracts/array/array1.sol\":553:565  fixedSize[1] */\n      0x0a\n      dup2\n      lt\n      tag_40\n      jumpi\n      tag_41\n      tag_38\n      jump\t// in\n    tag_41:\n    tag_40:\n      add\n        /* \"contracts/array/array1.sol\":553:569  fixedSize[1] = 1 */\n      dup2\n      swap1\n      sstore\n      pop\n        /* \"contracts/array/array1.sol\":594:595  1 */\n      0x01\n        /* \"contracts/array/array1.sol\":579:588  fixedSize */\n      0x02\n        /* \"contracts/array/array1.sol\":589:590  2 */\n      dup1\n        /* \"contracts/array/array1.sol\":579:591  fixedSize[2] */\n      0x0a\n      dup2\n      lt\n      tag_43\n      jumpi\n      tag_44\n      tag_38\n      jump\t// in\n    tag_44:\n    tag_43:\n      add\n        /* \"contracts/array/array1.sol\":579:595  fixedSize[2] = 1 */\n      dup2\n      swap1\n      sstore\n      pop\n        /* \"contracts/array/array1.sol\":620:621  1 */\n      0x01\n        /* \"contracts/array/array1.sol\":605:614  fixedSize */\n      0x02\n        /* \"contracts/array/array1.sol\":615:616  3 */\n      0x03\n        /* \"contracts/array/array1.sol\":605:617  fixedSize[3] */\n      0x0a\n      dup2\n      lt\n      tag_46\n      jumpi\n      tag_47\n      tag_38\n      jump\t// in\n    tag_47:\n    tag_46:\n      add\n        /* \"contracts/array/array1.sol\":605:621  fixedSize[3] = 1 */\n      dup2\n      swap1\n      sstore\n      pop\n        /* \"contracts/array/array1.sol\":646:647  1 */\n      0x01\n        /* \"contracts/array/array1.sol\":631:640  fixedSize */\n      0x02\n        /* \"contracts/array/array1.sol\":641:642  4 */\n      0x04\n        /* \"contracts/array/array1.sol\":631:643  fixedSize[4] */\n      0x0a\n      dup2\n      lt\n      tag_49\n      jumpi\n      tag_50\n      tag_38\n      jump\t// in\n    tag_50:\n    tag_49:\n      add\n        /* \"contracts/array/array1.sol\":631:647  fixedSize[4] = 1 */\n      dup2\n      swap1\n      sstore\n      pop\n        /* \"contracts/array/array1.sol\":672:673  1 */\n      0x01\n        /* \"contracts/array/array1.sol\":657:666  fixedSize */\n      0x02\n        /* \"contracts/array/array1.sol\":667:668  5 */\n      0x05\n        /* \"contracts/array/array1.sol\":657:669  fixedSize[5] */\n      0x0a\n      dup2\n      lt\n      tag_52\n      jumpi\n      tag_53\n      tag_38\n      jump\t// in\n    tag_53:\n    tag_52:\n      add\n        /* \"contracts/array/array1.sol\":657:673  fixedSize[5] = 1 */\n      dup2\n      swap1\n      sstore\n      pop\n        /* \"contracts/array/array1.sol\":698:699  1 */\n      0x01\n        /* \"contracts/array/array1.sol\":683:692  fixedSize */\n      0x02\n        /* \"contracts/array/array1.sol\":693:694  6 */\n      0x06\n        /* \"contracts/array/array1.sol\":683:695  fixedSize[6] */\n      0x0a\n      dup2\n      lt\n      tag_55\n      jumpi\n      tag_56\n      tag_38\n      jump\t// in\n    tag_56:\n    tag_55:\n      add\n        /* \"contracts/array/array1.sol\":683:699  fixedSize[6] = 1 */\n      dup2\n      swap1\n      sstore\n      pop\n        /* \"contracts/array/array1.sol\":724:725  1 */\n      0x01\n        /* \"contracts/array/array1.sol\":709:718  fixedSize */\n      0x02\n        /* \"contracts/array/array1.sol\":719:720  7 */\n      0x07\n        /* \"contracts/array/array1.sol\":709:721  fixedSize[7] */\n      0x0a\n      dup2\n      lt\n      tag_58\n      jumpi\n      tag_59\n      tag_38\n      jump\t// in\n    tag_59:\n    tag_58:\n      add\n        /* \"contracts/array/array1.sol\":709:725  fixedSize[7] = 1 */\n      dup2\n      swap1\n      sstore\n      pop\n        /* \"contracts/array/array1.sol\":750:751  1 */\n      0x01\n        /* \"contracts/array/array1.sol\":735:744  fixedSize */\n      0x02\n        /* \"contracts/array/array1.sol\":745:746  8 */\n      0x08\n        /* \"contracts/array/array1.sol\":735:747  fixedSize[8] */\n      0x0a\n      dup2\n      lt\n      tag_61\n      jumpi\n      tag_62\n      tag_38\n      jump\t// in\n    tag_62:\n    tag_61:\n      add\n        /* \"contracts/array/array1.sol\":735:751  fixedSize[8] = 1 */\n      dup2\n      swap1\n      sstore\n      pop\n        /* \"contracts/array/array1.sol\":776:777  1 */\n      0x01\n        /* \"contracts/array/array1.sol\":761:770  fixedSize */\n      0x02\n        /* \"contracts/array/array1.sol\":771:772  9 */\n      0x09\n        /* \"contracts/array/array1.sol\":761:773  fixedSize[9] */\n      0x0a\n      dup2\n      lt\n      tag_64\n      jumpi\n      tag_65\n      tag_38\n      jump\t// in\n    tag_65:\n    tag_64:\n      add\n        /* \"contracts/array/array1.sol\":761:777  fixedSize[9] = 1 */\n      dup2\n      swap1\n      sstore\n      pop\n        /* \"contracts/array/array1.sol\":492:784  function pushIt() public {... */\n      jump\t// out\n        /* \"contracts/array/array1.sol\":399:485  function getMyArr() public view   returns (uint[] memory){... */\n    tag_18:\n        /* \"contracts/array/array1.sol\":442:455  uint[] memory */\n      0x60\n        /* \"contracts/array/array1.sol\":473:478  myArr */\n      0x01\n        /* \"contracts/array/array1.sol\":466:478  return myArr */\n      dup1\n      sload\n      dup1\n      0x20\n      mul\n      0x20\n      add\n      mload(0x40)\n      swap1\n      dup2\n      add\n      0x40\n      mstore\n      dup1\n      swap3\n      swap2\n      swap1\n      dup2\n      dup2\n      mstore\n      0x20\n      add\n      dup3\n      dup1\n      sload\n      dup1\n      iszero\n      tag_68\n      jumpi\n      0x20\n      mul\n      dup3\n      add\n      swap2\n      swap1\n      0x00\n      mstore\n      keccak256(0x00, 0x20)\n      swap1\n    tag_69:\n      dup2\n      sload\n      dup2\n      mstore\n      0x20\n      add\n      swap1\n      0x01\n      add\n      swap1\n      dup1\n      dup4\n      gt\n      tag_69\n      jumpi\n    tag_68:\n      pop\n      pop\n      pop\n      pop\n      pop\n      swap1\n      pop\n        /* \"contracts/array/array1.sol\":399:485  function getMyArr() public view   returns (uint[] memory){... */\n      swap1\n      jump\t// out\n        /* \"contracts/array/array1.sol\":180:247  function addToArray(uint num) public {... */\n    tag_24:\n        /* \"contracts/array/array1.sol\":227:230  arr */\n      0x00\n        /* \"contracts/array/array1.sol\":236:239  num */\n      dup2\n        /* \"contracts/array/array1.sol\":227:240  arr.push(num) */\n      swap1\n      dup1\n      0x01\n      dup2\n      sload\n      add\n      dup1\n      dup3\n      sstore\n      dup1\n      swap2\n      pop\n      pop\n      0x01\n      swap1\n      sub\n      swap1\n      0x00\n      mstore\n      keccak256(0x00, 0x20)\n      add\n      0x00\n      swap1\n      swap2\n      swap1\n      swap2\n      swap1\n      swap2\n      pop\n      sstore\n        /* \"contracts/array/array1.sol\":180:247  function addToArray(uint num) public {... */\n      pop\n      jump\t// out\n        /* \"contracts/array/array1.sol\":252:333  function getArr () public view returns (uint[] memory){... */\n    tag_26:\n        /* \"contracts/array/array1.sol\":292:305  uint[] memory */\n      0x60\n        /* \"contracts/array/array1.sol\":323:326  arr */\n      0x00\n        /* \"contracts/array/array1.sol\":316:326  return arr */\n      dup1\n      sload\n      dup1\n      0x20\n      mul\n      0x20\n      add\n      mload(0x40)\n      swap1\n      dup2\n      add\n      0x40\n      mstore\n      dup1\n      swap3\n      swap2\n      swap1\n      dup2\n      dup2\n      mstore\n      0x20\n      add\n      dup3\n      dup1\n      sload\n      dup1\n      iszero\n      tag_73\n      jumpi\n      0x20\n      mul\n      dup3\n      add\n      swap2\n      swap1\n      0x00\n      mstore\n      keccak256(0x00, 0x20)\n      swap1\n    tag_74:\n      dup2\n      sload\n      dup2\n      mstore\n      0x20\n      add\n      swap1\n      0x01\n      add\n      swap1\n      dup1\n      dup4\n      gt\n      tag_74\n      jumpi\n    tag_73:\n      pop\n      pop\n      pop\n      pop\n      pop\n      swap1\n      pop\n        /* \"contracts/array/array1.sol\":252:333  function getArr () public view returns (uint[] memory){... */\n      swap1\n      jump\t// out\n    tag_31:\n      mload(0x40)\n      dup1\n      0x0140\n      add\n      0x40\n      mstore\n      dup1\n      0x0a\n      swap1\n      0x20\n      dup3\n      mul\n      dup1\n      calldatasize\n      dup4\n      calldatacopy\n      dup1\n      dup3\n      add\n      swap2\n      pop\n      pop\n      swap1\n      pop\n      pop\n      swap1\n      jump\t// out\n        /* \"#utility.yul\":7:112   */\n    tag_75:\n        /* \"#utility.yul\":73:79   */\n      0x00\n        /* \"#utility.yul\":101:105   */\n      0x0a\n        /* \"#utility.yul\":91:105   */\n      swap1\n      pop\n        /* \"#utility.yul\":7:112   */\n      swap2\n      swap1\n      pop\n      jump\t// out\n        /* \"#utility.yul\":118:262   */\n    tag_76:\n        /* \"#utility.yul\":216:227   */\n      0x00\n        /* \"#utility.yul\":253:256   */\n      dup2\n        /* \"#utility.yul\":238:256   */\n      swap1\n      pop\n        /* \"#utility.yul\":118:262   */\n      swap3\n      swap2\n      pop\n      pop\n      jump\t// out\n        /* \"#utility.yul\":268:367   */\n    tag_77:\n        /* \"#utility.yul\":334:338   */\n      0x00\n        /* \"#utility.yul\":357:360   */\n      dup2\n        /* \"#utility.yul\":349:360   */\n      swap1\n      pop\n        /* \"#utility.yul\":268:367   */\n      swap2\n      swap1\n      pop\n      jump\t// out\n        /* \"#utility.yul\":373:450   */\n    tag_78:\n        /* \"#utility.yul\":410:417   */\n      0x00\n        /* \"#utility.yul\":439:444   */\n      dup2\n        /* \"#utility.yul\":428:444   */\n      swap1\n      pop\n        /* \"#utility.yul\":373:450   */\n      swap2\n      swap1\n      pop\n      jump\t// out\n        /* \"#utility.yul\":456:564   */\n    tag_79:\n        /* \"#utility.yul\":533:557   */\n      tag_99\n        /* \"#utility.yul\":551:556   */\n      dup2\n        /* \"#utility.yul\":533:557   */\n      tag_78\n      jump\t// in\n    tag_99:\n        /* \"#utility.yul\":528:531   */\n      dup3\n        /* \"#utility.yul\":521:558   */\n      mstore\n        /* \"#utility.yul\":456:564   */\n      pop\n      pop\n      jump\t// out\n        /* \"#utility.yul\":570:749   */\n    tag_80:\n        /* \"#utility.yul\":639:649   */\n      0x00\n        /* \"#utility.yul\":660:706   */\n      tag_101\n        /* \"#utility.yul\":702:705   */\n      dup4\n        /* \"#utility.yul\":694:700   */\n      dup4\n        /* \"#utility.yul\":660:706   */\n      tag_79\n      jump\t// in\n    tag_101:\n        /* \"#utility.yul\":738:742   */\n      0x20\n        /* \"#utility.yul\":733:736   */\n      dup4\n        /* \"#utility.yul\":729:743   */\n      add\n        /* \"#utility.yul\":715:743   */\n      swap1\n      pop\n        /* \"#utility.yul\":570:749   */\n      swap3\n      swap2\n      pop\n      pop\n      jump\t// out\n        /* \"#utility.yul\":755:867   */\n    tag_81:\n        /* \"#utility.yul\":824:828   */\n      0x00\n        /* \"#utility.yul\":856:860   */\n      0x20\n        /* \"#utility.yul\":851:854   */\n      dup3\n        /* \"#utility.yul\":847:861   */\n      add\n        /* \"#utility.yul\":839:861   */\n      swap1\n      pop\n        /* \"#utility.yul\":755:867   */\n      swap2\n      swap1\n      pop\n      jump\t// out\n        /* \"#utility.yul\":907:1607   */\n    tag_82:\n        /* \"#utility.yul\":1045:1098   */\n      tag_104\n        /* \"#utility.yul\":1092:1097   */\n      dup2\n        /* \"#utility.yul\":1045:1098   */\n      tag_75\n      jump\t// in\n    tag_104:\n        /* \"#utility.yul\":1114:1199   */\n      tag_105\n        /* \"#utility.yul\":1192:1198   */\n      dup2\n        /* \"#utility.yul\":1187:1190   */\n      dup5\n        /* \"#utility.yul\":1114:1199   */\n      tag_76\n      jump\t// in\n    tag_105:\n        /* \"#utility.yul\":1107:1199   */\n      swap3\n      pop\n        /* \"#utility.yul\":1223:1278   */\n      tag_106\n        /* \"#utility.yul\":1272:1277   */\n      dup3\n        /* \"#utility.yul\":1223:1278   */\n      tag_77\n      jump\t// in\n    tag_106:\n        /* \"#utility.yul\":1301:1308   */\n      dup1\n        /* \"#utility.yul\":1332:1333   */\n      0x00\n        /* \"#utility.yul\":1317:1600   */\n    tag_107:\n        /* \"#utility.yul\":1342:1348   */\n      dup4\n        /* \"#utility.yul\":1339:1340   */\n      dup2\n        /* \"#utility.yul\":1336:1349   */\n      lt\n        /* \"#utility.yul\":1317:1600   */\n      iszero\n      tag_109\n      jumpi\n        /* \"#utility.yul\":1418:1424   */\n      dup2\n        /* \"#utility.yul\":1412:1425   */\n      mload\n        /* \"#utility.yul\":1445:1508   */\n      tag_110\n        /* \"#utility.yul\":1504:1507   */\n      dup8\n        /* \"#utility.yul\":1489:1502   */\n      dup3\n        /* \"#utility.yul\":1445:1508   */\n      tag_80\n      jump\t// in\n    tag_110:\n        /* \"#utility.yul\":1438:1508   */\n      swap7\n      pop\n        /* \"#utility.yul\":1531:1590   */\n      tag_111\n        /* \"#utility.yul\":1583:1589   */\n      dup4\n        /* \"#utility.yul\":1531:1590   */\n      tag_81\n      jump\t// in\n    tag_111:\n        /* \"#utility.yul\":1521:1590   */\n      swap3\n      pop\n        /* \"#utility.yul\":1377:1600   */\n      pop\n        /* \"#utility.yul\":1364:1365   */\n      0x01\n        /* \"#utility.yul\":1361:1362   */\n      dup2\n        /* \"#utility.yul\":1357:1366   */\n      add\n        /* \"#utility.yul\":1352:1366   */\n      swap1\n      pop\n        /* \"#utility.yul\":1317:1600   */\n      jump(tag_107)\n    tag_109:\n        /* \"#utility.yul\":1321:1335   */\n      pop\n        /* \"#utility.yul\":1021:1607   */\n      pop\n      pop\n      pop\n        /* \"#utility.yul\":907:1607   */\n      pop\n      pop\n      jump\t// out\n        /* \"#utility.yul\":1613:1932   */\n    tag_14:\n        /* \"#utility.yul\":1754:1758   */\n      0x00\n        /* \"#utility.yul\":1792:1795   */\n      0x0140\n        /* \"#utility.yul\":1781:1790   */\n      dup3\n        /* \"#utility.yul\":1777:1796   */\n      add\n        /* \"#utility.yul\":1769:1796   */\n      swap1\n      pop\n        /* \"#utility.yul\":1806:1925   */\n      tag_113\n        /* \"#utility.yul\":1922:1923   */\n      0x00\n        /* \"#utility.yul\":1911:1920   */\n      dup4\n        /* \"#utility.yul\":1907:1924   */\n      add\n        /* \"#utility.yul\":1898:1904   */\n      dup5\n        /* \"#utility.yul\":1806:1925   */\n      tag_82\n      jump\t// in\n    tag_113:\n        /* \"#utility.yul\":1613:1932   */\n      swap3\n      swap2\n      pop\n      pop\n      jump\t// out\n        /* \"#utility.yul\":1938:2052   */\n    tag_83:\n        /* \"#utility.yul\":2005:2011   */\n      0x00\n        /* \"#utility.yul\":2039:2044   */\n      dup2\n        /* \"#utility.yul\":2033:2045   */\n      mload\n        /* \"#utility.yul\":2023:2045   */\n      swap1\n      pop\n        /* \"#utility.yul\":1938:2052   */\n      swap2\n      swap1\n      pop\n      jump\t// out\n        /* \"#utility.yul\":2058:2242   */\n    tag_84:\n        /* \"#utility.yul\":2157:2168   */\n      0x00\n        /* \"#utility.yul\":2191:2197   */\n      dup3\n        /* \"#utility.yul\":2186:2189   */\n      dup3\n        /* \"#utility.yul\":2179:2198   */\n      mstore\n        /* \"#utility.yul\":2231:2235   */\n      0x20\n        /* \"#utility.yul\":2226:2229   */\n      dup3\n        /* \"#utility.yul\":2222:2236   */\n      add\n        /* \"#utility.yul\":2207:2236   */\n      swap1\n      pop\n        /* \"#utility.yul\":2058:2242   */\n      swap3\n      swap2\n      pop\n      pop\n      jump\t// out\n        /* \"#utility.yul\":2248:2380   */\n    tag_85:\n        /* \"#utility.yul\":2315:2319   */\n      0x00\n        /* \"#utility.yul\":2338:2341   */\n      dup2\n        /* \"#utility.yul\":2330:2341   */\n      swap1\n      pop\n        /* \"#utility.yul\":2368:2372   */\n      0x20\n        /* \"#utility.yul\":2363:2366   */\n      dup3\n        /* \"#utility.yul\":2359:2373   */\n      add\n        /* \"#utility.yul\":2351:2373   */\n      swap1\n      pop\n        /* \"#utility.yul\":2248:2380   */\n      swap2\n      swap1\n      pop\n      jump\t// out\n        /* \"#utility.yul\":2386:2499   */\n    tag_86:\n        /* \"#utility.yul\":2456:2460   */\n      0x00\n        /* \"#utility.yul\":2488:2492   */\n      0x20\n        /* \"#utility.yul\":2483:2486   */\n      dup3\n        /* \"#utility.yul\":2479:2493   */\n      add\n        /* \"#utility.yul\":2471:2493   */\n      swap1\n      pop\n        /* \"#utility.yul\":2386:2499   */\n      swap2\n      swap1\n      pop\n      jump\t// out\n        /* \"#utility.yul\":2535:3267   */\n    tag_87:\n        /* \"#utility.yul\":2654:2657   */\n      0x00\n        /* \"#utility.yul\":2683:2737   */\n      tag_119\n        /* \"#utility.yul\":2731:2736   */\n      dup3\n        /* \"#utility.yul\":2683:2737   */\n      tag_83\n      jump\t// in\n    tag_119:\n        /* \"#utility.yul\":2753:2839   */\n      tag_120\n        /* \"#utility.yul\":2832:2838   */\n      dup2\n        /* \"#utility.yul\":2827:2830   */\n      dup6\n        /* \"#utility.yul\":2753:2839   */\n      tag_84\n      jump\t// in\n    tag_120:\n        /* \"#utility.yul\":2746:2839   */\n      swap4\n      pop\n        /* \"#utility.yul\":2863:2919   */\n      tag_121\n        /* \"#utility.yul\":2913:2918   */\n      dup4\n        /* \"#utility.yul\":2863:2919   */\n      tag_85\n      jump\t// in\n    tag_121:\n        /* \"#utility.yul\":2942:2949   */\n      dup1\n        /* \"#utility.yul\":2973:2974   */\n      0x00\n        /* \"#utility.yul\":2958:3242   */\n    tag_122:\n        /* \"#utility.yul\":2983:2989   */\n      dup4\n        /* \"#utility.yul\":2980:2981   */\n      dup2\n        /* \"#utility.yul\":2977:2990   */\n      lt\n        /* \"#utility.yul\":2958:3242   */\n      iszero\n      tag_124\n      jumpi\n        /* \"#utility.yul\":3059:3065   */\n      dup2\n        /* \"#utility.yul\":3053:3066   */\n      mload\n        /* \"#utility.yul\":3086:3149   */\n      tag_125\n        /* \"#utility.yul\":3145:3148   */\n      dup9\n        /* \"#utility.yul\":3130:3143   */\n      dup3\n        /* \"#utility.yul\":3086:3149   */\n      tag_80\n      jump\t// in\n    tag_125:\n        /* \"#utility.yul\":3079:3149   */\n      swap8\n      pop\n        /* \"#utility.yul\":3172:3232   */\n      tag_126\n        /* \"#utility.yul\":3225:3231   */\n      dup4\n        /* \"#utility.yul\":3172:3232   */\n      tag_86\n      jump\t// in\n    tag_126:\n        /* \"#utility.yul\":3162:3232   */\n      swap3\n      pop\n        /* \"#utility.yul\":3018:3242   */\n      pop\n        /* \"#utility.yul\":3005:3006   */\n      0x01\n        /* \"#utility.yul\":3002:3003   */\n      dup2\n        /* \"#utility.yul\":2998:3007   */\n      add\n        /* \"#utility.yul\":2993:3007   */\n      swap1\n      pop\n        /* \"#utility.yul\":2958:3242   */\n      jump(tag_122)\n    tag_124:\n        /* \"#utility.yul\":2962:2976   */\n      pop\n        /* \"#utility.yul\":3258:3261   */\n      dup6\n        /* \"#utility.yul\":3251:3261   */\n      swap4\n      pop\n        /* \"#utility.yul\":2659:3267   */\n      pop\n      pop\n      pop\n        /* \"#utility.yul\":2535:3267   */\n      swap3\n      swap2\n      pop\n      pop\n      jump\t// out\n        /* \"#utility.yul\":3273:3646   */\n    tag_20:\n        /* \"#utility.yul\":3416:3420   */\n      0x00\n        /* \"#utility.yul\":3454:3456   */\n      0x20\n        /* \"#utility.yul\":3443:3452   */\n      dup3\n        /* \"#utility.yul\":3439:3457   */\n      add\n        /* \"#utility.yul\":3431:3457   */\n      swap1\n      pop\n        /* \"#utility.yul\":3503:3512   */\n      dup2\n        /* \"#utility.yul\":3497:3501   */\n      dup2\n        /* \"#utility.yul\":3493:3513   */\n      sub\n        /* \"#utility.yul\":3489:3490   */\n      0x00\n        /* \"#utility.yul\":3478:3487   */\n      dup4\n        /* \"#utility.yul\":3474:3491   */\n      add\n        /* \"#utility.yul\":3467:3514   */\n      mstore\n        /* \"#utility.yul\":3531:3639   */\n      tag_128\n        /* \"#utility.yul\":3634:3638   */\n      dup2\n        /* \"#utility.yul\":3625:3631   */\n      dup5\n        /* \"#utility.yul\":3531:3639   */\n      tag_87\n      jump\t// in\n    tag_128:\n        /* \"#utility.yul\":3523:3639   */\n      swap1\n      pop\n        /* \"#utility.yul\":3273:3646   */\n      swap3\n      swap2\n      pop\n      pop\n      jump\t// out\n        /* \"#utility.yul\":3733:3850   */\n    tag_89:\n        /* \"#utility.yul\":3842:3843   */\n      0x00\n        /* \"#utility.yul\":3839:3840   */\n      dup1\n        /* \"#utility.yul\":3832:3844   */\n      revert\n        /* \"#utility.yul\":3979:4101   */\n    tag_91:\n        /* \"#utility.yul\":4052:4076   */\n      tag_133\n        /* \"#utility.yul\":4070:4075   */\n      dup2\n        /* \"#utility.yul\":4052:4076   */\n      tag_78\n      jump\t// in\n    tag_133:\n        /* \"#utility.yul\":4045:4050   */\n      dup2\n        /* \"#utility.yul\":4042:4077   */\n      eq\n        /* \"#utility.yul\":4032:4095   */\n      tag_134\n      jumpi\n        /* \"#utility.yul\":4091:4092   */\n      0x00\n        /* \"#utility.yul\":4088:4089   */\n      dup1\n        /* \"#utility.yul\":4081:4093   */\n      revert\n        /* \"#utility.yul\":4032:4095   */\n    tag_134:\n        /* \"#utility.yul\":3979:4101   */\n      pop\n      jump\t// out\n        /* \"#utility.yul\":4107:4246   */\n    tag_92:\n        /* \"#utility.yul\":4153:4158   */\n      0x00\n        /* \"#utility.yul\":4191:4197   */\n      dup2\n        /* \"#utility.yul\":4178:4198   */\n      calldataload\n        /* \"#utility.yul\":4169:4198   */\n      swap1\n      pop\n        /* \"#utility.yul\":4207:4240   */\n      tag_136\n        /* \"#utility.yul\":4234:4239   */\n      dup2\n        /* \"#utility.yul\":4207:4240   */\n      tag_91\n      jump\t// in\n    tag_136:\n        /* \"#utility.yul\":4107:4246   */\n      swap3\n      swap2\n      pop\n      pop\n      jump\t// out\n        /* \"#utility.yul\":4252:4581   */\n    tag_23:\n        /* \"#utility.yul\":4311:4317   */\n      0x00\n        /* \"#utility.yul\":4360:4362   */\n      0x20\n        /* \"#utility.yul\":4348:4357   */\n      dup3\n        /* \"#utility.yul\":4339:4346   */\n      dup5\n        /* \"#utility.yul\":4335:4358   */\n      sub\n        /* \"#utility.yul\":4331:4363   */\n      slt\n        /* \"#utility.yul\":4328:4447   */\n      iszero\n      tag_138\n      jumpi\n        /* \"#utility.yul\":4366:4445   */\n      tag_139\n      tag_89\n      jump\t// in\n    tag_139:\n        /* \"#utility.yul\":4328:4447   */\n    tag_138:\n        /* \"#utility.yul\":4486:4487   */\n      0x00\n        /* \"#utility.yul\":4511:4564   */\n      tag_140\n        /* \"#utility.yul\":4556:4563   */\n      dup5\n        /* \"#utility.yul\":4547:4553   */\n      dup3\n        /* \"#utility.yul\":4536:4545   */\n      dup6\n        /* \"#utility.yul\":4532:4554   */\n      add\n        /* \"#utility.yul\":4511:4564   */\n      tag_92\n      jump\t// in\n    tag_140:\n        /* \"#utility.yul\":4501:4564   */\n      swap2\n      pop\n        /* \"#utility.yul\":4457:4574   */\n      pop\n        /* \"#utility.yul\":4252:4581   */\n      swap3\n      swap2\n      pop\n      pop\n      jump\t// out\n        /* \"#utility.yul\":4587:4767   */\n    tag_38:\n        /* \"#utility.yul\":4635:4712   */\n      0x4e487b7100000000000000000000000000000000000000000000000000000000\n        /* \"#utility.yul\":4632:4633   */\n      0x00\n        /* \"#utility.yul\":4625:4713   */\n      mstore\n        /* \"#utility.yul\":4732:4736   */\n      0x32\n        /* \"#utility.yul\":4729:4730   */\n      0x04\n        /* \"#utility.yul\":4722:4737   */\n      mstore\n        /* \"#utility.yul\":4756:4760   */\n      0x24\n        /* \"#utility.yul\":4753:4754   */\n      0x00\n        /* \"#utility.yul\":4746:4761   */\n      revert\n\n    auxdata: 0xa264697066735822122094bd42b9354dac5bbc6d3136c5d68411c7e76b0e5a28bdcf6a040f634669e8b864736f6c63430008160033\n}\n",
				"bytecode": {
					"linkReferences": {},
					"object": "60806040526040518060800160405280600160ff168152602001600260ff168152602001600360ff168152602001600460ff168152506001906004610045929190610057565b50348015610051575f80fd5b506100c2565b828054828255905f5260205f20908101928215610096579160200282015b82811115610095578251829060ff16905591602001919060010190610075565b5b5090506100a391906100a7565b5090565b5b808211156100be575f815f9055506001016100a8565b5090565b6105a5806100cf5f395ff3fe608060405234801561000f575f80fd5b5060043610610060575f3560e01c806315d96058146100645780631aae56091461006e5780635012505c1461008c578063a7985f9114610096578063d15ec851146100b4578063fb8cbced146100d0575b5f80fd5b61006c6100ee565b005b610076610117565b604051610083919061041e565b60405180910390f35b610094610162565b005b61009e61027a565b6040516100ab91906104c9565b60405180910390f35b6100ce60048036038101906100c99190610517565b6102d0565b005b6100d86102f8565b6040516100e591906104c9565b60405180910390f35b60016042908060018154018082558091505060019003905f5260205f20015f9091909190915055565b61011f61034d565b6002600a806020026040519081016040528092919082600a8015610158576020028201915b815481526020019060010190808311610144575b5050505050905090565b600160025f600a811061017857610177610542565b5b0181905550600160026001600a811061019457610193610542565b5b01819055506001600280600a81106101af576101ae610542565b5b0181905550600160026003600a81106101cb576101ca610542565b5b0181905550600160026004600a81106101e7576101e6610542565b5b0181905550600160026005600a811061020357610202610542565b5b0181905550600160026006600a811061021f5761021e610542565b5b0181905550600160026007600a811061023b5761023a610542565b5b0181905550600160026008600a811061025757610256610542565b5b0181905550600160026009600a811061027357610272610542565b5b0181905550565b606060018054806020026020016040519081016040528092919081815260200182805480156102c657602002820191905f5260205f20905b8154815260200190600101908083116102b2575b5050505050905090565b5f81908060018154018082558091505060019003905f5260205f20015f909190919091505550565b60605f80548060200260200160405190810160405280929190818152602001828054801561034357602002820191905f5260205f20905b81548152602001906001019080831161032f575b5050505050905090565b604051806101400160405280600a90602082028036833780820191505090505090565b5f600a9050919050565b5f81905092915050565b5f819050919050565b5f819050919050565b61039f8161038d565b82525050565b5f6103b08383610396565b60208301905092915050565b5f602082019050919050565b6103d181610370565b6103db818461037a565b92506103e682610384565b805f5b838110156104165781516103fd87826103a5565b9650610408836103bc565b9250506001810190506103e9565b505050505050565b5f610140820190506104325f8301846103c8565b92915050565b5f81519050919050565b5f82825260208201905092915050565b5f819050602082019050919050565b5f602082019050919050565b5f61047782610438565b6104818185610442565b935061048c83610452565b805f5b838110156104bc5781516104a388826103a5565b97506104ae83610461565b92505060018101905061048f565b5085935050505092915050565b5f6020820190508181035f8301526104e1818461046d565b905092915050565b5f80fd5b6104f68161038d565b8114610500575f80fd5b50565b5f81359050610511816104ed565b92915050565b5f6020828403121561052c5761052b6104e9565b5b5f61053984828501610503565b91505092915050565b7f4e487b71000000000000000000000000000000000000000000000000000000005f52603260045260245ffdfea264697066735822122094bd42b9354dac5bbc6d3136c5d68411c7e76b0e5a28bdcf6a040f634669e8b864736f6c63430008160033",
					"opcodes": "PUSH1 0x80 PUSH1 0x40 MSTORE PUSH1 0x40 MLOAD DUP1 PUSH1 0x80 ADD PUSH1 0x40 MSTORE DUP1 PUSH1 0x1 PUSH1 0xFF AND DUP2 MSTORE PUSH1 0x20 ADD PUSH1 0x2 PUSH1 0xFF AND DUP2 MSTORE PUSH1 0x20 ADD PUSH1 0x3 PUSH1 0xFF AND DUP2 MSTORE PUSH1 0x20 ADD PUSH1 0x4 PUSH1 0xFF AND DUP2 MSTORE POP PUSH1 0x1 SWAP1 PUSH1 0x4 PUSH2 0x45 SWAP3 SWAP2 SWAP1 PUSH2 0x57 JUMP JUMPDEST POP CALLVALUE DUP1 ISZERO PUSH2 0x51 JUMPI PUSH0 DUP1 REVERT JUMPDEST POP PUSH2 0xC2 JUMP JUMPDEST DUP3 DUP1 SLOAD DUP3 DUP3 SSTORE SWAP1 PUSH0 MSTORE PUSH1 0x20 PUSH0 KECCAK256 SWAP1 DUP2 ADD SWAP3 DUP3 ISZERO PUSH2 0x96 JUMPI SWAP2 PUSH1 0x20 MUL DUP3 ADD JUMPDEST DUP3 DUP2 GT ISZERO PUSH2 0x95 JUMPI DUP3 MLOAD DUP3 SWAP1 PUSH1 0xFF AND SWAP1 SSTORE SWAP2 PUSH1 0x20 ADD SWAP2 SWAP1 PUSH1 0x1 ADD SWAP1 PUSH2 0x75 JUMP JUMPDEST JUMPDEST POP SWAP1 POP PUSH2 0xA3 SWAP2 SWAP1 PUSH2 0xA7 JUMP JUMPDEST POP SWAP1 JUMP JUMPDEST JUMPDEST DUP1 DUP3 GT ISZERO PUSH2 0xBE JUMPI PUSH0 DUP2 PUSH0 SWAP1 SSTORE POP PUSH1 0x1 ADD PUSH2 0xA8 JUMP JUMPDEST POP SWAP1 JUMP JUMPDEST PUSH2 0x5A5 DUP1 PUSH2 0xCF PUSH0 CODECOPY PUSH0 RETURN INVALID PUSH1 0x80 PUSH1 0x40 MSTORE CALLVALUE DUP1 ISZERO PUSH2 0xF JUMPI PUSH0 DUP1 REVERT JUMPDEST POP PUSH1 0x4 CALLDATASIZE LT PUSH2 0x60 JUMPI PUSH0 CALLDATALOAD PUSH1 0xE0 SHR DUP1 PUSH4 0x15D96058 EQ PUSH2 0x64 JUMPI DUP1 PUSH4 0x1AAE5609 EQ PUSH2 0x6E JUMPI DUP1 PUSH4 0x5012505C EQ PUSH2 0x8C JUMPI DUP1 PUSH4 0xA7985F91 EQ PUSH2 0x96 JUMPI DUP1 PUSH4 0xD15EC851 EQ PUSH2 0xB4 JUMPI DUP1 PUSH4 0xFB8CBCED EQ PUSH2 0xD0 JUMPI JUMPDEST PUSH0 DUP1 REVERT JUMPDEST PUSH2 0x6C PUSH2 0xEE JUMP JUMPDEST STOP JUMPDEST PUSH2 0x76 PUSH2 0x117 JUMP JUMPDEST PUSH1 0x40 MLOAD PUSH2 0x83 SWAP2 SWAP1 PUSH2 0x41E JUMP JUMPDEST PUSH1 0x40 MLOAD DUP1 SWAP2 SUB SWAP1 RETURN JUMPDEST PUSH2 0x94 PUSH2 0x162 JUMP JUMPDEST STOP JUMPDEST PUSH2 0x9E PUSH2 0x27A JUMP JUMPDEST PUSH1 0x40 MLOAD PUSH2 0xAB SWAP2 SWAP1 PUSH2 0x4C9 JUMP JUMPDEST PUSH1 0x40 MLOAD DUP1 SWAP2 SUB SWAP1 RETURN JUMPDEST PUSH2 0xCE PUSH1 0x4 DUP1 CALLDATASIZE SUB DUP2 ADD SWAP1 PUSH2 0xC9 SWAP2 SWAP1 PUSH2 0x517 JUMP JUMPDEST PUSH2 0x2D0 JUMP JUMPDEST STOP JUMPDEST PUSH2 0xD8 PUSH2 0x2F8 JUMP JUMPDEST PUSH1 0x40 MLOAD PUSH2 0xE5 SWAP2 SWAP1 PUSH2 0x4C9 JUMP JUMPDEST PUSH1 0x40 MLOAD DUP1 SWAP2 SUB SWAP1 RETURN JUMPDEST PUSH1 0x1 PUSH1 0x42 SWAP1 DUP1 PUSH1 0x1 DUP2 SLOAD ADD DUP1 DUP3 SSTORE DUP1 SWAP2 POP POP PUSH1 0x1 SWAP1 SUB SWAP1 PUSH0 MSTORE PUSH1 0x20 PUSH0 KECCAK256 ADD PUSH0 SWAP1 SWAP2 SWAP1 SWAP2 SWAP1 SWAP2 POP SSTORE JUMP JUMPDEST PUSH2 0x11F PUSH2 0x34D JUMP JUMPDEST PUSH1 0x2 PUSH1 0xA DUP1 PUSH1 0x20 MUL PUSH1 0x40 MLOAD SWAP1 DUP2 ADD PUSH1 0x40 MSTORE DUP1 SWAP3 SWAP2 SWAP1 DUP3 PUSH1 0xA DUP1 ISZERO PUSH2 0x158 JUMPI PUSH1 0x20 MUL DUP3 ADD SWAP2 JUMPDEST DUP2 SLOAD DUP2 MSTORE PUSH1 0x20 ADD SWAP1 PUSH1 0x1 ADD SWAP1 DUP1 DUP4 GT PUSH2 0x144 JUMPI JUMPDEST POP POP POP POP POP SWAP1 POP SWAP1 JUMP JUMPDEST PUSH1 0x1 PUSH1 0x2 PUSH0 PUSH1 0xA DUP2 LT PUSH2 0x178 JUMPI PUSH2 0x177 PUSH2 0x542 JUMP JUMPDEST JUMPDEST ADD DUP2 SWAP1 SSTORE POP PUSH1 0x1 PUSH1 0x2 PUSH1 0x1 PUSH1 0xA DUP2 LT PUSH2 0x194 JUMPI PUSH2 0x193 PUSH2 0x542 JUMP JUMPDEST JUMPDEST ADD DUP2 SWAP1 SSTORE POP PUSH1 0x1 PUSH1 0x2 DUP1 PUSH1 0xA DUP2 LT PUSH2 0x1AF JUMPI PUSH2 0x1AE PUSH2 0x542 JUMP JUMPDEST JUMPDEST ADD DUP2 SWAP1 SSTORE POP PUSH1 0x1 PUSH1 0x2 PUSH1 0x3 PUSH1 0xA DUP2 LT PUSH2 0x1CB JUMPI PUSH2 0x1CA PUSH2 0x542 JUMP JUMPDEST JUMPDEST ADD DUP2 SWAP1 SSTORE POP PUSH1 0x1 PUSH1 0x2 PUSH1 0x4 PUSH1 0xA DUP2 LT PUSH2 0x1E7 JUMPI PUSH2 0x1E6 PUSH2 0x542 JUMP JUMPDEST JUMPDEST ADD DUP2 SWAP1 SSTORE POP PUSH1 0x1 PUSH1 0x2 PUSH1 0x5 PUSH1 0xA DUP2 LT PUSH2 0x203 JUMPI PUSH2 0x202 PUSH2 0x542 JUMP JUMPDEST JUMPDEST ADD DUP2 SWAP1 SSTORE POP PUSH1 0x1 PUSH1 0x2 PUSH1 0x6 PUSH1 0xA DUP2 LT PUSH2 0x21F JUMPI PUSH2 0x21E PUSH2 0x542 JUMP JUMPDEST JUMPDEST ADD DUP2 SWAP1 SSTORE POP PUSH1 0x1 PUSH1 0x2 PUSH1 0x7 PUSH1 0xA DUP2 LT PUSH2 0x23B JUMPI PUSH2 0x23A PUSH2 0x542 JUMP JUMPDEST JUMPDEST ADD DUP2 SWAP1 SSTORE POP PUSH1 0x1 PUSH1 0x2 PUSH1 0x8 PUSH1 0xA DUP2 LT PUSH2 0x257 JUMPI PUSH2 0x256 PUSH2 0x542 JUMP JUMPDEST JUMPDEST ADD DUP2 SWAP1 SSTORE POP PUSH1 0x1 PUSH1 0x2 PUSH1 0x9 PUSH1 0xA DUP2 LT PUSH2 0x273 JUMPI PUSH2 0x272 PUSH2 0x542 JUMP JUMPDEST JUMPDEST ADD DUP2 SWAP1 SSTORE POP JUMP JUMPDEST PUSH1 0x60 PUSH1 0x1 DUP1 SLOAD DUP1 PUSH1 0x20 MUL PUSH1 0x20 ADD PUSH1 0x40 MLOAD SWAP1 DUP2 ADD PUSH1 0x40 MSTORE DUP1 SWAP3 SWAP2 SWAP1 DUP2 DUP2 MSTORE PUSH1 0x20 ADD DUP3 DUP1 SLOAD DUP1 ISZERO PUSH2 0x2C6 JUMPI PUSH1 0x20 MUL DUP3 ADD SWAP2 SWAP1 PUSH0 MSTORE PUSH1 0x20 PUSH0 KECCAK256 SWAP1 JUMPDEST DUP2 SLOAD DUP2 MSTORE PUSH1 0x20 ADD SWAP1 PUSH1 0x1 ADD SWAP1 DUP1 DUP4 GT PUSH2 0x2B2 JUMPI JUMPDEST POP POP POP POP POP SWAP1 POP SWAP1 JUMP JUMPDEST PUSH0 DUP2 SWAP1 DUP1 PUSH1 0x1 DUP2 SLOAD ADD DUP1 DUP3 SSTORE DUP1 SWAP2 POP POP PUSH1 0x1 SWAP1 SUB SWAP1 PUSH0 MSTORE PUSH1 0x20 PUSH0 KECCAK256 ADD PUSH0 SWAP1 SWAP2 SWAP1 SWAP2 SWAP1 SWAP2 POP SSTORE POP JUMP JUMPDEST PUSH1 0x60 PUSH0 DUP1 SLOAD DUP1 PUSH1 0x20 MUL PUSH1 0x20 ADD PUSH1 0x40 MLOAD SWAP1 DUP2 ADD PUSH1 0x40 MSTORE DUP1 SWAP3 SWAP2 SWAP1 DUP2 DUP2 MSTORE PUSH1 0x20 ADD DUP3 DUP1 SLOAD DUP1 ISZERO PUSH2 0x343 JUMPI PUSH1 0x20 MUL DUP3 ADD SWAP2 SWAP1 PUSH0 MSTORE PUSH1 0x20 PUSH0 KECCAK256 SWAP1 JUMPDEST DUP2 SLOAD DUP2 MSTORE PUSH1 0x20 ADD SWAP1 PUSH1 0x1 ADD SWAP1 DUP1 DUP4 GT PUSH2 0x32F JUMPI JUMPDEST POP POP POP POP POP SWAP1 POP SWAP1 JUMP JUMPDEST PUSH1 0x40 MLOAD DUP1 PUSH2 0x140 ADD PUSH1 0x40 MSTORE DUP1 PUSH1 0xA SWAP1 PUSH1 0x20 DUP3 MUL DUP1 CALLDATASIZE DUP4 CALLDATACOPY DUP1 DUP3 ADD SWAP2 POP POP SWAP1 POP POP SWAP1 JUMP JUMPDEST PUSH0 PUSH1 0xA SWAP1 POP SWAP2 SWAP1 POP JUMP JUMPDEST PUSH0 DUP2 SWAP1 POP SWAP3 SWAP2 POP POP JUMP JUMPDEST PUSH0 DUP2 SWAP1 POP SWAP2 SWAP1 POP JUMP JUMPDEST PUSH0 DUP2 SWAP1 POP SWAP2 SWAP1 POP JUMP JUMPDEST PUSH2 0x39F DUP2 PUSH2 0x38D JUMP JUMPDEST DUP3 MSTORE POP POP JUMP JUMPDEST PUSH0 PUSH2 0x3B0 DUP4 DUP4 PUSH2 0x396 JUMP JUMPDEST PUSH1 0x20 DUP4 ADD SWAP1 POP SWAP3 SWAP2 POP POP JUMP JUMPDEST PUSH0 PUSH1 0x20 DUP3 ADD SWAP1 POP SWAP2 SWAP1 POP JUMP JUMPDEST PUSH2 0x3D1 DUP2 PUSH2 0x370 JUMP JUMPDEST PUSH2 0x3DB DUP2 DUP5 PUSH2 0x37A JUMP JUMPDEST SWAP3 POP PUSH2 0x3E6 DUP3 PUSH2 0x384 JUMP JUMPDEST DUP1 PUSH0 JUMPDEST DUP4 DUP2 LT ISZERO PUSH2 0x416 JUMPI DUP2 MLOAD PUSH2 0x3FD DUP8 DUP3 PUSH2 0x3A5 JUMP JUMPDEST SWAP7 POP PUSH2 0x408 DUP4 PUSH2 0x3BC JUMP JUMPDEST SWAP3 POP POP PUSH1 0x1 DUP2 ADD SWAP1 POP PUSH2 0x3E9 JUMP JUMPDEST POP POP POP POP POP POP JUMP JUMPDEST PUSH0 PUSH2 0x140 DUP3 ADD SWAP1 POP PUSH2 0x432 PUSH0 DUP4 ADD DUP5 PUSH2 0x3C8 JUMP JUMPDEST SWAP3 SWAP2 POP POP JUMP JUMPDEST PUSH0 DUP2 MLOAD SWAP1 POP SWAP2 SWAP1 POP JUMP JUMPDEST PUSH0 DUP3 DUP3 MSTORE PUSH1 0x20 DUP3 ADD SWAP1 POP SWAP3 SWAP2 POP POP JUMP JUMPDEST PUSH0 DUP2 SWAP1 POP PUSH1 0x20 DUP3 ADD SWAP1 POP SWAP2 SWAP1 POP JUMP JUMPDEST PUSH0 PUSH1 0x20 DUP3 ADD SWAP1 POP SWAP2 SWAP1 POP JUMP JUMPDEST PUSH0 PUSH2 0x477 DUP3 PUSH2 0x438 JUMP JUMPDEST PUSH2 0x481 DUP2 DUP6 PUSH2 0x442 JUMP JUMPDEST SWAP4 POP PUSH2 0x48C DUP4 PUSH2 0x452 JUMP JUMPDEST DUP1 PUSH0 JUMPDEST DUP4 DUP2 LT ISZERO PUSH2 0x4BC JUMPI DUP2 MLOAD PUSH2 0x4A3 DUP9 DUP3 PUSH2 0x3A5 JUMP JUMPDEST SWAP8 POP PUSH2 0x4AE DUP4 PUSH2 0x461 JUMP JUMPDEST SWAP3 POP POP PUSH1 0x1 DUP2 ADD SWAP1 POP PUSH2 0x48F JUMP JUMPDEST POP DUP6 SWAP4 POP POP POP POP SWAP3 SWAP2 POP POP JUMP JUMPDEST PUSH0 PUSH1 0x20 DUP3 ADD SWAP1 POP DUP2 DUP2 SUB PUSH0 DUP4 ADD MSTORE PUSH2 0x4E1 DUP2 DUP5 PUSH2 0x46D JUMP JUMPDEST SWAP1 POP SWAP3 SWAP2 POP POP JUMP JUMPDEST PUSH0 DUP1 REVERT JUMPDEST PUSH2 0x4F6 DUP2 PUSH2 0x38D JUMP JUMPDEST DUP2 EQ PUSH2 0x500 JUMPI PUSH0 DUP1 REVERT JUMPDEST POP JUMP JUMPDEST PUSH0 DUP2 CALLDATALOAD SWAP1 POP PUSH2 0x511 DUP2 PUSH2 0x4ED JUMP JUMPDEST SWAP3 SWAP2 POP POP JUMP JUMPDEST PUSH0 PUSH1 0x20 DUP3 DUP5 SUB SLT ISZERO PUSH2 0x52C JUMPI PUSH2 0x52B PUSH2 0x4E9 JUMP JUMPDEST JUMPDEST PUSH0 PUSH2 0x539 DUP5 DUP3 DUP6 ADD PUSH2 0x503 JUMP JUMPDEST SWAP2 POP POP SWAP3 SWAP2 POP POP JUMP JUMPDEST PUSH32 0x4E487B7100000000000000000000000000000000000000000000000000000000 PUSH0 MSTORE PUSH1 0x32 PUSH1 0x4 MSTORE PUSH1 0x24 PUSH0 REVERT INVALID LOG2 PUSH5 0x6970667358 0x22 SLT KECCAK256 SWAP5 0xBD TIMESTAMP 0xB9 CALLDATALOAD 0x4D 0xAC JUMPDEST 0xBC PUSH14 0x3136C5D68411C7E76B0E5A28BDCF PUSH11 0x40F634669E8B864736F6C PUSH4 0x43000816 STOP CALLER "
				},
				"gasEstimates": {
					"creation": {
						"codeDepositCost": "289000",
						"executionCost": "infinite",
						"totalCost": "infinite"
					},
					"external": {
						"addToArray(uint256)": "46886",
						"getArr()": "infinite",
						"getFixedSize()": "infinite",
						"getMyArr()": "infinite",
						"pushIn()": "46541",
						"pushIt()": "221594"
					}
				},
				"methodIdentifiers": {
					"addToArray(uint256)": "d15ec851",
					"getArr()": "fb8cbced",
					"getFixedSize()": "1aae5609",
					"getMyArr()": "a7985f91",
					"pushIn()": "15d96058",
					"pushIt()": "5012505c"
				}
			},
			"storageLayout": {
				"storage": [
					{
						"astId": 4,
						"contract": "contracts/array/array1.sol:Array",
						"label": "arr",
						"offset": 0,
						"slot": "0",
						"type": "t_array(t_uint256)dyn_storage"
					},
					{
						"astId": 12,
						"contract": "contracts/array/array1.sol:Array",
						"label": "myArr",
						"offset": 0,
						"slot": "1",
						"type": "t_array(t_uint256)dyn_storage"
					},
					{
						"astId": 16,
						"contract": "contracts/array/array1.sol:Array",
						"label": "fixedSize",
						"offset": 0,
						"slot": "2",
						"type": "t_array(t_uint256)10_storage"
					}
				],
				"types": {
					"t_array(t_uint256)10_storage": {
						"base": "t_uint256",
						"encoding": "inplace",
						"label": "uint256[10]",
						"numberOfBytes": "320"
					},
					"t_array(t_uint256)dyn_storage": {
						"base": "t_uint256",
						"encoding": "dynamic_array",
						"label": "uint256[]",
						"numberOfBytes": "32"
					},
					"t_uint256": {
						"encoding": "inplace",
						"label": "uint256",
						"numberOfBytes": "32"
					}
				}
			},
			"userdoc": {
				"kind": "user",
				"methods": {},
				"version": 1
			}
		}
	}
}