{
	"contracts/twitter/Twitter.sol": {
		"Twitter": {
			"abi": [
				{
					"inputs": [],
					"stateMutability": "nonpayable",
					"type": "constructor"
				},
				{
					"inputs": [
						{
							"internalType": "uint256",
							"name": "newLenght",
							"type": "uint256"
						}
					],
					"name": "changeTweetLength",
					"outputs": [],
					"stateMutability": "nonpayable",
					"type": "function"
				},
				{
					"inputs": [
						{
							"internalType": "string",
							"name": "_content",
							"type": "string"
						}
					],
					"name": "createTweet",
					"outputs": [],
					"stateMutability": "nonpayable",
					"type": "function"
				},
				{
					"inputs": [],
					"name": "getTweet",
					"outputs": [
						{
							"components": [
								{
									"internalType": "address",
									"name": "author",
									"type": "address"
								},
								{
									"internalType": "string",
									"name": "content",
									"type": "string"
								},
								{
									"internalType": "uint256",
									"name": "timeTweeted",
									"type": "uint256"
								},
								{
									"internalType": "uint256",
									"name": "contentLike",
									"type": "uint256"
								}
							],
							"internalType": "struct Twitter.Tweet[]",
							"name": "",
							"type": "tuple[]"
						}
					],
					"stateMutability": "view",
					"type": "function"
				},
				{
					"inputs": [
						{
							"internalType": "uint256",
							"name": "index",
							"type": "uint256"
						}
					],
					"name": "getTweetContent",
					"outputs": [
						{
							"internalType": "string",
							"name": "",
							"type": "string"
						}
					],
					"stateMutability": "view",
					"type": "function"
				},
				{
					"inputs": [
						{
							"internalType": "uint256",
							"name": "index",
							"type": "uint256"
						}
					],
					"name": "getTweetIndex",
					"outputs": [
						{
							"components": [
								{
									"internalType": "address",
									"name": "author",
									"type": "address"
								},
								{
									"internalType": "string",
									"name": "content",
									"type": "string"
								},
								{
									"internalType": "uint256",
									"name": "timeTweeted",
									"type": "uint256"
								},
								{
									"internalType": "uint256",
									"name": "contentLike",
									"type": "uint256"
								}
							],
							"internalType": "struct Twitter.Tweet",
							"name": "",
							"type": "tuple"
						}
					],
					"stateMutability": "view",
					"type": "function"
				}
			],
			"devdoc": {
				"kind": "dev",
				"methods": {},
				"version": 1
			},
			"evm": {
				"assembly": "    /* \"contracts/twitter/Twitter.sol\":59:1348  contract Twitter{... */\n  mstore(0x40, 0x80)\n    /* \"contracts/twitter/Twitter.sol\":140:215  constructor(){... */\n  callvalue\n  dup1\n  iszero\n  tag_1\n  jumpi\n  0x00\n  dup1\n  revert\ntag_1:\n  pop\n    /* \"contracts/twitter/Twitter.sol\":171:181  msg.sender */\n  caller\n    /* \"contracts/twitter/Twitter.sol\":163:168  owner */\n  0x00\n  dup1\n    /* \"contracts/twitter/Twitter.sol\":163:181  owner = msg.sender */\n  0x0100\n  exp\n  dup2\n  sload\n  dup2\n  0xffffffffffffffffffffffffffffffffffffffff\n  mul\n  not\n  and\n  swap1\n  dup4\n  0xffffffffffffffffffffffffffffffffffffffff\n  and\n  mul\n  or\n  swap1\n  sstore\n  pop\n    /* \"contracts/twitter/Twitter.sol\":205:208  300 */\n  0x012c\n    /* \"contracts/twitter/Twitter.sol\":191:202  tweetLength */\n  0x01\n    /* \"contracts/twitter/Twitter.sol\":191:208  tweetLength = 300 */\n  dup2\n  swap1\n  sstore\n  pop\n    /* \"contracts/twitter/Twitter.sol\":59:1348  contract Twitter{... */\n  dataSize(sub_0)\n  dup1\n  dataOffset(sub_0)\n  0x00\n  codecopy\n  0x00\n  return\nstop\n\nsub_0: assembly {\n        /* \"contracts/twitter/Twitter.sol\":59:1348  contract Twitter{... */\n      mstore(0x40, 0x80)\n      callvalue\n      dup1\n      iszero\n      tag_1\n      jumpi\n      0x00\n      dup1\n      revert\n    tag_1:\n      pop\n      jumpi(tag_2, lt(calldatasize, 0x04))\n      shr(0xe0, calldataload(0x00))\n      dup1\n      0x3a756bd6\n      eq\n      tag_3\n      jumpi\n      dup1\n      0x7c9cd2bc\n      eq\n      tag_4\n      jumpi\n      dup1\n      0x888a7880\n      eq\n      tag_5\n      jumpi\n      dup1\n      0xa1575f92\n      eq\n      tag_6\n      jumpi\n      dup1\n      0xc2e25658\n      eq\n      tag_7\n      jumpi\n    tag_2:\n      0x00\n      dup1\n      revert\n        /* \"contracts/twitter/Twitter.sol\":1248:1345  function getTweet() public view returns(Tweet[] memory){... */\n    tag_3:\n      tag_8\n      tag_9\n      jump\t// in\n    tag_8:\n      mload(0x40)\n      tag_10\n      swap2\n      swap1\n      tag_11\n      jump\t// in\n    tag_10:\n      mload(0x40)\n      dup1\n      swap2\n      sub\n      swap1\n      return\n        /* \"contracts/twitter/Twitter.sol\":621:983  function createTweet(string memory _content) public {... */\n    tag_4:\n      tag_12\n      0x04\n      dup1\n      calldatasize\n      sub\n      dup2\n      add\n      swap1\n      tag_13\n      swap2\n      swap1\n      tag_14\n      jump\t// in\n    tag_13:\n      tag_15\n      jump\t// in\n    tag_12:\n      stop\n        /* \"contracts/twitter/Twitter.sol\":467:566  function changeTweetLength(uint newLenght) public onlyOwner{... */\n    tag_5:\n      tag_16\n      0x04\n      dup1\n      calldatasize\n      sub\n      dup2\n      add\n      swap1\n      tag_17\n      swap2\n      swap1\n      tag_18\n      jump\t// in\n    tag_17:\n      tag_19\n      jump\t// in\n    tag_16:\n      stop\n        /* \"contracts/twitter/Twitter.sol\":1123:1242  function getTweetIndex(uint index) public view returns (Tweet memory){... */\n    tag_6:\n      tag_20\n      0x04\n      dup1\n      calldatasize\n      sub\n      dup2\n      add\n      swap1\n      tag_21\n      swap2\n      swap1\n      tag_18\n      jump\t// in\n    tag_21:\n      tag_22\n      jump\t// in\n    tag_20:\n      mload(0x40)\n      tag_23\n      swap2\n      swap1\n      tag_24\n      jump\t// in\n    tag_23:\n      mload(0x40)\n      dup1\n      swap2\n      sub\n      swap1\n      return\n        /* \"contracts/twitter/Twitter.sol\":989:1117  function getTweetContent(uint index) public view returns(string memory){... */\n    tag_7:\n      tag_25\n      0x04\n      dup1\n      calldatasize\n      sub\n      dup2\n      add\n      swap1\n      tag_26\n      swap2\n      swap1\n      tag_18\n      jump\t// in\n    tag_26:\n      tag_27\n      jump\t// in\n    tag_25:\n      mload(0x40)\n      tag_28\n      swap2\n      swap1\n      tag_29\n      jump\t// in\n    tag_28:\n      mload(0x40)\n      dup1\n      swap2\n      sub\n      swap1\n      return\n        /* \"contracts/twitter/Twitter.sol\":1248:1345  function getTweet() public view returns(Tweet[] memory){... */\n    tag_9:\n        /* \"contracts/twitter/Twitter.sol\":1288:1302  Tweet[] memory */\n      0x60\n        /* \"contracts/twitter/Twitter.sol\":1320:1326  tweets */\n      0x02\n        /* \"contracts/twitter/Twitter.sol\":1320:1338  tweets[msg.sender] */\n      0x00\n        /* \"contracts/twitter/Twitter.sol\":1327:1337  msg.sender */\n      caller\n        /* \"contracts/twitter/Twitter.sol\":1320:1338  tweets[msg.sender] */\n      0xffffffffffffffffffffffffffffffffffffffff\n      and\n      0xffffffffffffffffffffffffffffffffffffffff\n      and\n      dup2\n      mstore\n      0x20\n      add\n      swap1\n      dup2\n      mstore\n      0x20\n      add\n      0x00\n      keccak256\n        /* \"contracts/twitter/Twitter.sol\":1313:1338  return tweets[msg.sender] */\n      dup1\n      sload\n      dup1\n      0x20\n      mul\n      0x20\n      add\n      mload(0x40)\n      swap1\n      dup2\n      add\n      0x40\n      mstore\n      dup1\n      swap3\n      swap2\n      swap1\n      dup2\n      dup2\n      mstore\n      0x20\n      add\n      0x00\n      swap1\n    tag_31:\n      dup3\n      dup3\n      lt\n      iszero\n      tag_32\n      jumpi\n      dup4\n      dup3\n      swap1\n      0x00\n      mstore\n      keccak256(0x00, 0x20)\n      swap1\n      0x04\n      mul\n      add\n      mload(0x40)\n      dup1\n      0x80\n      add\n      0x40\n      mstore\n      swap1\n      dup2\n      0x00\n      dup3\n      add\n      0x00\n      swap1\n      sload\n      swap1\n      0x0100\n      exp\n      swap1\n      div\n      0xffffffffffffffffffffffffffffffffffffffff\n      and\n      0xffffffffffffffffffffffffffffffffffffffff\n      and\n      0xffffffffffffffffffffffffffffffffffffffff\n      and\n      dup2\n      mstore\n      0x20\n      add\n      0x01\n      dup3\n      add\n      dup1\n      sload\n      tag_34\n      swap1\n      tag_35\n      jump\t// in\n    tag_34:\n      dup1\n      0x1f\n      add\n      0x20\n      dup1\n      swap2\n      div\n      mul\n      0x20\n      add\n      mload(0x40)\n      swap1\n      dup2\n      add\n      0x40\n      mstore\n      dup1\n      swap3\n      swap2\n      swap1\n      dup2\n      dup2\n      mstore\n      0x20\n      add\n      dup3\n      dup1\n      sload\n      tag_36\n      swap1\n      tag_35\n      jump\t// in\n    tag_36:\n      dup1\n      iszero\n      tag_37\n      jumpi\n      dup1\n      0x1f\n      lt\n      tag_38\n      jumpi\n      0x0100\n      dup1\n      dup4\n      sload\n      div\n      mul\n      dup4\n      mstore\n      swap2\n      0x20\n      add\n      swap2\n      jump(tag_37)\n    tag_38:\n      dup3\n      add\n      swap2\n      swap1\n      0x00\n      mstore\n      keccak256(0x00, 0x20)\n      swap1\n    tag_39:\n      dup2\n      sload\n      dup2\n      mstore\n      swap1\n      0x01\n      add\n      swap1\n      0x20\n      add\n      dup1\n      dup4\n      gt\n      tag_39\n      jumpi\n      dup3\n      swap1\n      sub\n      0x1f\n      and\n      dup3\n      add\n      swap2\n    tag_37:\n      pop\n      pop\n      pop\n      pop\n      pop\n      dup2\n      mstore\n      0x20\n      add\n      0x02\n      dup3\n      add\n      sload\n      dup2\n      mstore\n      0x20\n      add\n      0x03\n      dup3\n      add\n      sload\n      dup2\n      mstore\n      pop\n      pop\n      dup2\n      mstore\n      0x20\n      add\n      swap1\n      0x01\n      add\n      swap1\n      jump(tag_31)\n    tag_32:\n      pop\n      pop\n      pop\n      pop\n      swap1\n      pop\n        /* \"contracts/twitter/Twitter.sol\":1248:1345  function getTweet() public view returns(Tweet[] memory){... */\n      swap1\n      jump\t// out\n        /* \"contracts/twitter/Twitter.sol\":621:983  function createTweet(string memory _content) public {... */\n    tag_15:\n        /* \"contracts/twitter/Twitter.sol\":718:729  tweetLength */\n      sload(0x01)\n        /* \"contracts/twitter/Twitter.sol\":698:706  _content */\n      dup2\n        /* \"contracts/twitter/Twitter.sol\":692:714  bytes(_content).length */\n      mload\n        /* \"contracts/twitter/Twitter.sol\":692:729  bytes(_content).length <= tweetLength */\n      gt\n      iszero\n        /* \"contracts/twitter/Twitter.sol\":684:755  require(bytes(_content).length <= tweetLength, \"exceed max text limit\") */\n      tag_41\n      jumpi\n      mload(0x40)\n      0x08c379a000000000000000000000000000000000000000000000000000000000\n      dup2\n      mstore\n      0x04\n      add\n      tag_42\n      swap1\n      tag_43\n      jump\t// in\n    tag_42:\n      mload(0x40)\n      dup1\n      swap2\n      sub\n      swap1\n      revert\n    tag_41:\n        /* \"contracts/twitter/Twitter.sol\":765:783  Tweet memory tweet */\n      0x00\n        /* \"contracts/twitter/Twitter.sol\":786:936  Tweet({... */\n      mload(0x40)\n      dup1\n      0x80\n      add\n      0x40\n      mstore\n      dup1\n        /* \"contracts/twitter/Twitter.sol\":814:824  msg.sender */\n      caller\n        /* \"contracts/twitter/Twitter.sol\":786:936  Tweet({... */\n      0xffffffffffffffffffffffffffffffffffffffff\n      and\n      dup2\n      mstore\n      0x20\n      add\n        /* \"contracts/twitter/Twitter.sol\":847:855  _content */\n      dup4\n        /* \"contracts/twitter/Twitter.sol\":786:936  Tweet({... */\n      dup2\n      mstore\n      0x20\n      add\n        /* \"contracts/twitter/Twitter.sol\":882:897  block.timestamp */\n      timestamp\n        /* \"contracts/twitter/Twitter.sol\":786:936  Tweet({... */\n      dup2\n      mstore\n      0x20\n      add\n        /* \"contracts/twitter/Twitter.sol\":924:925  1 */\n      0x01\n        /* \"contracts/twitter/Twitter.sol\":786:936  Tweet({... */\n      dup2\n      mstore\n      pop\n        /* \"contracts/twitter/Twitter.sol\":765:936  Tweet memory tweet = Tweet({... */\n      swap1\n      pop\n        /* \"contracts/twitter/Twitter.sol\":946:952  tweets */\n      0x02\n        /* \"contracts/twitter/Twitter.sol\":946:964  tweets[msg.sender] */\n      0x00\n        /* \"contracts/twitter/Twitter.sol\":953:963  msg.sender */\n      caller\n        /* \"contracts/twitter/Twitter.sol\":946:964  tweets[msg.sender] */\n      0xffffffffffffffffffffffffffffffffffffffff\n      and\n      0xffffffffffffffffffffffffffffffffffffffff\n      and\n      dup2\n      mstore\n      0x20\n      add\n      swap1\n      dup2\n      mstore\n      0x20\n      add\n      0x00\n      keccak256\n        /* \"contracts/twitter/Twitter.sol\":970:975  tweet */\n      dup2\n        /* \"contracts/twitter/Twitter.sol\":946:976  tweets[msg.sender].push(tweet) */\n      swap1\n      dup1\n      0x01\n      dup2\n      sload\n      add\n      dup1\n      dup3\n      sstore\n      dup1\n      swap2\n      pop\n      pop\n      0x01\n      swap1\n      sub\n      swap1\n      0x00\n      mstore\n      keccak256(0x00, 0x20)\n      swap1\n      0x04\n      mul\n      add\n      0x00\n      swap1\n      swap2\n      swap1\n      swap2\n      swap1\n      swap2\n      pop\n      0x00\n      dup3\n      add\n      mload\n      dup2\n      0x00\n      add\n      exp(0x0100, 0x00)\n      dup2\n      sload\n      dup2\n      0xffffffffffffffffffffffffffffffffffffffff\n      mul\n      not\n      and\n      swap1\n      dup4\n      0xffffffffffffffffffffffffffffffffffffffff\n      and\n      mul\n      or\n      swap1\n      sstore\n      pop\n      0x20\n      dup3\n      add\n      mload\n      dup2\n      0x01\n      add\n      swap1\n      dup2\n      tag_45\n      swap2\n      swap1\n      tag_46\n      jump\t// in\n    tag_45:\n      pop\n      0x40\n      dup3\n      add\n      mload\n      dup2\n      0x02\n      add\n      sstore\n      0x60\n      dup3\n      add\n      mload\n      dup2\n      0x03\n      add\n      sstore\n      pop\n      pop\n        /* \"contracts/twitter/Twitter.sol\":673:983  {... */\n      pop\n        /* \"contracts/twitter/Twitter.sol\":621:983  function createTweet(string memory _content) public {... */\n      pop\n      jump\t// out\n        /* \"contracts/twitter/Twitter.sol\":467:566  function changeTweetLength(uint newLenght) public onlyOwner{... */\n    tag_19:\n        /* \"contracts/twitter/Twitter.sol\":398:403  owner */\n      0x00\n      dup1\n      sload\n      swap1\n      0x0100\n      exp\n      swap1\n      div\n      0xffffffffffffffffffffffffffffffffffffffff\n      and\n        /* \"contracts/twitter/Twitter.sol\":384:403  msg.sender == owner */\n      0xffffffffffffffffffffffffffffffffffffffff\n      and\n        /* \"contracts/twitter/Twitter.sol\":384:394  msg.sender */\n      caller\n        /* \"contracts/twitter/Twitter.sol\":384:403  msg.sender == owner */\n      0xffffffffffffffffffffffffffffffffffffffff\n      and\n      eq\n        /* \"contracts/twitter/Twitter.sol\":376:444  require(msg.sender == owner, \"Only owner allowed to perform action\") */\n      tag_48\n      jumpi\n      mload(0x40)\n      0x08c379a000000000000000000000000000000000000000000000000000000000\n      dup2\n      mstore\n      0x04\n      add\n      tag_49\n      swap1\n      tag_50\n      jump\t// in\n    tag_49:\n      mload(0x40)\n      dup1\n      swap2\n      sub\n      swap1\n      revert\n    tag_48:\n        /* \"contracts/twitter/Twitter.sol\":550:559  newLenght */\n      dup1\n        /* \"contracts/twitter/Twitter.sol\":536:547  tweetLength */\n      0x01\n        /* \"contracts/twitter/Twitter.sol\":536:559  tweetLength = newLenght */\n      dup2\n      swap1\n      sstore\n      pop\n        /* \"contracts/twitter/Twitter.sol\":467:566  function changeTweetLength(uint newLenght) public onlyOwner{... */\n      pop\n      jump\t// out\n        /* \"contracts/twitter/Twitter.sol\":1123:1242  function getTweetIndex(uint index) public view returns (Tweet memory){... */\n    tag_22:\n        /* \"contracts/twitter/Twitter.sol\":1179:1191  Tweet memory */\n      tag_52\n      tag_53\n      jump\t// in\n    tag_52:\n        /* \"contracts/twitter/Twitter.sol\":1210:1216  tweets */\n      0x02\n        /* \"contracts/twitter/Twitter.sol\":1210:1228  tweets[msg.sender] */\n      0x00\n        /* \"contracts/twitter/Twitter.sol\":1217:1227  msg.sender */\n      caller\n        /* \"contracts/twitter/Twitter.sol\":1210:1228  tweets[msg.sender] */\n      0xffffffffffffffffffffffffffffffffffffffff\n      and\n      0xffffffffffffffffffffffffffffffffffffffff\n      and\n      dup2\n      mstore\n      0x20\n      add\n      swap1\n      dup2\n      mstore\n      0x20\n      add\n      0x00\n      keccak256\n        /* \"contracts/twitter/Twitter.sol\":1229:1234  index */\n      dup3\n        /* \"contracts/twitter/Twitter.sol\":1210:1235  tweets[msg.sender][index] */\n      dup2\n      sload\n      dup2\n      lt\n      tag_55\n      jumpi\n      tag_56\n      tag_57\n      jump\t// in\n    tag_56:\n    tag_55:\n      swap1\n      0x00\n      mstore\n      keccak256(0x00, 0x20)\n      swap1\n      0x04\n      mul\n      add\n        /* \"contracts/twitter/Twitter.sol\":1202:1235  return  tweets[msg.sender][index] */\n      mload(0x40)\n      dup1\n      0x80\n      add\n      0x40\n      mstore\n      swap1\n      dup2\n      0x00\n      dup3\n      add\n      0x00\n      swap1\n      sload\n      swap1\n      0x0100\n      exp\n      swap1\n      div\n      0xffffffffffffffffffffffffffffffffffffffff\n      and\n      0xffffffffffffffffffffffffffffffffffffffff\n      and\n      0xffffffffffffffffffffffffffffffffffffffff\n      and\n      dup2\n      mstore\n      0x20\n      add\n      0x01\n      dup3\n      add\n      dup1\n      sload\n      tag_59\n      swap1\n      tag_35\n      jump\t// in\n    tag_59:\n      dup1\n      0x1f\n      add\n      0x20\n      dup1\n      swap2\n      div\n      mul\n      0x20\n      add\n      mload(0x40)\n      swap1\n      dup2\n      add\n      0x40\n      mstore\n      dup1\n      swap3\n      swap2\n      swap1\n      dup2\n      dup2\n      mstore\n      0x20\n      add\n      dup3\n      dup1\n      sload\n      tag_60\n      swap1\n      tag_35\n      jump\t// in\n    tag_60:\n      dup1\n      iszero\n      tag_61\n      jumpi\n      dup1\n      0x1f\n      lt\n      tag_62\n      jumpi\n      0x0100\n      dup1\n      dup4\n      sload\n      div\n      mul\n      dup4\n      mstore\n      swap2\n      0x20\n      add\n      swap2\n      jump(tag_61)\n    tag_62:\n      dup3\n      add\n      swap2\n      swap1\n      0x00\n      mstore\n      keccak256(0x00, 0x20)\n      swap1\n    tag_63:\n      dup2\n      sload\n      dup2\n      mstore\n      swap1\n      0x01\n      add\n      swap1\n      0x20\n      add\n      dup1\n      dup4\n      gt\n      tag_63\n      jumpi\n      dup3\n      swap1\n      sub\n      0x1f\n      and\n      dup3\n      add\n      swap2\n    tag_61:\n      pop\n      pop\n      pop\n      pop\n      pop\n      dup2\n      mstore\n      0x20\n      add\n      0x02\n      dup3\n      add\n      sload\n      dup2\n      mstore\n      0x20\n      add\n      0x03\n      dup3\n      add\n      sload\n      dup2\n      mstore\n      pop\n      pop\n      swap1\n      pop\n        /* \"contracts/twitter/Twitter.sol\":1123:1242  function getTweetIndex(uint index) public view returns (Tweet memory){... */\n      swap2\n      swap1\n      pop\n      jump\t// out\n        /* \"contracts/twitter/Twitter.sol\":989:1117  function getTweetContent(uint index) public view returns(string memory){... */\n    tag_27:\n        /* \"contracts/twitter/Twitter.sol\":1046:1059  string memory */\n      0x60\n        /* \"contracts/twitter/Twitter.sol\":1077:1083  tweets */\n      0x02\n        /* \"contracts/twitter/Twitter.sol\":1077:1095  tweets[msg.sender] */\n      0x00\n        /* \"contracts/twitter/Twitter.sol\":1084:1094  msg.sender */\n      caller\n        /* \"contracts/twitter/Twitter.sol\":1077:1095  tweets[msg.sender] */\n      0xffffffffffffffffffffffffffffffffffffffff\n      and\n      0xffffffffffffffffffffffffffffffffffffffff\n      and\n      dup2\n      mstore\n      0x20\n      add\n      swap1\n      dup2\n      mstore\n      0x20\n      add\n      0x00\n      keccak256\n        /* \"contracts/twitter/Twitter.sol\":1096:1101  index */\n      dup3\n        /* \"contracts/twitter/Twitter.sol\":1077:1102  tweets[msg.sender][index] */\n      dup2\n      sload\n      dup2\n      lt\n      tag_65\n      jumpi\n      tag_66\n      tag_57\n      jump\t// in\n    tag_66:\n    tag_65:\n      swap1\n      0x00\n      mstore\n      keccak256(0x00, 0x20)\n      swap1\n      0x04\n      mul\n      add\n        /* \"contracts/twitter/Twitter.sol\":1077:1110  tweets[msg.sender][index].content */\n      0x01\n      add\n        /* \"contracts/twitter/Twitter.sol\":1070:1110  return tweets[msg.sender][index].content */\n      dup1\n      sload\n      tag_68\n      swap1\n      tag_35\n      jump\t// in\n    tag_68:\n      dup1\n      0x1f\n      add\n      0x20\n      dup1\n      swap2\n      div\n      mul\n      0x20\n      add\n      mload(0x40)\n      swap1\n      dup2\n      add\n      0x40\n      mstore\n      dup1\n      swap3\n      swap2\n      swap1\n      dup2\n      dup2\n      mstore\n      0x20\n      add\n      dup3\n      dup1\n      sload\n      tag_69\n      swap1\n      tag_35\n      jump\t// in\n    tag_69:\n      dup1\n      iszero\n      tag_70\n      jumpi\n      dup1\n      0x1f\n      lt\n      tag_71\n      jumpi\n      0x0100\n      dup1\n      dup4\n      sload\n      div\n      mul\n      dup4\n      mstore\n      swap2\n      0x20\n      add\n      swap2\n      jump(tag_70)\n    tag_71:\n      dup3\n      add\n      swap2\n      swap1\n      0x00\n      mstore\n      keccak256(0x00, 0x20)\n      swap1\n    tag_72:\n      dup2\n      sload\n      dup2\n      mstore\n      swap1\n      0x01\n      add\n      swap1\n      0x20\n      add\n      dup1\n      dup4\n      gt\n      tag_72\n      jumpi\n      dup3\n      swap1\n      sub\n      0x1f\n      and\n      dup3\n      add\n      swap2\n    tag_70:\n      pop\n      pop\n      pop\n      pop\n      pop\n      swap1\n      pop\n        /* \"contracts/twitter/Twitter.sol\":989:1117  function getTweetContent(uint index) public view returns(string memory){... */\n      swap2\n      swap1\n      pop\n      jump\t// out\n    tag_53:\n      mload(0x40)\n      dup1\n      0x80\n      add\n      0x40\n      mstore\n      dup1\n      and(0xffffffffffffffffffffffffffffffffffffffff, 0x00)\n      dup2\n      mstore\n      0x20\n      add\n      0x60\n      dup2\n      mstore\n      0x20\n      add\n      0x00\n      dup2\n      mstore\n      0x20\n      add\n      0x00\n      dup2\n      mstore\n      pop\n      swap1\n      jump\t// out\n        /* \"#utility.yul\":7:142   */\n    tag_73:\n        /* \"#utility.yul\":95:101   */\n      0x00\n        /* \"#utility.yul\":129:134   */\n      dup2\n        /* \"#utility.yul\":123:135   */\n      mload\n        /* \"#utility.yul\":113:135   */\n      swap1\n      pop\n        /* \"#utility.yul\":7:142   */\n      swap2\n      swap1\n      pop\n      jump\t// out\n        /* \"#utility.yul\":148:353   */\n    tag_74:\n        /* \"#utility.yul\":268:279   */\n      0x00\n        /* \"#utility.yul\":302:308   */\n      dup3\n        /* \"#utility.yul\":297:300   */\n      dup3\n        /* \"#utility.yul\":290:309   */\n      mstore\n        /* \"#utility.yul\":342:346   */\n      0x20\n        /* \"#utility.yul\":337:340   */\n      dup3\n        /* \"#utility.yul\":333:347   */\n      add\n        /* \"#utility.yul\":318:347   */\n      swap1\n      pop\n        /* \"#utility.yul\":148:353   */\n      swap3\n      swap2\n      pop\n      pop\n      jump\t// out\n        /* \"#utility.yul\":359:512   */\n    tag_75:\n        /* \"#utility.yul\":447:451   */\n      0x00\n        /* \"#utility.yul\":470:473   */\n      dup2\n        /* \"#utility.yul\":462:473   */\n      swap1\n      pop\n        /* \"#utility.yul\":500:504   */\n      0x20\n        /* \"#utility.yul\":495:498   */\n      dup3\n        /* \"#utility.yul\":491:505   */\n      add\n        /* \"#utility.yul\":483:505   */\n      swap1\n      pop\n        /* \"#utility.yul\":359:512   */\n      swap2\n      swap1\n      pop\n      jump\t// out\n        /* \"#utility.yul\":518:644   */\n    tag_76:\n        /* \"#utility.yul\":555:562   */\n      0x00\n        /* \"#utility.yul\":595:637   */\n      0xffffffffffffffffffffffffffffffffffffffff\n        /* \"#utility.yul\":588:593   */\n      dup3\n        /* \"#utility.yul\":584:638   */\n      and\n        /* \"#utility.yul\":573:638   */\n      swap1\n      pop\n        /* \"#utility.yul\":518:644   */\n      swap2\n      swap1\n      pop\n      jump\t// out\n        /* \"#utility.yul\":650:746   */\n    tag_77:\n        /* \"#utility.yul\":687:694   */\n      0x00\n        /* \"#utility.yul\":716:740   */\n      tag_133\n        /* \"#utility.yul\":734:739   */\n      dup3\n        /* \"#utility.yul\":716:740   */\n      tag_76\n      jump\t// in\n    tag_133:\n        /* \"#utility.yul\":705:740   */\n      swap1\n      pop\n        /* \"#utility.yul\":650:746   */\n      swap2\n      swap1\n      pop\n      jump\t// out\n        /* \"#utility.yul\":752:860   */\n    tag_78:\n        /* \"#utility.yul\":829:853   */\n      tag_135\n        /* \"#utility.yul\":847:852   */\n      dup2\n        /* \"#utility.yul\":829:853   */\n      tag_77\n      jump\t// in\n    tag_135:\n        /* \"#utility.yul\":824:827   */\n      dup3\n        /* \"#utility.yul\":817:854   */\n      mstore\n        /* \"#utility.yul\":752:860   */\n      pop\n      pop\n      jump\t// out\n        /* \"#utility.yul\":866:965   */\n    tag_79:\n        /* \"#utility.yul\":918:924   */\n      0x00\n        /* \"#utility.yul\":952:957   */\n      dup2\n        /* \"#utility.yul\":946:958   */\n      mload\n        /* \"#utility.yul\":936:958   */\n      swap1\n      pop\n        /* \"#utility.yul\":866:965   */\n      swap2\n      swap1\n      pop\n      jump\t// out\n        /* \"#utility.yul\":971:1130   */\n    tag_80:\n        /* \"#utility.yul\":1045:1056   */\n      0x00\n        /* \"#utility.yul\":1079:1085   */\n      dup3\n        /* \"#utility.yul\":1074:1077   */\n      dup3\n        /* \"#utility.yul\":1067:1086   */\n      mstore\n        /* \"#utility.yul\":1119:1123   */\n      0x20\n        /* \"#utility.yul\":1114:1117   */\n      dup3\n        /* \"#utility.yul\":1110:1124   */\n      add\n        /* \"#utility.yul\":1095:1124   */\n      swap1\n      pop\n        /* \"#utility.yul\":971:1130   */\n      swap3\n      swap2\n      pop\n      pop\n      jump\t// out\n        /* \"#utility.yul\":1136:1382   */\n    tag_81:\n        /* \"#utility.yul\":1217:1218   */\n      0x00\n        /* \"#utility.yul\":1227:1340   */\n    tag_139:\n        /* \"#utility.yul\":1241:1247   */\n      dup4\n        /* \"#utility.yul\":1238:1239   */\n      dup2\n        /* \"#utility.yul\":1235:1248   */\n      lt\n        /* \"#utility.yul\":1227:1340   */\n      iszero\n      tag_141\n      jumpi\n        /* \"#utility.yul\":1326:1327   */\n      dup1\n        /* \"#utility.yul\":1321:1324   */\n      dup3\n        /* \"#utility.yul\":1317:1328   */\n      add\n        /* \"#utility.yul\":1311:1329   */\n      mload\n        /* \"#utility.yul\":1307:1308   */\n      dup2\n        /* \"#utility.yul\":1302:1305   */\n      dup5\n        /* \"#utility.yul\":1298:1309   */\n      add\n        /* \"#utility.yul\":1291:1330   */\n      mstore\n        /* \"#utility.yul\":1263:1265   */\n      0x20\n        /* \"#utility.yul\":1260:1261   */\n      dup2\n        /* \"#utility.yul\":1256:1266   */\n      add\n        /* \"#utility.yul\":1251:1266   */\n      swap1\n      pop\n        /* \"#utility.yul\":1227:1340   */\n      jump(tag_139)\n    tag_141:\n        /* \"#utility.yul\":1374:1375   */\n      0x00\n        /* \"#utility.yul\":1365:1371   */\n      dup5\n        /* \"#utility.yul\":1360:1363   */\n      dup5\n        /* \"#utility.yul\":1356:1372   */\n      add\n        /* \"#utility.yul\":1349:1376   */\n      mstore\n        /* \"#utility.yul\":1198:1382   */\n      pop\n        /* \"#utility.yul\":1136:1382   */\n      pop\n      pop\n      pop\n      jump\t// out\n        /* \"#utility.yul\":1388:1490   */\n    tag_82:\n        /* \"#utility.yul\":1429:1435   */\n      0x00\n        /* \"#utility.yul\":1480:1482   */\n      0x1f\n        /* \"#utility.yul\":1476:1483   */\n      not\n        /* \"#utility.yul\":1471:1473   */\n      0x1f\n        /* \"#utility.yul\":1464:1469   */\n      dup4\n        /* \"#utility.yul\":1460:1474   */\n      add\n        /* \"#utility.yul\":1456:1484   */\n      and\n        /* \"#utility.yul\":1446:1484   */\n      swap1\n      pop\n        /* \"#utility.yul\":1388:1490   */\n      swap2\n      swap1\n      pop\n      jump\t// out\n        /* \"#utility.yul\":1496:1853   */\n    tag_83:\n        /* \"#utility.yul\":1574:1577   */\n      0x00\n        /* \"#utility.yul\":1602:1641   */\n      tag_144\n        /* \"#utility.yul\":1635:1640   */\n      dup3\n        /* \"#utility.yul\":1602:1641   */\n      tag_79\n      jump\t// in\n    tag_144:\n        /* \"#utility.yul\":1657:1718   */\n      tag_145\n        /* \"#utility.yul\":1711:1717   */\n      dup2\n        /* \"#utility.yul\":1706:1709   */\n      dup6\n        /* \"#utility.yul\":1657:1718   */\n      tag_80\n      jump\t// in\n    tag_145:\n        /* \"#utility.yul\":1650:1718   */\n      swap4\n      pop\n        /* \"#utility.yul\":1727:1792   */\n      tag_146\n        /* \"#utility.yul\":1785:1791   */\n      dup2\n        /* \"#utility.yul\":1780:1783   */\n      dup6\n        /* \"#utility.yul\":1773:1777   */\n      0x20\n        /* \"#utility.yul\":1766:1771   */\n      dup7\n        /* \"#utility.yul\":1762:1778   */\n      add\n        /* \"#utility.yul\":1727:1792   */\n      tag_81\n      jump\t// in\n    tag_146:\n        /* \"#utility.yul\":1817:1846   */\n      tag_147\n        /* \"#utility.yul\":1839:1845   */\n      dup2\n        /* \"#utility.yul\":1817:1846   */\n      tag_82\n      jump\t// in\n    tag_147:\n        /* \"#utility.yul\":1812:1815   */\n      dup5\n        /* \"#utility.yul\":1808:1847   */\n      add\n        /* \"#utility.yul\":1801:1847   */\n      swap2\n      pop\n        /* \"#utility.yul\":1578:1853   */\n      pop\n        /* \"#utility.yul\":1496:1853   */\n      swap3\n      swap2\n      pop\n      pop\n      jump\t// out\n        /* \"#utility.yul\":1859:1936   */\n    tag_84:\n        /* \"#utility.yul\":1896:1903   */\n      0x00\n        /* \"#utility.yul\":1925:1930   */\n      dup2\n        /* \"#utility.yul\":1914:1930   */\n      swap1\n      pop\n        /* \"#utility.yul\":1859:1936   */\n      swap2\n      swap1\n      pop\n      jump\t// out\n        /* \"#utility.yul\":1942:2050   */\n    tag_85:\n        /* \"#utility.yul\":2019:2043   */\n      tag_150\n        /* \"#utility.yul\":2037:2042   */\n      dup2\n        /* \"#utility.yul\":2019:2043   */\n      tag_84\n      jump\t// in\n    tag_150:\n        /* \"#utility.yul\":2014:2017   */\n      dup3\n        /* \"#utility.yul\":2007:2044   */\n      mstore\n        /* \"#utility.yul\":1942:2050   */\n      pop\n      pop\n      jump\t// out\n        /* \"#utility.yul\":2108:3063   */\n    tag_86:\n        /* \"#utility.yul\":2209:2212   */\n      0x00\n        /* \"#utility.yul\":2245:2249   */\n      0x80\n        /* \"#utility.yul\":2240:2243   */\n      dup4\n        /* \"#utility.yul\":2236:2250   */\n      add\n        /* \"#utility.yul\":2334:2338   */\n      0x00\n        /* \"#utility.yul\":2327:2332   */\n      dup4\n        /* \"#utility.yul\":2323:2339   */\n      add\n        /* \"#utility.yul\":2317:2340   */\n      mload\n        /* \"#utility.yul\":2353:2416   */\n      tag_152\n        /* \"#utility.yul\":2410:2414   */\n      0x00\n        /* \"#utility.yul\":2405:2408   */\n      dup7\n        /* \"#utility.yul\":2401:2415   */\n      add\n        /* \"#utility.yul\":2387:2399   */\n      dup3\n        /* \"#utility.yul\":2353:2416   */\n      tag_78\n      jump\t// in\n    tag_152:\n        /* \"#utility.yul\":2260:2426   */\n      pop\n        /* \"#utility.yul\":2511:2515   */\n      0x20\n        /* \"#utility.yul\":2504:2509   */\n      dup4\n        /* \"#utility.yul\":2500:2516   */\n      add\n        /* \"#utility.yul\":2494:2517   */\n      mload\n        /* \"#utility.yul\":2564:2567   */\n      dup5\n        /* \"#utility.yul\":2558:2562   */\n      dup3\n        /* \"#utility.yul\":2554:2568   */\n      sub\n        /* \"#utility.yul\":2547:2551   */\n      0x20\n        /* \"#utility.yul\":2542:2545   */\n      dup7\n        /* \"#utility.yul\":2538:2552   */\n      add\n        /* \"#utility.yul\":2531:2569   */\n      mstore\n        /* \"#utility.yul\":2590:2663   */\n      tag_153\n        /* \"#utility.yul\":2658:2662   */\n      dup3\n        /* \"#utility.yul\":2644:2656   */\n      dup3\n        /* \"#utility.yul\":2590:2663   */\n      tag_83\n      jump\t// in\n    tag_153:\n        /* \"#utility.yul\":2582:2663   */\n      swap2\n      pop\n        /* \"#utility.yul\":2436:2674   */\n      pop\n        /* \"#utility.yul\":2763:2767   */\n      0x40\n        /* \"#utility.yul\":2756:2761   */\n      dup4\n        /* \"#utility.yul\":2752:2768   */\n      add\n        /* \"#utility.yul\":2746:2769   */\n      mload\n        /* \"#utility.yul\":2782:2845   */\n      tag_154\n        /* \"#utility.yul\":2839:2843   */\n      0x40\n        /* \"#utility.yul\":2834:2837   */\n      dup7\n        /* \"#utility.yul\":2830:2844   */\n      add\n        /* \"#utility.yul\":2816:2828   */\n      dup3\n        /* \"#utility.yul\":2782:2845   */\n      tag_85\n      jump\t// in\n    tag_154:\n        /* \"#utility.yul\":2684:2855   */\n      pop\n        /* \"#utility.yul\":2944:2948   */\n      0x60\n        /* \"#utility.yul\":2937:2942   */\n      dup4\n        /* \"#utility.yul\":2933:2949   */\n      add\n        /* \"#utility.yul\":2927:2950   */\n      mload\n        /* \"#utility.yul\":2963:3026   */\n      tag_155\n        /* \"#utility.yul\":3020:3024   */\n      0x60\n        /* \"#utility.yul\":3015:3018   */\n      dup7\n        /* \"#utility.yul\":3011:3025   */\n      add\n        /* \"#utility.yul\":2997:3009   */\n      dup3\n        /* \"#utility.yul\":2963:3026   */\n      tag_85\n      jump\t// in\n    tag_155:\n        /* \"#utility.yul\":2865:3036   */\n      pop\n        /* \"#utility.yul\":3053:3057   */\n      dup1\n        /* \"#utility.yul\":3046:3057   */\n      swap2\n      pop\n        /* \"#utility.yul\":2214:3063   */\n      pop\n        /* \"#utility.yul\":2108:3063   */\n      swap3\n      swap2\n      pop\n      pop\n      jump\t// out\n        /* \"#utility.yul\":3069:3309   */\n    tag_87:\n        /* \"#utility.yul\":3180:3190   */\n      0x00\n        /* \"#utility.yul\":3215:3303   */\n      tag_157\n        /* \"#utility.yul\":3299:3302   */\n      dup4\n        /* \"#utility.yul\":3291:3297   */\n      dup4\n        /* \"#utility.yul\":3215:3303   */\n      tag_86\n      jump\t// in\n    tag_157:\n        /* \"#utility.yul\":3201:3303   */\n      swap1\n      pop\n        /* \"#utility.yul\":3069:3309   */\n      swap3\n      swap2\n      pop\n      pop\n      jump\t// out\n        /* \"#utility.yul\":3315:3449   */\n    tag_88:\n        /* \"#utility.yul\":3406:3410   */\n      0x00\n        /* \"#utility.yul\":3438:3442   */\n      0x20\n        /* \"#utility.yul\":3433:3436   */\n      dup3\n        /* \"#utility.yul\":3429:3443   */\n      add\n        /* \"#utility.yul\":3421:3443   */\n      swap1\n      pop\n        /* \"#utility.yul\":3315:3449   */\n      swap2\n      swap1\n      pop\n      jump\t// out\n        /* \"#utility.yul\":3511:4590   */\n    tag_89:\n        /* \"#utility.yul\":3672:3675   */\n      0x00\n        /* \"#utility.yul\":3701:3776   */\n      tag_160\n        /* \"#utility.yul\":3770:3775   */\n      dup3\n        /* \"#utility.yul\":3701:3776   */\n      tag_73\n      jump\t// in\n    tag_160:\n        /* \"#utility.yul\":3792:3899   */\n      tag_161\n        /* \"#utility.yul\":3892:3898   */\n      dup2\n        /* \"#utility.yul\":3887:3890   */\n      dup6\n        /* \"#utility.yul\":3792:3899   */\n      tag_74\n      jump\t// in\n    tag_161:\n        /* \"#utility.yul\":3785:3899   */\n      swap4\n      pop\n        /* \"#utility.yul\":3925:3928   */\n      dup4\n        /* \"#utility.yul\":3970:3974   */\n      0x20\n        /* \"#utility.yul\":3962:3968   */\n      dup3\n        /* \"#utility.yul\":3958:3975   */\n      mul\n        /* \"#utility.yul\":3953:3956   */\n      dup6\n        /* \"#utility.yul\":3949:3976   */\n      add\n        /* \"#utility.yul\":4000:4077   */\n      tag_162\n        /* \"#utility.yul\":4071:4076   */\n      dup6\n        /* \"#utility.yul\":4000:4077   */\n      tag_75\n      jump\t// in\n    tag_162:\n        /* \"#utility.yul\":4100:4107   */\n      dup1\n        /* \"#utility.yul\":4131:4132   */\n      0x00\n        /* \"#utility.yul\":4116:4545   */\n    tag_163:\n        /* \"#utility.yul\":4141:4147   */\n      dup6\n        /* \"#utility.yul\":4138:4139   */\n      dup2\n        /* \"#utility.yul\":4135:4148   */\n      lt\n        /* \"#utility.yul\":4116:4545   */\n      iszero\n      tag_165\n      jumpi\n        /* \"#utility.yul\":4212:4221   */\n      dup5\n        /* \"#utility.yul\":4206:4210   */\n      dup5\n        /* \"#utility.yul\":4202:4222   */\n      sub\n        /* \"#utility.yul\":4197:4200   */\n      dup10\n        /* \"#utility.yul\":4190:4223   */\n      mstore\n        /* \"#utility.yul\":4263:4269   */\n      dup2\n        /* \"#utility.yul\":4257:4270   */\n      mload\n        /* \"#utility.yul\":4291:4397   */\n      tag_166\n        /* \"#utility.yul\":4392:4396   */\n      dup6\n        /* \"#utility.yul\":4377:4390   */\n      dup3\n        /* \"#utility.yul\":4291:4397   */\n      tag_87\n      jump\t// in\n    tag_166:\n        /* \"#utility.yul\":4283:4397   */\n      swap5\n      pop\n        /* \"#utility.yul\":4420:4501   */\n      tag_167\n        /* \"#utility.yul\":4494:4500   */\n      dup4\n        /* \"#utility.yul\":4420:4501   */\n      tag_88\n      jump\t// in\n    tag_167:\n        /* \"#utility.yul\":4410:4501   */\n      swap3\n      pop\n        /* \"#utility.yul\":4530:4534   */\n      0x20\n        /* \"#utility.yul\":4525:4528   */\n      dup11\n        /* \"#utility.yul\":4521:4535   */\n      add\n        /* \"#utility.yul\":4514:4535   */\n      swap10\n      pop\n        /* \"#utility.yul\":4176:4545   */\n      pop\n        /* \"#utility.yul\":4163:4164   */\n      0x01\n        /* \"#utility.yul\":4160:4161   */\n      dup2\n        /* \"#utility.yul\":4156:4165   */\n      add\n        /* \"#utility.yul\":4151:4165   */\n      swap1\n      pop\n        /* \"#utility.yul\":4116:4545   */\n      jump(tag_163)\n    tag_165:\n        /* \"#utility.yul\":4120:4134   */\n      pop\n        /* \"#utility.yul\":4561:4565   */\n      dup3\n        /* \"#utility.yul\":4554:4565   */\n      swap8\n      pop\n        /* \"#utility.yul\":4581:4584   */\n      dup8\n        /* \"#utility.yul\":4574:4584   */\n      swap6\n      pop\n        /* \"#utility.yul\":3677:4590   */\n      pop\n      pop\n      pop\n      pop\n      pop\n        /* \"#utility.yul\":3511:4590   */\n      swap3\n      swap2\n      pop\n      pop\n      jump\t// out\n        /* \"#utility.yul\":4596:5053   */\n    tag_11:\n        /* \"#utility.yul\":4781:4785   */\n      0x00\n        /* \"#utility.yul\":4819:4821   */\n      0x20\n        /* \"#utility.yul\":4808:4817   */\n      dup3\n        /* \"#utility.yul\":4804:4822   */\n      add\n        /* \"#utility.yul\":4796:4822   */\n      swap1\n      pop\n        /* \"#utility.yul\":4868:4877   */\n      dup2\n        /* \"#utility.yul\":4862:4866   */\n      dup2\n        /* \"#utility.yul\":4858:4878   */\n      sub\n        /* \"#utility.yul\":4854:4855   */\n      0x00\n        /* \"#utility.yul\":4843:4852   */\n      dup4\n        /* \"#utility.yul\":4839:4856   */\n      add\n        /* \"#utility.yul\":4832:4879   */\n      mstore\n        /* \"#utility.yul\":4896:5046   */\n      tag_169\n        /* \"#utility.yul\":5041:5045   */\n      dup2\n        /* \"#utility.yul\":5032:5038   */\n      dup5\n        /* \"#utility.yul\":4896:5046   */\n      tag_89\n      jump\t// in\n    tag_169:\n        /* \"#utility.yul\":4888:5046   */\n      swap1\n      pop\n        /* \"#utility.yul\":4596:5053   */\n      swap3\n      swap2\n      pop\n      pop\n      jump\t// out\n        /* \"#utility.yul\":5059:5134   */\n    tag_90:\n        /* \"#utility.yul\":5092:5098   */\n      0x00\n        /* \"#utility.yul\":5125:5127   */\n      0x40\n        /* \"#utility.yul\":5119:5128   */\n      mload\n        /* \"#utility.yul\":5109:5128   */\n      swap1\n      pop\n        /* \"#utility.yul\":5059:5134   */\n      swap1\n      jump\t// out\n        /* \"#utility.yul\":5140:5257   */\n    tag_91:\n        /* \"#utility.yul\":5249:5250   */\n      0x00\n        /* \"#utility.yul\":5246:5247   */\n      dup1\n        /* \"#utility.yul\":5239:5251   */\n      revert\n        /* \"#utility.yul\":5263:5380   */\n    tag_92:\n        /* \"#utility.yul\":5372:5373   */\n      0x00\n        /* \"#utility.yul\":5369:5370   */\n      dup1\n        /* \"#utility.yul\":5362:5374   */\n      revert\n        /* \"#utility.yul\":5386:5503   */\n    tag_93:\n        /* \"#utility.yul\":5495:5496   */\n      0x00\n        /* \"#utility.yul\":5492:5493   */\n      dup1\n        /* \"#utility.yul\":5485:5497   */\n      revert\n        /* \"#utility.yul\":5509:5626   */\n    tag_94:\n        /* \"#utility.yul\":5618:5619   */\n      0x00\n        /* \"#utility.yul\":5615:5616   */\n      dup1\n        /* \"#utility.yul\":5608:5620   */\n      revert\n        /* \"#utility.yul\":5632:5812   */\n    tag_95:\n        /* \"#utility.yul\":5680:5757   */\n      0x4e487b7100000000000000000000000000000000000000000000000000000000\n        /* \"#utility.yul\":5677:5678   */\n      0x00\n        /* \"#utility.yul\":5670:5758   */\n      mstore\n        /* \"#utility.yul\":5777:5781   */\n      0x41\n        /* \"#utility.yul\":5774:5775   */\n      0x04\n        /* \"#utility.yul\":5767:5782   */\n      mstore\n        /* \"#utility.yul\":5801:5805   */\n      0x24\n        /* \"#utility.yul\":5798:5799   */\n      0x00\n        /* \"#utility.yul\":5791:5806   */\n      revert\n        /* \"#utility.yul\":5818:6099   */\n    tag_96:\n        /* \"#utility.yul\":5901:5928   */\n      tag_177\n        /* \"#utility.yul\":5923:5927   */\n      dup3\n        /* \"#utility.yul\":5901:5928   */\n      tag_82\n      jump\t// in\n    tag_177:\n        /* \"#utility.yul\":5893:5899   */\n      dup2\n        /* \"#utility.yul\":5889:5929   */\n      add\n        /* \"#utility.yul\":6031:6037   */\n      dup2\n        /* \"#utility.yul\":6019:6029   */\n      dup2\n        /* \"#utility.yul\":6016:6038   */\n      lt\n        /* \"#utility.yul\":5995:6013   */\n      0xffffffffffffffff\n        /* \"#utility.yul\":5983:5993   */\n      dup3\n        /* \"#utility.yul\":5980:6014   */\n      gt\n        /* \"#utility.yul\":5977:6039   */\n      or\n        /* \"#utility.yul\":5974:6062   */\n      iszero\n      tag_178\n      jumpi\n        /* \"#utility.yul\":6042:6060   */\n      tag_179\n      tag_95\n      jump\t// in\n    tag_179:\n        /* \"#utility.yul\":5974:6062   */\n    tag_178:\n        /* \"#utility.yul\":6082:6092   */\n      dup1\n        /* \"#utility.yul\":6078:6080   */\n      0x40\n        /* \"#utility.yul\":6071:6093   */\n      mstore\n        /* \"#utility.yul\":5861:6099   */\n      pop\n        /* \"#utility.yul\":5818:6099   */\n      pop\n      pop\n      jump\t// out\n        /* \"#utility.yul\":6105:6234   */\n    tag_97:\n        /* \"#utility.yul\":6139:6145   */\n      0x00\n        /* \"#utility.yul\":6166:6186   */\n      tag_181\n      tag_90\n      jump\t// in\n    tag_181:\n        /* \"#utility.yul\":6156:6186   */\n      swap1\n      pop\n        /* \"#utility.yul\":6195:6228   */\n      tag_182\n        /* \"#utility.yul\":6223:6227   */\n      dup3\n        /* \"#utility.yul\":6215:6221   */\n      dup3\n        /* \"#utility.yul\":6195:6228   */\n      tag_96\n      jump\t// in\n    tag_182:\n        /* \"#utility.yul\":6105:6234   */\n      swap2\n      swap1\n      pop\n      jump\t// out\n        /* \"#utility.yul\":6240:6548   */\n    tag_98:\n        /* \"#utility.yul\":6302:6306   */\n      0x00\n        /* \"#utility.yul\":6392:6410   */\n      0xffffffffffffffff\n        /* \"#utility.yul\":6384:6390   */\n      dup3\n        /* \"#utility.yul\":6381:6411   */\n      gt\n        /* \"#utility.yul\":6378:6434   */\n      iszero\n      tag_184\n      jumpi\n        /* \"#utility.yul\":6414:6432   */\n      tag_185\n      tag_95\n      jump\t// in\n    tag_185:\n        /* \"#utility.yul\":6378:6434   */\n    tag_184:\n        /* \"#utility.yul\":6452:6481   */\n      tag_186\n        /* \"#utility.yul\":6474:6480   */\n      dup3\n        /* \"#utility.yul\":6452:6481   */\n      tag_82\n      jump\t// in\n    tag_186:\n        /* \"#utility.yul\":6444:6481   */\n      swap1\n      pop\n        /* \"#utility.yul\":6536:6540   */\n      0x20\n        /* \"#utility.yul\":6530:6534   */\n      dup2\n        /* \"#utility.yul\":6526:6541   */\n      add\n        /* \"#utility.yul\":6518:6541   */\n      swap1\n      pop\n        /* \"#utility.yul\":6240:6548   */\n      swap2\n      swap1\n      pop\n      jump\t// out\n        /* \"#utility.yul\":6554:6700   */\n    tag_99:\n        /* \"#utility.yul\":6651:6657   */\n      dup3\n        /* \"#utility.yul\":6646:6649   */\n      dup2\n        /* \"#utility.yul\":6641:6644   */\n      dup4\n        /* \"#utility.yul\":6628:6658   */\n      calldatacopy\n        /* \"#utility.yul\":6692:6693   */\n      0x00\n        /* \"#utility.yul\":6683:6689   */\n      dup4\n        /* \"#utility.yul\":6678:6681   */\n      dup4\n        /* \"#utility.yul\":6674:6690   */\n      add\n        /* \"#utility.yul\":6667:6694   */\n      mstore\n        /* \"#utility.yul\":6554:6700   */\n      pop\n      pop\n      pop\n      jump\t// out\n        /* \"#utility.yul\":6706:7131   */\n    tag_100:\n        /* \"#utility.yul\":6784:6789   */\n      0x00\n        /* \"#utility.yul\":6809:6875   */\n      tag_189\n        /* \"#utility.yul\":6825:6874   */\n      tag_190\n        /* \"#utility.yul\":6867:6873   */\n      dup5\n        /* \"#utility.yul\":6825:6874   */\n      tag_98\n      jump\t// in\n    tag_190:\n        /* \"#utility.yul\":6809:6875   */\n      tag_97\n      jump\t// in\n    tag_189:\n        /* \"#utility.yul\":6800:6875   */\n      swap1\n      pop\n        /* \"#utility.yul\":6898:6904   */\n      dup3\n        /* \"#utility.yul\":6891:6896   */\n      dup2\n        /* \"#utility.yul\":6884:6905   */\n      mstore\n        /* \"#utility.yul\":6936:6940   */\n      0x20\n        /* \"#utility.yul\":6929:6934   */\n      dup2\n        /* \"#utility.yul\":6925:6941   */\n      add\n        /* \"#utility.yul\":6974:6977   */\n      dup5\n        /* \"#utility.yul\":6965:6971   */\n      dup5\n        /* \"#utility.yul\":6960:6963   */\n      dup5\n        /* \"#utility.yul\":6956:6972   */\n      add\n        /* \"#utility.yul\":6953:6978   */\n      gt\n        /* \"#utility.yul\":6950:7062   */\n      iszero\n      tag_191\n      jumpi\n        /* \"#utility.yul\":6981:7060   */\n      tag_192\n      tag_94\n      jump\t// in\n    tag_192:\n        /* \"#utility.yul\":6950:7062   */\n    tag_191:\n        /* \"#utility.yul\":7071:7125   */\n      tag_193\n        /* \"#utility.yul\":7118:7124   */\n      dup5\n        /* \"#utility.yul\":7113:7116   */\n      dup3\n        /* \"#utility.yul\":7108:7111   */\n      dup6\n        /* \"#utility.yul\":7071:7125   */\n      tag_99\n      jump\t// in\n    tag_193:\n        /* \"#utility.yul\":6790:7131   */\n      pop\n        /* \"#utility.yul\":6706:7131   */\n      swap4\n      swap3\n      pop\n      pop\n      pop\n      jump\t// out\n        /* \"#utility.yul\":7151:7491   */\n    tag_101:\n        /* \"#utility.yul\":7207:7212   */\n      0x00\n        /* \"#utility.yul\":7256:7259   */\n      dup3\n        /* \"#utility.yul\":7249:7253   */\n      0x1f\n        /* \"#utility.yul\":7241:7247   */\n      dup4\n        /* \"#utility.yul\":7237:7254   */\n      add\n        /* \"#utility.yul\":7233:7260   */\n      slt\n        /* \"#utility.yul\":7223:7345   */\n      tag_195\n      jumpi\n        /* \"#utility.yul\":7264:7343   */\n      tag_196\n      tag_93\n      jump\t// in\n    tag_196:\n        /* \"#utility.yul\":7223:7345   */\n    tag_195:\n        /* \"#utility.yul\":7381:7387   */\n      dup2\n        /* \"#utility.yul\":7368:7388   */\n      calldataload\n        /* \"#utility.yul\":7406:7485   */\n      tag_197\n        /* \"#utility.yul\":7481:7484   */\n      dup5\n        /* \"#utility.yul\":7473:7479   */\n      dup3\n        /* \"#utility.yul\":7466:7470   */\n      0x20\n        /* \"#utility.yul\":7458:7464   */\n      dup7\n        /* \"#utility.yul\":7454:7471   */\n      add\n        /* \"#utility.yul\":7406:7485   */\n      tag_100\n      jump\t// in\n    tag_197:\n        /* \"#utility.yul\":7397:7485   */\n      swap2\n      pop\n        /* \"#utility.yul\":7213:7491   */\n      pop\n        /* \"#utility.yul\":7151:7491   */\n      swap3\n      swap2\n      pop\n      pop\n      jump\t// out\n        /* \"#utility.yul\":7497:8006   */\n    tag_14:\n        /* \"#utility.yul\":7566:7572   */\n      0x00\n        /* \"#utility.yul\":7615:7617   */\n      0x20\n        /* \"#utility.yul\":7603:7612   */\n      dup3\n        /* \"#utility.yul\":7594:7601   */\n      dup5\n        /* \"#utility.yul\":7590:7613   */\n      sub\n        /* \"#utility.yul\":7586:7618   */\n      slt\n        /* \"#utility.yul\":7583:7702   */\n      iszero\n      tag_199\n      jumpi\n        /* \"#utility.yul\":7621:7700   */\n      tag_200\n      tag_91\n      jump\t// in\n    tag_200:\n        /* \"#utility.yul\":7583:7702   */\n    tag_199:\n        /* \"#utility.yul\":7769:7770   */\n      0x00\n        /* \"#utility.yul\":7758:7767   */\n      dup3\n        /* \"#utility.yul\":7754:7771   */\n      add\n        /* \"#utility.yul\":7741:7772   */\n      calldataload\n        /* \"#utility.yul\":7799:7817   */\n      0xffffffffffffffff\n        /* \"#utility.yul\":7791:7797   */\n      dup2\n        /* \"#utility.yul\":7788:7818   */\n      gt\n        /* \"#utility.yul\":7785:7902   */\n      iszero\n      tag_201\n      jumpi\n        /* \"#utility.yul\":7821:7900   */\n      tag_202\n      tag_92\n      jump\t// in\n    tag_202:\n        /* \"#utility.yul\":7785:7902   */\n    tag_201:\n        /* \"#utility.yul\":7926:7989   */\n      tag_203\n        /* \"#utility.yul\":7981:7988   */\n      dup5\n        /* \"#utility.yul\":7972:7978   */\n      dup3\n        /* \"#utility.yul\":7961:7970   */\n      dup6\n        /* \"#utility.yul\":7957:7979   */\n      add\n        /* \"#utility.yul\":7926:7989   */\n      tag_101\n      jump\t// in\n    tag_203:\n        /* \"#utility.yul\":7916:7989   */\n      swap2\n      pop\n        /* \"#utility.yul\":7712:7999   */\n      pop\n        /* \"#utility.yul\":7497:8006   */\n      swap3\n      swap2\n      pop\n      pop\n      jump\t// out\n        /* \"#utility.yul\":8012:8134   */\n    tag_102:\n        /* \"#utility.yul\":8085:8109   */\n      tag_205\n        /* \"#utility.yul\":8103:8108   */\n      dup2\n        /* \"#utility.yul\":8085:8109   */\n      tag_84\n      jump\t// in\n    tag_205:\n        /* \"#utility.yul\":8078:8083   */\n      dup2\n        /* \"#utility.yul\":8075:8110   */\n      eq\n        /* \"#utility.yul\":8065:8128   */\n      tag_206\n      jumpi\n        /* \"#utility.yul\":8124:8125   */\n      0x00\n        /* \"#utility.yul\":8121:8122   */\n      dup1\n        /* \"#utility.yul\":8114:8126   */\n      revert\n        /* \"#utility.yul\":8065:8128   */\n    tag_206:\n        /* \"#utility.yul\":8012:8134   */\n      pop\n      jump\t// out\n        /* \"#utility.yul\":8140:8279   */\n    tag_103:\n        /* \"#utility.yul\":8186:8191   */\n      0x00\n        /* \"#utility.yul\":8224:8230   */\n      dup2\n        /* \"#utility.yul\":8211:8231   */\n      calldataload\n        /* \"#utility.yul\":8202:8231   */\n      swap1\n      pop\n        /* \"#utility.yul\":8240:8273   */\n      tag_208\n        /* \"#utility.yul\":8267:8272   */\n      dup2\n        /* \"#utility.yul\":8240:8273   */\n      tag_102\n      jump\t// in\n    tag_208:\n        /* \"#utility.yul\":8140:8279   */\n      swap3\n      swap2\n      pop\n      pop\n      jump\t// out\n        /* \"#utility.yul\":8285:8614   */\n    tag_18:\n        /* \"#utility.yul\":8344:8350   */\n      0x00\n        /* \"#utility.yul\":8393:8395   */\n      0x20\n        /* \"#utility.yul\":8381:8390   */\n      dup3\n        /* \"#utility.yul\":8372:8379   */\n      dup5\n        /* \"#utility.yul\":8368:8391   */\n      sub\n        /* \"#utility.yul\":8364:8396   */\n      slt\n        /* \"#utility.yul\":8361:8480   */\n      iszero\n      tag_210\n      jumpi\n        /* \"#utility.yul\":8399:8478   */\n      tag_211\n      tag_91\n      jump\t// in\n    tag_211:\n        /* \"#utility.yul\":8361:8480   */\n    tag_210:\n        /* \"#utility.yul\":8519:8520   */\n      0x00\n        /* \"#utility.yul\":8544:8597   */\n      tag_212\n        /* \"#utility.yul\":8589:8596   */\n      dup5\n        /* \"#utility.yul\":8580:8586   */\n      dup3\n        /* \"#utility.yul\":8569:8578   */\n      dup6\n        /* \"#utility.yul\":8565:8587   */\n      add\n        /* \"#utility.yul\":8544:8597   */\n      tag_103\n      jump\t// in\n    tag_212:\n        /* \"#utility.yul\":8534:8597   */\n      swap2\n      pop\n        /* \"#utility.yul\":8490:8607   */\n      pop\n        /* \"#utility.yul\":8285:8614   */\n      swap3\n      swap2\n      pop\n      pop\n      jump\t// out\n        /* \"#utility.yul\":8672:9637   */\n    tag_104:\n        /* \"#utility.yul\":8783:8786   */\n      0x00\n        /* \"#utility.yul\":8819:8823   */\n      0x80\n        /* \"#utility.yul\":8814:8817   */\n      dup4\n        /* \"#utility.yul\":8810:8824   */\n      add\n        /* \"#utility.yul\":8908:8912   */\n      0x00\n        /* \"#utility.yul\":8901:8906   */\n      dup4\n        /* \"#utility.yul\":8897:8913   */\n      add\n        /* \"#utility.yul\":8891:8914   */\n      mload\n        /* \"#utility.yul\":8927:8990   */\n      tag_214\n        /* \"#utility.yul\":8984:8988   */\n      0x00\n        /* \"#utility.yul\":8979:8982   */\n      dup7\n        /* \"#utility.yul\":8975:8989   */\n      add\n        /* \"#utility.yul\":8961:8973   */\n      dup3\n        /* \"#utility.yul\":8927:8990   */\n      tag_78\n      jump\t// in\n    tag_214:\n        /* \"#utility.yul\":8834:9000   */\n      pop\n        /* \"#utility.yul\":9085:9089   */\n      0x20\n        /* \"#utility.yul\":9078:9083   */\n      dup4\n        /* \"#utility.yul\":9074:9090   */\n      add\n        /* \"#utility.yul\":9068:9091   */\n      mload\n        /* \"#utility.yul\":9138:9141   */\n      dup5\n        /* \"#utility.yul\":9132:9136   */\n      dup3\n        /* \"#utility.yul\":9128:9142   */\n      sub\n        /* \"#utility.yul\":9121:9125   */\n      0x20\n        /* \"#utility.yul\":9116:9119   */\n      dup7\n        /* \"#utility.yul\":9112:9126   */\n      add\n        /* \"#utility.yul\":9105:9143   */\n      mstore\n        /* \"#utility.yul\":9164:9237   */\n      tag_215\n        /* \"#utility.yul\":9232:9236   */\n      dup3\n        /* \"#utility.yul\":9218:9230   */\n      dup3\n        /* \"#utility.yul\":9164:9237   */\n      tag_83\n      jump\t// in\n    tag_215:\n        /* \"#utility.yul\":9156:9237   */\n      swap2\n      pop\n        /* \"#utility.yul\":9010:9248   */\n      pop\n        /* \"#utility.yul\":9337:9341   */\n      0x40\n        /* \"#utility.yul\":9330:9335   */\n      dup4\n        /* \"#utility.yul\":9326:9342   */\n      add\n        /* \"#utility.yul\":9320:9343   */\n      mload\n        /* \"#utility.yul\":9356:9419   */\n      tag_216\n        /* \"#utility.yul\":9413:9417   */\n      0x40\n        /* \"#utility.yul\":9408:9411   */\n      dup7\n        /* \"#utility.yul\":9404:9418   */\n      add\n        /* \"#utility.yul\":9390:9402   */\n      dup3\n        /* \"#utility.yul\":9356:9419   */\n      tag_85\n      jump\t// in\n    tag_216:\n        /* \"#utility.yul\":9258:9429   */\n      pop\n        /* \"#utility.yul\":9518:9522   */\n      0x60\n        /* \"#utility.yul\":9511:9516   */\n      dup4\n        /* \"#utility.yul\":9507:9523   */\n      add\n        /* \"#utility.yul\":9501:9524   */\n      mload\n        /* \"#utility.yul\":9537:9600   */\n      tag_217\n        /* \"#utility.yul\":9594:9598   */\n      0x60\n        /* \"#utility.yul\":9589:9592   */\n      dup7\n        /* \"#utility.yul\":9585:9599   */\n      add\n        /* \"#utility.yul\":9571:9583   */\n      dup3\n        /* \"#utility.yul\":9537:9600   */\n      tag_85\n      jump\t// in\n    tag_217:\n        /* \"#utility.yul\":9439:9610   */\n      pop\n        /* \"#utility.yul\":9627:9631   */\n      dup1\n        /* \"#utility.yul\":9620:9631   */\n      swap2\n      pop\n        /* \"#utility.yul\":8788:9637   */\n      pop\n        /* \"#utility.yul\":8672:9637   */\n      swap3\n      swap2\n      pop\n      pop\n      jump\t// out\n        /* \"#utility.yul\":9643:10000   */\n    tag_24:\n        /* \"#utility.yul\":9778:9782   */\n      0x00\n        /* \"#utility.yul\":9816:9818   */\n      0x20\n        /* \"#utility.yul\":9805:9814   */\n      dup3\n        /* \"#utility.yul\":9801:9819   */\n      add\n        /* \"#utility.yul\":9793:9819   */\n      swap1\n      pop\n        /* \"#utility.yul\":9865:9874   */\n      dup2\n        /* \"#utility.yul\":9859:9863   */\n      dup2\n        /* \"#utility.yul\":9855:9875   */\n      sub\n        /* \"#utility.yul\":9851:9852   */\n      0x00\n        /* \"#utility.yul\":9840:9849   */\n      dup4\n        /* \"#utility.yul\":9836:9853   */\n      add\n        /* \"#utility.yul\":9829:9876   */\n      mstore\n        /* \"#utility.yul\":9893:9993   */\n      tag_219\n        /* \"#utility.yul\":9988:9992   */\n      dup2\n        /* \"#utility.yul\":9979:9985   */\n      dup5\n        /* \"#utility.yul\":9893:9993   */\n      tag_104\n      jump\t// in\n    tag_219:\n        /* \"#utility.yul\":9885:9993   */\n      swap1\n      pop\n        /* \"#utility.yul\":9643:10000   */\n      swap3\n      swap2\n      pop\n      pop\n      jump\t// out\n        /* \"#utility.yul\":10006:10175   */\n    tag_105:\n        /* \"#utility.yul\":10090:10101   */\n      0x00\n        /* \"#utility.yul\":10124:10130   */\n      dup3\n        /* \"#utility.yul\":10119:10122   */\n      dup3\n        /* \"#utility.yul\":10112:10131   */\n      mstore\n        /* \"#utility.yul\":10164:10168   */\n      0x20\n        /* \"#utility.yul\":10159:10162   */\n      dup3\n        /* \"#utility.yul\":10155:10169   */\n      add\n        /* \"#utility.yul\":10140:10169   */\n      swap1\n      pop\n        /* \"#utility.yul\":10006:10175   */\n      swap3\n      swap2\n      pop\n      pop\n      jump\t// out\n        /* \"#utility.yul\":10181:10558   */\n    tag_106:\n        /* \"#utility.yul\":10269:10272   */\n      0x00\n        /* \"#utility.yul\":10297:10336   */\n      tag_222\n        /* \"#utility.yul\":10330:10335   */\n      dup3\n        /* \"#utility.yul\":10297:10336   */\n      tag_79\n      jump\t// in\n    tag_222:\n        /* \"#utility.yul\":10352:10423   */\n      tag_223\n        /* \"#utility.yul\":10416:10422   */\n      dup2\n        /* \"#utility.yul\":10411:10414   */\n      dup6\n        /* \"#utility.yul\":10352:10423   */\n      tag_105\n      jump\t// in\n    tag_223:\n        /* \"#utility.yul\":10345:10423   */\n      swap4\n      pop\n        /* \"#utility.yul\":10432:10497   */\n      tag_224\n        /* \"#utility.yul\":10490:10496   */\n      dup2\n        /* \"#utility.yul\":10485:10488   */\n      dup6\n        /* \"#utility.yul\":10478:10482   */\n      0x20\n        /* \"#utility.yul\":10471:10476   */\n      dup7\n        /* \"#utility.yul\":10467:10483   */\n      add\n        /* \"#utility.yul\":10432:10497   */\n      tag_81\n      jump\t// in\n    tag_224:\n        /* \"#utility.yul\":10522:10551   */\n      tag_225\n        /* \"#utility.yul\":10544:10550   */\n      dup2\n        /* \"#utility.yul\":10522:10551   */\n      tag_82\n      jump\t// in\n    tag_225:\n        /* \"#utility.yul\":10517:10520   */\n      dup5\n        /* \"#utility.yul\":10513:10552   */\n      add\n        /* \"#utility.yul\":10506:10552   */\n      swap2\n      pop\n        /* \"#utility.yul\":10273:10558   */\n      pop\n        /* \"#utility.yul\":10181:10558   */\n      swap3\n      swap2\n      pop\n      pop\n      jump\t// out\n        /* \"#utility.yul\":10564:10877   */\n    tag_29:\n        /* \"#utility.yul\":10677:10681   */\n      0x00\n        /* \"#utility.yul\":10715:10717   */\n      0x20\n        /* \"#utility.yul\":10704:10713   */\n      dup3\n        /* \"#utility.yul\":10700:10718   */\n      add\n        /* \"#utility.yul\":10692:10718   */\n      swap1\n      pop\n        /* \"#utility.yul\":10764:10773   */\n      dup2\n        /* \"#utility.yul\":10758:10762   */\n      dup2\n        /* \"#utility.yul\":10754:10774   */\n      sub\n        /* \"#utility.yul\":10750:10751   */\n      0x00\n        /* \"#utility.yul\":10739:10748   */\n      dup4\n        /* \"#utility.yul\":10735:10752   */\n      add\n        /* \"#utility.yul\":10728:10775   */\n      mstore\n        /* \"#utility.yul\":10792:10870   */\n      tag_227\n        /* \"#utility.yul\":10865:10869   */\n      dup2\n        /* \"#utility.yul\":10856:10862   */\n      dup5\n        /* \"#utility.yul\":10792:10870   */\n      tag_106\n      jump\t// in\n    tag_227:\n        /* \"#utility.yul\":10784:10870   */\n      swap1\n      pop\n        /* \"#utility.yul\":10564:10877   */\n      swap3\n      swap2\n      pop\n      pop\n      jump\t// out\n        /* \"#utility.yul\":10883:11063   */\n    tag_107:\n        /* \"#utility.yul\":10931:11008   */\n      0x4e487b7100000000000000000000000000000000000000000000000000000000\n        /* \"#utility.yul\":10928:10929   */\n      0x00\n        /* \"#utility.yul\":10921:11009   */\n      mstore\n        /* \"#utility.yul\":11028:11032   */\n      0x22\n        /* \"#utility.yul\":11025:11026   */\n      0x04\n        /* \"#utility.yul\":11018:11033   */\n      mstore\n        /* \"#utility.yul\":11052:11056   */\n      0x24\n        /* \"#utility.yul\":11049:11050   */\n      0x00\n        /* \"#utility.yul\":11042:11057   */\n      revert\n        /* \"#utility.yul\":11069:11389   */\n    tag_35:\n        /* \"#utility.yul\":11113:11119   */\n      0x00\n        /* \"#utility.yul\":11150:11151   */\n      0x02\n        /* \"#utility.yul\":11144:11148   */\n      dup3\n        /* \"#utility.yul\":11140:11152   */\n      div\n        /* \"#utility.yul\":11130:11152   */\n      swap1\n      pop\n        /* \"#utility.yul\":11197:11198   */\n      0x01\n        /* \"#utility.yul\":11191:11195   */\n      dup3\n        /* \"#utility.yul\":11187:11199   */\n      and\n        /* \"#utility.yul\":11218:11236   */\n      dup1\n        /* \"#utility.yul\":11208:11289   */\n      tag_230\n      jumpi\n        /* \"#utility.yul\":11274:11278   */\n      0x7f\n        /* \"#utility.yul\":11266:11272   */\n      dup3\n        /* \"#utility.yul\":11262:11279   */\n      and\n        /* \"#utility.yul\":11252:11279   */\n      swap2\n      pop\n        /* \"#utility.yul\":11208:11289   */\n    tag_230:\n        /* \"#utility.yul\":11336:11338   */\n      0x20\n        /* \"#utility.yul\":11328:11334   */\n      dup3\n        /* \"#utility.yul\":11325:11339   */\n      lt\n        /* \"#utility.yul\":11305:11323   */\n      dup2\n        /* \"#utility.yul\":11302:11340   */\n      sub\n        /* \"#utility.yul\":11299:11383   */\n      tag_231\n      jumpi\n        /* \"#utility.yul\":11355:11373   */\n      tag_232\n      tag_107\n      jump\t// in\n    tag_232:\n        /* \"#utility.yul\":11299:11383   */\n    tag_231:\n        /* \"#utility.yul\":11120:11389   */\n      pop\n        /* \"#utility.yul\":11069:11389   */\n      swap2\n      swap1\n      pop\n      jump\t// out\n        /* \"#utility.yul\":11395:11566   */\n    tag_108:\n        /* \"#utility.yul\":11535:11558   */\n      0x657863656564206d61782074657874206c696d69740000000000000000000000\n        /* \"#utility.yul\":11531:11532   */\n      0x00\n        /* \"#utility.yul\":11523:11529   */\n      dup3\n        /* \"#utility.yul\":11519:11533   */\n      add\n        /* \"#utility.yul\":11512:11559   */\n      mstore\n        /* \"#utility.yul\":11395:11566   */\n      pop\n      jump\t// out\n        /* \"#utility.yul\":11572:11938   */\n    tag_109:\n        /* \"#utility.yul\":11714:11717   */\n      0x00\n        /* \"#utility.yul\":11735:11802   */\n      tag_235\n        /* \"#utility.yul\":11799:11801   */\n      0x15\n        /* \"#utility.yul\":11794:11797   */\n      dup4\n        /* \"#utility.yul\":11735:11802   */\n      tag_105\n      jump\t// in\n    tag_235:\n        /* \"#utility.yul\":11728:11802   */\n      swap2\n      pop\n        /* \"#utility.yul\":11811:11904   */\n      tag_236\n        /* \"#utility.yul\":11900:11903   */\n      dup3\n        /* \"#utility.yul\":11811:11904   */\n      tag_108\n      jump\t// in\n    tag_236:\n        /* \"#utility.yul\":11929:11931   */\n      0x20\n        /* \"#utility.yul\":11924:11927   */\n      dup3\n        /* \"#utility.yul\":11920:11932   */\n      add\n        /* \"#utility.yul\":11913:11932   */\n      swap1\n      pop\n        /* \"#utility.yul\":11572:11938   */\n      swap2\n      swap1\n      pop\n      jump\t// out\n        /* \"#utility.yul\":11944:12363   */\n    tag_43:\n        /* \"#utility.yul\":12110:12114   */\n      0x00\n        /* \"#utility.yul\":12148:12150   */\n      0x20\n        /* \"#utility.yul\":12137:12146   */\n      dup3\n        /* \"#utility.yul\":12133:12151   */\n      add\n        /* \"#utility.yul\":12125:12151   */\n      swap1\n      pop\n        /* \"#utility.yul\":12197:12206   */\n      dup2\n        /* \"#utility.yul\":12191:12195   */\n      dup2\n        /* \"#utility.yul\":12187:12207   */\n      sub\n        /* \"#utility.yul\":12183:12184   */\n      0x00\n        /* \"#utility.yul\":12172:12181   */\n      dup4\n        /* \"#utility.yul\":12168:12185   */\n      add\n        /* \"#utility.yul\":12161:12208   */\n      mstore\n        /* \"#utility.yul\":12225:12356   */\n      tag_238\n        /* \"#utility.yul\":12351:12355   */\n      dup2\n        /* \"#utility.yul\":12225:12356   */\n      tag_109\n      jump\t// in\n    tag_238:\n        /* \"#utility.yul\":12217:12356   */\n      swap1\n      pop\n        /* \"#utility.yul\":11944:12363   */\n      swap2\n      swap1\n      pop\n      jump\t// out\n        /* \"#utility.yul\":12369:12510   */\n    tag_110:\n        /* \"#utility.yul\":12418:12422   */\n      0x00\n        /* \"#utility.yul\":12441:12444   */\n      dup2\n        /* \"#utility.yul\":12433:12444   */\n      swap1\n      pop\n        /* \"#utility.yul\":12464:12467   */\n      dup2\n        /* \"#utility.yul\":12461:12462   */\n      0x00\n        /* \"#utility.yul\":12454:12468   */\n      mstore\n        /* \"#utility.yul\":12498:12502   */\n      0x20\n        /* \"#utility.yul\":12495:12496   */\n      0x00\n        /* \"#utility.yul\":12485:12503   */\n      keccak256\n        /* \"#utility.yul\":12477:12503   */\n      swap1\n      pop\n        /* \"#utility.yul\":12369:12510   */\n      swap2\n      swap1\n      pop\n      jump\t// out\n        /* \"#utility.yul\":12516:12609   */\n    tag_111:\n        /* \"#utility.yul\":12553:12559   */\n      0x00\n        /* \"#utility.yul\":12600:12602   */\n      0x20\n        /* \"#utility.yul\":12595:12597   */\n      0x1f\n        /* \"#utility.yul\":12588:12593   */\n      dup4\n        /* \"#utility.yul\":12584:12598   */\n      add\n        /* \"#utility.yul\":12580:12603   */\n      div\n        /* \"#utility.yul\":12570:12603   */\n      swap1\n      pop\n        /* \"#utility.yul\":12516:12609   */\n      swap2\n      swap1\n      pop\n      jump\t// out\n        /* \"#utility.yul\":12615:12722   */\n    tag_112:\n        /* \"#utility.yul\":12659:12667   */\n      0x00\n        /* \"#utility.yul\":12709:12714   */\n      dup3\n        /* \"#utility.yul\":12703:12707   */\n      dup3\n        /* \"#utility.yul\":12699:12715   */\n      shl\n        /* \"#utility.yul\":12678:12715   */\n      swap1\n      pop\n        /* \"#utility.yul\":12615:12722   */\n      swap3\n      swap2\n      pop\n      pop\n      jump\t// out\n        /* \"#utility.yul\":12728:13121   */\n    tag_113:\n        /* \"#utility.yul\":12797:12803   */\n      0x00\n        /* \"#utility.yul\":12847:12848   */\n      0x08\n        /* \"#utility.yul\":12835:12845   */\n      dup4\n        /* \"#utility.yul\":12831:12849   */\n      mul\n        /* \"#utility.yul\":12870:12967   */\n      tag_243\n        /* \"#utility.yul\":12900:12966   */\n      0xffffffffffffffffffffffffffffffffffffffffffffffffffffffffffffffff\n        /* \"#utility.yul\":12889:12898   */\n      dup3\n        /* \"#utility.yul\":12870:12967   */\n      tag_112\n      jump\t// in\n    tag_243:\n        /* \"#utility.yul\":12988:13027   */\n      tag_244\n        /* \"#utility.yul\":13018:13026   */\n      dup7\n        /* \"#utility.yul\":13007:13016   */\n      dup4\n        /* \"#utility.yul\":12988:13027   */\n      tag_112\n      jump\t// in\n    tag_244:\n        /* \"#utility.yul\":12976:13027   */\n      swap6\n      pop\n        /* \"#utility.yul\":13060:13064   */\n      dup1\n        /* \"#utility.yul\":13056:13065   */\n      not\n        /* \"#utility.yul\":13049:13054   */\n      dup5\n        /* \"#utility.yul\":13045:13066   */\n      and\n        /* \"#utility.yul\":13036:13066   */\n      swap4\n      pop\n        /* \"#utility.yul\":13109:13113   */\n      dup1\n        /* \"#utility.yul\":13099:13107   */\n      dup7\n        /* \"#utility.yul\":13095:13114   */\n      and\n        /* \"#utility.yul\":13088:13093   */\n      dup5\n        /* \"#utility.yul\":13085:13115   */\n      or\n        /* \"#utility.yul\":13075:13115   */\n      swap3\n      pop\n        /* \"#utility.yul\":12804:13121   */\n      pop\n      pop\n        /* \"#utility.yul\":12728:13121   */\n      swap4\n      swap3\n      pop\n      pop\n      pop\n      jump\t// out\n        /* \"#utility.yul\":13127:13187   */\n    tag_114:\n        /* \"#utility.yul\":13155:13158   */\n      0x00\n        /* \"#utility.yul\":13176:13181   */\n      dup2\n        /* \"#utility.yul\":13169:13181   */\n      swap1\n      pop\n        /* \"#utility.yul\":13127:13187   */\n      swap2\n      swap1\n      pop\n      jump\t// out\n        /* \"#utility.yul\":13193:13335   */\n    tag_115:\n        /* \"#utility.yul\":13243:13252   */\n      0x00\n        /* \"#utility.yul\":13276:13329   */\n      tag_247\n        /* \"#utility.yul\":13294:13328   */\n      tag_248\n        /* \"#utility.yul\":13303:13327   */\n      tag_249\n        /* \"#utility.yul\":13321:13326   */\n      dup5\n        /* \"#utility.yul\":13303:13327   */\n      tag_84\n      jump\t// in\n    tag_249:\n        /* \"#utility.yul\":13294:13328   */\n      tag_114\n      jump\t// in\n    tag_248:\n        /* \"#utility.yul\":13276:13329   */\n      tag_84\n      jump\t// in\n    tag_247:\n        /* \"#utility.yul\":13263:13329   */\n      swap1\n      pop\n        /* \"#utility.yul\":13193:13335   */\n      swap2\n      swap1\n      pop\n      jump\t// out\n        /* \"#utility.yul\":13341:13416   */\n    tag_116:\n        /* \"#utility.yul\":13384:13387   */\n      0x00\n        /* \"#utility.yul\":13405:13410   */\n      dup2\n        /* \"#utility.yul\":13398:13410   */\n      swap1\n      pop\n        /* \"#utility.yul\":13341:13416   */\n      swap2\n      swap1\n      pop\n      jump\t// out\n        /* \"#utility.yul\":13422:13691   */\n    tag_117:\n        /* \"#utility.yul\":13532:13571   */\n      tag_252\n        /* \"#utility.yul\":13563:13570   */\n      dup4\n        /* \"#utility.yul\":13532:13571   */\n      tag_115\n      jump\t// in\n    tag_252:\n        /* \"#utility.yul\":13593:13684   */\n      tag_253\n        /* \"#utility.yul\":13642:13683   */\n      tag_254\n        /* \"#utility.yul\":13666:13682   */\n      dup3\n        /* \"#utility.yul\":13642:13683   */\n      tag_116\n      jump\t// in\n    tag_254:\n        /* \"#utility.yul\":13634:13640   */\n      dup5\n        /* \"#utility.yul\":13627:13631   */\n      dup5\n        /* \"#utility.yul\":13621:13632   */\n      sload\n        /* \"#utility.yul\":13593:13684   */\n      tag_113\n      jump\t// in\n    tag_253:\n        /* \"#utility.yul\":13587:13591   */\n      dup3\n        /* \"#utility.yul\":13580:13685   */\n      sstore\n        /* \"#utility.yul\":13498:13691   */\n      pop\n        /* \"#utility.yul\":13422:13691   */\n      pop\n      pop\n      pop\n      jump\t// out\n        /* \"#utility.yul\":13697:13770   */\n    tag_118:\n        /* \"#utility.yul\":13742:13745   */\n      0x00\n        /* \"#utility.yul\":13697:13770   */\n      swap1\n      jump\t// out\n        /* \"#utility.yul\":13776:13965   */\n    tag_119:\n        /* \"#utility.yul\":13853:13885   */\n      tag_257\n      tag_118\n      jump\t// in\n    tag_257:\n        /* \"#utility.yul\":13894:13959   */\n      tag_258\n        /* \"#utility.yul\":13952:13958   */\n      dup2\n        /* \"#utility.yul\":13944:13950   */\n      dup5\n        /* \"#utility.yul\":13938:13942   */\n      dup5\n        /* \"#utility.yul\":13894:13959   */\n      tag_117\n      jump\t// in\n    tag_258:\n        /* \"#utility.yul\":13829:13965   */\n      pop\n        /* \"#utility.yul\":13776:13965   */\n      pop\n      pop\n      jump\t// out\n        /* \"#utility.yul\":13971:14157   */\n    tag_120:\n        /* \"#utility.yul\":14031:14151   */\n    tag_260:\n        /* \"#utility.yul\":14048:14051   */\n      dup2\n        /* \"#utility.yul\":14041:14046   */\n      dup2\n        /* \"#utility.yul\":14038:14052   */\n      lt\n        /* \"#utility.yul\":14031:14151   */\n      iszero\n      tag_262\n      jumpi\n        /* \"#utility.yul\":14102:14141   */\n      tag_263\n        /* \"#utility.yul\":14139:14140   */\n      0x00\n        /* \"#utility.yul\":14132:14137   */\n      dup3\n        /* \"#utility.yul\":14102:14141   */\n      tag_119\n      jump\t// in\n    tag_263:\n        /* \"#utility.yul\":14075:14076   */\n      0x01\n        /* \"#utility.yul\":14068:14073   */\n      dup2\n        /* \"#utility.yul\":14064:14077   */\n      add\n        /* \"#utility.yul\":14055:14077   */\n      swap1\n      pop\n        /* \"#utility.yul\":14031:14151   */\n      jump(tag_260)\n    tag_262:\n        /* \"#utility.yul\":13971:14157   */\n      pop\n      pop\n      jump\t// out\n        /* \"#utility.yul\":14163:14706   */\n    tag_121:\n        /* \"#utility.yul\":14264:14266   */\n      0x1f\n        /* \"#utility.yul\":14259:14262   */\n      dup3\n        /* \"#utility.yul\":14256:14267   */\n      gt\n        /* \"#utility.yul\":14253:14699   */\n      iszero\n      tag_265\n      jumpi\n        /* \"#utility.yul\":14298:14336   */\n      tag_266\n        /* \"#utility.yul\":14330:14335   */\n      dup2\n        /* \"#utility.yul\":14298:14336   */\n      tag_110\n      jump\t// in\n    tag_266:\n        /* \"#utility.yul\":14382:14411   */\n      tag_267\n        /* \"#utility.yul\":14400:14410   */\n      dup5\n        /* \"#utility.yul\":14382:14411   */\n      tag_111\n      jump\t// in\n    tag_267:\n        /* \"#utility.yul\":14372:14380   */\n      dup2\n        /* \"#utility.yul\":14368:14412   */\n      add\n        /* \"#utility.yul\":14565:14567   */\n      0x20\n        /* \"#utility.yul\":14553:14563   */\n      dup6\n        /* \"#utility.yul\":14550:14568   */\n      lt\n        /* \"#utility.yul\":14547:14596   */\n      iszero\n      tag_268\n      jumpi\n        /* \"#utility.yul\":14586:14594   */\n      dup2\n        /* \"#utility.yul\":14571:14594   */\n      swap1\n      pop\n        /* \"#utility.yul\":14547:14596   */\n    tag_268:\n        /* \"#utility.yul\":14609:14689   */\n      tag_269\n        /* \"#utility.yul\":14665:14687   */\n      tag_270\n        /* \"#utility.yul\":14683:14686   */\n      dup6\n        /* \"#utility.yul\":14665:14687   */\n      tag_111\n      jump\t// in\n    tag_270:\n        /* \"#utility.yul\":14655:14663   */\n      dup4\n        /* \"#utility.yul\":14651:14688   */\n      add\n        /* \"#utility.yul\":14638:14649   */\n      dup3\n        /* \"#utility.yul\":14609:14689   */\n      tag_120\n      jump\t// in\n    tag_269:\n        /* \"#utility.yul\":14268:14699   */\n      pop\n      pop\n        /* \"#utility.yul\":14253:14699   */\n    tag_265:\n        /* \"#utility.yul\":14163:14706   */\n      pop\n      pop\n      pop\n      jump\t// out\n        /* \"#utility.yul\":14712:14829   */\n    tag_122:\n        /* \"#utility.yul\":14766:14774   */\n      0x00\n        /* \"#utility.yul\":14816:14821   */\n      dup3\n        /* \"#utility.yul\":14810:14814   */\n      dup3\n        /* \"#utility.yul\":14806:14822   */\n      shr\n        /* \"#utility.yul\":14785:14822   */\n      swap1\n      pop\n        /* \"#utility.yul\":14712:14829   */\n      swap3\n      swap2\n      pop\n      pop\n      jump\t// out\n        /* \"#utility.yul\":14835:15004   */\n    tag_123:\n        /* \"#utility.yul\":14879:14885   */\n      0x00\n        /* \"#utility.yul\":14912:14963   */\n      tag_273\n        /* \"#utility.yul\":14960:14961   */\n      0x00\n        /* \"#utility.yul\":14956:14962   */\n      not\n        /* \"#utility.yul\":14948:14953   */\n      dup5\n        /* \"#utility.yul\":14945:14946   */\n      0x08\n        /* \"#utility.yul\":14941:14954   */\n      mul\n        /* \"#utility.yul\":14912:14963   */\n      tag_122\n      jump\t// in\n    tag_273:\n        /* \"#utility.yul\":14908:14964   */\n      not\n        /* \"#utility.yul\":14993:14997   */\n      dup1\n        /* \"#utility.yul\":14987:14991   */\n      dup4\n        /* \"#utility.yul\":14983:14998   */\n      and\n        /* \"#utility.yul\":14973:14998   */\n      swap2\n      pop\n        /* \"#utility.yul\":14886:15004   */\n      pop\n        /* \"#utility.yul\":14835:15004   */\n      swap3\n      swap2\n      pop\n      pop\n      jump\t// out\n        /* \"#utility.yul\":15009:15304   */\n    tag_124:\n        /* \"#utility.yul\":15085:15089   */\n      0x00\n        /* \"#utility.yul\":15231:15260   */\n      tag_275\n        /* \"#utility.yul\":15256:15259   */\n      dup4\n        /* \"#utility.yul\":15250:15254   */\n      dup4\n        /* \"#utility.yul\":15231:15260   */\n      tag_123\n      jump\t// in\n    tag_275:\n        /* \"#utility.yul\":15223:15260   */\n      swap2\n      pop\n        /* \"#utility.yul\":15293:15296   */\n      dup3\n        /* \"#utility.yul\":15290:15291   */\n      0x02\n        /* \"#utility.yul\":15286:15297   */\n      mul\n        /* \"#utility.yul\":15280:15284   */\n      dup3\n        /* \"#utility.yul\":15277:15298   */\n      or\n        /* \"#utility.yul\":15269:15298   */\n      swap1\n      pop\n        /* \"#utility.yul\":15009:15304   */\n      swap3\n      swap2\n      pop\n      pop\n      jump\t// out\n        /* \"#utility.yul\":15309:16704   */\n    tag_46:\n        /* \"#utility.yul\":15426:15463   */\n      tag_277\n        /* \"#utility.yul\":15459:15462   */\n      dup3\n        /* \"#utility.yul\":15426:15463   */\n      tag_79\n      jump\t// in\n    tag_277:\n        /* \"#utility.yul\":15528:15546   */\n      0xffffffffffffffff\n        /* \"#utility.yul\":15520:15526   */\n      dup2\n        /* \"#utility.yul\":15517:15547   */\n      gt\n        /* \"#utility.yul\":15514:15570   */\n      iszero\n      tag_278\n      jumpi\n        /* \"#utility.yul\":15550:15568   */\n      tag_279\n      tag_95\n      jump\t// in\n    tag_279:\n        /* \"#utility.yul\":15514:15570   */\n    tag_278:\n        /* \"#utility.yul\":15594:15632   */\n      tag_280\n        /* \"#utility.yul\":15626:15630   */\n      dup3\n        /* \"#utility.yul\":15620:15631   */\n      sload\n        /* \"#utility.yul\":15594:15632   */\n      tag_35\n      jump\t// in\n    tag_280:\n        /* \"#utility.yul\":15679:15746   */\n      tag_281\n        /* \"#utility.yul\":15739:15745   */\n      dup3\n        /* \"#utility.yul\":15731:15737   */\n      dup3\n        /* \"#utility.yul\":15725:15729   */\n      dup6\n        /* \"#utility.yul\":15679:15746   */\n      tag_121\n      jump\t// in\n    tag_281:\n        /* \"#utility.yul\":15773:15774   */\n      0x00\n        /* \"#utility.yul\":15797:15801   */\n      0x20\n        /* \"#utility.yul\":15784:15801   */\n      swap1\n      pop\n        /* \"#utility.yul\":15829:15831   */\n      0x1f\n        /* \"#utility.yul\":15821:15827   */\n      dup4\n        /* \"#utility.yul\":15818:15832   */\n      gt\n        /* \"#utility.yul\":15846:15847   */\n      0x01\n        /* \"#utility.yul\":15841:16459   */\n      dup2\n      eq\n      tag_283\n      jumpi\n        /* \"#utility.yul\":16503:16504   */\n      0x00\n        /* \"#utility.yul\":16520:16526   */\n      dup5\n        /* \"#utility.yul\":16517:16594   */\n      iszero\n      tag_284\n      jumpi\n        /* \"#utility.yul\":16569:16578   */\n      dup3\n        /* \"#utility.yul\":16564:16567   */\n      dup8\n        /* \"#utility.yul\":16560:16579   */\n      add\n        /* \"#utility.yul\":16554:16580   */\n      mload\n        /* \"#utility.yul\":16545:16580   */\n      swap1\n      pop\n        /* \"#utility.yul\":16517:16594   */\n    tag_284:\n        /* \"#utility.yul\":16620:16687   */\n      tag_285\n        /* \"#utility.yul\":16680:16686   */\n      dup6\n        /* \"#utility.yul\":16673:16678   */\n      dup3\n        /* \"#utility.yul\":16620:16687   */\n      tag_124\n      jump\t// in\n    tag_285:\n        /* \"#utility.yul\":16614:16618   */\n      dup7\n        /* \"#utility.yul\":16607:16688   */\n      sstore\n        /* \"#utility.yul\":16476:16698   */\n      pop\n        /* \"#utility.yul\":15811:16698   */\n      jump(tag_282)\n        /* \"#utility.yul\":15841:16459   */\n    tag_283:\n        /* \"#utility.yul\":15893:15897   */\n      0x1f\n        /* \"#utility.yul\":15889:15898   */\n      not\n        /* \"#utility.yul\":15881:15887   */\n      dup5\n        /* \"#utility.yul\":15877:15899   */\n      and\n        /* \"#utility.yul\":15927:15964   */\n      tag_286\n        /* \"#utility.yul\":15959:15963   */\n      dup7\n        /* \"#utility.yul\":15927:15964   */\n      tag_110\n      jump\t// in\n    tag_286:\n        /* \"#utility.yul\":15986:15987   */\n      0x00\n        /* \"#utility.yul\":16000:16208   */\n    tag_287:\n        /* \"#utility.yul\":16014:16021   */\n      dup3\n        /* \"#utility.yul\":16011:16012   */\n      dup2\n        /* \"#utility.yul\":16008:16022   */\n      lt\n        /* \"#utility.yul\":16000:16208   */\n      iszero\n      tag_289\n      jumpi\n        /* \"#utility.yul\":16093:16102   */\n      dup5\n        /* \"#utility.yul\":16088:16091   */\n      dup10\n        /* \"#utility.yul\":16084:16103   */\n      add\n        /* \"#utility.yul\":16078:16104   */\n      mload\n        /* \"#utility.yul\":16070:16076   */\n      dup3\n        /* \"#utility.yul\":16063:16105   */\n      sstore\n        /* \"#utility.yul\":16144:16145   */\n      0x01\n        /* \"#utility.yul\":16136:16142   */\n      dup3\n        /* \"#utility.yul\":16132:16146   */\n      add\n        /* \"#utility.yul\":16122:16146   */\n      swap2\n      pop\n        /* \"#utility.yul\":16191:16193   */\n      0x20\n        /* \"#utility.yul\":16180:16189   */\n      dup6\n        /* \"#utility.yul\":16176:16194   */\n      add\n        /* \"#utility.yul\":16163:16194   */\n      swap5\n      pop\n        /* \"#utility.yul\":16037:16041   */\n      0x20\n        /* \"#utility.yul\":16034:16035   */\n      dup2\n        /* \"#utility.yul\":16030:16042   */\n      add\n        /* \"#utility.yul\":16025:16042   */\n      swap1\n      pop\n        /* \"#utility.yul\":16000:16208   */\n      jump(tag_287)\n    tag_289:\n        /* \"#utility.yul\":16236:16242   */\n      dup7\n        /* \"#utility.yul\":16227:16234   */\n      dup4\n        /* \"#utility.yul\":16224:16243   */\n      lt\n        /* \"#utility.yul\":16221:16400   */\n      iszero\n      tag_290\n      jumpi\n        /* \"#utility.yul\":16294:16303   */\n      dup5\n        /* \"#utility.yul\":16289:16292   */\n      dup10\n        /* \"#utility.yul\":16285:16304   */\n      add\n        /* \"#utility.yul\":16279:16305   */\n      mload\n        /* \"#utility.yul\":16337:16385   */\n      tag_291\n        /* \"#utility.yul\":16379:16383   */\n      0x1f\n        /* \"#utility.yul\":16371:16377   */\n      dup10\n        /* \"#utility.yul\":16367:16384   */\n      and\n        /* \"#utility.yul\":16356:16365   */\n      dup3\n        /* \"#utility.yul\":16337:16385   */\n      tag_123\n      jump\t// in\n    tag_291:\n        /* \"#utility.yul\":16329:16335   */\n      dup4\n        /* \"#utility.yul\":16322:16386   */\n      sstore\n        /* \"#utility.yul\":16244:16400   */\n      pop\n        /* \"#utility.yul\":16221:16400   */\n    tag_290:\n        /* \"#utility.yul\":16446:16447   */\n      0x01\n        /* \"#utility.yul\":16442:16443   */\n      0x02\n        /* \"#utility.yul\":16434:16440   */\n      dup9\n        /* \"#utility.yul\":16430:16444   */\n      mul\n        /* \"#utility.yul\":16426:16448   */\n      add\n        /* \"#utility.yul\":16420:16424   */\n      dup9\n        /* \"#utility.yul\":16413:16449   */\n      sstore\n        /* \"#utility.yul\":15848:16459   */\n      pop\n      pop\n      pop\n        /* \"#utility.yul\":15811:16698   */\n    tag_282:\n      pop\n        /* \"#utility.yul\":15401:16704   */\n      pop\n      pop\n      pop\n        /* \"#utility.yul\":15309:16704   */\n      pop\n      pop\n      jump\t// out\n        /* \"#utility.yul\":16710:16933   */\n    tag_125:\n        /* \"#utility.yul\":16850:16884   */\n      0x4f6e6c79206f776e657220616c6c6f77656420746f20706572666f726d206163\n        /* \"#utility.yul\":16846:16847   */\n      0x00\n        /* \"#utility.yul\":16838:16844   */\n      dup3\n        /* \"#utility.yul\":16834:16848   */\n      add\n        /* \"#utility.yul\":16827:16885   */\n      mstore\n        /* \"#utility.yul\":16919:16925   */\n      0x74696f6e00000000000000000000000000000000000000000000000000000000\n        /* \"#utility.yul\":16914:16916   */\n      0x20\n        /* \"#utility.yul\":16906:16912   */\n      dup3\n        /* \"#utility.yul\":16902:16917   */\n      add\n        /* \"#utility.yul\":16895:16926   */\n      mstore\n        /* \"#utility.yul\":16710:16933   */\n      pop\n      jump\t// out\n        /* \"#utility.yul\":16939:17305   */\n    tag_126:\n        /* \"#utility.yul\":17081:17084   */\n      0x00\n        /* \"#utility.yul\":17102:17169   */\n      tag_294\n        /* \"#utility.yul\":17166:17168   */\n      0x24\n        /* \"#utility.yul\":17161:17164   */\n      dup4\n        /* \"#utility.yul\":17102:17169   */\n      tag_105\n      jump\t// in\n    tag_294:\n        /* \"#utility.yul\":17095:17169   */\n      swap2\n      pop\n        /* \"#utility.yul\":17178:17271   */\n      tag_295\n        /* \"#utility.yul\":17267:17270   */\n      dup3\n        /* \"#utility.yul\":17178:17271   */\n      tag_125\n      jump\t// in\n    tag_295:\n        /* \"#utility.yul\":17296:17298   */\n      0x40\n        /* \"#utility.yul\":17291:17294   */\n      dup3\n        /* \"#utility.yul\":17287:17299   */\n      add\n        /* \"#utility.yul\":17280:17299   */\n      swap1\n      pop\n        /* \"#utility.yul\":16939:17305   */\n      swap2\n      swap1\n      pop\n      jump\t// out\n        /* \"#utility.yul\":17311:17730   */\n    tag_50:\n        /* \"#utility.yul\":17477:17481   */\n      0x00\n        /* \"#utility.yul\":17515:17517   */\n      0x20\n        /* \"#utility.yul\":17504:17513   */\n      dup3\n        /* \"#utility.yul\":17500:17518   */\n      add\n        /* \"#utility.yul\":17492:17518   */\n      swap1\n      pop\n        /* \"#utility.yul\":17564:17573   */\n      dup2\n        /* \"#utility.yul\":17558:17562   */\n      dup2\n        /* \"#utility.yul\":17554:17574   */\n      sub\n        /* \"#utility.yul\":17550:17551   */\n      0x00\n        /* \"#utility.yul\":17539:17548   */\n      dup4\n        /* \"#utility.yul\":17535:17552   */\n      add\n        /* \"#utility.yul\":17528:17575   */\n      mstore\n        /* \"#utility.yul\":17592:17723   */\n      tag_297\n        /* \"#utility.yul\":17718:17722   */\n      dup2\n        /* \"#utility.yul\":17592:17723   */\n      tag_126\n      jump\t// in\n    tag_297:\n        /* \"#utility.yul\":17584:17723   */\n      swap1\n      pop\n        /* \"#utility.yul\":17311:17730   */\n      swap2\n      swap1\n      pop\n      jump\t// out\n        /* \"#utility.yul\":17736:17916   */\n    tag_57:\n        /* \"#utility.yul\":17784:17861   */\n      0x4e487b7100000000000000000000000000000000000000000000000000000000\n        /* \"#utility.yul\":17781:17782   */\n      0x00\n        /* \"#utility.yul\":17774:17862   */\n      mstore\n        /* \"#utility.yul\":17881:17885   */\n      0x32\n        /* \"#utility.yul\":17878:17879   */\n      0x04\n        /* \"#utility.yul\":17871:17886   */\n      mstore\n        /* \"#utility.yul\":17905:17909   */\n      0x24\n        /* \"#utility.yul\":17902:17903   */\n      0x00\n        /* \"#utility.yul\":17895:17910   */\n      revert\n\n    auxdata: 0xa26469706673582212203e30726b93a1d6057890f1786d54c2980e9b7afde35b20679316889afd21194f64736f6c63430008160033\n}\n",
				"bytecode": {
					"linkReferences": {},
					"object": "608060405234801561000f575f80fd5b50335f806101000a81548173ffffffffffffffffffffffffffffffffffffffff021916908373ffffffffffffffffffffffffffffffffffffffff16021790555061012c600181905550611023806100655f395ff3fe608060405234801561000f575f80fd5b5060043610610055575f3560e01c80633a756bd6146100595780637c9cd2bc14610077578063888a788014610093578063a1575f92146100af578063c2e25658146100df575b5f80fd5b61006161010f565b60405161006e9190610920565b60405180910390f35b610091600480360381019061008c9190610a7d565b61029e565b005b6100ad60048036038101906100a89190610aee565b6103f7565b005b6100c960048036038101906100c49190610aee565b61048e565b6040516100d69190610b79565b60405180910390f35b6100f960048036038101906100f49190610aee565b6105fb565b6040516101069190610be1565b60405180910390f35b606060025f3373ffffffffffffffffffffffffffffffffffffffff1673ffffffffffffffffffffffffffffffffffffffff1681526020019081526020015f20805480602002602001604051908101604052809291908181526020015f905b82821015610295578382905f5260205f2090600402016040518060800160405290815f82015f9054906101000a900473ffffffffffffffffffffffffffffffffffffffff1673ffffffffffffffffffffffffffffffffffffffff1673ffffffffffffffffffffffffffffffffffffffff1681526020016001820180546101f290610c2e565b80601f016020809104026020016040519081016040528092919081815260200182805461021e90610c2e565b80156102695780601f1061024057610100808354040283529160200191610269565b820191905f5260205f20905b81548152906001019060200180831161024c57829003601f168201915b50505050508152602001600282015481526020016003820154815250508152602001906001019061016d565b50505050905090565b600154815111156102e4576040517f08c379a00000000000000000000000000000000000000000000000000000000081526004016102db90610ca8565b60405180910390fd5b5f60405180608001604052803373ffffffffffffffffffffffffffffffffffffffff1681526020018381526020014281526020016001815250905060025f3373ffffffffffffffffffffffffffffffffffffffff1673ffffffffffffffffffffffffffffffffffffffff1681526020019081526020015f2081908060018154018082558091505060019003905f5260205f2090600402015f909190919091505f820151815f015f6101000a81548173ffffffffffffffffffffffffffffffffffffffff021916908373ffffffffffffffffffffffffffffffffffffffff16021790555060208201518160010190816103dc9190610e63565b50604082015181600201556060820151816003015550505050565b5f8054906101000a900473ffffffffffffffffffffffffffffffffffffffff1673ffffffffffffffffffffffffffffffffffffffff163373ffffffffffffffffffffffffffffffffffffffff1614610484576040517f08c379a000000000000000000000000000000000000000000000000000000000815260040161047b90610fa2565b60405180910390fd5b8060018190555050565b6104966106e9565b60025f3373ffffffffffffffffffffffffffffffffffffffff1673ffffffffffffffffffffffffffffffffffffffff1681526020019081526020015f2082815481106104e5576104e4610fc0565b5b905f5260205f2090600402016040518060800160405290815f82015f9054906101000a900473ffffffffffffffffffffffffffffffffffffffff1673ffffffffffffffffffffffffffffffffffffffff1673ffffffffffffffffffffffffffffffffffffffff16815260200160018201805461056090610c2e565b80601f016020809104026020016040519081016040528092919081815260200182805461058c90610c2e565b80156105d75780601f106105ae576101008083540402835291602001916105d7565b820191905f5260205f20905b8154815290600101906020018083116105ba57829003601f168201915b50505050508152602001600282015481526020016003820154815250509050919050565b606060025f3373ffffffffffffffffffffffffffffffffffffffff1673ffffffffffffffffffffffffffffffffffffffff1681526020019081526020015f20828154811061064c5761064b610fc0565b5b905f5260205f209060040201600101805461066690610c2e565b80601f016020809104026020016040519081016040528092919081815260200182805461069290610c2e565b80156106dd5780601f106106b4576101008083540402835291602001916106dd565b820191905f5260205f20905b8154815290600101906020018083116106c057829003601f168201915b50505050509050919050565b60405180608001604052805f73ffffffffffffffffffffffffffffffffffffffff168152602001606081526020015f81526020015f81525090565b5f81519050919050565b5f82825260208201905092915050565b5f819050602082019050919050565b5f73ffffffffffffffffffffffffffffffffffffffff82169050919050565b5f6107768261074d565b9050919050565b6107868161076c565b82525050565b5f81519050919050565b5f82825260208201905092915050565b5f5b838110156107c35780820151818401526020810190506107a8565b5f8484015250505050565b5f601f19601f8301169050919050565b5f6107e88261078c565b6107f28185610796565b93506108028185602086016107a6565b61080b816107ce565b840191505092915050565b5f819050919050565b61082881610816565b82525050565b5f608083015f8301516108435f86018261077d565b506020830151848203602086015261085b82826107de565b9150506040830151610870604086018261081f565b506060830151610883606086018261081f565b508091505092915050565b5f610899838361082e565b905092915050565b5f602082019050919050565b5f6108b782610724565b6108c1818561072e565b9350836020820285016108d38561073e565b805f5b8581101561090e57848403895281516108ef858261088e565b94506108fa836108a1565b925060208a019950506001810190506108d6565b50829750879550505050505092915050565b5f6020820190508181035f83015261093881846108ad565b905092915050565b5f604051905090565b5f80fd5b5f80fd5b5f80fd5b5f80fd5b7f4e487b71000000000000000000000000000000000000000000000000000000005f52604160045260245ffd5b61098f826107ce565b810181811067ffffffffffffffff821117156109ae576109ad610959565b5b80604052505050565b5f6109c0610940565b90506109cc8282610986565b919050565b5f67ffffffffffffffff8211156109eb576109ea610959565b5b6109f4826107ce565b9050602081019050919050565b828183375f83830152505050565b5f610a21610a1c846109d1565b6109b7565b905082815260208101848484011115610a3d57610a3c610955565b5b610a48848285610a01565b509392505050565b5f82601f830112610a6457610a63610951565b5b8135610a74848260208601610a0f565b91505092915050565b5f60208284031215610a9257610a91610949565b5b5f82013567ffffffffffffffff811115610aaf57610aae61094d565b5b610abb84828501610a50565b91505092915050565b610acd81610816565b8114610ad7575f80fd5b50565b5f81359050610ae881610ac4565b92915050565b5f60208284031215610b0357610b02610949565b5b5f610b1084828501610ada565b91505092915050565b5f608083015f830151610b2e5f86018261077d565b5060208301518482036020860152610b4682826107de565b9150506040830151610b5b604086018261081f565b506060830151610b6e606086018261081f565b508091505092915050565b5f6020820190508181035f830152610b918184610b19565b905092915050565b5f82825260208201905092915050565b5f610bb38261078c565b610bbd8185610b99565b9350610bcd8185602086016107a6565b610bd6816107ce565b840191505092915050565b5f6020820190508181035f830152610bf98184610ba9565b905092915050565b7f4e487b71000000000000000000000000000000000000000000000000000000005f52602260045260245ffd5b5f6002820490506001821680610c4557607f821691505b602082108103610c5857610c57610c01565b5b50919050565b7f657863656564206d61782074657874206c696d697400000000000000000000005f82015250565b5f610c92601583610b99565b9150610c9d82610c5e565b602082019050919050565b5f6020820190508181035f830152610cbf81610c86565b9050919050565b5f819050815f5260205f209050919050565b5f6020601f8301049050919050565b5f82821b905092915050565b5f60088302610d227fffffffffffffffffffffffffffffffffffffffffffffffffffffffffffffffff82610ce7565b610d2c8683610ce7565b95508019841693508086168417925050509392505050565b5f819050919050565b5f610d67610d62610d5d84610816565b610d44565b610816565b9050919050565b5f819050919050565b610d8083610d4d565b610d94610d8c82610d6e565b848454610cf3565b825550505050565b5f90565b610da8610d9c565b610db3818484610d77565b505050565b5b81811015610dd657610dcb5f82610da0565b600181019050610db9565b5050565b601f821115610e1b57610dec81610cc6565b610df584610cd8565b81016020851015610e04578190505b610e18610e1085610cd8565b830182610db8565b50505b505050565b5f82821c905092915050565b5f610e3b5f1984600802610e20565b1980831691505092915050565b5f610e538383610e2c565b9150826002028217905092915050565b610e6c8261078c565b67ffffffffffffffff811115610e8557610e84610959565b5b610e8f8254610c2e565b610e9a828285610dda565b5f60209050601f831160018114610ecb575f8415610eb9578287015190505b610ec38582610e48565b865550610f2a565b601f198416610ed986610cc6565b5f5b82811015610f0057848901518255600182019150602085019450602081019050610edb565b86831015610f1d5784890151610f19601f891682610e2c565b8355505b6001600288020188555050505b505050505050565b7f4f6e6c79206f776e657220616c6c6f77656420746f20706572666f726d2061635f8201527f74696f6e00000000000000000000000000000000000000000000000000000000602082015250565b5f610f8c602483610b99565b9150610f9782610f32565b604082019050919050565b5f6020820190508181035f830152610fb981610f80565b9050919050565b7f4e487b71000000000000000000000000000000000000000000000000000000005f52603260045260245ffdfea26469706673582212203e30726b93a1d6057890f1786d54c2980e9b7afde35b20679316889afd21194f64736f6c63430008160033",
					"opcodes": "PUSH1 0x80 PUSH1 0x40 MSTORE CALLVALUE DUP1 ISZERO PUSH2 0xF JUMPI PUSH0 DUP1 REVERT JUMPDEST POP CALLER PUSH0 DUP1 PUSH2 0x100 EXP DUP2 SLOAD DUP2 PUSH20 0xFFFFFFFFFFFFFFFFFFFFFFFFFFFFFFFFFFFFFFFF MUL NOT AND SWAP1 DUP4 PUSH20 0xFFFFFFFFFFFFFFFFFFFFFFFFFFFFFFFFFFFFFFFF AND MUL OR SWAP1 SSTORE POP PUSH2 0x12C PUSH1 0x1 DUP2 SWAP1 SSTORE POP PUSH2 0x1023 DUP1 PUSH2 0x65 PUSH0 CODECOPY PUSH0 RETURN INVALID PUSH1 0x80 PUSH1 0x40 MSTORE CALLVALUE DUP1 ISZERO PUSH2 0xF JUMPI PUSH0 DUP1 REVERT JUMPDEST POP PUSH1 0x4 CALLDATASIZE LT PUSH2 0x55 JUMPI PUSH0 CALLDATALOAD PUSH1 0xE0 SHR DUP1 PUSH4 0x3A756BD6 EQ PUSH2 0x59 JUMPI DUP1 PUSH4 0x7C9CD2BC EQ PUSH2 0x77 JUMPI DUP1 PUSH4 0x888A7880 EQ PUSH2 0x93 JUMPI DUP1 PUSH4 0xA1575F92 EQ PUSH2 0xAF JUMPI DUP1 PUSH4 0xC2E25658 EQ PUSH2 0xDF JUMPI JUMPDEST PUSH0 DUP1 REVERT JUMPDEST PUSH2 0x61 PUSH2 0x10F JUMP JUMPDEST PUSH1 0x40 MLOAD PUSH2 0x6E SWAP2 SWAP1 PUSH2 0x920 JUMP JUMPDEST PUSH1 0x40 MLOAD DUP1 SWAP2 SUB SWAP1 RETURN JUMPDEST PUSH2 0x91 PUSH1 0x4 DUP1 CALLDATASIZE SUB DUP2 ADD SWAP1 PUSH2 0x8C SWAP2 SWAP1 PUSH2 0xA7D JUMP JUMPDEST PUSH2 0x29E JUMP JUMPDEST STOP JUMPDEST PUSH2 0xAD PUSH1 0x4 DUP1 CALLDATASIZE SUB DUP2 ADD SWAP1 PUSH2 0xA8 SWAP2 SWAP1 PUSH2 0xAEE JUMP JUMPDEST PUSH2 0x3F7 JUMP JUMPDEST STOP JUMPDEST PUSH2 0xC9 PUSH1 0x4 DUP1 CALLDATASIZE SUB DUP2 ADD SWAP1 PUSH2 0xC4 SWAP2 SWAP1 PUSH2 0xAEE JUMP JUMPDEST PUSH2 0x48E JUMP JUMPDEST PUSH1 0x40 MLOAD PUSH2 0xD6 SWAP2 SWAP1 PUSH2 0xB79 JUMP JUMPDEST PUSH1 0x40 MLOAD DUP1 SWAP2 SUB SWAP1 RETURN JUMPDEST PUSH2 0xF9 PUSH1 0x4 DUP1 CALLDATASIZE SUB DUP2 ADD SWAP1 PUSH2 0xF4 SWAP2 SWAP1 PUSH2 0xAEE JUMP JUMPDEST PUSH2 0x5FB JUMP JUMPDEST PUSH1 0x40 MLOAD PUSH2 0x106 SWAP2 SWAP1 PUSH2 0xBE1 JUMP JUMPDEST PUSH1 0x40 MLOAD DUP1 SWAP2 SUB SWAP1 RETURN JUMPDEST PUSH1 0x60 PUSH1 0x2 PUSH0 CALLER PUSH20 0xFFFFFFFFFFFFFFFFFFFFFFFFFFFFFFFFFFFFFFFF AND PUSH20 0xFFFFFFFFFFFFFFFFFFFFFFFFFFFFFFFFFFFFFFFF AND DUP2 MSTORE PUSH1 0x20 ADD SWAP1 DUP2 MSTORE PUSH1 0x20 ADD PUSH0 KECCAK256 DUP1 SLOAD DUP1 PUSH1 0x20 MUL PUSH1 0x20 ADD PUSH1 0x40 MLOAD SWAP1 DUP2 ADD PUSH1 0x40 MSTORE DUP1 SWAP3 SWAP2 SWAP1 DUP2 DUP2 MSTORE PUSH1 0x20 ADD PUSH0 SWAP1 JUMPDEST DUP3 DUP3 LT ISZERO PUSH2 0x295 JUMPI DUP4 DUP3 SWAP1 PUSH0 MSTORE PUSH1 0x20 PUSH0 KECCAK256 SWAP1 PUSH1 0x4 MUL ADD PUSH1 0x40 MLOAD DUP1 PUSH1 0x80 ADD PUSH1 0x40 MSTORE SWAP1 DUP2 PUSH0 DUP3 ADD PUSH0 SWAP1 SLOAD SWAP1 PUSH2 0x100 EXP SWAP1 DIV PUSH20 0xFFFFFFFFFFFFFFFFFFFFFFFFFFFFFFFFFFFFFFFF AND PUSH20 0xFFFFFFFFFFFFFFFFFFFFFFFFFFFFFFFFFFFFFFFF AND PUSH20 0xFFFFFFFFFFFFFFFFFFFFFFFFFFFFFFFFFFFFFFFF AND DUP2 MSTORE PUSH1 0x20 ADD PUSH1 0x1 DUP3 ADD DUP1 SLOAD PUSH2 0x1F2 SWAP1 PUSH2 0xC2E JUMP JUMPDEST DUP1 PUSH1 0x1F ADD PUSH1 0x20 DUP1 SWAP2 DIV MUL PUSH1 0x20 ADD PUSH1 0x40 MLOAD SWAP1 DUP2 ADD PUSH1 0x40 MSTORE DUP1 SWAP3 SWAP2 SWAP1 DUP2 DUP2 MSTORE PUSH1 0x20 ADD DUP3 DUP1 SLOAD PUSH2 0x21E SWAP1 PUSH2 0xC2E JUMP JUMPDEST DUP1 ISZERO PUSH2 0x269 JUMPI DUP1 PUSH1 0x1F LT PUSH2 0x240 JUMPI PUSH2 0x100 DUP1 DUP4 SLOAD DIV MUL DUP4 MSTORE SWAP2 PUSH1 0x20 ADD SWAP2 PUSH2 0x269 JUMP JUMPDEST DUP3 ADD SWAP2 SWAP1 PUSH0 MSTORE PUSH1 0x20 PUSH0 KECCAK256 SWAP1 JUMPDEST DUP2 SLOAD DUP2 MSTORE SWAP1 PUSH1 0x1 ADD SWAP1 PUSH1 0x20 ADD DUP1 DUP4 GT PUSH2 0x24C JUMPI DUP3 SWAP1 SUB PUSH1 0x1F AND DUP3 ADD SWAP2 JUMPDEST POP POP POP POP POP DUP2 MSTORE PUSH1 0x20 ADD PUSH1 0x2 DUP3 ADD SLOAD DUP2 MSTORE PUSH1 0x20 ADD PUSH1 0x3 DUP3 ADD SLOAD DUP2 MSTORE POP POP DUP2 MSTORE PUSH1 0x20 ADD SWAP1 PUSH1 0x1 ADD SWAP1 PUSH2 0x16D JUMP JUMPDEST POP POP POP POP SWAP1 POP SWAP1 JUMP JUMPDEST PUSH1 0x1 SLOAD DUP2 MLOAD GT ISZERO PUSH2 0x2E4 JUMPI PUSH1 0x40 MLOAD PUSH32 0x8C379A000000000000000000000000000000000000000000000000000000000 DUP2 MSTORE PUSH1 0x4 ADD PUSH2 0x2DB SWAP1 PUSH2 0xCA8 JUMP JUMPDEST PUSH1 0x40 MLOAD DUP1 SWAP2 SUB SWAP1 REVERT JUMPDEST PUSH0 PUSH1 0x40 MLOAD DUP1 PUSH1 0x80 ADD PUSH1 0x40 MSTORE DUP1 CALLER PUSH20 0xFFFFFFFFFFFFFFFFFFFFFFFFFFFFFFFFFFFFFFFF AND DUP2 MSTORE PUSH1 0x20 ADD DUP4 DUP2 MSTORE PUSH1 0x20 ADD TIMESTAMP DUP2 MSTORE PUSH1 0x20 ADD PUSH1 0x1 DUP2 MSTORE POP SWAP1 POP PUSH1 0x2 PUSH0 CALLER PUSH20 0xFFFFFFFFFFFFFFFFFFFFFFFFFFFFFFFFFFFFFFFF AND PUSH20 0xFFFFFFFFFFFFFFFFFFFFFFFFFFFFFFFFFFFFFFFF AND DUP2 MSTORE PUSH1 0x20 ADD SWAP1 DUP2 MSTORE PUSH1 0x20 ADD PUSH0 KECCAK256 DUP2 SWAP1 DUP1 PUSH1 0x1 DUP2 SLOAD ADD DUP1 DUP3 SSTORE DUP1 SWAP2 POP POP PUSH1 0x1 SWAP1 SUB SWAP1 PUSH0 MSTORE PUSH1 0x20 PUSH0 KECCAK256 SWAP1 PUSH1 0x4 MUL ADD PUSH0 SWAP1 SWAP2 SWAP1 SWAP2 SWAP1 SWAP2 POP PUSH0 DUP3 ADD MLOAD DUP2 PUSH0 ADD PUSH0 PUSH2 0x100 EXP DUP2 SLOAD DUP2 PUSH20 0xFFFFFFFFFFFFFFFFFFFFFFFFFFFFFFFFFFFFFFFF MUL NOT AND SWAP1 DUP4 PUSH20 0xFFFFFFFFFFFFFFFFFFFFFFFFFFFFFFFFFFFFFFFF AND MUL OR SWAP1 SSTORE POP PUSH1 0x20 DUP3 ADD MLOAD DUP2 PUSH1 0x1 ADD SWAP1 DUP2 PUSH2 0x3DC SWAP2 SWAP1 PUSH2 0xE63 JUMP JUMPDEST POP PUSH1 0x40 DUP3 ADD MLOAD DUP2 PUSH1 0x2 ADD SSTORE PUSH1 0x60 DUP3 ADD MLOAD DUP2 PUSH1 0x3 ADD SSTORE POP POP POP POP JUMP JUMPDEST PUSH0 DUP1 SLOAD SWAP1 PUSH2 0x100 EXP SWAP1 DIV PUSH20 0xFFFFFFFFFFFFFFFFFFFFFFFFFFFFFFFFFFFFFFFF AND PUSH20 0xFFFFFFFFFFFFFFFFFFFFFFFFFFFFFFFFFFFFFFFF AND CALLER PUSH20 0xFFFFFFFFFFFFFFFFFFFFFFFFFFFFFFFFFFFFFFFF AND EQ PUSH2 0x484 JUMPI PUSH1 0x40 MLOAD PUSH32 0x8C379A000000000000000000000000000000000000000000000000000000000 DUP2 MSTORE PUSH1 0x4 ADD PUSH2 0x47B SWAP1 PUSH2 0xFA2 JUMP JUMPDEST PUSH1 0x40 MLOAD DUP1 SWAP2 SUB SWAP1 REVERT JUMPDEST DUP1 PUSH1 0x1 DUP2 SWAP1 SSTORE POP POP JUMP JUMPDEST PUSH2 0x496 PUSH2 0x6E9 JUMP JUMPDEST PUSH1 0x2 PUSH0 CALLER PUSH20 0xFFFFFFFFFFFFFFFFFFFFFFFFFFFFFFFFFFFFFFFF AND PUSH20 0xFFFFFFFFFFFFFFFFFFFFFFFFFFFFFFFFFFFFFFFF AND DUP2 MSTORE PUSH1 0x20 ADD SWAP1 DUP2 MSTORE PUSH1 0x20 ADD PUSH0 KECCAK256 DUP3 DUP2 SLOAD DUP2 LT PUSH2 0x4E5 JUMPI PUSH2 0x4E4 PUSH2 0xFC0 JUMP JUMPDEST JUMPDEST SWAP1 PUSH0 MSTORE PUSH1 0x20 PUSH0 KECCAK256 SWAP1 PUSH1 0x4 MUL ADD PUSH1 0x40 MLOAD DUP1 PUSH1 0x80 ADD PUSH1 0x40 MSTORE SWAP1 DUP2 PUSH0 DUP3 ADD PUSH0 SWAP1 SLOAD SWAP1 PUSH2 0x100 EXP SWAP1 DIV PUSH20 0xFFFFFFFFFFFFFFFFFFFFFFFFFFFFFFFFFFFFFFFF AND PUSH20 0xFFFFFFFFFFFFFFFFFFFFFFFFFFFFFFFFFFFFFFFF AND PUSH20 0xFFFFFFFFFFFFFFFFFFFFFFFFFFFFFFFFFFFFFFFF AND DUP2 MSTORE PUSH1 0x20 ADD PUSH1 0x1 DUP3 ADD DUP1 SLOAD PUSH2 0x560 SWAP1 PUSH2 0xC2E JUMP JUMPDEST DUP1 PUSH1 0x1F ADD PUSH1 0x20 DUP1 SWAP2 DIV MUL PUSH1 0x20 ADD PUSH1 0x40 MLOAD SWAP1 DUP2 ADD PUSH1 0x40 MSTORE DUP1 SWAP3 SWAP2 SWAP1 DUP2 DUP2 MSTORE PUSH1 0x20 ADD DUP3 DUP1 SLOAD PUSH2 0x58C SWAP1 PUSH2 0xC2E JUMP JUMPDEST DUP1 ISZERO PUSH2 0x5D7 JUMPI DUP1 PUSH1 0x1F LT PUSH2 0x5AE JUMPI PUSH2 0x100 DUP1 DUP4 SLOAD DIV MUL DUP4 MSTORE SWAP2 PUSH1 0x20 ADD SWAP2 PUSH2 0x5D7 JUMP JUMPDEST DUP3 ADD SWAP2 SWAP1 PUSH0 MSTORE PUSH1 0x20 PUSH0 KECCAK256 SWAP1 JUMPDEST DUP2 SLOAD DUP2 MSTORE SWAP1 PUSH1 0x1 ADD SWAP1 PUSH1 0x20 ADD DUP1 DUP4 GT PUSH2 0x5BA JUMPI DUP3 SWAP1 SUB PUSH1 0x1F AND DUP3 ADD SWAP2 JUMPDEST POP POP POP POP POP DUP2 MSTORE PUSH1 0x20 ADD PUSH1 0x2 DUP3 ADD SLOAD DUP2 MSTORE PUSH1 0x20 ADD PUSH1 0x3 DUP3 ADD SLOAD DUP2 MSTORE POP POP SWAP1 POP SWAP2 SWAP1 POP JUMP JUMPDEST PUSH1 0x60 PUSH1 0x2 PUSH0 CALLER PUSH20 0xFFFFFFFFFFFFFFFFFFFFFFFFFFFFFFFFFFFFFFFF AND PUSH20 0xFFFFFFFFFFFFFFFFFFFFFFFFFFFFFFFFFFFFFFFF AND DUP2 MSTORE PUSH1 0x20 ADD SWAP1 DUP2 MSTORE PUSH1 0x20 ADD PUSH0 KECCAK256 DUP3 DUP2 SLOAD DUP2 LT PUSH2 0x64C JUMPI PUSH2 0x64B PUSH2 0xFC0 JUMP JUMPDEST JUMPDEST SWAP1 PUSH0 MSTORE PUSH1 0x20 PUSH0 KECCAK256 SWAP1 PUSH1 0x4 MUL ADD PUSH1 0x1 ADD DUP1 SLOAD PUSH2 0x666 SWAP1 PUSH2 0xC2E JUMP JUMPDEST DUP1 PUSH1 0x1F ADD PUSH1 0x20 DUP1 SWAP2 DIV MUL PUSH1 0x20 ADD PUSH1 0x40 MLOAD SWAP1 DUP2 ADD PUSH1 0x40 MSTORE DUP1 SWAP3 SWAP2 SWAP1 DUP2 DUP2 MSTORE PUSH1 0x20 ADD DUP3 DUP1 SLOAD PUSH2 0x692 SWAP1 PUSH2 0xC2E JUMP JUMPDEST DUP1 ISZERO PUSH2 0x6DD JUMPI DUP1 PUSH1 0x1F LT PUSH2 0x6B4 JUMPI PUSH2 0x100 DUP1 DUP4 SLOAD DIV MUL DUP4 MSTORE SWAP2 PUSH1 0x20 ADD SWAP2 PUSH2 0x6DD JUMP JUMPDEST DUP3 ADD SWAP2 SWAP1 PUSH0 MSTORE PUSH1 0x20 PUSH0 KECCAK256 SWAP1 JUMPDEST DUP2 SLOAD DUP2 MSTORE SWAP1 PUSH1 0x1 ADD SWAP1 PUSH1 0x20 ADD DUP1 DUP4 GT PUSH2 0x6C0 JUMPI DUP3 SWAP1 SUB PUSH1 0x1F AND DUP3 ADD SWAP2 JUMPDEST POP POP POP POP POP SWAP1 POP SWAP2 SWAP1 POP JUMP JUMPDEST PUSH1 0x40 MLOAD DUP1 PUSH1 0x80 ADD PUSH1 0x40 MSTORE DUP1 PUSH0 PUSH20 0xFFFFFFFFFFFFFFFFFFFFFFFFFFFFFFFFFFFFFFFF AND DUP2 MSTORE PUSH1 0x20 ADD PUSH1 0x60 DUP2 MSTORE PUSH1 0x20 ADD PUSH0 DUP2 MSTORE PUSH1 0x20 ADD PUSH0 DUP2 MSTORE POP SWAP1 JUMP JUMPDEST PUSH0 DUP2 MLOAD SWAP1 POP SWAP2 SWAP1 POP JUMP JUMPDEST PUSH0 DUP3 DUP3 MSTORE PUSH1 0x20 DUP3 ADD SWAP1 POP SWAP3 SWAP2 POP POP JUMP JUMPDEST PUSH0 DUP2 SWAP1 POP PUSH1 0x20 DUP3 ADD SWAP1 POP SWAP2 SWAP1 POP JUMP JUMPDEST PUSH0 PUSH20 0xFFFFFFFFFFFFFFFFFFFFFFFFFFFFFFFFFFFFFFFF DUP3 AND SWAP1 POP SWAP2 SWAP1 POP JUMP JUMPDEST PUSH0 PUSH2 0x776 DUP3 PUSH2 0x74D JUMP JUMPDEST SWAP1 POP SWAP2 SWAP1 POP JUMP JUMPDEST PUSH2 0x786 DUP2 PUSH2 0x76C JUMP JUMPDEST DUP3 MSTORE POP POP JUMP JUMPDEST PUSH0 DUP2 MLOAD SWAP1 POP SWAP2 SWAP1 POP JUMP JUMPDEST PUSH0 DUP3 DUP3 MSTORE PUSH1 0x20 DUP3 ADD SWAP1 POP SWAP3 SWAP2 POP POP JUMP JUMPDEST PUSH0 JUMPDEST DUP4 DUP2 LT ISZERO PUSH2 0x7C3 JUMPI DUP1 DUP3 ADD MLOAD DUP2 DUP5 ADD MSTORE PUSH1 0x20 DUP2 ADD SWAP1 POP PUSH2 0x7A8 JUMP JUMPDEST PUSH0 DUP5 DUP5 ADD MSTORE POP POP POP POP JUMP JUMPDEST PUSH0 PUSH1 0x1F NOT PUSH1 0x1F DUP4 ADD AND SWAP1 POP SWAP2 SWAP1 POP JUMP JUMPDEST PUSH0 PUSH2 0x7E8 DUP3 PUSH2 0x78C JUMP JUMPDEST PUSH2 0x7F2 DUP2 DUP6 PUSH2 0x796 JUMP JUMPDEST SWAP4 POP PUSH2 0x802 DUP2 DUP6 PUSH1 0x20 DUP7 ADD PUSH2 0x7A6 JUMP JUMPDEST PUSH2 0x80B DUP2 PUSH2 0x7CE JUMP JUMPDEST DUP5 ADD SWAP2 POP POP SWAP3 SWAP2 POP POP JUMP JUMPDEST PUSH0 DUP2 SWAP1 POP SWAP2 SWAP1 POP JUMP JUMPDEST PUSH2 0x828 DUP2 PUSH2 0x816 JUMP JUMPDEST DUP3 MSTORE POP POP JUMP JUMPDEST PUSH0 PUSH1 0x80 DUP4 ADD PUSH0 DUP4 ADD MLOAD PUSH2 0x843 PUSH0 DUP7 ADD DUP3 PUSH2 0x77D JUMP JUMPDEST POP PUSH1 0x20 DUP4 ADD MLOAD DUP5 DUP3 SUB PUSH1 0x20 DUP7 ADD MSTORE PUSH2 0x85B DUP3 DUP3 PUSH2 0x7DE JUMP JUMPDEST SWAP2 POP POP PUSH1 0x40 DUP4 ADD MLOAD PUSH2 0x870 PUSH1 0x40 DUP7 ADD DUP3 PUSH2 0x81F JUMP JUMPDEST POP PUSH1 0x60 DUP4 ADD MLOAD PUSH2 0x883 PUSH1 0x60 DUP7 ADD DUP3 PUSH2 0x81F JUMP JUMPDEST POP DUP1 SWAP2 POP POP SWAP3 SWAP2 POP POP JUMP JUMPDEST PUSH0 PUSH2 0x899 DUP4 DUP4 PUSH2 0x82E JUMP JUMPDEST SWAP1 POP SWAP3 SWAP2 POP POP JUMP JUMPDEST PUSH0 PUSH1 0x20 DUP3 ADD SWAP1 POP SWAP2 SWAP1 POP JUMP JUMPDEST PUSH0 PUSH2 0x8B7 DUP3 PUSH2 0x724 JUMP JUMPDEST PUSH2 0x8C1 DUP2 DUP6 PUSH2 0x72E JUMP JUMPDEST SWAP4 POP DUP4 PUSH1 0x20 DUP3 MUL DUP6 ADD PUSH2 0x8D3 DUP6 PUSH2 0x73E JUMP JUMPDEST DUP1 PUSH0 JUMPDEST DUP6 DUP2 LT ISZERO PUSH2 0x90E JUMPI DUP5 DUP5 SUB DUP10 MSTORE DUP2 MLOAD PUSH2 0x8EF DUP6 DUP3 PUSH2 0x88E JUMP JUMPDEST SWAP5 POP PUSH2 0x8FA DUP4 PUSH2 0x8A1 JUMP JUMPDEST SWAP3 POP PUSH1 0x20 DUP11 ADD SWAP10 POP POP PUSH1 0x1 DUP2 ADD SWAP1 POP PUSH2 0x8D6 JUMP JUMPDEST POP DUP3 SWAP8 POP DUP8 SWAP6 POP POP POP POP POP POP SWAP3 SWAP2 POP POP JUMP JUMPDEST PUSH0 PUSH1 0x20 DUP3 ADD SWAP1 POP DUP2 DUP2 SUB PUSH0 DUP4 ADD MSTORE PUSH2 0x938 DUP2 DUP5 PUSH2 0x8AD JUMP JUMPDEST SWAP1 POP SWAP3 SWAP2 POP POP JUMP JUMPDEST PUSH0 PUSH1 0x40 MLOAD SWAP1 POP SWAP1 JUMP JUMPDEST PUSH0 DUP1 REVERT JUMPDEST PUSH0 DUP1 REVERT JUMPDEST PUSH0 DUP1 REVERT JUMPDEST PUSH0 DUP1 REVERT JUMPDEST PUSH32 0x4E487B7100000000000000000000000000000000000000000000000000000000 PUSH0 MSTORE PUSH1 0x41 PUSH1 0x4 MSTORE PUSH1 0x24 PUSH0 REVERT JUMPDEST PUSH2 0x98F DUP3 PUSH2 0x7CE JUMP JUMPDEST DUP2 ADD DUP2 DUP2 LT PUSH8 0xFFFFFFFFFFFFFFFF DUP3 GT OR ISZERO PUSH2 0x9AE JUMPI PUSH2 0x9AD PUSH2 0x959 JUMP JUMPDEST JUMPDEST DUP1 PUSH1 0x40 MSTORE POP POP POP JUMP JUMPDEST PUSH0 PUSH2 0x9C0 PUSH2 0x940 JUMP JUMPDEST SWAP1 POP PUSH2 0x9CC DUP3 DUP3 PUSH2 0x986 JUMP JUMPDEST SWAP2 SWAP1 POP JUMP JUMPDEST PUSH0 PUSH8 0xFFFFFFFFFFFFFFFF DUP3 GT ISZERO PUSH2 0x9EB JUMPI PUSH2 0x9EA PUSH2 0x959 JUMP JUMPDEST JUMPDEST PUSH2 0x9F4 DUP3 PUSH2 0x7CE JUMP JUMPDEST SWAP1 POP PUSH1 0x20 DUP2 ADD SWAP1 POP SWAP2 SWAP1 POP JUMP JUMPDEST DUP3 DUP2 DUP4 CALLDATACOPY PUSH0 DUP4 DUP4 ADD MSTORE POP POP POP JUMP JUMPDEST PUSH0 PUSH2 0xA21 PUSH2 0xA1C DUP5 PUSH2 0x9D1 JUMP JUMPDEST PUSH2 0x9B7 JUMP JUMPDEST SWAP1 POP DUP3 DUP2 MSTORE PUSH1 0x20 DUP2 ADD DUP5 DUP5 DUP5 ADD GT ISZERO PUSH2 0xA3D JUMPI PUSH2 0xA3C PUSH2 0x955 JUMP JUMPDEST JUMPDEST PUSH2 0xA48 DUP5 DUP3 DUP6 PUSH2 0xA01 JUMP JUMPDEST POP SWAP4 SWAP3 POP POP POP JUMP JUMPDEST PUSH0 DUP3 PUSH1 0x1F DUP4 ADD SLT PUSH2 0xA64 JUMPI PUSH2 0xA63 PUSH2 0x951 JUMP JUMPDEST JUMPDEST DUP2 CALLDATALOAD PUSH2 0xA74 DUP5 DUP3 PUSH1 0x20 DUP7 ADD PUSH2 0xA0F JUMP JUMPDEST SWAP2 POP POP SWAP3 SWAP2 POP POP JUMP JUMPDEST PUSH0 PUSH1 0x20 DUP3 DUP5 SUB SLT ISZERO PUSH2 0xA92 JUMPI PUSH2 0xA91 PUSH2 0x949 JUMP JUMPDEST JUMPDEST PUSH0 DUP3 ADD CALLDATALOAD PUSH8 0xFFFFFFFFFFFFFFFF DUP2 GT ISZERO PUSH2 0xAAF JUMPI PUSH2 0xAAE PUSH2 0x94D JUMP JUMPDEST JUMPDEST PUSH2 0xABB DUP5 DUP3 DUP6 ADD PUSH2 0xA50 JUMP JUMPDEST SWAP2 POP POP SWAP3 SWAP2 POP POP JUMP JUMPDEST PUSH2 0xACD DUP2 PUSH2 0x816 JUMP JUMPDEST DUP2 EQ PUSH2 0xAD7 JUMPI PUSH0 DUP1 REVERT JUMPDEST POP JUMP JUMPDEST PUSH0 DUP2 CALLDATALOAD SWAP1 POP PUSH2 0xAE8 DUP2 PUSH2 0xAC4 JUMP JUMPDEST SWAP3 SWAP2 POP POP JUMP JUMPDEST PUSH0 PUSH1 0x20 DUP3 DUP5 SUB SLT ISZERO PUSH2 0xB03 JUMPI PUSH2 0xB02 PUSH2 0x949 JUMP JUMPDEST JUMPDEST PUSH0 PUSH2 0xB10 DUP5 DUP3 DUP6 ADD PUSH2 0xADA JUMP JUMPDEST SWAP2 POP POP SWAP3 SWAP2 POP POP JUMP JUMPDEST PUSH0 PUSH1 0x80 DUP4 ADD PUSH0 DUP4 ADD MLOAD PUSH2 0xB2E PUSH0 DUP7 ADD DUP3 PUSH2 0x77D JUMP JUMPDEST POP PUSH1 0x20 DUP4 ADD MLOAD DUP5 DUP3 SUB PUSH1 0x20 DUP7 ADD MSTORE PUSH2 0xB46 DUP3 DUP3 PUSH2 0x7DE JUMP JUMPDEST SWAP2 POP POP PUSH1 0x40 DUP4 ADD MLOAD PUSH2 0xB5B PUSH1 0x40 DUP7 ADD DUP3 PUSH2 0x81F JUMP JUMPDEST POP PUSH1 0x60 DUP4 ADD MLOAD PUSH2 0xB6E PUSH1 0x60 DUP7 ADD DUP3 PUSH2 0x81F JUMP JUMPDEST POP DUP1 SWAP2 POP POP SWAP3 SWAP2 POP POP JUMP JUMPDEST PUSH0 PUSH1 0x20 DUP3 ADD SWAP1 POP DUP2 DUP2 SUB PUSH0 DUP4 ADD MSTORE PUSH2 0xB91 DUP2 DUP5 PUSH2 0xB19 JUMP JUMPDEST SWAP1 POP SWAP3 SWAP2 POP POP JUMP JUMPDEST PUSH0 DUP3 DUP3 MSTORE PUSH1 0x20 DUP3 ADD SWAP1 POP SWAP3 SWAP2 POP POP JUMP JUMPDEST PUSH0 PUSH2 0xBB3 DUP3 PUSH2 0x78C JUMP JUMPDEST PUSH2 0xBBD DUP2 DUP6 PUSH2 0xB99 JUMP JUMPDEST SWAP4 POP PUSH2 0xBCD DUP2 DUP6 PUSH1 0x20 DUP7 ADD PUSH2 0x7A6 JUMP JUMPDEST PUSH2 0xBD6 DUP2 PUSH2 0x7CE JUMP JUMPDEST DUP5 ADD SWAP2 POP POP SWAP3 SWAP2 POP POP JUMP JUMPDEST PUSH0 PUSH1 0x20 DUP3 ADD SWAP1 POP DUP2 DUP2 SUB PUSH0 DUP4 ADD MSTORE PUSH2 0xBF9 DUP2 DUP5 PUSH2 0xBA9 JUMP JUMPDEST SWAP1 POP SWAP3 SWAP2 POP POP JUMP JUMPDEST PUSH32 0x4E487B7100000000000000000000000000000000000000000000000000000000 PUSH0 MSTORE PUSH1 0x22 PUSH1 0x4 MSTORE PUSH1 0x24 PUSH0 REVERT JUMPDEST PUSH0 PUSH1 0x2 DUP3 DIV SWAP1 POP PUSH1 0x1 DUP3 AND DUP1 PUSH2 0xC45 JUMPI PUSH1 0x7F DUP3 AND SWAP2 POP JUMPDEST PUSH1 0x20 DUP3 LT DUP2 SUB PUSH2 0xC58 JUMPI PUSH2 0xC57 PUSH2 0xC01 JUMP JUMPDEST JUMPDEST POP SWAP2 SWAP1 POP JUMP JUMPDEST PUSH32 0x657863656564206D61782074657874206C696D69740000000000000000000000 PUSH0 DUP3 ADD MSTORE POP JUMP JUMPDEST PUSH0 PUSH2 0xC92 PUSH1 0x15 DUP4 PUSH2 0xB99 JUMP JUMPDEST SWAP2 POP PUSH2 0xC9D DUP3 PUSH2 0xC5E JUMP JUMPDEST PUSH1 0x20 DUP3 ADD SWAP1 POP SWAP2 SWAP1 POP JUMP JUMPDEST PUSH0 PUSH1 0x20 DUP3 ADD SWAP1 POP DUP2 DUP2 SUB PUSH0 DUP4 ADD MSTORE PUSH2 0xCBF DUP2 PUSH2 0xC86 JUMP JUMPDEST SWAP1 POP SWAP2 SWAP1 POP JUMP JUMPDEST PUSH0 DUP2 SWAP1 POP DUP2 PUSH0 MSTORE PUSH1 0x20 PUSH0 KECCAK256 SWAP1 POP SWAP2 SWAP1 POP JUMP JUMPDEST PUSH0 PUSH1 0x20 PUSH1 0x1F DUP4 ADD DIV SWAP1 POP SWAP2 SWAP1 POP JUMP JUMPDEST PUSH0 DUP3 DUP3 SHL SWAP1 POP SWAP3 SWAP2 POP POP JUMP JUMPDEST PUSH0 PUSH1 0x8 DUP4 MUL PUSH2 0xD22 PUSH32 0xFFFFFFFFFFFFFFFFFFFFFFFFFFFFFFFFFFFFFFFFFFFFFFFFFFFFFFFFFFFFFFFF DUP3 PUSH2 0xCE7 JUMP JUMPDEST PUSH2 0xD2C DUP7 DUP4 PUSH2 0xCE7 JUMP JUMPDEST SWAP6 POP DUP1 NOT DUP5 AND SWAP4 POP DUP1 DUP7 AND DUP5 OR SWAP3 POP POP POP SWAP4 SWAP3 POP POP POP JUMP JUMPDEST PUSH0 DUP2 SWAP1 POP SWAP2 SWAP1 POP JUMP JUMPDEST PUSH0 PUSH2 0xD67 PUSH2 0xD62 PUSH2 0xD5D DUP5 PUSH2 0x816 JUMP JUMPDEST PUSH2 0xD44 JUMP JUMPDEST PUSH2 0x816 JUMP JUMPDEST SWAP1 POP SWAP2 SWAP1 POP JUMP JUMPDEST PUSH0 DUP2 SWAP1 POP SWAP2 SWAP1 POP JUMP JUMPDEST PUSH2 0xD80 DUP4 PUSH2 0xD4D JUMP JUMPDEST PUSH2 0xD94 PUSH2 0xD8C DUP3 PUSH2 0xD6E JUMP JUMPDEST DUP5 DUP5 SLOAD PUSH2 0xCF3 JUMP JUMPDEST DUP3 SSTORE POP POP POP POP JUMP JUMPDEST PUSH0 SWAP1 JUMP JUMPDEST PUSH2 0xDA8 PUSH2 0xD9C JUMP JUMPDEST PUSH2 0xDB3 DUP2 DUP5 DUP5 PUSH2 0xD77 JUMP JUMPDEST POP POP POP JUMP JUMPDEST JUMPDEST DUP2 DUP2 LT ISZERO PUSH2 0xDD6 JUMPI PUSH2 0xDCB PUSH0 DUP3 PUSH2 0xDA0 JUMP JUMPDEST PUSH1 0x1 DUP2 ADD SWAP1 POP PUSH2 0xDB9 JUMP JUMPDEST POP POP JUMP JUMPDEST PUSH1 0x1F DUP3 GT ISZERO PUSH2 0xE1B JUMPI PUSH2 0xDEC DUP2 PUSH2 0xCC6 JUMP JUMPDEST PUSH2 0xDF5 DUP5 PUSH2 0xCD8 JUMP JUMPDEST DUP2 ADD PUSH1 0x20 DUP6 LT ISZERO PUSH2 0xE04 JUMPI DUP2 SWAP1 POP JUMPDEST PUSH2 0xE18 PUSH2 0xE10 DUP6 PUSH2 0xCD8 JUMP JUMPDEST DUP4 ADD DUP3 PUSH2 0xDB8 JUMP JUMPDEST POP POP JUMPDEST POP POP POP JUMP JUMPDEST PUSH0 DUP3 DUP3 SHR SWAP1 POP SWAP3 SWAP2 POP POP JUMP JUMPDEST PUSH0 PUSH2 0xE3B PUSH0 NOT DUP5 PUSH1 0x8 MUL PUSH2 0xE20 JUMP JUMPDEST NOT DUP1 DUP4 AND SWAP2 POP POP SWAP3 SWAP2 POP POP JUMP JUMPDEST PUSH0 PUSH2 0xE53 DUP4 DUP4 PUSH2 0xE2C JUMP JUMPDEST SWAP2 POP DUP3 PUSH1 0x2 MUL DUP3 OR SWAP1 POP SWAP3 SWAP2 POP POP JUMP JUMPDEST PUSH2 0xE6C DUP3 PUSH2 0x78C JUMP JUMPDEST PUSH8 0xFFFFFFFFFFFFFFFF DUP2 GT ISZERO PUSH2 0xE85 JUMPI PUSH2 0xE84 PUSH2 0x959 JUMP JUMPDEST JUMPDEST PUSH2 0xE8F DUP3 SLOAD PUSH2 0xC2E JUMP JUMPDEST PUSH2 0xE9A DUP3 DUP3 DUP6 PUSH2 0xDDA JUMP JUMPDEST PUSH0 PUSH1 0x20 SWAP1 POP PUSH1 0x1F DUP4 GT PUSH1 0x1 DUP2 EQ PUSH2 0xECB JUMPI PUSH0 DUP5 ISZERO PUSH2 0xEB9 JUMPI DUP3 DUP8 ADD MLOAD SWAP1 POP JUMPDEST PUSH2 0xEC3 DUP6 DUP3 PUSH2 0xE48 JUMP JUMPDEST DUP7 SSTORE POP PUSH2 0xF2A JUMP JUMPDEST PUSH1 0x1F NOT DUP5 AND PUSH2 0xED9 DUP7 PUSH2 0xCC6 JUMP JUMPDEST PUSH0 JUMPDEST DUP3 DUP2 LT ISZERO PUSH2 0xF00 JUMPI DUP5 DUP10 ADD MLOAD DUP3 SSTORE PUSH1 0x1 DUP3 ADD SWAP2 POP PUSH1 0x20 DUP6 ADD SWAP5 POP PUSH1 0x20 DUP2 ADD SWAP1 POP PUSH2 0xEDB JUMP JUMPDEST DUP7 DUP4 LT ISZERO PUSH2 0xF1D JUMPI DUP5 DUP10 ADD MLOAD PUSH2 0xF19 PUSH1 0x1F DUP10 AND DUP3 PUSH2 0xE2C JUMP JUMPDEST DUP4 SSTORE POP JUMPDEST PUSH1 0x1 PUSH1 0x2 DUP9 MUL ADD DUP9 SSTORE POP POP POP JUMPDEST POP POP POP POP POP POP JUMP JUMPDEST PUSH32 0x4F6E6C79206F776E657220616C6C6F77656420746F20706572666F726D206163 PUSH0 DUP3 ADD MSTORE PUSH32 0x74696F6E00000000000000000000000000000000000000000000000000000000 PUSH1 0x20 DUP3 ADD MSTORE POP JUMP JUMPDEST PUSH0 PUSH2 0xF8C PUSH1 0x24 DUP4 PUSH2 0xB99 JUMP JUMPDEST SWAP2 POP PUSH2 0xF97 DUP3 PUSH2 0xF32 JUMP JUMPDEST PUSH1 0x40 DUP3 ADD SWAP1 POP SWAP2 SWAP1 POP JUMP JUMPDEST PUSH0 PUSH1 0x20 DUP3 ADD SWAP1 POP DUP2 DUP2 SUB PUSH0 DUP4 ADD MSTORE PUSH2 0xFB9 DUP2 PUSH2 0xF80 JUMP JUMPDEST SWAP1 POP SWAP2 SWAP1 POP JUMP JUMPDEST PUSH32 0x4E487B7100000000000000000000000000000000000000000000000000000000 PUSH0 MSTORE PUSH1 0x32 PUSH1 0x4 MSTORE PUSH1 0x24 PUSH0 REVERT INVALID LOG2 PUSH5 0x6970667358 0x22 SLT KECCAK256 RETURNDATACOPY ADDRESS PUSH19 0x6B93A1D6057890F1786D54C2980E9B7AFDE35B KECCAK256 PUSH8 0x9316889AFD21194F PUSH5 0x736F6C6343 STOP ADDMOD AND STOP CALLER "
				},
				"gasEstimates": {
					"creation": {
						"codeDepositCost": "826200",
						"executionCost": "47241",
						"totalCost": "873441"
					},
					"external": {
						"changeTweetLength(uint256)": "24703",
						"createTweet(string)": "infinite",
						"getTweet()": "infinite",
						"getTweetContent(uint256)": "infinite",
						"getTweetIndex(uint256)": "infinite"
					}
				},
				"methodIdentifiers": {
					"changeTweetLength(uint256)": "888a7880",
					"createTweet(string)": "7c9cd2bc",
					"getTweet()": "3a756bd6",
					"getTweetContent(uint256)": "c2e25658",
					"getTweetIndex(uint256)": "a1575f92"
				}
			},
			"storageLayout": {
				"storage": [
					{
						"astId": 3,
						"contract": "contracts/twitter/Twitter.sol:Twitter",
						"label": "owner",
						"offset": 0,
						"slot": "0",
						"type": "t_address"
					},
					{
						"astId": 5,
						"contract": "contracts/twitter/Twitter.sol:Twitter",
						"label": "tweetLength",
						"offset": 0,
						"slot": "1",
						"type": "t_uint256"
					},
					{
						"astId": 57,
						"contract": "contracts/twitter/Twitter.sol:Twitter",
						"label": "tweets",
						"offset": 0,
						"slot": "2",
						"type": "t_mapping(t_address,t_array(t_struct(Tweet)27_storage)dyn_storage)"
					}
				],
				"types": {
					"t_address": {
						"encoding": "inplace",
						"label": "address",
						"numberOfBytes": "20"
					},
					"t_array(t_struct(Tweet)27_storage)dyn_storage": {
						"base": "t_struct(Tweet)27_storage",
						"encoding": "dynamic_array",
						"label": "struct Twitter.Tweet[]",
						"numberOfBytes": "32"
					},
					"t_mapping(t_address,t_array(t_struct(Tweet)27_storage)dyn_storage)": {
						"encoding": "mapping",
						"key": "t_address",
						"label": "mapping(address => struct Twitter.Tweet[])",
						"numberOfBytes": "32",
						"value": "t_array(t_struct(Tweet)27_storage)dyn_storage"
					},
					"t_string_storage": {
						"encoding": "bytes",
						"label": "string",
						"numberOfBytes": "32"
					},
					"t_struct(Tweet)27_storage": {
						"encoding": "inplace",
						"label": "struct Twitter.Tweet",
						"members": [
							{
								"astId": 20,
								"contract": "contracts/twitter/Twitter.sol:Twitter",
								"label": "author",
								"offset": 0,
								"slot": "0",
								"type": "t_address"
							},
							{
								"astId": 22,
								"contract": "contracts/twitter/Twitter.sol:Twitter",
								"label": "content",
								"offset": 0,
								"slot": "1",
								"type": "t_string_storage"
							},
							{
								"astId": 24,
								"contract": "contracts/twitter/Twitter.sol:Twitter",
								"label": "timeTweeted",
								"offset": 0,
								"slot": "2",
								"type": "t_uint256"
							},
							{
								"astId": 26,
								"contract": "contracts/twitter/Twitter.sol:Twitter",
								"label": "contentLike",
								"offset": 0,
								"slot": "3",
								"type": "t_uint256"
							}
						],
						"numberOfBytes": "128"
					},
					"t_uint256": {
						"encoding": "inplace",
						"label": "uint256",
						"numberOfBytes": "32"
					}
				}
			},
			"userdoc": {
				"kind": "user",
				"methods": {},
				"version": 1
			}
		}
	}
}