{
	"contracts/twitter/Twitter.sol": {
		"Twitter": {
			"abi": [
				{
					"inputs": [],
					"stateMutability": "nonpayable",
					"type": "constructor"
				},
				{
					"inputs": [
						{
							"internalType": "uint256",
							"name": "newLenght",
							"type": "uint256"
						}
					],
					"name": "changeTweetLength",
					"outputs": [],
					"stateMutability": "nonpayable",
					"type": "function"
				},
				{
					"inputs": [
						{
							"internalType": "string",
							"name": "_content",
							"type": "string"
						}
					],
					"name": "createTweet",
					"outputs": [],
					"stateMutability": "nonpayable",
					"type": "function"
				},
				{
					"inputs": [
						{
							"internalType": "address",
							"name": "addr",
							"type": "address"
						}
					],
					"name": "getA",
					"outputs": [
						{
							"components": [
								{
									"internalType": "address",
									"name": "author",
									"type": "address"
								},
								{
									"internalType": "string",
									"name": "content",
									"type": "string"
								},
								{
									"internalType": "uint256",
									"name": "timeTweeted",
									"type": "uint256"
								},
								{
									"internalType": "uint256",
									"name": "contentLike",
									"type": "uint256"
								},
								{
									"internalType": "uint256",
									"name": "id",
									"type": "uint256"
								}
							],
							"internalType": "struct Twitter.Tweet[]",
							"name": "",
							"type": "tuple[]"
						}
					],
					"stateMutability": "view",
					"type": "function"
				},
				{
					"inputs": [],
					"name": "getOwner",
					"outputs": [
						{
							"internalType": "address",
							"name": "",
							"type": "address"
						}
					],
					"stateMutability": "view",
					"type": "function"
				},
				{
					"inputs": [],
					"name": "getTweet",
					"outputs": [
						{
							"components": [
								{
									"internalType": "address",
									"name": "author",
									"type": "address"
								},
								{
									"internalType": "string",
									"name": "content",
									"type": "string"
								},
								{
									"internalType": "uint256",
									"name": "timeTweeted",
									"type": "uint256"
								},
								{
									"internalType": "uint256",
									"name": "contentLike",
									"type": "uint256"
								},
								{
									"internalType": "uint256",
									"name": "id",
									"type": "uint256"
								}
							],
							"internalType": "struct Twitter.Tweet[]",
							"name": "",
							"type": "tuple[]"
						}
					],
					"stateMutability": "view",
					"type": "function"
				},
				{
					"inputs": [
						{
							"internalType": "uint256",
							"name": "index",
							"type": "uint256"
						}
					],
					"name": "getTweetContent",
					"outputs": [
						{
							"internalType": "string",
							"name": "",
							"type": "string"
						}
					],
					"stateMutability": "view",
					"type": "function"
				},
				{
					"inputs": [
						{
							"internalType": "uint256",
							"name": "index",
							"type": "uint256"
						}
					],
					"name": "getTweetIndex",
					"outputs": [
						{
							"components": [
								{
									"internalType": "address",
									"name": "author",
									"type": "address"
								},
								{
									"internalType": "string",
									"name": "content",
									"type": "string"
								},
								{
									"internalType": "uint256",
									"name": "timeTweeted",
									"type": "uint256"
								},
								{
									"internalType": "uint256",
									"name": "contentLike",
									"type": "uint256"
								},
								{
									"internalType": "uint256",
									"name": "id",
									"type": "uint256"
								}
							],
							"internalType": "struct Twitter.Tweet",
							"name": "",
							"type": "tuple"
						}
					],
					"stateMutability": "view",
					"type": "function"
				},
				{
					"inputs": [
						{
							"internalType": "address",
							"name": "addr",
							"type": "address"
						},
						{
							"internalType": "uint256",
							"name": "id",
							"type": "uint256"
						}
					],
					"name": "likeTweet",
					"outputs": [],
					"stateMutability": "nonpayable",
					"type": "function"
				},
				{
					"inputs": [
						{
							"internalType": "address",
							"name": "addr",
							"type": "address"
						},
						{
							"internalType": "uint256",
							"name": "id",
							"type": "uint256"
						}
					],
					"name": "unlikeTweet",
					"outputs": [],
					"stateMutability": "nonpayable",
					"type": "function"
				}
			],
			"devdoc": {
				"kind": "dev",
				"methods": {},
				"version": 1
			},
			"evm": {
				"assembly": "    /* \"contracts/twitter/Twitter.sol\":59:2024  contract Twitter{... */\n  mstore(0x40, 0x80)\n    /* \"contracts/twitter/Twitter.sol\":140:215  constructor(){... */\n  callvalue\n  dup1\n  iszero\n  tag_1\n  jumpi\n  0x00\n  dup1\n  revert\ntag_1:\n  pop\n    /* \"contracts/twitter/Twitter.sol\":171:181  msg.sender */\n  caller\n    /* \"contracts/twitter/Twitter.sol\":163:168  owner */\n  0x00\n  dup1\n    /* \"contracts/twitter/Twitter.sol\":163:181  owner = msg.sender */\n  0x0100\n  exp\n  dup2\n  sload\n  dup2\n  0xffffffffffffffffffffffffffffffffffffffff\n  mul\n  not\n  and\n  swap1\n  dup4\n  0xffffffffffffffffffffffffffffffffffffffff\n  and\n  mul\n  or\n  swap1\n  sstore\n  pop\n    /* \"contracts/twitter/Twitter.sol\":205:208  300 */\n  0x012c\n    /* \"contracts/twitter/Twitter.sol\":191:202  tweetLength */\n  0x01\n    /* \"contracts/twitter/Twitter.sol\":191:208  tweetLength = 300 */\n  dup2\n  swap1\n  sstore\n  pop\n    /* \"contracts/twitter/Twitter.sol\":59:2024  contract Twitter{... */\n  dataSize(sub_0)\n  dup1\n  dataOffset(sub_0)\n  0x00\n  codecopy\n  0x00\n  return\nstop\n\nsub_0: assembly {\n        /* \"contracts/twitter/Twitter.sol\":59:2024  contract Twitter{... */\n      mstore(0x40, 0x80)\n      callvalue\n      dup1\n      iszero\n      tag_1\n      jumpi\n      0x00\n      dup1\n      revert\n    tag_1:\n      pop\n      jumpi(tag_2, lt(calldatasize, 0x04))\n      shr(0xe0, calldataload(0x00))\n      dup1\n      0x7c9cd2bc\n      gt\n      tag_12\n      jumpi\n      dup1\n      0x7c9cd2bc\n      eq\n      tag_7\n      jumpi\n      dup1\n      0x888a7880\n      eq\n      tag_8\n      jumpi\n      dup1\n      0x893d20e8\n      eq\n      tag_9\n      jumpi\n      dup1\n      0xa1575f92\n      eq\n      tag_10\n      jumpi\n      dup1\n      0xc2e25658\n      eq\n      tag_11\n      jumpi\n      jump(tag_2)\n    tag_12:\n      dup1\n      0x3a756bd6\n      eq\n      tag_3\n      jumpi\n      dup1\n      0x3d9b569f\n      eq\n      tag_4\n      jumpi\n      dup1\n      0x4ed33ace\n      eq\n      tag_5\n      jumpi\n      dup1\n      0x63378216\n      eq\n      tag_6\n      jumpi\n    tag_2:\n      0x00\n      dup1\n      revert\n        /* \"contracts/twitter/Twitter.sol\":1312:1409  function getTweet() public view returns(Tweet[] memory){... */\n    tag_3:\n      tag_13\n      tag_14\n      jump\t// in\n    tag_13:\n      mload(0x40)\n      tag_15\n      swap2\n      swap1\n      tag_16\n      jump\t// in\n    tag_15:\n      mload(0x40)\n      dup1\n      swap2\n      sub\n      swap1\n      return\n        /* \"contracts/twitter/Twitter.sol\":1670:1916  function unlikeTweet(address addr, uint id) external {... */\n    tag_4:\n      tag_17\n      0x04\n      dup1\n      calldatasize\n      sub\n      dup2\n      add\n      swap1\n      tag_18\n      swap2\n      swap1\n      tag_19\n      jump\t// in\n    tag_18:\n      tag_20\n      jump\t// in\n    tag_17:\n      stop\n        /* \"contracts/twitter/Twitter.sol\":1922:2021  function getA(address addr) public view returns(Tweet[] memory){... */\n    tag_5:\n      tag_21\n      0x04\n      dup1\n      calldatasize\n      sub\n      dup2\n      add\n      swap1\n      tag_22\n      swap2\n      swap1\n      tag_23\n      jump\t// in\n    tag_22:\n      tag_24\n      jump\t// in\n    tag_21:\n      mload(0x40)\n      tag_25\n      swap2\n      swap1\n      tag_16\n      jump\t// in\n    tag_25:\n      mload(0x40)\n      dup1\n      swap2\n      sub\n      swap1\n      return\n        /* \"contracts/twitter/Twitter.sol\":1499:1664  function likeTweet(address addr, uint id) external {... */\n    tag_6:\n      tag_26\n      0x04\n      dup1\n      calldatasize\n      sub\n      dup2\n      add\n      swap1\n      tag_27\n      swap2\n      swap1\n      tag_19\n      jump\t// in\n    tag_27:\n      tag_28\n      jump\t// in\n    tag_26:\n      stop\n        /* \"contracts/twitter/Twitter.sol\":638:1047  function createTweet(string memory _content) public {... */\n    tag_7:\n      tag_29\n      0x04\n      dup1\n      calldatasize\n      sub\n      dup2\n      add\n      swap1\n      tag_30\n      swap2\n      swap1\n      tag_31\n      jump\t// in\n    tag_30:\n      tag_32\n      jump\t// in\n    tag_29:\n      stop\n        /* \"contracts/twitter/Twitter.sol\":484:583  function changeTweetLength(uint newLenght) public onlyOwner{... */\n    tag_8:\n      tag_33\n      0x04\n      dup1\n      calldatasize\n      sub\n      dup2\n      add\n      swap1\n      tag_34\n      swap2\n      swap1\n      tag_35\n      jump\t// in\n    tag_34:\n      tag_36\n      jump\t// in\n    tag_33:\n      stop\n        /* \"contracts/twitter/Twitter.sol\":1415:1493  function getOwner() public view returns (address){... */\n    tag_9:\n      tag_37\n      tag_38\n      jump\t// in\n    tag_37:\n      mload(0x40)\n      tag_39\n      swap2\n      swap1\n      tag_40\n      jump\t// in\n    tag_39:\n      mload(0x40)\n      dup1\n      swap2\n      sub\n      swap1\n      return\n        /* \"contracts/twitter/Twitter.sol\":1187:1306  function getTweetIndex(uint index) public view returns (Tweet memory){... */\n    tag_10:\n      tag_41\n      0x04\n      dup1\n      calldatasize\n      sub\n      dup2\n      add\n      swap1\n      tag_42\n      swap2\n      swap1\n      tag_35\n      jump\t// in\n    tag_42:\n      tag_43\n      jump\t// in\n    tag_41:\n      mload(0x40)\n      tag_44\n      swap2\n      swap1\n      tag_45\n      jump\t// in\n    tag_44:\n      mload(0x40)\n      dup1\n      swap2\n      sub\n      swap1\n      return\n        /* \"contracts/twitter/Twitter.sol\":1053:1181  function getTweetContent(uint index) public view returns(string memory){... */\n    tag_11:\n      tag_46\n      0x04\n      dup1\n      calldatasize\n      sub\n      dup2\n      add\n      swap1\n      tag_47\n      swap2\n      swap1\n      tag_35\n      jump\t// in\n    tag_47:\n      tag_48\n      jump\t// in\n    tag_46:\n      mload(0x40)\n      tag_49\n      swap2\n      swap1\n      tag_50\n      jump\t// in\n    tag_49:\n      mload(0x40)\n      dup1\n      swap2\n      sub\n      swap1\n      return\n        /* \"contracts/twitter/Twitter.sol\":1312:1409  function getTweet() public view returns(Tweet[] memory){... */\n    tag_14:\n        /* \"contracts/twitter/Twitter.sol\":1352:1366  Tweet[] memory */\n      0x60\n        /* \"contracts/twitter/Twitter.sol\":1384:1390  tweets */\n      0x02\n        /* \"contracts/twitter/Twitter.sol\":1384:1402  tweets[msg.sender] */\n      0x00\n        /* \"contracts/twitter/Twitter.sol\":1391:1401  msg.sender */\n      caller\n        /* \"contracts/twitter/Twitter.sol\":1384:1402  tweets[msg.sender] */\n      0xffffffffffffffffffffffffffffffffffffffff\n      and\n      0xffffffffffffffffffffffffffffffffffffffff\n      and\n      dup2\n      mstore\n      0x20\n      add\n      swap1\n      dup2\n      mstore\n      0x20\n      add\n      0x00\n      keccak256\n        /* \"contracts/twitter/Twitter.sol\":1377:1402  return tweets[msg.sender] */\n      dup1\n      sload\n      dup1\n      0x20\n      mul\n      0x20\n      add\n      mload(0x40)\n      swap1\n      dup2\n      add\n      0x40\n      mstore\n      dup1\n      swap3\n      swap2\n      swap1\n      dup2\n      dup2\n      mstore\n      0x20\n      add\n      0x00\n      swap1\n    tag_52:\n      dup3\n      dup3\n      lt\n      iszero\n      tag_53\n      jumpi\n      dup4\n      dup3\n      swap1\n      0x00\n      mstore\n      keccak256(0x00, 0x20)\n      swap1\n      0x05\n      mul\n      add\n      mload(0x40)\n      dup1\n      0xa0\n      add\n      0x40\n      mstore\n      swap1\n      dup2\n      0x00\n      dup3\n      add\n      0x00\n      swap1\n      sload\n      swap1\n      0x0100\n      exp\n      swap1\n      div\n      0xffffffffffffffffffffffffffffffffffffffff\n      and\n      0xffffffffffffffffffffffffffffffffffffffff\n      and\n      0xffffffffffffffffffffffffffffffffffffffff\n      and\n      dup2\n      mstore\n      0x20\n      add\n      0x01\n      dup3\n      add\n      dup1\n      sload\n      tag_55\n      swap1\n      tag_56\n      jump\t// in\n    tag_55:\n      dup1\n      0x1f\n      add\n      0x20\n      dup1\n      swap2\n      div\n      mul\n      0x20\n      add\n      mload(0x40)\n      swap1\n      dup2\n      add\n      0x40\n      mstore\n      dup1\n      swap3\n      swap2\n      swap1\n      dup2\n      dup2\n      mstore\n      0x20\n      add\n      dup3\n      dup1\n      sload\n      tag_57\n      swap1\n      tag_56\n      jump\t// in\n    tag_57:\n      dup1\n      iszero\n      tag_58\n      jumpi\n      dup1\n      0x1f\n      lt\n      tag_59\n      jumpi\n      0x0100\n      dup1\n      dup4\n      sload\n      div\n      mul\n      dup4\n      mstore\n      swap2\n      0x20\n      add\n      swap2\n      jump(tag_58)\n    tag_59:\n      dup3\n      add\n      swap2\n      swap1\n      0x00\n      mstore\n      keccak256(0x00, 0x20)\n      swap1\n    tag_60:\n      dup2\n      sload\n      dup2\n      mstore\n      swap1\n      0x01\n      add\n      swap1\n      0x20\n      add\n      dup1\n      dup4\n      gt\n      tag_60\n      jumpi\n      dup3\n      swap1\n      sub\n      0x1f\n      and\n      dup3\n      add\n      swap2\n    tag_58:\n      pop\n      pop\n      pop\n      pop\n      pop\n      dup2\n      mstore\n      0x20\n      add\n      0x02\n      dup3\n      add\n      sload\n      dup2\n      mstore\n      0x20\n      add\n      0x03\n      dup3\n      add\n      sload\n      dup2\n      mstore\n      0x20\n      add\n      0x04\n      dup3\n      add\n      sload\n      dup2\n      mstore\n      pop\n      pop\n      dup2\n      mstore\n      0x20\n      add\n      swap1\n      0x01\n      add\n      swap1\n      jump(tag_52)\n    tag_53:\n      pop\n      pop\n      pop\n      pop\n      swap1\n      pop\n        /* \"contracts/twitter/Twitter.sol\":1312:1409  function getTweet() public view returns(Tweet[] memory){... */\n      swap1\n      jump\t// out\n        /* \"contracts/twitter/Twitter.sol\":1670:1916  function unlikeTweet(address addr, uint id) external {... */\n    tag_20:\n        /* \"contracts/twitter/Twitter.sol\":1764:1766  id */\n      dup1\n        /* \"contracts/twitter/Twitter.sol\":1741:1747  tweets */\n      0x02\n        /* \"contracts/twitter/Twitter.sol\":1741:1753  tweets[addr] */\n      0x00\n        /* \"contracts/twitter/Twitter.sol\":1748:1752  addr */\n      dup5\n        /* \"contracts/twitter/Twitter.sol\":1741:1753  tweets[addr] */\n      0xffffffffffffffffffffffffffffffffffffffff\n      and\n      0xffffffffffffffffffffffffffffffffffffffff\n      and\n      dup2\n      mstore\n      0x20\n      add\n      swap1\n      dup2\n      mstore\n      0x20\n      add\n      0x00\n      keccak256\n        /* \"contracts/twitter/Twitter.sol\":1754:1756  id */\n      dup3\n        /* \"contracts/twitter/Twitter.sol\":1741:1757  tweets[addr][id] */\n      dup2\n      sload\n      dup2\n      lt\n      tag_62\n      jumpi\n      tag_63\n      tag_64\n      jump\t// in\n    tag_63:\n    tag_62:\n      swap1\n      0x00\n      mstore\n      keccak256(0x00, 0x20)\n      swap1\n      0x05\n      mul\n      add\n        /* \"contracts/twitter/Twitter.sol\":1741:1760  tweets[addr][id].id */\n      0x04\n      add\n      sload\n        /* \"contracts/twitter/Twitter.sol\":1741:1766  tweets[addr][id].id == id */\n      eq\n        /* \"contracts/twitter/Twitter.sol\":1733:1785  require(tweets[addr][id].id == id, \"No tweet found\") */\n      tag_66\n      jumpi\n      mload(0x40)\n      0x08c379a000000000000000000000000000000000000000000000000000000000\n      dup2\n      mstore\n      0x04\n      add\n      tag_67\n      swap1\n      tag_68\n      jump\t// in\n    tag_67:\n      mload(0x40)\n      dup1\n      swap2\n      sub\n      swap1\n      revert\n    tag_66:\n        /* \"contracts/twitter/Twitter.sol\":1838:1839  0 */\n      0x00\n        /* \"contracts/twitter/Twitter.sol\":1803:1809  tweets */\n      0x02\n        /* \"contracts/twitter/Twitter.sol\":1803:1815  tweets[addr] */\n      0x00\n        /* \"contracts/twitter/Twitter.sol\":1810:1814  addr */\n      dup5\n        /* \"contracts/twitter/Twitter.sol\":1803:1815  tweets[addr] */\n      0xffffffffffffffffffffffffffffffffffffffff\n      and\n      0xffffffffffffffffffffffffffffffffffffffff\n      and\n      dup2\n      mstore\n      0x20\n      add\n      swap1\n      dup2\n      mstore\n      0x20\n      add\n      0x00\n      keccak256\n        /* \"contracts/twitter/Twitter.sol\":1821:1822  1 */\n      0x01\n        /* \"contracts/twitter/Twitter.sol\":1816:1818  id */\n      dup4\n        /* \"contracts/twitter/Twitter.sol\":1816:1822  id - 1 */\n      tag_69\n      swap2\n      swap1\n      tag_70\n      jump\t// in\n    tag_69:\n        /* \"contracts/twitter/Twitter.sol\":1803:1823  tweets[addr][id - 1] */\n      dup2\n      sload\n      dup2\n      lt\n      tag_71\n      jumpi\n      tag_72\n      tag_64\n      jump\t// in\n    tag_72:\n    tag_71:\n      swap1\n      0x00\n      mstore\n      keccak256(0x00, 0x20)\n      swap1\n      0x05\n      mul\n      add\n        /* \"contracts/twitter/Twitter.sol\":1803:1835  tweets[addr][id - 1].contentLike */\n      0x03\n      add\n      sload\n        /* \"contracts/twitter/Twitter.sol\":1803:1839  tweets[addr][id - 1].contentLike > 0 */\n      gt\n        /* \"contracts/twitter/Twitter.sol\":1795:1866  require(tweets[addr][id - 1].contentLike > 0, \"No like for this tweet\") */\n      tag_74\n      jumpi\n      mload(0x40)\n      0x08c379a000000000000000000000000000000000000000000000000000000000\n      dup2\n      mstore\n      0x04\n      add\n      tag_75\n      swap1\n      tag_76\n      jump\t// in\n    tag_75:\n      mload(0x40)\n      dup1\n      swap2\n      sub\n      swap1\n      revert\n    tag_74:\n        /* \"contracts/twitter/Twitter.sol\":1908:1909  1 */\n      0x01\n        /* \"contracts/twitter/Twitter.sol\":1876:1882  tweets */\n      0x02\n        /* \"contracts/twitter/Twitter.sol\":1876:1888  tweets[addr] */\n      0x00\n        /* \"contracts/twitter/Twitter.sol\":1883:1887  addr */\n      dup5\n        /* \"contracts/twitter/Twitter.sol\":1876:1888  tweets[addr] */\n      0xffffffffffffffffffffffffffffffffffffffff\n      and\n      0xffffffffffffffffffffffffffffffffffffffff\n      and\n      dup2\n      mstore\n      0x20\n      add\n      swap1\n      dup2\n      mstore\n      0x20\n      add\n      0x00\n      keccak256\n        /* \"contracts/twitter/Twitter.sol\":1889:1891  id */\n      dup3\n        /* \"contracts/twitter/Twitter.sol\":1876:1892  tweets[addr][id] */\n      dup2\n      sload\n      dup2\n      lt\n      tag_77\n      jumpi\n      tag_78\n      tag_64\n      jump\t// in\n    tag_78:\n    tag_77:\n      swap1\n      0x00\n      mstore\n      keccak256(0x00, 0x20)\n      swap1\n      0x05\n      mul\n      add\n        /* \"contracts/twitter/Twitter.sol\":1876:1904  tweets[addr][id].contentLike */\n      0x03\n      add\n      0x00\n        /* \"contracts/twitter/Twitter.sol\":1876:1909  tweets[addr][id].contentLike -= 1 */\n      dup3\n      dup3\n      sload\n      tag_80\n      swap2\n      swap1\n      tag_70\n      jump\t// in\n    tag_80:\n      swap3\n      pop\n      pop\n      dup2\n      swap1\n      sstore\n      pop\n        /* \"contracts/twitter/Twitter.sol\":1670:1916  function unlikeTweet(address addr, uint id) external {... */\n      pop\n      pop\n      jump\t// out\n        /* \"contracts/twitter/Twitter.sol\":1922:2021  function getA(address addr) public view returns(Tweet[] memory){... */\n    tag_24:\n        /* \"contracts/twitter/Twitter.sol\":1970:1984  Tweet[] memory */\n      0x60\n        /* \"contracts/twitter/Twitter.sol\":2002:2008  tweets */\n      0x02\n        /* \"contracts/twitter/Twitter.sol\":2002:2014  tweets[addr] */\n      0x00\n        /* \"contracts/twitter/Twitter.sol\":2009:2013  addr */\n      dup4\n        /* \"contracts/twitter/Twitter.sol\":2002:2014  tweets[addr] */\n      0xffffffffffffffffffffffffffffffffffffffff\n      and\n      0xffffffffffffffffffffffffffffffffffffffff\n      and\n      dup2\n      mstore\n      0x20\n      add\n      swap1\n      dup2\n      mstore\n      0x20\n      add\n      0x00\n      keccak256\n        /* \"contracts/twitter/Twitter.sol\":1995:2014  return tweets[addr] */\n      dup1\n      sload\n      dup1\n      0x20\n      mul\n      0x20\n      add\n      mload(0x40)\n      swap1\n      dup2\n      add\n      0x40\n      mstore\n      dup1\n      swap3\n      swap2\n      swap1\n      dup2\n      dup2\n      mstore\n      0x20\n      add\n      0x00\n      swap1\n    tag_82:\n      dup3\n      dup3\n      lt\n      iszero\n      tag_83\n      jumpi\n      dup4\n      dup3\n      swap1\n      0x00\n      mstore\n      keccak256(0x00, 0x20)\n      swap1\n      0x05\n      mul\n      add\n      mload(0x40)\n      dup1\n      0xa0\n      add\n      0x40\n      mstore\n      swap1\n      dup2\n      0x00\n      dup3\n      add\n      0x00\n      swap1\n      sload\n      swap1\n      0x0100\n      exp\n      swap1\n      div\n      0xffffffffffffffffffffffffffffffffffffffff\n      and\n      0xffffffffffffffffffffffffffffffffffffffff\n      and\n      0xffffffffffffffffffffffffffffffffffffffff\n      and\n      dup2\n      mstore\n      0x20\n      add\n      0x01\n      dup3\n      add\n      dup1\n      sload\n      tag_85\n      swap1\n      tag_56\n      jump\t// in\n    tag_85:\n      dup1\n      0x1f\n      add\n      0x20\n      dup1\n      swap2\n      div\n      mul\n      0x20\n      add\n      mload(0x40)\n      swap1\n      dup2\n      add\n      0x40\n      mstore\n      dup1\n      swap3\n      swap2\n      swap1\n      dup2\n      dup2\n      mstore\n      0x20\n      add\n      dup3\n      dup1\n      sload\n      tag_86\n      swap1\n      tag_56\n      jump\t// in\n    tag_86:\n      dup1\n      iszero\n      tag_87\n      jumpi\n      dup1\n      0x1f\n      lt\n      tag_88\n      jumpi\n      0x0100\n      dup1\n      dup4\n      sload\n      div\n      mul\n      dup4\n      mstore\n      swap2\n      0x20\n      add\n      swap2\n      jump(tag_87)\n    tag_88:\n      dup3\n      add\n      swap2\n      swap1\n      0x00\n      mstore\n      keccak256(0x00, 0x20)\n      swap1\n    tag_89:\n      dup2\n      sload\n      dup2\n      mstore\n      swap1\n      0x01\n      add\n      swap1\n      0x20\n      add\n      dup1\n      dup4\n      gt\n      tag_89\n      jumpi\n      dup3\n      swap1\n      sub\n      0x1f\n      and\n      dup3\n      add\n      swap2\n    tag_87:\n      pop\n      pop\n      pop\n      pop\n      pop\n      dup2\n      mstore\n      0x20\n      add\n      0x02\n      dup3\n      add\n      sload\n      dup2\n      mstore\n      0x20\n      add\n      0x03\n      dup3\n      add\n      sload\n      dup2\n      mstore\n      0x20\n      add\n      0x04\n      dup3\n      add\n      sload\n      dup2\n      mstore\n      pop\n      pop\n      dup2\n      mstore\n      0x20\n      add\n      swap1\n      0x01\n      add\n      swap1\n      jump(tag_82)\n    tag_83:\n      pop\n      pop\n      pop\n      pop\n      swap1\n      pop\n        /* \"contracts/twitter/Twitter.sol\":1922:2021  function getA(address addr) public view returns(Tweet[] memory){... */\n      swap2\n      swap1\n      pop\n      jump\t// out\n        /* \"contracts/twitter/Twitter.sol\":1499:1664  function likeTweet(address addr, uint id) external {... */\n    tag_28:\n        /* \"contracts/twitter/Twitter.sol\":1591:1593  id */\n      dup1\n        /* \"contracts/twitter/Twitter.sol\":1568:1574  tweets */\n      0x02\n        /* \"contracts/twitter/Twitter.sol\":1568:1580  tweets[addr] */\n      0x00\n        /* \"contracts/twitter/Twitter.sol\":1575:1579  addr */\n      dup5\n        /* \"contracts/twitter/Twitter.sol\":1568:1580  tweets[addr] */\n      0xffffffffffffffffffffffffffffffffffffffff\n      and\n      0xffffffffffffffffffffffffffffffffffffffff\n      and\n      dup2\n      mstore\n      0x20\n      add\n      swap1\n      dup2\n      mstore\n      0x20\n      add\n      0x00\n      keccak256\n        /* \"contracts/twitter/Twitter.sol\":1581:1583  id */\n      dup3\n        /* \"contracts/twitter/Twitter.sol\":1568:1584  tweets[addr][id] */\n      dup2\n      sload\n      dup2\n      lt\n      tag_91\n      jumpi\n      tag_92\n      tag_64\n      jump\t// in\n    tag_92:\n    tag_91:\n      swap1\n      0x00\n      mstore\n      keccak256(0x00, 0x20)\n      swap1\n      0x05\n      mul\n      add\n        /* \"contracts/twitter/Twitter.sol\":1568:1587  tweets[addr][id].id */\n      0x04\n      add\n      sload\n        /* \"contracts/twitter/Twitter.sol\":1568:1593  tweets[addr][id].id == id */\n      eq\n        /* \"contracts/twitter/Twitter.sol\":1560:1612  require(tweets[addr][id].id == id, \"No tweet found\") */\n      tag_94\n      jumpi\n      mload(0x40)\n      0x08c379a000000000000000000000000000000000000000000000000000000000\n      dup2\n      mstore\n      0x04\n      add\n      tag_95\n      swap1\n      tag_68\n      jump\t// in\n    tag_95:\n      mload(0x40)\n      dup1\n      swap2\n      sub\n      swap1\n      revert\n    tag_94:\n        /* \"contracts/twitter/Twitter.sol\":1656:1657  1 */\n      0x01\n        /* \"contracts/twitter/Twitter.sol\":1622:1628  tweets */\n      0x02\n        /* \"contracts/twitter/Twitter.sol\":1622:1634  tweets[addr] */\n      0x00\n        /* \"contracts/twitter/Twitter.sol\":1629:1633  addr */\n      dup5\n        /* \"contracts/twitter/Twitter.sol\":1622:1634  tweets[addr] */\n      0xffffffffffffffffffffffffffffffffffffffff\n      and\n      0xffffffffffffffffffffffffffffffffffffffff\n      and\n      dup2\n      mstore\n      0x20\n      add\n      swap1\n      dup2\n      mstore\n      0x20\n      add\n      0x00\n      keccak256\n        /* \"contracts/twitter/Twitter.sol\":1638:1639  1 */\n      0x01\n        /* \"contracts/twitter/Twitter.sol\":1635:1637  id */\n      dup4\n        /* \"contracts/twitter/Twitter.sol\":1635:1639  id-1 */\n      tag_96\n      swap2\n      swap1\n      tag_70\n      jump\t// in\n    tag_96:\n        /* \"contracts/twitter/Twitter.sol\":1622:1640  tweets[addr][id-1] */\n      dup2\n      sload\n      dup2\n      lt\n      tag_97\n      jumpi\n      tag_98\n      tag_64\n      jump\t// in\n    tag_98:\n    tag_97:\n      swap1\n      0x00\n      mstore\n      keccak256(0x00, 0x20)\n      swap1\n      0x05\n      mul\n      add\n        /* \"contracts/twitter/Twitter.sol\":1622:1652  tweets[addr][id-1].contentLike */\n      0x03\n      add\n      0x00\n        /* \"contracts/twitter/Twitter.sol\":1622:1657  tweets[addr][id-1].contentLike += 1 */\n      dup3\n      dup3\n      sload\n      tag_100\n      swap2\n      swap1\n      tag_101\n      jump\t// in\n    tag_100:\n      swap3\n      pop\n      pop\n      dup2\n      swap1\n      sstore\n      pop\n        /* \"contracts/twitter/Twitter.sol\":1499:1664  function likeTweet(address addr, uint id) external {... */\n      pop\n      pop\n      jump\t// out\n        /* \"contracts/twitter/Twitter.sol\":638:1047  function createTweet(string memory _content) public {... */\n    tag_32:\n        /* \"contracts/twitter/Twitter.sol\":735:746  tweetLength */\n      sload(0x01)\n        /* \"contracts/twitter/Twitter.sol\":715:723  _content */\n      dup2\n        /* \"contracts/twitter/Twitter.sol\":709:731  bytes(_content).length */\n      mload\n        /* \"contracts/twitter/Twitter.sol\":709:746  bytes(_content).length <= tweetLength */\n      gt\n      iszero\n        /* \"contracts/twitter/Twitter.sol\":701:772  require(bytes(_content).length <= tweetLength, \"exceed max text limit\") */\n      tag_103\n      jumpi\n      mload(0x40)\n      0x08c379a000000000000000000000000000000000000000000000000000000000\n      dup2\n      mstore\n      0x04\n      add\n      tag_104\n      swap1\n      tag_105\n      jump\t// in\n    tag_104:\n      mload(0x40)\n      dup1\n      swap2\n      sub\n      swap1\n      revert\n    tag_103:\n        /* \"contracts/twitter/Twitter.sol\":782:800  Tweet memory tweet */\n      0x00\n        /* \"contracts/twitter/Twitter.sol\":803:1000  Tweet({... */\n      mload(0x40)\n      dup1\n      0xa0\n      add\n      0x40\n      mstore\n      dup1\n        /* \"contracts/twitter/Twitter.sol\":831:841  msg.sender */\n      caller\n        /* \"contracts/twitter/Twitter.sol\":803:1000  Tweet({... */\n      0xffffffffffffffffffffffffffffffffffffffff\n      and\n      dup2\n      mstore\n      0x20\n      add\n        /* \"contracts/twitter/Twitter.sol\":864:872  _content */\n      dup4\n        /* \"contracts/twitter/Twitter.sol\":803:1000  Tweet({... */\n      dup2\n      mstore\n      0x20\n      add\n        /* \"contracts/twitter/Twitter.sol\":899:914  block.timestamp */\n      timestamp\n        /* \"contracts/twitter/Twitter.sol\":803:1000  Tweet({... */\n      dup2\n      mstore\n      0x20\n      add\n        /* \"contracts/twitter/Twitter.sol\":941:942  0 */\n      0x00\n        /* \"contracts/twitter/Twitter.sol\":803:1000  Tweet({... */\n      dup2\n      mstore\n      0x20\n      add\n        /* \"contracts/twitter/Twitter.sol\":988:989  1 */\n      0x01\n        /* \"contracts/twitter/Twitter.sol\":960:966  tweets */\n      0x02\n        /* \"contracts/twitter/Twitter.sol\":960:978  tweets[msg.sender] */\n      0x00\n        /* \"contracts/twitter/Twitter.sol\":967:977  msg.sender */\n      caller\n        /* \"contracts/twitter/Twitter.sol\":960:978  tweets[msg.sender] */\n      0xffffffffffffffffffffffffffffffffffffffff\n      and\n      0xffffffffffffffffffffffffffffffffffffffff\n      and\n      dup2\n      mstore\n      0x20\n      add\n      swap1\n      dup2\n      mstore\n      0x20\n      add\n      0x00\n      keccak256\n        /* \"contracts/twitter/Twitter.sol\":960:985  tweets[msg.sender].length */\n      dup1\n      sload\n      swap1\n      pop\n        /* \"contracts/twitter/Twitter.sol\":960:989  tweets[msg.sender].length + 1 */\n      tag_106\n      swap2\n      swap1\n      tag_101\n      jump\t// in\n    tag_106:\n        /* \"contracts/twitter/Twitter.sol\":803:1000  Tweet({... */\n      dup2\n      mstore\n      pop\n        /* \"contracts/twitter/Twitter.sol\":782:1000  Tweet memory tweet = Tweet({... */\n      swap1\n      pop\n        /* \"contracts/twitter/Twitter.sol\":1010:1016  tweets */\n      0x02\n        /* \"contracts/twitter/Twitter.sol\":1010:1028  tweets[msg.sender] */\n      0x00\n        /* \"contracts/twitter/Twitter.sol\":1017:1027  msg.sender */\n      caller\n        /* \"contracts/twitter/Twitter.sol\":1010:1028  tweets[msg.sender] */\n      0xffffffffffffffffffffffffffffffffffffffff\n      and\n      0xffffffffffffffffffffffffffffffffffffffff\n      and\n      dup2\n      mstore\n      0x20\n      add\n      swap1\n      dup2\n      mstore\n      0x20\n      add\n      0x00\n      keccak256\n        /* \"contracts/twitter/Twitter.sol\":1034:1039  tweet */\n      dup2\n        /* \"contracts/twitter/Twitter.sol\":1010:1040  tweets[msg.sender].push(tweet) */\n      swap1\n      dup1\n      0x01\n      dup2\n      sload\n      add\n      dup1\n      dup3\n      sstore\n      dup1\n      swap2\n      pop\n      pop\n      0x01\n      swap1\n      sub\n      swap1\n      0x00\n      mstore\n      keccak256(0x00, 0x20)\n      swap1\n      0x05\n      mul\n      add\n      0x00\n      swap1\n      swap2\n      swap1\n      swap2\n      swap1\n      swap2\n      pop\n      0x00\n      dup3\n      add\n      mload\n      dup2\n      0x00\n      add\n      exp(0x0100, 0x00)\n      dup2\n      sload\n      dup2\n      0xffffffffffffffffffffffffffffffffffffffff\n      mul\n      not\n      and\n      swap1\n      dup4\n      0xffffffffffffffffffffffffffffffffffffffff\n      and\n      mul\n      or\n      swap1\n      sstore\n      pop\n      0x20\n      dup3\n      add\n      mload\n      dup2\n      0x01\n      add\n      swap1\n      dup2\n      tag_108\n      swap2\n      swap1\n      tag_109\n      jump\t// in\n    tag_108:\n      pop\n      0x40\n      dup3\n      add\n      mload\n      dup2\n      0x02\n      add\n      sstore\n      0x60\n      dup3\n      add\n      mload\n      dup2\n      0x03\n      add\n      sstore\n      0x80\n      dup3\n      add\n      mload\n      dup2\n      0x04\n      add\n      sstore\n      pop\n      pop\n        /* \"contracts/twitter/Twitter.sol\":690:1047  {... */\n      pop\n        /* \"contracts/twitter/Twitter.sol\":638:1047  function createTweet(string memory _content) public {... */\n      pop\n      jump\t// out\n        /* \"contracts/twitter/Twitter.sol\":484:583  function changeTweetLength(uint newLenght) public onlyOwner{... */\n    tag_36:\n        /* \"contracts/twitter/Twitter.sol\":415:420  owner */\n      0x00\n      dup1\n      sload\n      swap1\n      0x0100\n      exp\n      swap1\n      div\n      0xffffffffffffffffffffffffffffffffffffffff\n      and\n        /* \"contracts/twitter/Twitter.sol\":401:420  msg.sender == owner */\n      0xffffffffffffffffffffffffffffffffffffffff\n      and\n        /* \"contracts/twitter/Twitter.sol\":401:411  msg.sender */\n      caller\n        /* \"contracts/twitter/Twitter.sol\":401:420  msg.sender == owner */\n      0xffffffffffffffffffffffffffffffffffffffff\n      and\n      eq\n        /* \"contracts/twitter/Twitter.sol\":393:461  require(msg.sender == owner, \"Only owner allowed to perform action\") */\n      tag_111\n      jumpi\n      mload(0x40)\n      0x08c379a000000000000000000000000000000000000000000000000000000000\n      dup2\n      mstore\n      0x04\n      add\n      tag_112\n      swap1\n      tag_113\n      jump\t// in\n    tag_112:\n      mload(0x40)\n      dup1\n      swap2\n      sub\n      swap1\n      revert\n    tag_111:\n        /* \"contracts/twitter/Twitter.sol\":567:576  newLenght */\n      dup1\n        /* \"contracts/twitter/Twitter.sol\":553:564  tweetLength */\n      0x01\n        /* \"contracts/twitter/Twitter.sol\":553:576  tweetLength = newLenght */\n      dup2\n      swap1\n      sstore\n      pop\n        /* \"contracts/twitter/Twitter.sol\":484:583  function changeTweetLength(uint newLenght) public onlyOwner{... */\n      pop\n      jump\t// out\n        /* \"contracts/twitter/Twitter.sol\":1415:1493  function getOwner() public view returns (address){... */\n    tag_38:\n        /* \"contracts/twitter/Twitter.sol\":1456:1463  address */\n      0x00\n        /* \"contracts/twitter/Twitter.sol\":1481:1486  owner */\n      dup1\n      0x00\n      swap1\n      sload\n      swap1\n      0x0100\n      exp\n      swap1\n      div\n      0xffffffffffffffffffffffffffffffffffffffff\n      and\n        /* \"contracts/twitter/Twitter.sol\":1474:1486  return owner */\n      swap1\n      pop\n        /* \"contracts/twitter/Twitter.sol\":1415:1493  function getOwner() public view returns (address){... */\n      swap1\n      jump\t// out\n        /* \"contracts/twitter/Twitter.sol\":1187:1306  function getTweetIndex(uint index) public view returns (Tweet memory){... */\n    tag_43:\n        /* \"contracts/twitter/Twitter.sol\":1243:1255  Tweet memory */\n      tag_116\n      tag_117\n      jump\t// in\n    tag_116:\n        /* \"contracts/twitter/Twitter.sol\":1274:1280  tweets */\n      0x02\n        /* \"contracts/twitter/Twitter.sol\":1274:1292  tweets[msg.sender] */\n      0x00\n        /* \"contracts/twitter/Twitter.sol\":1281:1291  msg.sender */\n      caller\n        /* \"contracts/twitter/Twitter.sol\":1274:1292  tweets[msg.sender] */\n      0xffffffffffffffffffffffffffffffffffffffff\n      and\n      0xffffffffffffffffffffffffffffffffffffffff\n      and\n      dup2\n      mstore\n      0x20\n      add\n      swap1\n      dup2\n      mstore\n      0x20\n      add\n      0x00\n      keccak256\n        /* \"contracts/twitter/Twitter.sol\":1293:1298  index */\n      dup3\n        /* \"contracts/twitter/Twitter.sol\":1274:1299  tweets[msg.sender][index] */\n      dup2\n      sload\n      dup2\n      lt\n      tag_119\n      jumpi\n      tag_120\n      tag_64\n      jump\t// in\n    tag_120:\n    tag_119:\n      swap1\n      0x00\n      mstore\n      keccak256(0x00, 0x20)\n      swap1\n      0x05\n      mul\n      add\n        /* \"contracts/twitter/Twitter.sol\":1266:1299  return  tweets[msg.sender][index] */\n      mload(0x40)\n      dup1\n      0xa0\n      add\n      0x40\n      mstore\n      swap1\n      dup2\n      0x00\n      dup3\n      add\n      0x00\n      swap1\n      sload\n      swap1\n      0x0100\n      exp\n      swap1\n      div\n      0xffffffffffffffffffffffffffffffffffffffff\n      and\n      0xffffffffffffffffffffffffffffffffffffffff\n      and\n      0xffffffffffffffffffffffffffffffffffffffff\n      and\n      dup2\n      mstore\n      0x20\n      add\n      0x01\n      dup3\n      add\n      dup1\n      sload\n      tag_122\n      swap1\n      tag_56\n      jump\t// in\n    tag_122:\n      dup1\n      0x1f\n      add\n      0x20\n      dup1\n      swap2\n      div\n      mul\n      0x20\n      add\n      mload(0x40)\n      swap1\n      dup2\n      add\n      0x40\n      mstore\n      dup1\n      swap3\n      swap2\n      swap1\n      dup2\n      dup2\n      mstore\n      0x20\n      add\n      dup3\n      dup1\n      sload\n      tag_123\n      swap1\n      tag_56\n      jump\t// in\n    tag_123:\n      dup1\n      iszero\n      tag_124\n      jumpi\n      dup1\n      0x1f\n      lt\n      tag_125\n      jumpi\n      0x0100\n      dup1\n      dup4\n      sload\n      div\n      mul\n      dup4\n      mstore\n      swap2\n      0x20\n      add\n      swap2\n      jump(tag_124)\n    tag_125:\n      dup3\n      add\n      swap2\n      swap1\n      0x00\n      mstore\n      keccak256(0x00, 0x20)\n      swap1\n    tag_126:\n      dup2\n      sload\n      dup2\n      mstore\n      swap1\n      0x01\n      add\n      swap1\n      0x20\n      add\n      dup1\n      dup4\n      gt\n      tag_126\n      jumpi\n      dup3\n      swap1\n      sub\n      0x1f\n      and\n      dup3\n      add\n      swap2\n    tag_124:\n      pop\n      pop\n      pop\n      pop\n      pop\n      dup2\n      mstore\n      0x20\n      add\n      0x02\n      dup3\n      add\n      sload\n      dup2\n      mstore\n      0x20\n      add\n      0x03\n      dup3\n      add\n      sload\n      dup2\n      mstore\n      0x20\n      add\n      0x04\n      dup3\n      add\n      sload\n      dup2\n      mstore\n      pop\n      pop\n      swap1\n      pop\n        /* \"contracts/twitter/Twitter.sol\":1187:1306  function getTweetIndex(uint index) public view returns (Tweet memory){... */\n      swap2\n      swap1\n      pop\n      jump\t// out\n        /* \"contracts/twitter/Twitter.sol\":1053:1181  function getTweetContent(uint index) public view returns(string memory){... */\n    tag_48:\n        /* \"contracts/twitter/Twitter.sol\":1110:1123  string memory */\n      0x60\n        /* \"contracts/twitter/Twitter.sol\":1141:1147  tweets */\n      0x02\n        /* \"contracts/twitter/Twitter.sol\":1141:1159  tweets[msg.sender] */\n      0x00\n        /* \"contracts/twitter/Twitter.sol\":1148:1158  msg.sender */\n      caller\n        /* \"contracts/twitter/Twitter.sol\":1141:1159  tweets[msg.sender] */\n      0xffffffffffffffffffffffffffffffffffffffff\n      and\n      0xffffffffffffffffffffffffffffffffffffffff\n      and\n      dup2\n      mstore\n      0x20\n      add\n      swap1\n      dup2\n      mstore\n      0x20\n      add\n      0x00\n      keccak256\n        /* \"contracts/twitter/Twitter.sol\":1160:1165  index */\n      dup3\n        /* \"contracts/twitter/Twitter.sol\":1141:1166  tweets[msg.sender][index] */\n      dup2\n      sload\n      dup2\n      lt\n      tag_128\n      jumpi\n      tag_129\n      tag_64\n      jump\t// in\n    tag_129:\n    tag_128:\n      swap1\n      0x00\n      mstore\n      keccak256(0x00, 0x20)\n      swap1\n      0x05\n      mul\n      add\n        /* \"contracts/twitter/Twitter.sol\":1141:1174  tweets[msg.sender][index].content */\n      0x01\n      add\n        /* \"contracts/twitter/Twitter.sol\":1134:1174  return tweets[msg.sender][index].content */\n      dup1\n      sload\n      tag_131\n      swap1\n      tag_56\n      jump\t// in\n    tag_131:\n      dup1\n      0x1f\n      add\n      0x20\n      dup1\n      swap2\n      div\n      mul\n      0x20\n      add\n      mload(0x40)\n      swap1\n      dup2\n      add\n      0x40\n      mstore\n      dup1\n      swap3\n      swap2\n      swap1\n      dup2\n      dup2\n      mstore\n      0x20\n      add\n      dup3\n      dup1\n      sload\n      tag_132\n      swap1\n      tag_56\n      jump\t// in\n    tag_132:\n      dup1\n      iszero\n      tag_133\n      jumpi\n      dup1\n      0x1f\n      lt\n      tag_134\n      jumpi\n      0x0100\n      dup1\n      dup4\n      sload\n      div\n      mul\n      dup4\n      mstore\n      swap2\n      0x20\n      add\n      swap2\n      jump(tag_133)\n    tag_134:\n      dup3\n      add\n      swap2\n      swap1\n      0x00\n      mstore\n      keccak256(0x00, 0x20)\n      swap1\n    tag_135:\n      dup2\n      sload\n      dup2\n      mstore\n      swap1\n      0x01\n      add\n      swap1\n      0x20\n      add\n      dup1\n      dup4\n      gt\n      tag_135\n      jumpi\n      dup3\n      swap1\n      sub\n      0x1f\n      and\n      dup3\n      add\n      swap2\n    tag_133:\n      pop\n      pop\n      pop\n      pop\n      pop\n      swap1\n      pop\n        /* \"contracts/twitter/Twitter.sol\":1053:1181  function getTweetContent(uint index) public view returns(string memory){... */\n      swap2\n      swap1\n      pop\n      jump\t// out\n    tag_117:\n      mload(0x40)\n      dup1\n      0xa0\n      add\n      0x40\n      mstore\n      dup1\n      and(0xffffffffffffffffffffffffffffffffffffffff, 0x00)\n      dup2\n      mstore\n      0x20\n      add\n      0x60\n      dup2\n      mstore\n      0x20\n      add\n      0x00\n      dup2\n      mstore\n      0x20\n      add\n      0x00\n      dup2\n      mstore\n      0x20\n      add\n      0x00\n      dup2\n      mstore\n      pop\n      swap1\n      jump\t// out\n        /* \"#utility.yul\":7:142   */\n    tag_136:\n        /* \"#utility.yul\":95:101   */\n      0x00\n        /* \"#utility.yul\":129:134   */\n      dup2\n        /* \"#utility.yul\":123:135   */\n      mload\n        /* \"#utility.yul\":113:135   */\n      swap1\n      pop\n        /* \"#utility.yul\":7:142   */\n      swap2\n      swap1\n      pop\n      jump\t// out\n        /* \"#utility.yul\":148:353   */\n    tag_137:\n        /* \"#utility.yul\":268:279   */\n      0x00\n        /* \"#utility.yul\":302:308   */\n      dup3\n        /* \"#utility.yul\":297:300   */\n      dup3\n        /* \"#utility.yul\":290:309   */\n      mstore\n        /* \"#utility.yul\":342:346   */\n      0x20\n        /* \"#utility.yul\":337:340   */\n      dup3\n        /* \"#utility.yul\":333:347   */\n      add\n        /* \"#utility.yul\":318:347   */\n      swap1\n      pop\n        /* \"#utility.yul\":148:353   */\n      swap3\n      swap2\n      pop\n      pop\n      jump\t// out\n        /* \"#utility.yul\":359:512   */\n    tag_138:\n        /* \"#utility.yul\":447:451   */\n      0x00\n        /* \"#utility.yul\":470:473   */\n      dup2\n        /* \"#utility.yul\":462:473   */\n      swap1\n      pop\n        /* \"#utility.yul\":500:504   */\n      0x20\n        /* \"#utility.yul\":495:498   */\n      dup3\n        /* \"#utility.yul\":491:505   */\n      add\n        /* \"#utility.yul\":483:505   */\n      swap1\n      pop\n        /* \"#utility.yul\":359:512   */\n      swap2\n      swap1\n      pop\n      jump\t// out\n        /* \"#utility.yul\":518:644   */\n    tag_139:\n        /* \"#utility.yul\":555:562   */\n      0x00\n        /* \"#utility.yul\":595:637   */\n      0xffffffffffffffffffffffffffffffffffffffff\n        /* \"#utility.yul\":588:593   */\n      dup3\n        /* \"#utility.yul\":584:638   */\n      and\n        /* \"#utility.yul\":573:638   */\n      swap1\n      pop\n        /* \"#utility.yul\":518:644   */\n      swap2\n      swap1\n      pop\n      jump\t// out\n        /* \"#utility.yul\":650:746   */\n    tag_140:\n        /* \"#utility.yul\":687:694   */\n      0x00\n        /* \"#utility.yul\":716:740   */\n      tag_204\n        /* \"#utility.yul\":734:739   */\n      dup3\n        /* \"#utility.yul\":716:740   */\n      tag_139\n      jump\t// in\n    tag_204:\n        /* \"#utility.yul\":705:740   */\n      swap1\n      pop\n        /* \"#utility.yul\":650:746   */\n      swap2\n      swap1\n      pop\n      jump\t// out\n        /* \"#utility.yul\":752:860   */\n    tag_141:\n        /* \"#utility.yul\":829:853   */\n      tag_206\n        /* \"#utility.yul\":847:852   */\n      dup2\n        /* \"#utility.yul\":829:853   */\n      tag_140\n      jump\t// in\n    tag_206:\n        /* \"#utility.yul\":824:827   */\n      dup3\n        /* \"#utility.yul\":817:854   */\n      mstore\n        /* \"#utility.yul\":752:860   */\n      pop\n      pop\n      jump\t// out\n        /* \"#utility.yul\":866:965   */\n    tag_142:\n        /* \"#utility.yul\":918:924   */\n      0x00\n        /* \"#utility.yul\":952:957   */\n      dup2\n        /* \"#utility.yul\":946:958   */\n      mload\n        /* \"#utility.yul\":936:958   */\n      swap1\n      pop\n        /* \"#utility.yul\":866:965   */\n      swap2\n      swap1\n      pop\n      jump\t// out\n        /* \"#utility.yul\":971:1130   */\n    tag_143:\n        /* \"#utility.yul\":1045:1056   */\n      0x00\n        /* \"#utility.yul\":1079:1085   */\n      dup3\n        /* \"#utility.yul\":1074:1077   */\n      dup3\n        /* \"#utility.yul\":1067:1086   */\n      mstore\n        /* \"#utility.yul\":1119:1123   */\n      0x20\n        /* \"#utility.yul\":1114:1117   */\n      dup3\n        /* \"#utility.yul\":1110:1124   */\n      add\n        /* \"#utility.yul\":1095:1124   */\n      swap1\n      pop\n        /* \"#utility.yul\":971:1130   */\n      swap3\n      swap2\n      pop\n      pop\n      jump\t// out\n        /* \"#utility.yul\":1136:1382   */\n    tag_144:\n        /* \"#utility.yul\":1217:1218   */\n      0x00\n        /* \"#utility.yul\":1227:1340   */\n    tag_210:\n        /* \"#utility.yul\":1241:1247   */\n      dup4\n        /* \"#utility.yul\":1238:1239   */\n      dup2\n        /* \"#utility.yul\":1235:1248   */\n      lt\n        /* \"#utility.yul\":1227:1340   */\n      iszero\n      tag_212\n      jumpi\n        /* \"#utility.yul\":1326:1327   */\n      dup1\n        /* \"#utility.yul\":1321:1324   */\n      dup3\n        /* \"#utility.yul\":1317:1328   */\n      add\n        /* \"#utility.yul\":1311:1329   */\n      mload\n        /* \"#utility.yul\":1307:1308   */\n      dup2\n        /* \"#utility.yul\":1302:1305   */\n      dup5\n        /* \"#utility.yul\":1298:1309   */\n      add\n        /* \"#utility.yul\":1291:1330   */\n      mstore\n        /* \"#utility.yul\":1263:1265   */\n      0x20\n        /* \"#utility.yul\":1260:1261   */\n      dup2\n        /* \"#utility.yul\":1256:1266   */\n      add\n        /* \"#utility.yul\":1251:1266   */\n      swap1\n      pop\n        /* \"#utility.yul\":1227:1340   */\n      jump(tag_210)\n    tag_212:\n        /* \"#utility.yul\":1374:1375   */\n      0x00\n        /* \"#utility.yul\":1365:1371   */\n      dup5\n        /* \"#utility.yul\":1360:1363   */\n      dup5\n        /* \"#utility.yul\":1356:1372   */\n      add\n        /* \"#utility.yul\":1349:1376   */\n      mstore\n        /* \"#utility.yul\":1198:1382   */\n      pop\n        /* \"#utility.yul\":1136:1382   */\n      pop\n      pop\n      pop\n      jump\t// out\n        /* \"#utility.yul\":1388:1490   */\n    tag_145:\n        /* \"#utility.yul\":1429:1435   */\n      0x00\n        /* \"#utility.yul\":1480:1482   */\n      0x1f\n        /* \"#utility.yul\":1476:1483   */\n      not\n        /* \"#utility.yul\":1471:1473   */\n      0x1f\n        /* \"#utility.yul\":1464:1469   */\n      dup4\n        /* \"#utility.yul\":1460:1474   */\n      add\n        /* \"#utility.yul\":1456:1484   */\n      and\n        /* \"#utility.yul\":1446:1484   */\n      swap1\n      pop\n        /* \"#utility.yul\":1388:1490   */\n      swap2\n      swap1\n      pop\n      jump\t// out\n        /* \"#utility.yul\":1496:1853   */\n    tag_146:\n        /* \"#utility.yul\":1574:1577   */\n      0x00\n        /* \"#utility.yul\":1602:1641   */\n      tag_215\n        /* \"#utility.yul\":1635:1640   */\n      dup3\n        /* \"#utility.yul\":1602:1641   */\n      tag_142\n      jump\t// in\n    tag_215:\n        /* \"#utility.yul\":1657:1718   */\n      tag_216\n        /* \"#utility.yul\":1711:1717   */\n      dup2\n        /* \"#utility.yul\":1706:1709   */\n      dup6\n        /* \"#utility.yul\":1657:1718   */\n      tag_143\n      jump\t// in\n    tag_216:\n        /* \"#utility.yul\":1650:1718   */\n      swap4\n      pop\n        /* \"#utility.yul\":1727:1792   */\n      tag_217\n        /* \"#utility.yul\":1785:1791   */\n      dup2\n        /* \"#utility.yul\":1780:1783   */\n      dup6\n        /* \"#utility.yul\":1773:1777   */\n      0x20\n        /* \"#utility.yul\":1766:1771   */\n      dup7\n        /* \"#utility.yul\":1762:1778   */\n      add\n        /* \"#utility.yul\":1727:1792   */\n      tag_144\n      jump\t// in\n    tag_217:\n        /* \"#utility.yul\":1817:1846   */\n      tag_218\n        /* \"#utility.yul\":1839:1845   */\n      dup2\n        /* \"#utility.yul\":1817:1846   */\n      tag_145\n      jump\t// in\n    tag_218:\n        /* \"#utility.yul\":1812:1815   */\n      dup5\n        /* \"#utility.yul\":1808:1847   */\n      add\n        /* \"#utility.yul\":1801:1847   */\n      swap2\n      pop\n        /* \"#utility.yul\":1578:1853   */\n      pop\n        /* \"#utility.yul\":1496:1853   */\n      swap3\n      swap2\n      pop\n      pop\n      jump\t// out\n        /* \"#utility.yul\":1859:1936   */\n    tag_147:\n        /* \"#utility.yul\":1896:1903   */\n      0x00\n        /* \"#utility.yul\":1925:1930   */\n      dup2\n        /* \"#utility.yul\":1914:1930   */\n      swap1\n      pop\n        /* \"#utility.yul\":1859:1936   */\n      swap2\n      swap1\n      pop\n      jump\t// out\n        /* \"#utility.yul\":1942:2050   */\n    tag_148:\n        /* \"#utility.yul\":2019:2043   */\n      tag_221\n        /* \"#utility.yul\":2037:2042   */\n      dup2\n        /* \"#utility.yul\":2019:2043   */\n      tag_147\n      jump\t// in\n    tag_221:\n        /* \"#utility.yul\":2014:2017   */\n      dup3\n        /* \"#utility.yul\":2007:2044   */\n      mstore\n        /* \"#utility.yul\":1942:2050   */\n      pop\n      pop\n      jump\t// out\n        /* \"#utility.yul\":2108:3235   */\n    tag_149:\n        /* \"#utility.yul\":2209:2212   */\n      0x00\n        /* \"#utility.yul\":2245:2249   */\n      0xa0\n        /* \"#utility.yul\":2240:2243   */\n      dup4\n        /* \"#utility.yul\":2236:2250   */\n      add\n        /* \"#utility.yul\":2334:2338   */\n      0x00\n        /* \"#utility.yul\":2327:2332   */\n      dup4\n        /* \"#utility.yul\":2323:2339   */\n      add\n        /* \"#utility.yul\":2317:2340   */\n      mload\n        /* \"#utility.yul\":2353:2416   */\n      tag_223\n        /* \"#utility.yul\":2410:2414   */\n      0x00\n        /* \"#utility.yul\":2405:2408   */\n      dup7\n        /* \"#utility.yul\":2401:2415   */\n      add\n        /* \"#utility.yul\":2387:2399   */\n      dup3\n        /* \"#utility.yul\":2353:2416   */\n      tag_141\n      jump\t// in\n    tag_223:\n        /* \"#utility.yul\":2260:2426   */\n      pop\n        /* \"#utility.yul\":2511:2515   */\n      0x20\n        /* \"#utility.yul\":2504:2509   */\n      dup4\n        /* \"#utility.yul\":2500:2516   */\n      add\n        /* \"#utility.yul\":2494:2517   */\n      mload\n        /* \"#utility.yul\":2564:2567   */\n      dup5\n        /* \"#utility.yul\":2558:2562   */\n      dup3\n        /* \"#utility.yul\":2554:2568   */\n      sub\n        /* \"#utility.yul\":2547:2551   */\n      0x20\n        /* \"#utility.yul\":2542:2545   */\n      dup7\n        /* \"#utility.yul\":2538:2552   */\n      add\n        /* \"#utility.yul\":2531:2569   */\n      mstore\n        /* \"#utility.yul\":2590:2663   */\n      tag_224\n        /* \"#utility.yul\":2658:2662   */\n      dup3\n        /* \"#utility.yul\":2644:2656   */\n      dup3\n        /* \"#utility.yul\":2590:2663   */\n      tag_146\n      jump\t// in\n    tag_224:\n        /* \"#utility.yul\":2582:2663   */\n      swap2\n      pop\n        /* \"#utility.yul\":2436:2674   */\n      pop\n        /* \"#utility.yul\":2763:2767   */\n      0x40\n        /* \"#utility.yul\":2756:2761   */\n      dup4\n        /* \"#utility.yul\":2752:2768   */\n      add\n        /* \"#utility.yul\":2746:2769   */\n      mload\n        /* \"#utility.yul\":2782:2845   */\n      tag_225\n        /* \"#utility.yul\":2839:2843   */\n      0x40\n        /* \"#utility.yul\":2834:2837   */\n      dup7\n        /* \"#utility.yul\":2830:2844   */\n      add\n        /* \"#utility.yul\":2816:2828   */\n      dup3\n        /* \"#utility.yul\":2782:2845   */\n      tag_148\n      jump\t// in\n    tag_225:\n        /* \"#utility.yul\":2684:2855   */\n      pop\n        /* \"#utility.yul\":2944:2948   */\n      0x60\n        /* \"#utility.yul\":2937:2942   */\n      dup4\n        /* \"#utility.yul\":2933:2949   */\n      add\n        /* \"#utility.yul\":2927:2950   */\n      mload\n        /* \"#utility.yul\":2963:3026   */\n      tag_226\n        /* \"#utility.yul\":3020:3024   */\n      0x60\n        /* \"#utility.yul\":3015:3018   */\n      dup7\n        /* \"#utility.yul\":3011:3025   */\n      add\n        /* \"#utility.yul\":2997:3009   */\n      dup3\n        /* \"#utility.yul\":2963:3026   */\n      tag_148\n      jump\t// in\n    tag_226:\n        /* \"#utility.yul\":2865:3036   */\n      pop\n        /* \"#utility.yul\":3116:3120   */\n      0x80\n        /* \"#utility.yul\":3109:3114   */\n      dup4\n        /* \"#utility.yul\":3105:3121   */\n      add\n        /* \"#utility.yul\":3099:3122   */\n      mload\n        /* \"#utility.yul\":3135:3198   */\n      tag_227\n        /* \"#utility.yul\":3192:3196   */\n      0x80\n        /* \"#utility.yul\":3187:3190   */\n      dup7\n        /* \"#utility.yul\":3183:3197   */\n      add\n        /* \"#utility.yul\":3169:3181   */\n      dup3\n        /* \"#utility.yul\":3135:3198   */\n      tag_148\n      jump\t// in\n    tag_227:\n        /* \"#utility.yul\":3046:3208   */\n      pop\n        /* \"#utility.yul\":3225:3229   */\n      dup1\n        /* \"#utility.yul\":3218:3229   */\n      swap2\n      pop\n        /* \"#utility.yul\":2214:3235   */\n      pop\n        /* \"#utility.yul\":2108:3235   */\n      swap3\n      swap2\n      pop\n      pop\n      jump\t// out\n        /* \"#utility.yul\":3241:3481   */\n    tag_150:\n        /* \"#utility.yul\":3352:3362   */\n      0x00\n        /* \"#utility.yul\":3387:3475   */\n      tag_229\n        /* \"#utility.yul\":3471:3474   */\n      dup4\n        /* \"#utility.yul\":3463:3469   */\n      dup4\n        /* \"#utility.yul\":3387:3475   */\n      tag_149\n      jump\t// in\n    tag_229:\n        /* \"#utility.yul\":3373:3475   */\n      swap1\n      pop\n        /* \"#utility.yul\":3241:3481   */\n      swap3\n      swap2\n      pop\n      pop\n      jump\t// out\n        /* \"#utility.yul\":3487:3621   */\n    tag_151:\n        /* \"#utility.yul\":3578:3582   */\n      0x00\n        /* \"#utility.yul\":3610:3614   */\n      0x20\n        /* \"#utility.yul\":3605:3608   */\n      dup3\n        /* \"#utility.yul\":3601:3615   */\n      add\n        /* \"#utility.yul\":3593:3615   */\n      swap1\n      pop\n        /* \"#utility.yul\":3487:3621   */\n      swap2\n      swap1\n      pop\n      jump\t// out\n        /* \"#utility.yul\":3683:4762   */\n    tag_152:\n        /* \"#utility.yul\":3844:3847   */\n      0x00\n        /* \"#utility.yul\":3873:3948   */\n      tag_232\n        /* \"#utility.yul\":3942:3947   */\n      dup3\n        /* \"#utility.yul\":3873:3948   */\n      tag_136\n      jump\t// in\n    tag_232:\n        /* \"#utility.yul\":3964:4071   */\n      tag_233\n        /* \"#utility.yul\":4064:4070   */\n      dup2\n        /* \"#utility.yul\":4059:4062   */\n      dup6\n        /* \"#utility.yul\":3964:4071   */\n      tag_137\n      jump\t// in\n    tag_233:\n        /* \"#utility.yul\":3957:4071   */\n      swap4\n      pop\n        /* \"#utility.yul\":4097:4100   */\n      dup4\n        /* \"#utility.yul\":4142:4146   */\n      0x20\n        /* \"#utility.yul\":4134:4140   */\n      dup3\n        /* \"#utility.yul\":4130:4147   */\n      mul\n        /* \"#utility.yul\":4125:4128   */\n      dup6\n        /* \"#utility.yul\":4121:4148   */\n      add\n        /* \"#utility.yul\":4172:4249   */\n      tag_234\n        /* \"#utility.yul\":4243:4248   */\n      dup6\n        /* \"#utility.yul\":4172:4249   */\n      tag_138\n      jump\t// in\n    tag_234:\n        /* \"#utility.yul\":4272:4279   */\n      dup1\n        /* \"#utility.yul\":4303:4304   */\n      0x00\n        /* \"#utility.yul\":4288:4717   */\n    tag_235:\n        /* \"#utility.yul\":4313:4319   */\n      dup6\n        /* \"#utility.yul\":4310:4311   */\n      dup2\n        /* \"#utility.yul\":4307:4320   */\n      lt\n        /* \"#utility.yul\":4288:4717   */\n      iszero\n      tag_237\n      jumpi\n        /* \"#utility.yul\":4384:4393   */\n      dup5\n        /* \"#utility.yul\":4378:4382   */\n      dup5\n        /* \"#utility.yul\":4374:4394   */\n      sub\n        /* \"#utility.yul\":4369:4372   */\n      dup10\n        /* \"#utility.yul\":4362:4395   */\n      mstore\n        /* \"#utility.yul\":4435:4441   */\n      dup2\n        /* \"#utility.yul\":4429:4442   */\n      mload\n        /* \"#utility.yul\":4463:4569   */\n      tag_238\n        /* \"#utility.yul\":4564:4568   */\n      dup6\n        /* \"#utility.yul\":4549:4562   */\n      dup3\n        /* \"#utility.yul\":4463:4569   */\n      tag_150\n      jump\t// in\n    tag_238:\n        /* \"#utility.yul\":4455:4569   */\n      swap5\n      pop\n        /* \"#utility.yul\":4592:4673   */\n      tag_239\n        /* \"#utility.yul\":4666:4672   */\n      dup4\n        /* \"#utility.yul\":4592:4673   */\n      tag_151\n      jump\t// in\n    tag_239:\n        /* \"#utility.yul\":4582:4673   */\n      swap3\n      pop\n        /* \"#utility.yul\":4702:4706   */\n      0x20\n        /* \"#utility.yul\":4697:4700   */\n      dup11\n        /* \"#utility.yul\":4693:4707   */\n      add\n        /* \"#utility.yul\":4686:4707   */\n      swap10\n      pop\n        /* \"#utility.yul\":4348:4717   */\n      pop\n        /* \"#utility.yul\":4335:4336   */\n      0x01\n        /* \"#utility.yul\":4332:4333   */\n      dup2\n        /* \"#utility.yul\":4328:4337   */\n      add\n        /* \"#utility.yul\":4323:4337   */\n      swap1\n      pop\n        /* \"#utility.yul\":4288:4717   */\n      jump(tag_235)\n    tag_237:\n        /* \"#utility.yul\":4292:4306   */\n      pop\n        /* \"#utility.yul\":4733:4737   */\n      dup3\n        /* \"#utility.yul\":4726:4737   */\n      swap8\n      pop\n        /* \"#utility.yul\":4753:4756   */\n      dup8\n        /* \"#utility.yul\":4746:4756   */\n      swap6\n      pop\n        /* \"#utility.yul\":3849:4762   */\n      pop\n      pop\n      pop\n      pop\n      pop\n        /* \"#utility.yul\":3683:4762   */\n      swap3\n      swap2\n      pop\n      pop\n      jump\t// out\n        /* \"#utility.yul\":4768:5225   */\n    tag_16:\n        /* \"#utility.yul\":4953:4957   */\n      0x00\n        /* \"#utility.yul\":4991:4993   */\n      0x20\n        /* \"#utility.yul\":4980:4989   */\n      dup3\n        /* \"#utility.yul\":4976:4994   */\n      add\n        /* \"#utility.yul\":4968:4994   */\n      swap1\n      pop\n        /* \"#utility.yul\":5040:5049   */\n      dup2\n        /* \"#utility.yul\":5034:5038   */\n      dup2\n        /* \"#utility.yul\":5030:5050   */\n      sub\n        /* \"#utility.yul\":5026:5027   */\n      0x00\n        /* \"#utility.yul\":5015:5024   */\n      dup4\n        /* \"#utility.yul\":5011:5028   */\n      add\n        /* \"#utility.yul\":5004:5051   */\n      mstore\n        /* \"#utility.yul\":5068:5218   */\n      tag_241\n        /* \"#utility.yul\":5213:5217   */\n      dup2\n        /* \"#utility.yul\":5204:5210   */\n      dup5\n        /* \"#utility.yul\":5068:5218   */\n      tag_152\n      jump\t// in\n    tag_241:\n        /* \"#utility.yul\":5060:5218   */\n      swap1\n      pop\n        /* \"#utility.yul\":4768:5225   */\n      swap3\n      swap2\n      pop\n      pop\n      jump\t// out\n        /* \"#utility.yul\":5231:5306   */\n    tag_153:\n        /* \"#utility.yul\":5264:5270   */\n      0x00\n        /* \"#utility.yul\":5297:5299   */\n      0x40\n        /* \"#utility.yul\":5291:5300   */\n      mload\n        /* \"#utility.yul\":5281:5300   */\n      swap1\n      pop\n        /* \"#utility.yul\":5231:5306   */\n      swap1\n      jump\t// out\n        /* \"#utility.yul\":5312:5429   */\n    tag_154:\n        /* \"#utility.yul\":5421:5422   */\n      0x00\n        /* \"#utility.yul\":5418:5419   */\n      dup1\n        /* \"#utility.yul\":5411:5423   */\n      revert\n        /* \"#utility.yul\":5435:5552   */\n    tag_155:\n        /* \"#utility.yul\":5544:5545   */\n      0x00\n        /* \"#utility.yul\":5541:5542   */\n      dup1\n        /* \"#utility.yul\":5534:5546   */\n      revert\n        /* \"#utility.yul\":5558:5680   */\n    tag_156:\n        /* \"#utility.yul\":5631:5655   */\n      tag_246\n        /* \"#utility.yul\":5649:5654   */\n      dup2\n        /* \"#utility.yul\":5631:5655   */\n      tag_140\n      jump\t// in\n    tag_246:\n        /* \"#utility.yul\":5624:5629   */\n      dup2\n        /* \"#utility.yul\":5621:5656   */\n      eq\n        /* \"#utility.yul\":5611:5674   */\n      tag_247\n      jumpi\n        /* \"#utility.yul\":5670:5671   */\n      0x00\n        /* \"#utility.yul\":5667:5668   */\n      dup1\n        /* \"#utility.yul\":5660:5672   */\n      revert\n        /* \"#utility.yul\":5611:5674   */\n    tag_247:\n        /* \"#utility.yul\":5558:5680   */\n      pop\n      jump\t// out\n        /* \"#utility.yul\":5686:5825   */\n    tag_157:\n        /* \"#utility.yul\":5732:5737   */\n      0x00\n        /* \"#utility.yul\":5770:5776   */\n      dup2\n        /* \"#utility.yul\":5757:5777   */\n      calldataload\n        /* \"#utility.yul\":5748:5777   */\n      swap1\n      pop\n        /* \"#utility.yul\":5786:5819   */\n      tag_249\n        /* \"#utility.yul\":5813:5818   */\n      dup2\n        /* \"#utility.yul\":5786:5819   */\n      tag_156\n      jump\t// in\n    tag_249:\n        /* \"#utility.yul\":5686:5825   */\n      swap3\n      swap2\n      pop\n      pop\n      jump\t// out\n        /* \"#utility.yul\":5831:5953   */\n    tag_158:\n        /* \"#utility.yul\":5904:5928   */\n      tag_251\n        /* \"#utility.yul\":5922:5927   */\n      dup2\n        /* \"#utility.yul\":5904:5928   */\n      tag_147\n      jump\t// in\n    tag_251:\n        /* \"#utility.yul\":5897:5902   */\n      dup2\n        /* \"#utility.yul\":5894:5929   */\n      eq\n        /* \"#utility.yul\":5884:5947   */\n      tag_252\n      jumpi\n        /* \"#utility.yul\":5943:5944   */\n      0x00\n        /* \"#utility.yul\":5940:5941   */\n      dup1\n        /* \"#utility.yul\":5933:5945   */\n      revert\n        /* \"#utility.yul\":5884:5947   */\n    tag_252:\n        /* \"#utility.yul\":5831:5953   */\n      pop\n      jump\t// out\n        /* \"#utility.yul\":5959:6098   */\n    tag_159:\n        /* \"#utility.yul\":6005:6010   */\n      0x00\n        /* \"#utility.yul\":6043:6049   */\n      dup2\n        /* \"#utility.yul\":6030:6050   */\n      calldataload\n        /* \"#utility.yul\":6021:6050   */\n      swap1\n      pop\n        /* \"#utility.yul\":6059:6092   */\n      tag_254\n        /* \"#utility.yul\":6086:6091   */\n      dup2\n        /* \"#utility.yul\":6059:6092   */\n      tag_158\n      jump\t// in\n    tag_254:\n        /* \"#utility.yul\":5959:6098   */\n      swap3\n      swap2\n      pop\n      pop\n      jump\t// out\n        /* \"#utility.yul\":6104:6578   */\n    tag_19:\n        /* \"#utility.yul\":6172:6178   */\n      0x00\n        /* \"#utility.yul\":6180:6186   */\n      dup1\n        /* \"#utility.yul\":6229:6231   */\n      0x40\n        /* \"#utility.yul\":6217:6226   */\n      dup4\n        /* \"#utility.yul\":6208:6215   */\n      dup6\n        /* \"#utility.yul\":6204:6227   */\n      sub\n        /* \"#utility.yul\":6200:6232   */\n      slt\n        /* \"#utility.yul\":6197:6316   */\n      iszero\n      tag_256\n      jumpi\n        /* \"#utility.yul\":6235:6314   */\n      tag_257\n      tag_154\n      jump\t// in\n    tag_257:\n        /* \"#utility.yul\":6197:6316   */\n    tag_256:\n        /* \"#utility.yul\":6355:6356   */\n      0x00\n        /* \"#utility.yul\":6380:6433   */\n      tag_258\n        /* \"#utility.yul\":6425:6432   */\n      dup6\n        /* \"#utility.yul\":6416:6422   */\n      dup3\n        /* \"#utility.yul\":6405:6414   */\n      dup7\n        /* \"#utility.yul\":6401:6423   */\n      add\n        /* \"#utility.yul\":6380:6433   */\n      tag_157\n      jump\t// in\n    tag_258:\n        /* \"#utility.yul\":6370:6433   */\n      swap3\n      pop\n        /* \"#utility.yul\":6326:6443   */\n      pop\n        /* \"#utility.yul\":6482:6484   */\n      0x20\n        /* \"#utility.yul\":6508:6561   */\n      tag_259\n        /* \"#utility.yul\":6553:6560   */\n      dup6\n        /* \"#utility.yul\":6544:6550   */\n      dup3\n        /* \"#utility.yul\":6533:6542   */\n      dup7\n        /* \"#utility.yul\":6529:6551   */\n      add\n        /* \"#utility.yul\":6508:6561   */\n      tag_159\n      jump\t// in\n    tag_259:\n        /* \"#utility.yul\":6498:6561   */\n      swap2\n      pop\n        /* \"#utility.yul\":6453:6571   */\n      pop\n        /* \"#utility.yul\":6104:6578   */\n      swap3\n      pop\n      swap3\n      swap1\n      pop\n      jump\t// out\n        /* \"#utility.yul\":6584:6913   */\n    tag_23:\n        /* \"#utility.yul\":6643:6649   */\n      0x00\n        /* \"#utility.yul\":6692:6694   */\n      0x20\n        /* \"#utility.yul\":6680:6689   */\n      dup3\n        /* \"#utility.yul\":6671:6678   */\n      dup5\n        /* \"#utility.yul\":6667:6690   */\n      sub\n        /* \"#utility.yul\":6663:6695   */\n      slt\n        /* \"#utility.yul\":6660:6779   */\n      iszero\n      tag_261\n      jumpi\n        /* \"#utility.yul\":6698:6777   */\n      tag_262\n      tag_154\n      jump\t// in\n    tag_262:\n        /* \"#utility.yul\":6660:6779   */\n    tag_261:\n        /* \"#utility.yul\":6818:6819   */\n      0x00\n        /* \"#utility.yul\":6843:6896   */\n      tag_263\n        /* \"#utility.yul\":6888:6895   */\n      dup5\n        /* \"#utility.yul\":6879:6885   */\n      dup3\n        /* \"#utility.yul\":6868:6877   */\n      dup6\n        /* \"#utility.yul\":6864:6886   */\n      add\n        /* \"#utility.yul\":6843:6896   */\n      tag_157\n      jump\t// in\n    tag_263:\n        /* \"#utility.yul\":6833:6896   */\n      swap2\n      pop\n        /* \"#utility.yul\":6789:6906   */\n      pop\n        /* \"#utility.yul\":6584:6913   */\n      swap3\n      swap2\n      pop\n      pop\n      jump\t// out\n        /* \"#utility.yul\":6919:7036   */\n    tag_160:\n        /* \"#utility.yul\":7028:7029   */\n      0x00\n        /* \"#utility.yul\":7025:7026   */\n      dup1\n        /* \"#utility.yul\":7018:7030   */\n      revert\n        /* \"#utility.yul\":7042:7159   */\n    tag_161:\n        /* \"#utility.yul\":7151:7152   */\n      0x00\n        /* \"#utility.yul\":7148:7149   */\n      dup1\n        /* \"#utility.yul\":7141:7153   */\n      revert\n        /* \"#utility.yul\":7165:7345   */\n    tag_162:\n        /* \"#utility.yul\":7213:7290   */\n      0x4e487b7100000000000000000000000000000000000000000000000000000000\n        /* \"#utility.yul\":7210:7211   */\n      0x00\n        /* \"#utility.yul\":7203:7291   */\n      mstore\n        /* \"#utility.yul\":7310:7314   */\n      0x41\n        /* \"#utility.yul\":7307:7308   */\n      0x04\n        /* \"#utility.yul\":7300:7315   */\n      mstore\n        /* \"#utility.yul\":7334:7338   */\n      0x24\n        /* \"#utility.yul\":7331:7332   */\n      0x00\n        /* \"#utility.yul\":7324:7339   */\n      revert\n        /* \"#utility.yul\":7351:7632   */\n    tag_163:\n        /* \"#utility.yul\":7434:7461   */\n      tag_268\n        /* \"#utility.yul\":7456:7460   */\n      dup3\n        /* \"#utility.yul\":7434:7461   */\n      tag_145\n      jump\t// in\n    tag_268:\n        /* \"#utility.yul\":7426:7432   */\n      dup2\n        /* \"#utility.yul\":7422:7462   */\n      add\n        /* \"#utility.yul\":7564:7570   */\n      dup2\n        /* \"#utility.yul\":7552:7562   */\n      dup2\n        /* \"#utility.yul\":7549:7571   */\n      lt\n        /* \"#utility.yul\":7528:7546   */\n      0xffffffffffffffff\n        /* \"#utility.yul\":7516:7526   */\n      dup3\n        /* \"#utility.yul\":7513:7547   */\n      gt\n        /* \"#utility.yul\":7510:7572   */\n      or\n        /* \"#utility.yul\":7507:7595   */\n      iszero\n      tag_269\n      jumpi\n        /* \"#utility.yul\":7575:7593   */\n      tag_270\n      tag_162\n      jump\t// in\n    tag_270:\n        /* \"#utility.yul\":7507:7595   */\n    tag_269:\n        /* \"#utility.yul\":7615:7625   */\n      dup1\n        /* \"#utility.yul\":7611:7613   */\n      0x40\n        /* \"#utility.yul\":7604:7626   */\n      mstore\n        /* \"#utility.yul\":7394:7632   */\n      pop\n        /* \"#utility.yul\":7351:7632   */\n      pop\n      pop\n      jump\t// out\n        /* \"#utility.yul\":7638:7767   */\n    tag_164:\n        /* \"#utility.yul\":7672:7678   */\n      0x00\n        /* \"#utility.yul\":7699:7719   */\n      tag_272\n      tag_153\n      jump\t// in\n    tag_272:\n        /* \"#utility.yul\":7689:7719   */\n      swap1\n      pop\n        /* \"#utility.yul\":7728:7761   */\n      tag_273\n        /* \"#utility.yul\":7756:7760   */\n      dup3\n        /* \"#utility.yul\":7748:7754   */\n      dup3\n        /* \"#utility.yul\":7728:7761   */\n      tag_163\n      jump\t// in\n    tag_273:\n        /* \"#utility.yul\":7638:7767   */\n      swap2\n      swap1\n      pop\n      jump\t// out\n        /* \"#utility.yul\":7773:8081   */\n    tag_165:\n        /* \"#utility.yul\":7835:7839   */\n      0x00\n        /* \"#utility.yul\":7925:7943   */\n      0xffffffffffffffff\n        /* \"#utility.yul\":7917:7923   */\n      dup3\n        /* \"#utility.yul\":7914:7944   */\n      gt\n        /* \"#utility.yul\":7911:7967   */\n      iszero\n      tag_275\n      jumpi\n        /* \"#utility.yul\":7947:7965   */\n      tag_276\n      tag_162\n      jump\t// in\n    tag_276:\n        /* \"#utility.yul\":7911:7967   */\n    tag_275:\n        /* \"#utility.yul\":7985:8014   */\n      tag_277\n        /* \"#utility.yul\":8007:8013   */\n      dup3\n        /* \"#utility.yul\":7985:8014   */\n      tag_145\n      jump\t// in\n    tag_277:\n        /* \"#utility.yul\":7977:8014   */\n      swap1\n      pop\n        /* \"#utility.yul\":8069:8073   */\n      0x20\n        /* \"#utility.yul\":8063:8067   */\n      dup2\n        /* \"#utility.yul\":8059:8074   */\n      add\n        /* \"#utility.yul\":8051:8074   */\n      swap1\n      pop\n        /* \"#utility.yul\":7773:8081   */\n      swap2\n      swap1\n      pop\n      jump\t// out\n        /* \"#utility.yul\":8087:8233   */\n    tag_166:\n        /* \"#utility.yul\":8184:8190   */\n      dup3\n        /* \"#utility.yul\":8179:8182   */\n      dup2\n        /* \"#utility.yul\":8174:8177   */\n      dup4\n        /* \"#utility.yul\":8161:8191   */\n      calldatacopy\n        /* \"#utility.yul\":8225:8226   */\n      0x00\n        /* \"#utility.yul\":8216:8222   */\n      dup4\n        /* \"#utility.yul\":8211:8214   */\n      dup4\n        /* \"#utility.yul\":8207:8223   */\n      add\n        /* \"#utility.yul\":8200:8227   */\n      mstore\n        /* \"#utility.yul\":8087:8233   */\n      pop\n      pop\n      pop\n      jump\t// out\n        /* \"#utility.yul\":8239:8664   */\n    tag_167:\n        /* \"#utility.yul\":8317:8322   */\n      0x00\n        /* \"#utility.yul\":8342:8408   */\n      tag_280\n        /* \"#utility.yul\":8358:8407   */\n      tag_281\n        /* \"#utility.yul\":8400:8406   */\n      dup5\n        /* \"#utility.yul\":8358:8407   */\n      tag_165\n      jump\t// in\n    tag_281:\n        /* \"#utility.yul\":8342:8408   */\n      tag_164\n      jump\t// in\n    tag_280:\n        /* \"#utility.yul\":8333:8408   */\n      swap1\n      pop\n        /* \"#utility.yul\":8431:8437   */\n      dup3\n        /* \"#utility.yul\":8424:8429   */\n      dup2\n        /* \"#utility.yul\":8417:8438   */\n      mstore\n        /* \"#utility.yul\":8469:8473   */\n      0x20\n        /* \"#utility.yul\":8462:8467   */\n      dup2\n        /* \"#utility.yul\":8458:8474   */\n      add\n        /* \"#utility.yul\":8507:8510   */\n      dup5\n        /* \"#utility.yul\":8498:8504   */\n      dup5\n        /* \"#utility.yul\":8493:8496   */\n      dup5\n        /* \"#utility.yul\":8489:8505   */\n      add\n        /* \"#utility.yul\":8486:8511   */\n      gt\n        /* \"#utility.yul\":8483:8595   */\n      iszero\n      tag_282\n      jumpi\n        /* \"#utility.yul\":8514:8593   */\n      tag_283\n      tag_161\n      jump\t// in\n    tag_283:\n        /* \"#utility.yul\":8483:8595   */\n    tag_282:\n        /* \"#utility.yul\":8604:8658   */\n      tag_284\n        /* \"#utility.yul\":8651:8657   */\n      dup5\n        /* \"#utility.yul\":8646:8649   */\n      dup3\n        /* \"#utility.yul\":8641:8644   */\n      dup6\n        /* \"#utility.yul\":8604:8658   */\n      tag_166\n      jump\t// in\n    tag_284:\n        /* \"#utility.yul\":8323:8664   */\n      pop\n        /* \"#utility.yul\":8239:8664   */\n      swap4\n      swap3\n      pop\n      pop\n      pop\n      jump\t// out\n        /* \"#utility.yul\":8684:9024   */\n    tag_168:\n        /* \"#utility.yul\":8740:8745   */\n      0x00\n        /* \"#utility.yul\":8789:8792   */\n      dup3\n        /* \"#utility.yul\":8782:8786   */\n      0x1f\n        /* \"#utility.yul\":8774:8780   */\n      dup4\n        /* \"#utility.yul\":8770:8787   */\n      add\n        /* \"#utility.yul\":8766:8793   */\n      slt\n        /* \"#utility.yul\":8756:8878   */\n      tag_286\n      jumpi\n        /* \"#utility.yul\":8797:8876   */\n      tag_287\n      tag_160\n      jump\t// in\n    tag_287:\n        /* \"#utility.yul\":8756:8878   */\n    tag_286:\n        /* \"#utility.yul\":8914:8920   */\n      dup2\n        /* \"#utility.yul\":8901:8921   */\n      calldataload\n        /* \"#utility.yul\":8939:9018   */\n      tag_288\n        /* \"#utility.yul\":9014:9017   */\n      dup5\n        /* \"#utility.yul\":9006:9012   */\n      dup3\n        /* \"#utility.yul\":8999:9003   */\n      0x20\n        /* \"#utility.yul\":8991:8997   */\n      dup7\n        /* \"#utility.yul\":8987:9004   */\n      add\n        /* \"#utility.yul\":8939:9018   */\n      tag_167\n      jump\t// in\n    tag_288:\n        /* \"#utility.yul\":8930:9018   */\n      swap2\n      pop\n        /* \"#utility.yul\":8746:9024   */\n      pop\n        /* \"#utility.yul\":8684:9024   */\n      swap3\n      swap2\n      pop\n      pop\n      jump\t// out\n        /* \"#utility.yul\":9030:9539   */\n    tag_31:\n        /* \"#utility.yul\":9099:9105   */\n      0x00\n        /* \"#utility.yul\":9148:9150   */\n      0x20\n        /* \"#utility.yul\":9136:9145   */\n      dup3\n        /* \"#utility.yul\":9127:9134   */\n      dup5\n        /* \"#utility.yul\":9123:9146   */\n      sub\n        /* \"#utility.yul\":9119:9151   */\n      slt\n        /* \"#utility.yul\":9116:9235   */\n      iszero\n      tag_290\n      jumpi\n        /* \"#utility.yul\":9154:9233   */\n      tag_291\n      tag_154\n      jump\t// in\n    tag_291:\n        /* \"#utility.yul\":9116:9235   */\n    tag_290:\n        /* \"#utility.yul\":9302:9303   */\n      0x00\n        /* \"#utility.yul\":9291:9300   */\n      dup3\n        /* \"#utility.yul\":9287:9304   */\n      add\n        /* \"#utility.yul\":9274:9305   */\n      calldataload\n        /* \"#utility.yul\":9332:9350   */\n      0xffffffffffffffff\n        /* \"#utility.yul\":9324:9330   */\n      dup2\n        /* \"#utility.yul\":9321:9351   */\n      gt\n        /* \"#utility.yul\":9318:9435   */\n      iszero\n      tag_292\n      jumpi\n        /* \"#utility.yul\":9354:9433   */\n      tag_293\n      tag_155\n      jump\t// in\n    tag_293:\n        /* \"#utility.yul\":9318:9435   */\n    tag_292:\n        /* \"#utility.yul\":9459:9522   */\n      tag_294\n        /* \"#utility.yul\":9514:9521   */\n      dup5\n        /* \"#utility.yul\":9505:9511   */\n      dup3\n        /* \"#utility.yul\":9494:9503   */\n      dup6\n        /* \"#utility.yul\":9490:9512   */\n      add\n        /* \"#utility.yul\":9459:9522   */\n      tag_168\n      jump\t// in\n    tag_294:\n        /* \"#utility.yul\":9449:9522   */\n      swap2\n      pop\n        /* \"#utility.yul\":9245:9532   */\n      pop\n        /* \"#utility.yul\":9030:9539   */\n      swap3\n      swap2\n      pop\n      pop\n      jump\t// out\n        /* \"#utility.yul\":9545:9874   */\n    tag_35:\n        /* \"#utility.yul\":9604:9610   */\n      0x00\n        /* \"#utility.yul\":9653:9655   */\n      0x20\n        /* \"#utility.yul\":9641:9650   */\n      dup3\n        /* \"#utility.yul\":9632:9639   */\n      dup5\n        /* \"#utility.yul\":9628:9651   */\n      sub\n        /* \"#utility.yul\":9624:9656   */\n      slt\n        /* \"#utility.yul\":9621:9740   */\n      iszero\n      tag_296\n      jumpi\n        /* \"#utility.yul\":9659:9738   */\n      tag_297\n      tag_154\n      jump\t// in\n    tag_297:\n        /* \"#utility.yul\":9621:9740   */\n    tag_296:\n        /* \"#utility.yul\":9779:9780   */\n      0x00\n        /* \"#utility.yul\":9804:9857   */\n      tag_298\n        /* \"#utility.yul\":9849:9856   */\n      dup5\n        /* \"#utility.yul\":9840:9846   */\n      dup3\n        /* \"#utility.yul\":9829:9838   */\n      dup6\n        /* \"#utility.yul\":9825:9847   */\n      add\n        /* \"#utility.yul\":9804:9857   */\n      tag_159\n      jump\t// in\n    tag_298:\n        /* \"#utility.yul\":9794:9857   */\n      swap2\n      pop\n        /* \"#utility.yul\":9750:9867   */\n      pop\n        /* \"#utility.yul\":9545:9874   */\n      swap3\n      swap2\n      pop\n      pop\n      jump\t// out\n        /* \"#utility.yul\":9880:9998   */\n    tag_169:\n        /* \"#utility.yul\":9967:9991   */\n      tag_300\n        /* \"#utility.yul\":9985:9990   */\n      dup2\n        /* \"#utility.yul\":9967:9991   */\n      tag_140\n      jump\t// in\n    tag_300:\n        /* \"#utility.yul\":9962:9965   */\n      dup3\n        /* \"#utility.yul\":9955:9992   */\n      mstore\n        /* \"#utility.yul\":9880:9998   */\n      pop\n      pop\n      jump\t// out\n        /* \"#utility.yul\":10004:10226   */\n    tag_40:\n        /* \"#utility.yul\":10097:10101   */\n      0x00\n        /* \"#utility.yul\":10135:10137   */\n      0x20\n        /* \"#utility.yul\":10124:10133   */\n      dup3\n        /* \"#utility.yul\":10120:10138   */\n      add\n        /* \"#utility.yul\":10112:10138   */\n      swap1\n      pop\n        /* \"#utility.yul\":10148:10219   */\n      tag_302\n        /* \"#utility.yul\":10216:10217   */\n      0x00\n        /* \"#utility.yul\":10205:10214   */\n      dup4\n        /* \"#utility.yul\":10201:10218   */\n      add\n        /* \"#utility.yul\":10192:10198   */\n      dup5\n        /* \"#utility.yul\":10148:10219   */\n      tag_169\n      jump\t// in\n    tag_302:\n        /* \"#utility.yul\":10004:10226   */\n      swap3\n      swap2\n      pop\n      pop\n      jump\t// out\n        /* \"#utility.yul\":10284:11421   */\n    tag_170:\n        /* \"#utility.yul\":10395:10398   */\n      0x00\n        /* \"#utility.yul\":10431:10435   */\n      0xa0\n        /* \"#utility.yul\":10426:10429   */\n      dup4\n        /* \"#utility.yul\":10422:10436   */\n      add\n        /* \"#utility.yul\":10520:10524   */\n      0x00\n        /* \"#utility.yul\":10513:10518   */\n      dup4\n        /* \"#utility.yul\":10509:10525   */\n      add\n        /* \"#utility.yul\":10503:10526   */\n      mload\n        /* \"#utility.yul\":10539:10602   */\n      tag_304\n        /* \"#utility.yul\":10596:10600   */\n      0x00\n        /* \"#utility.yul\":10591:10594   */\n      dup7\n        /* \"#utility.yul\":10587:10601   */\n      add\n        /* \"#utility.yul\":10573:10585   */\n      dup3\n        /* \"#utility.yul\":10539:10602   */\n      tag_141\n      jump\t// in\n    tag_304:\n        /* \"#utility.yul\":10446:10612   */\n      pop\n        /* \"#utility.yul\":10697:10701   */\n      0x20\n        /* \"#utility.yul\":10690:10695   */\n      dup4\n        /* \"#utility.yul\":10686:10702   */\n      add\n        /* \"#utility.yul\":10680:10703   */\n      mload\n        /* \"#utility.yul\":10750:10753   */\n      dup5\n        /* \"#utility.yul\":10744:10748   */\n      dup3\n        /* \"#utility.yul\":10740:10754   */\n      sub\n        /* \"#utility.yul\":10733:10737   */\n      0x20\n        /* \"#utility.yul\":10728:10731   */\n      dup7\n        /* \"#utility.yul\":10724:10738   */\n      add\n        /* \"#utility.yul\":10717:10755   */\n      mstore\n        /* \"#utility.yul\":10776:10849   */\n      tag_305\n        /* \"#utility.yul\":10844:10848   */\n      dup3\n        /* \"#utility.yul\":10830:10842   */\n      dup3\n        /* \"#utility.yul\":10776:10849   */\n      tag_146\n      jump\t// in\n    tag_305:\n        /* \"#utility.yul\":10768:10849   */\n      swap2\n      pop\n        /* \"#utility.yul\":10622:10860   */\n      pop\n        /* \"#utility.yul\":10949:10953   */\n      0x40\n        /* \"#utility.yul\":10942:10947   */\n      dup4\n        /* \"#utility.yul\":10938:10954   */\n      add\n        /* \"#utility.yul\":10932:10955   */\n      mload\n        /* \"#utility.yul\":10968:11031   */\n      tag_306\n        /* \"#utility.yul\":11025:11029   */\n      0x40\n        /* \"#utility.yul\":11020:11023   */\n      dup7\n        /* \"#utility.yul\":11016:11030   */\n      add\n        /* \"#utility.yul\":11002:11014   */\n      dup3\n        /* \"#utility.yul\":10968:11031   */\n      tag_148\n      jump\t// in\n    tag_306:\n        /* \"#utility.yul\":10870:11041   */\n      pop\n        /* \"#utility.yul\":11130:11134   */\n      0x60\n        /* \"#utility.yul\":11123:11128   */\n      dup4\n        /* \"#utility.yul\":11119:11135   */\n      add\n        /* \"#utility.yul\":11113:11136   */\n      mload\n        /* \"#utility.yul\":11149:11212   */\n      tag_307\n        /* \"#utility.yul\":11206:11210   */\n      0x60\n        /* \"#utility.yul\":11201:11204   */\n      dup7\n        /* \"#utility.yul\":11197:11211   */\n      add\n        /* \"#utility.yul\":11183:11195   */\n      dup3\n        /* \"#utility.yul\":11149:11212   */\n      tag_148\n      jump\t// in\n    tag_307:\n        /* \"#utility.yul\":11051:11222   */\n      pop\n        /* \"#utility.yul\":11302:11306   */\n      0x80\n        /* \"#utility.yul\":11295:11300   */\n      dup4\n        /* \"#utility.yul\":11291:11307   */\n      add\n        /* \"#utility.yul\":11285:11308   */\n      mload\n        /* \"#utility.yul\":11321:11384   */\n      tag_308\n        /* \"#utility.yul\":11378:11382   */\n      0x80\n        /* \"#utility.yul\":11373:11376   */\n      dup7\n        /* \"#utility.yul\":11369:11383   */\n      add\n        /* \"#utility.yul\":11355:11367   */\n      dup3\n        /* \"#utility.yul\":11321:11384   */\n      tag_148\n      jump\t// in\n    tag_308:\n        /* \"#utility.yul\":11232:11394   */\n      pop\n        /* \"#utility.yul\":11411:11415   */\n      dup1\n        /* \"#utility.yul\":11404:11415   */\n      swap2\n      pop\n        /* \"#utility.yul\":10400:11421   */\n      pop\n        /* \"#utility.yul\":10284:11421   */\n      swap3\n      swap2\n      pop\n      pop\n      jump\t// out\n        /* \"#utility.yul\":11427:11784   */\n    tag_45:\n        /* \"#utility.yul\":11562:11566   */\n      0x00\n        /* \"#utility.yul\":11600:11602   */\n      0x20\n        /* \"#utility.yul\":11589:11598   */\n      dup3\n        /* \"#utility.yul\":11585:11603   */\n      add\n        /* \"#utility.yul\":11577:11603   */\n      swap1\n      pop\n        /* \"#utility.yul\":11649:11658   */\n      dup2\n        /* \"#utility.yul\":11643:11647   */\n      dup2\n        /* \"#utility.yul\":11639:11659   */\n      sub\n        /* \"#utility.yul\":11635:11636   */\n      0x00\n        /* \"#utility.yul\":11624:11633   */\n      dup4\n        /* \"#utility.yul\":11620:11637   */\n      add\n        /* \"#utility.yul\":11613:11660   */\n      mstore\n        /* \"#utility.yul\":11677:11777   */\n      tag_310\n        /* \"#utility.yul\":11772:11776   */\n      dup2\n        /* \"#utility.yul\":11763:11769   */\n      dup5\n        /* \"#utility.yul\":11677:11777   */\n      tag_170\n      jump\t// in\n    tag_310:\n        /* \"#utility.yul\":11669:11777   */\n      swap1\n      pop\n        /* \"#utility.yul\":11427:11784   */\n      swap3\n      swap2\n      pop\n      pop\n      jump\t// out\n        /* \"#utility.yul\":11790:11959   */\n    tag_171:\n        /* \"#utility.yul\":11874:11885   */\n      0x00\n        /* \"#utility.yul\":11908:11914   */\n      dup3\n        /* \"#utility.yul\":11903:11906   */\n      dup3\n        /* \"#utility.yul\":11896:11915   */\n      mstore\n        /* \"#utility.yul\":11948:11952   */\n      0x20\n        /* \"#utility.yul\":11943:11946   */\n      dup3\n        /* \"#utility.yul\":11939:11953   */\n      add\n        /* \"#utility.yul\":11924:11953   */\n      swap1\n      pop\n        /* \"#utility.yul\":11790:11959   */\n      swap3\n      swap2\n      pop\n      pop\n      jump\t// out\n        /* \"#utility.yul\":11965:12342   */\n    tag_172:\n        /* \"#utility.yul\":12053:12056   */\n      0x00\n        /* \"#utility.yul\":12081:12120   */\n      tag_313\n        /* \"#utility.yul\":12114:12119   */\n      dup3\n        /* \"#utility.yul\":12081:12120   */\n      tag_142\n      jump\t// in\n    tag_313:\n        /* \"#utility.yul\":12136:12207   */\n      tag_314\n        /* \"#utility.yul\":12200:12206   */\n      dup2\n        /* \"#utility.yul\":12195:12198   */\n      dup6\n        /* \"#utility.yul\":12136:12207   */\n      tag_171\n      jump\t// in\n    tag_314:\n        /* \"#utility.yul\":12129:12207   */\n      swap4\n      pop\n        /* \"#utility.yul\":12216:12281   */\n      tag_315\n        /* \"#utility.yul\":12274:12280   */\n      dup2\n        /* \"#utility.yul\":12269:12272   */\n      dup6\n        /* \"#utility.yul\":12262:12266   */\n      0x20\n        /* \"#utility.yul\":12255:12260   */\n      dup7\n        /* \"#utility.yul\":12251:12267   */\n      add\n        /* \"#utility.yul\":12216:12281   */\n      tag_144\n      jump\t// in\n    tag_315:\n        /* \"#utility.yul\":12306:12335   */\n      tag_316\n        /* \"#utility.yul\":12328:12334   */\n      dup2\n        /* \"#utility.yul\":12306:12335   */\n      tag_145\n      jump\t// in\n    tag_316:\n        /* \"#utility.yul\":12301:12304   */\n      dup5\n        /* \"#utility.yul\":12297:12336   */\n      add\n        /* \"#utility.yul\":12290:12336   */\n      swap2\n      pop\n        /* \"#utility.yul\":12057:12342   */\n      pop\n        /* \"#utility.yul\":11965:12342   */\n      swap3\n      swap2\n      pop\n      pop\n      jump\t// out\n        /* \"#utility.yul\":12348:12661   */\n    tag_50:\n        /* \"#utility.yul\":12461:12465   */\n      0x00\n        /* \"#utility.yul\":12499:12501   */\n      0x20\n        /* \"#utility.yul\":12488:12497   */\n      dup3\n        /* \"#utility.yul\":12484:12502   */\n      add\n        /* \"#utility.yul\":12476:12502   */\n      swap1\n      pop\n        /* \"#utility.yul\":12548:12557   */\n      dup2\n        /* \"#utility.yul\":12542:12546   */\n      dup2\n        /* \"#utility.yul\":12538:12558   */\n      sub\n        /* \"#utility.yul\":12534:12535   */\n      0x00\n        /* \"#utility.yul\":12523:12532   */\n      dup4\n        /* \"#utility.yul\":12519:12536   */\n      add\n        /* \"#utility.yul\":12512:12559   */\n      mstore\n        /* \"#utility.yul\":12576:12654   */\n      tag_318\n        /* \"#utility.yul\":12649:12653   */\n      dup2\n        /* \"#utility.yul\":12640:12646   */\n      dup5\n        /* \"#utility.yul\":12576:12654   */\n      tag_172\n      jump\t// in\n    tag_318:\n        /* \"#utility.yul\":12568:12654   */\n      swap1\n      pop\n        /* \"#utility.yul\":12348:12661   */\n      swap3\n      swap2\n      pop\n      pop\n      jump\t// out\n        /* \"#utility.yul\":12667:12847   */\n    tag_173:\n        /* \"#utility.yul\":12715:12792   */\n      0x4e487b7100000000000000000000000000000000000000000000000000000000\n        /* \"#utility.yul\":12712:12713   */\n      0x00\n        /* \"#utility.yul\":12705:12793   */\n      mstore\n        /* \"#utility.yul\":12812:12816   */\n      0x22\n        /* \"#utility.yul\":12809:12810   */\n      0x04\n        /* \"#utility.yul\":12802:12817   */\n      mstore\n        /* \"#utility.yul\":12836:12840   */\n      0x24\n        /* \"#utility.yul\":12833:12834   */\n      0x00\n        /* \"#utility.yul\":12826:12841   */\n      revert\n        /* \"#utility.yul\":12853:13173   */\n    tag_56:\n        /* \"#utility.yul\":12897:12903   */\n      0x00\n        /* \"#utility.yul\":12934:12935   */\n      0x02\n        /* \"#utility.yul\":12928:12932   */\n      dup3\n        /* \"#utility.yul\":12924:12936   */\n      div\n        /* \"#utility.yul\":12914:12936   */\n      swap1\n      pop\n        /* \"#utility.yul\":12981:12982   */\n      0x01\n        /* \"#utility.yul\":12975:12979   */\n      dup3\n        /* \"#utility.yul\":12971:12983   */\n      and\n        /* \"#utility.yul\":13002:13020   */\n      dup1\n        /* \"#utility.yul\":12992:13073   */\n      tag_321\n      jumpi\n        /* \"#utility.yul\":13058:13062   */\n      0x7f\n        /* \"#utility.yul\":13050:13056   */\n      dup3\n        /* \"#utility.yul\":13046:13063   */\n      and\n        /* \"#utility.yul\":13036:13063   */\n      swap2\n      pop\n        /* \"#utility.yul\":12992:13073   */\n    tag_321:\n        /* \"#utility.yul\":13120:13122   */\n      0x20\n        /* \"#utility.yul\":13112:13118   */\n      dup3\n        /* \"#utility.yul\":13109:13123   */\n      lt\n        /* \"#utility.yul\":13089:13107   */\n      dup2\n        /* \"#utility.yul\":13086:13124   */\n      sub\n        /* \"#utility.yul\":13083:13167   */\n      tag_322\n      jumpi\n        /* \"#utility.yul\":13139:13157   */\n      tag_323\n      tag_173\n      jump\t// in\n    tag_323:\n        /* \"#utility.yul\":13083:13167   */\n    tag_322:\n        /* \"#utility.yul\":12904:13173   */\n      pop\n        /* \"#utility.yul\":12853:13173   */\n      swap2\n      swap1\n      pop\n      jump\t// out\n        /* \"#utility.yul\":13179:13359   */\n    tag_64:\n        /* \"#utility.yul\":13227:13304   */\n      0x4e487b7100000000000000000000000000000000000000000000000000000000\n        /* \"#utility.yul\":13224:13225   */\n      0x00\n        /* \"#utility.yul\":13217:13305   */\n      mstore\n        /* \"#utility.yul\":13324:13328   */\n      0x32\n        /* \"#utility.yul\":13321:13322   */\n      0x04\n        /* \"#utility.yul\":13314:13329   */\n      mstore\n        /* \"#utility.yul\":13348:13352   */\n      0x24\n        /* \"#utility.yul\":13345:13346   */\n      0x00\n        /* \"#utility.yul\":13338:13353   */\n      revert\n        /* \"#utility.yul\":13365:13529   */\n    tag_174:\n        /* \"#utility.yul\":13505:13521   */\n      0x4e6f20747765657420666f756e64000000000000000000000000000000000000\n        /* \"#utility.yul\":13501:13502   */\n      0x00\n        /* \"#utility.yul\":13493:13499   */\n      dup3\n        /* \"#utility.yul\":13489:13503   */\n      add\n        /* \"#utility.yul\":13482:13522   */\n      mstore\n        /* \"#utility.yul\":13365:13529   */\n      pop\n      jump\t// out\n        /* \"#utility.yul\":13535:13901   */\n    tag_175:\n        /* \"#utility.yul\":13677:13680   */\n      0x00\n        /* \"#utility.yul\":13698:13765   */\n      tag_327\n        /* \"#utility.yul\":13762:13764   */\n      0x0e\n        /* \"#utility.yul\":13757:13760   */\n      dup4\n        /* \"#utility.yul\":13698:13765   */\n      tag_171\n      jump\t// in\n    tag_327:\n        /* \"#utility.yul\":13691:13765   */\n      swap2\n      pop\n        /* \"#utility.yul\":13774:13867   */\n      tag_328\n        /* \"#utility.yul\":13863:13866   */\n      dup3\n        /* \"#utility.yul\":13774:13867   */\n      tag_174\n      jump\t// in\n    tag_328:\n        /* \"#utility.yul\":13892:13894   */\n      0x20\n        /* \"#utility.yul\":13887:13890   */\n      dup3\n        /* \"#utility.yul\":13883:13895   */\n      add\n        /* \"#utility.yul\":13876:13895   */\n      swap1\n      pop\n        /* \"#utility.yul\":13535:13901   */\n      swap2\n      swap1\n      pop\n      jump\t// out\n        /* \"#utility.yul\":13907:14326   */\n    tag_68:\n        /* \"#utility.yul\":14073:14077   */\n      0x00\n        /* \"#utility.yul\":14111:14113   */\n      0x20\n        /* \"#utility.yul\":14100:14109   */\n      dup3\n        /* \"#utility.yul\":14096:14114   */\n      add\n        /* \"#utility.yul\":14088:14114   */\n      swap1\n      pop\n        /* \"#utility.yul\":14160:14169   */\n      dup2\n        /* \"#utility.yul\":14154:14158   */\n      dup2\n        /* \"#utility.yul\":14150:14170   */\n      sub\n        /* \"#utility.yul\":14146:14147   */\n      0x00\n        /* \"#utility.yul\":14135:14144   */\n      dup4\n        /* \"#utility.yul\":14131:14148   */\n      add\n        /* \"#utility.yul\":14124:14171   */\n      mstore\n        /* \"#utility.yul\":14188:14319   */\n      tag_330\n        /* \"#utility.yul\":14314:14318   */\n      dup2\n        /* \"#utility.yul\":14188:14319   */\n      tag_175\n      jump\t// in\n    tag_330:\n        /* \"#utility.yul\":14180:14319   */\n      swap1\n      pop\n        /* \"#utility.yul\":13907:14326   */\n      swap2\n      swap1\n      pop\n      jump\t// out\n        /* \"#utility.yul\":14332:14512   */\n    tag_176:\n        /* \"#utility.yul\":14380:14457   */\n      0x4e487b7100000000000000000000000000000000000000000000000000000000\n        /* \"#utility.yul\":14377:14378   */\n      0x00\n        /* \"#utility.yul\":14370:14458   */\n      mstore\n        /* \"#utility.yul\":14477:14481   */\n      0x11\n        /* \"#utility.yul\":14474:14475   */\n      0x04\n        /* \"#utility.yul\":14467:14482   */\n      mstore\n        /* \"#utility.yul\":14501:14505   */\n      0x24\n        /* \"#utility.yul\":14498:14499   */\n      0x00\n        /* \"#utility.yul\":14491:14506   */\n      revert\n        /* \"#utility.yul\":14518:14712   */\n    tag_70:\n        /* \"#utility.yul\":14558:14562   */\n      0x00\n        /* \"#utility.yul\":14578:14598   */\n      tag_333\n        /* \"#utility.yul\":14596:14597   */\n      dup3\n        /* \"#utility.yul\":14578:14598   */\n      tag_147\n      jump\t// in\n    tag_333:\n        /* \"#utility.yul\":14573:14598   */\n      swap2\n      pop\n        /* \"#utility.yul\":14612:14632   */\n      tag_334\n        /* \"#utility.yul\":14630:14631   */\n      dup4\n        /* \"#utility.yul\":14612:14632   */\n      tag_147\n      jump\t// in\n    tag_334:\n        /* \"#utility.yul\":14607:14632   */\n      swap3\n      pop\n        /* \"#utility.yul\":14656:14657   */\n      dup3\n        /* \"#utility.yul\":14653:14654   */\n      dup3\n        /* \"#utility.yul\":14649:14658   */\n      sub\n        /* \"#utility.yul\":14641:14658   */\n      swap1\n      pop\n        /* \"#utility.yul\":14680:14681   */\n      dup2\n        /* \"#utility.yul\":14674:14678   */\n      dup2\n        /* \"#utility.yul\":14671:14682   */\n      gt\n        /* \"#utility.yul\":14668:14705   */\n      iszero\n      tag_335\n      jumpi\n        /* \"#utility.yul\":14685:14703   */\n      tag_336\n      tag_176\n      jump\t// in\n    tag_336:\n        /* \"#utility.yul\":14668:14705   */\n    tag_335:\n        /* \"#utility.yul\":14518:14712   */\n      swap3\n      swap2\n      pop\n      pop\n      jump\t// out\n        /* \"#utility.yul\":14718:14890   */\n    tag_177:\n        /* \"#utility.yul\":14858:14882   */\n      0x4e6f206c696b6520666f72207468697320747765657400000000000000000000\n        /* \"#utility.yul\":14854:14855   */\n      0x00\n        /* \"#utility.yul\":14846:14852   */\n      dup3\n        /* \"#utility.yul\":14842:14856   */\n      add\n        /* \"#utility.yul\":14835:14883   */\n      mstore\n        /* \"#utility.yul\":14718:14890   */\n      pop\n      jump\t// out\n        /* \"#utility.yul\":14896:15262   */\n    tag_178:\n        /* \"#utility.yul\":15038:15041   */\n      0x00\n        /* \"#utility.yul\":15059:15126   */\n      tag_339\n        /* \"#utility.yul\":15123:15125   */\n      0x16\n        /* \"#utility.yul\":15118:15121   */\n      dup4\n        /* \"#utility.yul\":15059:15126   */\n      tag_171\n      jump\t// in\n    tag_339:\n        /* \"#utility.yul\":15052:15126   */\n      swap2\n      pop\n        /* \"#utility.yul\":15135:15228   */\n      tag_340\n        /* \"#utility.yul\":15224:15227   */\n      dup3\n        /* \"#utility.yul\":15135:15228   */\n      tag_177\n      jump\t// in\n    tag_340:\n        /* \"#utility.yul\":15253:15255   */\n      0x20\n        /* \"#utility.yul\":15248:15251   */\n      dup3\n        /* \"#utility.yul\":15244:15256   */\n      add\n        /* \"#utility.yul\":15237:15256   */\n      swap1\n      pop\n        /* \"#utility.yul\":14896:15262   */\n      swap2\n      swap1\n      pop\n      jump\t// out\n        /* \"#utility.yul\":15268:15687   */\n    tag_76:\n        /* \"#utility.yul\":15434:15438   */\n      0x00\n        /* \"#utility.yul\":15472:15474   */\n      0x20\n        /* \"#utility.yul\":15461:15470   */\n      dup3\n        /* \"#utility.yul\":15457:15475   */\n      add\n        /* \"#utility.yul\":15449:15475   */\n      swap1\n      pop\n        /* \"#utility.yul\":15521:15530   */\n      dup2\n        /* \"#utility.yul\":15515:15519   */\n      dup2\n        /* \"#utility.yul\":15511:15531   */\n      sub\n        /* \"#utility.yul\":15507:15508   */\n      0x00\n        /* \"#utility.yul\":15496:15505   */\n      dup4\n        /* \"#utility.yul\":15492:15509   */\n      add\n        /* \"#utility.yul\":15485:15532   */\n      mstore\n        /* \"#utility.yul\":15549:15680   */\n      tag_342\n        /* \"#utility.yul\":15675:15679   */\n      dup2\n        /* \"#utility.yul\":15549:15680   */\n      tag_178\n      jump\t// in\n    tag_342:\n        /* \"#utility.yul\":15541:15680   */\n      swap1\n      pop\n        /* \"#utility.yul\":15268:15687   */\n      swap2\n      swap1\n      pop\n      jump\t// out\n        /* \"#utility.yul\":15693:15884   */\n    tag_101:\n        /* \"#utility.yul\":15733:15736   */\n      0x00\n        /* \"#utility.yul\":15752:15772   */\n      tag_344\n        /* \"#utility.yul\":15770:15771   */\n      dup3\n        /* \"#utility.yul\":15752:15772   */\n      tag_147\n      jump\t// in\n    tag_344:\n        /* \"#utility.yul\":15747:15772   */\n      swap2\n      pop\n        /* \"#utility.yul\":15786:15806   */\n      tag_345\n        /* \"#utility.yul\":15804:15805   */\n      dup4\n        /* \"#utility.yul\":15786:15806   */\n      tag_147\n      jump\t// in\n    tag_345:\n        /* \"#utility.yul\":15781:15806   */\n      swap3\n      pop\n        /* \"#utility.yul\":15829:15830   */\n      dup3\n        /* \"#utility.yul\":15826:15827   */\n      dup3\n        /* \"#utility.yul\":15822:15831   */\n      add\n        /* \"#utility.yul\":15815:15831   */\n      swap1\n      pop\n        /* \"#utility.yul\":15850:15853   */\n      dup1\n        /* \"#utility.yul\":15847:15848   */\n      dup3\n        /* \"#utility.yul\":15844:15854   */\n      gt\n        /* \"#utility.yul\":15841:15877   */\n      iszero\n      tag_346\n      jumpi\n        /* \"#utility.yul\":15857:15875   */\n      tag_347\n      tag_176\n      jump\t// in\n    tag_347:\n        /* \"#utility.yul\":15841:15877   */\n    tag_346:\n        /* \"#utility.yul\":15693:15884   */\n      swap3\n      swap2\n      pop\n      pop\n      jump\t// out\n        /* \"#utility.yul\":15890:16061   */\n    tag_179:\n        /* \"#utility.yul\":16030:16053   */\n      0x657863656564206d61782074657874206c696d69740000000000000000000000\n        /* \"#utility.yul\":16026:16027   */\n      0x00\n        /* \"#utility.yul\":16018:16024   */\n      dup3\n        /* \"#utility.yul\":16014:16028   */\n      add\n        /* \"#utility.yul\":16007:16054   */\n      mstore\n        /* \"#utility.yul\":15890:16061   */\n      pop\n      jump\t// out\n        /* \"#utility.yul\":16067:16433   */\n    tag_180:\n        /* \"#utility.yul\":16209:16212   */\n      0x00\n        /* \"#utility.yul\":16230:16297   */\n      tag_350\n        /* \"#utility.yul\":16294:16296   */\n      0x15\n        /* \"#utility.yul\":16289:16292   */\n      dup4\n        /* \"#utility.yul\":16230:16297   */\n      tag_171\n      jump\t// in\n    tag_350:\n        /* \"#utility.yul\":16223:16297   */\n      swap2\n      pop\n        /* \"#utility.yul\":16306:16399   */\n      tag_351\n        /* \"#utility.yul\":16395:16398   */\n      dup3\n        /* \"#utility.yul\":16306:16399   */\n      tag_179\n      jump\t// in\n    tag_351:\n        /* \"#utility.yul\":16424:16426   */\n      0x20\n        /* \"#utility.yul\":16419:16422   */\n      dup3\n        /* \"#utility.yul\":16415:16427   */\n      add\n        /* \"#utility.yul\":16408:16427   */\n      swap1\n      pop\n        /* \"#utility.yul\":16067:16433   */\n      swap2\n      swap1\n      pop\n      jump\t// out\n        /* \"#utility.yul\":16439:16858   */\n    tag_105:\n        /* \"#utility.yul\":16605:16609   */\n      0x00\n        /* \"#utility.yul\":16643:16645   */\n      0x20\n        /* \"#utility.yul\":16632:16641   */\n      dup3\n        /* \"#utility.yul\":16628:16646   */\n      add\n        /* \"#utility.yul\":16620:16646   */\n      swap1\n      pop\n        /* \"#utility.yul\":16692:16701   */\n      dup2\n        /* \"#utility.yul\":16686:16690   */\n      dup2\n        /* \"#utility.yul\":16682:16702   */\n      sub\n        /* \"#utility.yul\":16678:16679   */\n      0x00\n        /* \"#utility.yul\":16667:16676   */\n      dup4\n        /* \"#utility.yul\":16663:16680   */\n      add\n        /* \"#utility.yul\":16656:16703   */\n      mstore\n        /* \"#utility.yul\":16720:16851   */\n      tag_353\n        /* \"#utility.yul\":16846:16850   */\n      dup2\n        /* \"#utility.yul\":16720:16851   */\n      tag_180\n      jump\t// in\n    tag_353:\n        /* \"#utility.yul\":16712:16851   */\n      swap1\n      pop\n        /* \"#utility.yul\":16439:16858   */\n      swap2\n      swap1\n      pop\n      jump\t// out\n        /* \"#utility.yul\":16864:17005   */\n    tag_181:\n        /* \"#utility.yul\":16913:16917   */\n      0x00\n        /* \"#utility.yul\":16936:16939   */\n      dup2\n        /* \"#utility.yul\":16928:16939   */\n      swap1\n      pop\n        /* \"#utility.yul\":16959:16962   */\n      dup2\n        /* \"#utility.yul\":16956:16957   */\n      0x00\n        /* \"#utility.yul\":16949:16963   */\n      mstore\n        /* \"#utility.yul\":16993:16997   */\n      0x20\n        /* \"#utility.yul\":16990:16991   */\n      0x00\n        /* \"#utility.yul\":16980:16998   */\n      keccak256\n        /* \"#utility.yul\":16972:16998   */\n      swap1\n      pop\n        /* \"#utility.yul\":16864:17005   */\n      swap2\n      swap1\n      pop\n      jump\t// out\n        /* \"#utility.yul\":17011:17104   */\n    tag_182:\n        /* \"#utility.yul\":17048:17054   */\n      0x00\n        /* \"#utility.yul\":17095:17097   */\n      0x20\n        /* \"#utility.yul\":17090:17092   */\n      0x1f\n        /* \"#utility.yul\":17083:17088   */\n      dup4\n        /* \"#utility.yul\":17079:17093   */\n      add\n        /* \"#utility.yul\":17075:17098   */\n      div\n        /* \"#utility.yul\":17065:17098   */\n      swap1\n      pop\n        /* \"#utility.yul\":17011:17104   */\n      swap2\n      swap1\n      pop\n      jump\t// out\n        /* \"#utility.yul\":17110:17217   */\n    tag_183:\n        /* \"#utility.yul\":17154:17162   */\n      0x00\n        /* \"#utility.yul\":17204:17209   */\n      dup3\n        /* \"#utility.yul\":17198:17202   */\n      dup3\n        /* \"#utility.yul\":17194:17210   */\n      shl\n        /* \"#utility.yul\":17173:17210   */\n      swap1\n      pop\n        /* \"#utility.yul\":17110:17217   */\n      swap3\n      swap2\n      pop\n      pop\n      jump\t// out\n        /* \"#utility.yul\":17223:17616   */\n    tag_184:\n        /* \"#utility.yul\":17292:17298   */\n      0x00\n        /* \"#utility.yul\":17342:17343   */\n      0x08\n        /* \"#utility.yul\":17330:17340   */\n      dup4\n        /* \"#utility.yul\":17326:17344   */\n      mul\n        /* \"#utility.yul\":17365:17462   */\n      tag_358\n        /* \"#utility.yul\":17395:17461   */\n      0xffffffffffffffffffffffffffffffffffffffffffffffffffffffffffffffff\n        /* \"#utility.yul\":17384:17393   */\n      dup3\n        /* \"#utility.yul\":17365:17462   */\n      tag_183\n      jump\t// in\n    tag_358:\n        /* \"#utility.yul\":17483:17522   */\n      tag_359\n        /* \"#utility.yul\":17513:17521   */\n      dup7\n        /* \"#utility.yul\":17502:17511   */\n      dup4\n        /* \"#utility.yul\":17483:17522   */\n      tag_183\n      jump\t// in\n    tag_359:\n        /* \"#utility.yul\":17471:17522   */\n      swap6\n      pop\n        /* \"#utility.yul\":17555:17559   */\n      dup1\n        /* \"#utility.yul\":17551:17560   */\n      not\n        /* \"#utility.yul\":17544:17549   */\n      dup5\n        /* \"#utility.yul\":17540:17561   */\n      and\n        /* \"#utility.yul\":17531:17561   */\n      swap4\n      pop\n        /* \"#utility.yul\":17604:17608   */\n      dup1\n        /* \"#utility.yul\":17594:17602   */\n      dup7\n        /* \"#utility.yul\":17590:17609   */\n      and\n        /* \"#utility.yul\":17583:17588   */\n      dup5\n        /* \"#utility.yul\":17580:17610   */\n      or\n        /* \"#utility.yul\":17570:17610   */\n      swap3\n      pop\n        /* \"#utility.yul\":17299:17616   */\n      pop\n      pop\n        /* \"#utility.yul\":17223:17616   */\n      swap4\n      swap3\n      pop\n      pop\n      pop\n      jump\t// out\n        /* \"#utility.yul\":17622:17682   */\n    tag_185:\n        /* \"#utility.yul\":17650:17653   */\n      0x00\n        /* \"#utility.yul\":17671:17676   */\n      dup2\n        /* \"#utility.yul\":17664:17676   */\n      swap1\n      pop\n        /* \"#utility.yul\":17622:17682   */\n      swap2\n      swap1\n      pop\n      jump\t// out\n        /* \"#utility.yul\":17688:17830   */\n    tag_186:\n        /* \"#utility.yul\":17738:17747   */\n      0x00\n        /* \"#utility.yul\":17771:17824   */\n      tag_362\n        /* \"#utility.yul\":17789:17823   */\n      tag_363\n        /* \"#utility.yul\":17798:17822   */\n      tag_364\n        /* \"#utility.yul\":17816:17821   */\n      dup5\n        /* \"#utility.yul\":17798:17822   */\n      tag_147\n      jump\t// in\n    tag_364:\n        /* \"#utility.yul\":17789:17823   */\n      tag_185\n      jump\t// in\n    tag_363:\n        /* \"#utility.yul\":17771:17824   */\n      tag_147\n      jump\t// in\n    tag_362:\n        /* \"#utility.yul\":17758:17824   */\n      swap1\n      pop\n        /* \"#utility.yul\":17688:17830   */\n      swap2\n      swap1\n      pop\n      jump\t// out\n        /* \"#utility.yul\":17836:17911   */\n    tag_187:\n        /* \"#utility.yul\":17879:17882   */\n      0x00\n        /* \"#utility.yul\":17900:17905   */\n      dup2\n        /* \"#utility.yul\":17893:17905   */\n      swap1\n      pop\n        /* \"#utility.yul\":17836:17911   */\n      swap2\n      swap1\n      pop\n      jump\t// out\n        /* \"#utility.yul\":17917:18186   */\n    tag_188:\n        /* \"#utility.yul\":18027:18066   */\n      tag_367\n        /* \"#utility.yul\":18058:18065   */\n      dup4\n        /* \"#utility.yul\":18027:18066   */\n      tag_186\n      jump\t// in\n    tag_367:\n        /* \"#utility.yul\":18088:18179   */\n      tag_368\n        /* \"#utility.yul\":18137:18178   */\n      tag_369\n        /* \"#utility.yul\":18161:18177   */\n      dup3\n        /* \"#utility.yul\":18137:18178   */\n      tag_187\n      jump\t// in\n    tag_369:\n        /* \"#utility.yul\":18129:18135   */\n      dup5\n        /* \"#utility.yul\":18122:18126   */\n      dup5\n        /* \"#utility.yul\":18116:18127   */\n      sload\n        /* \"#utility.yul\":18088:18179   */\n      tag_184\n      jump\t// in\n    tag_368:\n        /* \"#utility.yul\":18082:18086   */\n      dup3\n        /* \"#utility.yul\":18075:18180   */\n      sstore\n        /* \"#utility.yul\":17993:18186   */\n      pop\n        /* \"#utility.yul\":17917:18186   */\n      pop\n      pop\n      pop\n      jump\t// out\n        /* \"#utility.yul\":18192:18265   */\n    tag_189:\n        /* \"#utility.yul\":18237:18240   */\n      0x00\n        /* \"#utility.yul\":18192:18265   */\n      swap1\n      jump\t// out\n        /* \"#utility.yul\":18271:18460   */\n    tag_190:\n        /* \"#utility.yul\":18348:18380   */\n      tag_372\n      tag_189\n      jump\t// in\n    tag_372:\n        /* \"#utility.yul\":18389:18454   */\n      tag_373\n        /* \"#utility.yul\":18447:18453   */\n      dup2\n        /* \"#utility.yul\":18439:18445   */\n      dup5\n        /* \"#utility.yul\":18433:18437   */\n      dup5\n        /* \"#utility.yul\":18389:18454   */\n      tag_188\n      jump\t// in\n    tag_373:\n        /* \"#utility.yul\":18324:18460   */\n      pop\n        /* \"#utility.yul\":18271:18460   */\n      pop\n      pop\n      jump\t// out\n        /* \"#utility.yul\":18466:18652   */\n    tag_191:\n        /* \"#utility.yul\":18526:18646   */\n    tag_375:\n        /* \"#utility.yul\":18543:18546   */\n      dup2\n        /* \"#utility.yul\":18536:18541   */\n      dup2\n        /* \"#utility.yul\":18533:18547   */\n      lt\n        /* \"#utility.yul\":18526:18646   */\n      iszero\n      tag_377\n      jumpi\n        /* \"#utility.yul\":18597:18636   */\n      tag_378\n        /* \"#utility.yul\":18634:18635   */\n      0x00\n        /* \"#utility.yul\":18627:18632   */\n      dup3\n        /* \"#utility.yul\":18597:18636   */\n      tag_190\n      jump\t// in\n    tag_378:\n        /* \"#utility.yul\":18570:18571   */\n      0x01\n        /* \"#utility.yul\":18563:18568   */\n      dup2\n        /* \"#utility.yul\":18559:18572   */\n      add\n        /* \"#utility.yul\":18550:18572   */\n      swap1\n      pop\n        /* \"#utility.yul\":18526:18646   */\n      jump(tag_375)\n    tag_377:\n        /* \"#utility.yul\":18466:18652   */\n      pop\n      pop\n      jump\t// out\n        /* \"#utility.yul\":18658:19201   */\n    tag_192:\n        /* \"#utility.yul\":18759:18761   */\n      0x1f\n        /* \"#utility.yul\":18754:18757   */\n      dup3\n        /* \"#utility.yul\":18751:18762   */\n      gt\n        /* \"#utility.yul\":18748:19194   */\n      iszero\n      tag_380\n      jumpi\n        /* \"#utility.yul\":18793:18831   */\n      tag_381\n        /* \"#utility.yul\":18825:18830   */\n      dup2\n        /* \"#utility.yul\":18793:18831   */\n      tag_181\n      jump\t// in\n    tag_381:\n        /* \"#utility.yul\":18877:18906   */\n      tag_382\n        /* \"#utility.yul\":18895:18905   */\n      dup5\n        /* \"#utility.yul\":18877:18906   */\n      tag_182\n      jump\t// in\n    tag_382:\n        /* \"#utility.yul\":18867:18875   */\n      dup2\n        /* \"#utility.yul\":18863:18907   */\n      add\n        /* \"#utility.yul\":19060:19062   */\n      0x20\n        /* \"#utility.yul\":19048:19058   */\n      dup6\n        /* \"#utility.yul\":19045:19063   */\n      lt\n        /* \"#utility.yul\":19042:19091   */\n      iszero\n      tag_383\n      jumpi\n        /* \"#utility.yul\":19081:19089   */\n      dup2\n        /* \"#utility.yul\":19066:19089   */\n      swap1\n      pop\n        /* \"#utility.yul\":19042:19091   */\n    tag_383:\n        /* \"#utility.yul\":19104:19184   */\n      tag_384\n        /* \"#utility.yul\":19160:19182   */\n      tag_385\n        /* \"#utility.yul\":19178:19181   */\n      dup6\n        /* \"#utility.yul\":19160:19182   */\n      tag_182\n      jump\t// in\n    tag_385:\n        /* \"#utility.yul\":19150:19158   */\n      dup4\n        /* \"#utility.yul\":19146:19183   */\n      add\n        /* \"#utility.yul\":19133:19144   */\n      dup3\n        /* \"#utility.yul\":19104:19184   */\n      tag_191\n      jump\t// in\n    tag_384:\n        /* \"#utility.yul\":18763:19194   */\n      pop\n      pop\n        /* \"#utility.yul\":18748:19194   */\n    tag_380:\n        /* \"#utility.yul\":18658:19201   */\n      pop\n      pop\n      pop\n      jump\t// out\n        /* \"#utility.yul\":19207:19324   */\n    tag_193:\n        /* \"#utility.yul\":19261:19269   */\n      0x00\n        /* \"#utility.yul\":19311:19316   */\n      dup3\n        /* \"#utility.yul\":19305:19309   */\n      dup3\n        /* \"#utility.yul\":19301:19317   */\n      shr\n        /* \"#utility.yul\":19280:19317   */\n      swap1\n      pop\n        /* \"#utility.yul\":19207:19324   */\n      swap3\n      swap2\n      pop\n      pop\n      jump\t// out\n        /* \"#utility.yul\":19330:19499   */\n    tag_194:\n        /* \"#utility.yul\":19374:19380   */\n      0x00\n        /* \"#utility.yul\":19407:19458   */\n      tag_388\n        /* \"#utility.yul\":19455:19456   */\n      0x00\n        /* \"#utility.yul\":19451:19457   */\n      not\n        /* \"#utility.yul\":19443:19448   */\n      dup5\n        /* \"#utility.yul\":19440:19441   */\n      0x08\n        /* \"#utility.yul\":19436:19449   */\n      mul\n        /* \"#utility.yul\":19407:19458   */\n      tag_193\n      jump\t// in\n    tag_388:\n        /* \"#utility.yul\":19403:19459   */\n      not\n        /* \"#utility.yul\":19488:19492   */\n      dup1\n        /* \"#utility.yul\":19482:19486   */\n      dup4\n        /* \"#utility.yul\":19478:19493   */\n      and\n        /* \"#utility.yul\":19468:19493   */\n      swap2\n      pop\n        /* \"#utility.yul\":19381:19499   */\n      pop\n        /* \"#utility.yul\":19330:19499   */\n      swap3\n      swap2\n      pop\n      pop\n      jump\t// out\n        /* \"#utility.yul\":19504:19799   */\n    tag_195:\n        /* \"#utility.yul\":19580:19584   */\n      0x00\n        /* \"#utility.yul\":19726:19755   */\n      tag_390\n        /* \"#utility.yul\":19751:19754   */\n      dup4\n        /* \"#utility.yul\":19745:19749   */\n      dup4\n        /* \"#utility.yul\":19726:19755   */\n      tag_194\n      jump\t// in\n    tag_390:\n        /* \"#utility.yul\":19718:19755   */\n      swap2\n      pop\n        /* \"#utility.yul\":19788:19791   */\n      dup3\n        /* \"#utility.yul\":19785:19786   */\n      0x02\n        /* \"#utility.yul\":19781:19792   */\n      mul\n        /* \"#utility.yul\":19775:19779   */\n      dup3\n        /* \"#utility.yul\":19772:19793   */\n      or\n        /* \"#utility.yul\":19764:19793   */\n      swap1\n      pop\n        /* \"#utility.yul\":19504:19799   */\n      swap3\n      swap2\n      pop\n      pop\n      jump\t// out\n        /* \"#utility.yul\":19804:21199   */\n    tag_109:\n        /* \"#utility.yul\":19921:19958   */\n      tag_392\n        /* \"#utility.yul\":19954:19957   */\n      dup3\n        /* \"#utility.yul\":19921:19958   */\n      tag_142\n      jump\t// in\n    tag_392:\n        /* \"#utility.yul\":20023:20041   */\n      0xffffffffffffffff\n        /* \"#utility.yul\":20015:20021   */\n      dup2\n        /* \"#utility.yul\":20012:20042   */\n      gt\n        /* \"#utility.yul\":20009:20065   */\n      iszero\n      tag_393\n      jumpi\n        /* \"#utility.yul\":20045:20063   */\n      tag_394\n      tag_162\n      jump\t// in\n    tag_394:\n        /* \"#utility.yul\":20009:20065   */\n    tag_393:\n        /* \"#utility.yul\":20089:20127   */\n      tag_395\n        /* \"#utility.yul\":20121:20125   */\n      dup3\n        /* \"#utility.yul\":20115:20126   */\n      sload\n        /* \"#utility.yul\":20089:20127   */\n      tag_56\n      jump\t// in\n    tag_395:\n        /* \"#utility.yul\":20174:20241   */\n      tag_396\n        /* \"#utility.yul\":20234:20240   */\n      dup3\n        /* \"#utility.yul\":20226:20232   */\n      dup3\n        /* \"#utility.yul\":20220:20224   */\n      dup6\n        /* \"#utility.yul\":20174:20241   */\n      tag_192\n      jump\t// in\n    tag_396:\n        /* \"#utility.yul\":20268:20269   */\n      0x00\n        /* \"#utility.yul\":20292:20296   */\n      0x20\n        /* \"#utility.yul\":20279:20296   */\n      swap1\n      pop\n        /* \"#utility.yul\":20324:20326   */\n      0x1f\n        /* \"#utility.yul\":20316:20322   */\n      dup4\n        /* \"#utility.yul\":20313:20327   */\n      gt\n        /* \"#utility.yul\":20341:20342   */\n      0x01\n        /* \"#utility.yul\":20336:20954   */\n      dup2\n      eq\n      tag_398\n      jumpi\n        /* \"#utility.yul\":20998:20999   */\n      0x00\n        /* \"#utility.yul\":21015:21021   */\n      dup5\n        /* \"#utility.yul\":21012:21089   */\n      iszero\n      tag_399\n      jumpi\n        /* \"#utility.yul\":21064:21073   */\n      dup3\n        /* \"#utility.yul\":21059:21062   */\n      dup8\n        /* \"#utility.yul\":21055:21074   */\n      add\n        /* \"#utility.yul\":21049:21075   */\n      mload\n        /* \"#utility.yul\":21040:21075   */\n      swap1\n      pop\n        /* \"#utility.yul\":21012:21089   */\n    tag_399:\n        /* \"#utility.yul\":21115:21182   */\n      tag_400\n        /* \"#utility.yul\":21175:21181   */\n      dup6\n        /* \"#utility.yul\":21168:21173   */\n      dup3\n        /* \"#utility.yul\":21115:21182   */\n      tag_195\n      jump\t// in\n    tag_400:\n        /* \"#utility.yul\":21109:21113   */\n      dup7\n        /* \"#utility.yul\":21102:21183   */\n      sstore\n        /* \"#utility.yul\":20971:21193   */\n      pop\n        /* \"#utility.yul\":20306:21193   */\n      jump(tag_397)\n        /* \"#utility.yul\":20336:20954   */\n    tag_398:\n        /* \"#utility.yul\":20388:20392   */\n      0x1f\n        /* \"#utility.yul\":20384:20393   */\n      not\n        /* \"#utility.yul\":20376:20382   */\n      dup5\n        /* \"#utility.yul\":20372:20394   */\n      and\n        /* \"#utility.yul\":20422:20459   */\n      tag_401\n        /* \"#utility.yul\":20454:20458   */\n      dup7\n        /* \"#utility.yul\":20422:20459   */\n      tag_181\n      jump\t// in\n    tag_401:\n        /* \"#utility.yul\":20481:20482   */\n      0x00\n        /* \"#utility.yul\":20495:20703   */\n    tag_402:\n        /* \"#utility.yul\":20509:20516   */\n      dup3\n        /* \"#utility.yul\":20506:20507   */\n      dup2\n        /* \"#utility.yul\":20503:20517   */\n      lt\n        /* \"#utility.yul\":20495:20703   */\n      iszero\n      tag_404\n      jumpi\n        /* \"#utility.yul\":20588:20597   */\n      dup5\n        /* \"#utility.yul\":20583:20586   */\n      dup10\n        /* \"#utility.yul\":20579:20598   */\n      add\n        /* \"#utility.yul\":20573:20599   */\n      mload\n        /* \"#utility.yul\":20565:20571   */\n      dup3\n        /* \"#utility.yul\":20558:20600   */\n      sstore\n        /* \"#utility.yul\":20639:20640   */\n      0x01\n        /* \"#utility.yul\":20631:20637   */\n      dup3\n        /* \"#utility.yul\":20627:20641   */\n      add\n        /* \"#utility.yul\":20617:20641   */\n      swap2\n      pop\n        /* \"#utility.yul\":20686:20688   */\n      0x20\n        /* \"#utility.yul\":20675:20684   */\n      dup6\n        /* \"#utility.yul\":20671:20689   */\n      add\n        /* \"#utility.yul\":20658:20689   */\n      swap5\n      pop\n        /* \"#utility.yul\":20532:20536   */\n      0x20\n        /* \"#utility.yul\":20529:20530   */\n      dup2\n        /* \"#utility.yul\":20525:20537   */\n      add\n        /* \"#utility.yul\":20520:20537   */\n      swap1\n      pop\n        /* \"#utility.yul\":20495:20703   */\n      jump(tag_402)\n    tag_404:\n        /* \"#utility.yul\":20731:20737   */\n      dup7\n        /* \"#utility.yul\":20722:20729   */\n      dup4\n        /* \"#utility.yul\":20719:20738   */\n      lt\n        /* \"#utility.yul\":20716:20895   */\n      iszero\n      tag_405\n      jumpi\n        /* \"#utility.yul\":20789:20798   */\n      dup5\n        /* \"#utility.yul\":20784:20787   */\n      dup10\n        /* \"#utility.yul\":20780:20799   */\n      add\n        /* \"#utility.yul\":20774:20800   */\n      mload\n        /* \"#utility.yul\":20832:20880   */\n      tag_406\n        /* \"#utility.yul\":20874:20878   */\n      0x1f\n        /* \"#utility.yul\":20866:20872   */\n      dup10\n        /* \"#utility.yul\":20862:20879   */\n      and\n        /* \"#utility.yul\":20851:20860   */\n      dup3\n        /* \"#utility.yul\":20832:20880   */\n      tag_194\n      jump\t// in\n    tag_406:\n        /* \"#utility.yul\":20824:20830   */\n      dup4\n        /* \"#utility.yul\":20817:20881   */\n      sstore\n        /* \"#utility.yul\":20739:20895   */\n      pop\n        /* \"#utility.yul\":20716:20895   */\n    tag_405:\n        /* \"#utility.yul\":20941:20942   */\n      0x01\n        /* \"#utility.yul\":20937:20938   */\n      0x02\n        /* \"#utility.yul\":20929:20935   */\n      dup9\n        /* \"#utility.yul\":20925:20939   */\n      mul\n        /* \"#utility.yul\":20921:20943   */\n      add\n        /* \"#utility.yul\":20915:20919   */\n      dup9\n        /* \"#utility.yul\":20908:20944   */\n      sstore\n        /* \"#utility.yul\":20343:20954   */\n      pop\n      pop\n      pop\n        /* \"#utility.yul\":20306:21193   */\n    tag_397:\n      pop\n        /* \"#utility.yul\":19896:21199   */\n      pop\n      pop\n      pop\n        /* \"#utility.yul\":19804:21199   */\n      pop\n      pop\n      jump\t// out\n        /* \"#utility.yul\":21205:21428   */\n    tag_196:\n        /* \"#utility.yul\":21345:21379   */\n      0x4f6e6c79206f776e657220616c6c6f77656420746f20706572666f726d206163\n        /* \"#utility.yul\":21341:21342   */\n      0x00\n        /* \"#utility.yul\":21333:21339   */\n      dup3\n        /* \"#utility.yul\":21329:21343   */\n      add\n        /* \"#utility.yul\":21322:21380   */\n      mstore\n        /* \"#utility.yul\":21414:21420   */\n      0x74696f6e00000000000000000000000000000000000000000000000000000000\n        /* \"#utility.yul\":21409:21411   */\n      0x20\n        /* \"#utility.yul\":21401:21407   */\n      dup3\n        /* \"#utility.yul\":21397:21412   */\n      add\n        /* \"#utility.yul\":21390:21421   */\n      mstore\n        /* \"#utility.yul\":21205:21428   */\n      pop\n      jump\t// out\n        /* \"#utility.yul\":21434:21800   */\n    tag_197:\n        /* \"#utility.yul\":21576:21579   */\n      0x00\n        /* \"#utility.yul\":21597:21664   */\n      tag_409\n        /* \"#utility.yul\":21661:21663   */\n      0x24\n        /* \"#utility.yul\":21656:21659   */\n      dup4\n        /* \"#utility.yul\":21597:21664   */\n      tag_171\n      jump\t// in\n    tag_409:\n        /* \"#utility.yul\":21590:21664   */\n      swap2\n      pop\n        /* \"#utility.yul\":21673:21766   */\n      tag_410\n        /* \"#utility.yul\":21762:21765   */\n      dup3\n        /* \"#utility.yul\":21673:21766   */\n      tag_196\n      jump\t// in\n    tag_410:\n        /* \"#utility.yul\":21791:21793   */\n      0x40\n        /* \"#utility.yul\":21786:21789   */\n      dup3\n        /* \"#utility.yul\":21782:21794   */\n      add\n        /* \"#utility.yul\":21775:21794   */\n      swap1\n      pop\n        /* \"#utility.yul\":21434:21800   */\n      swap2\n      swap1\n      pop\n      jump\t// out\n        /* \"#utility.yul\":21806:22225   */\n    tag_113:\n        /* \"#utility.yul\":21972:21976   */\n      0x00\n        /* \"#utility.yul\":22010:22012   */\n      0x20\n        /* \"#utility.yul\":21999:22008   */\n      dup3\n        /* \"#utility.yul\":21995:22013   */\n      add\n        /* \"#utility.yul\":21987:22013   */\n      swap1\n      pop\n        /* \"#utility.yul\":22059:22068   */\n      dup2\n        /* \"#utility.yul\":22053:22057   */\n      dup2\n        /* \"#utility.yul\":22049:22069   */\n      sub\n        /* \"#utility.yul\":22045:22046   */\n      0x00\n        /* \"#utility.yul\":22034:22043   */\n      dup4\n        /* \"#utility.yul\":22030:22047   */\n      add\n        /* \"#utility.yul\":22023:22070   */\n      mstore\n        /* \"#utility.yul\":22087:22218   */\n      tag_412\n        /* \"#utility.yul\":22213:22217   */\n      dup2\n        /* \"#utility.yul\":22087:22218   */\n      tag_197\n      jump\t// in\n    tag_412:\n        /* \"#utility.yul\":22079:22218   */\n      swap1\n      pop\n        /* \"#utility.yul\":21806:22225   */\n      swap2\n      swap1\n      pop\n      jump\t// out\n\n    auxdata: 0xa2646970667358221220b62d8b8a07c016a9ffdd0a04735419e68f95dffb0e1bc1fa3935b1267451aa8864736f6c63430008160033\n}\n",
				"bytecode": {
					"linkReferences": {},
					"object": "608060405234801561000f575f80fd5b50335f806101000a81548173ffffffffffffffffffffffffffffffffffffffff021916908373ffffffffffffffffffffffffffffffffffffffff16021790555061012c60018190555061184a806100655f395ff3fe608060405234801561000f575f80fd5b5060043610610091575f3560e01c80637c9cd2bc116100645780637c9cd2bc1461011b578063888a788014610137578063893d20e814610153578063a1575f9214610171578063c2e25658146101a157610091565b80633a756bd6146100955780633d9b569f146100b35780634ed33ace146100cf57806363378216146100ff575b5f80fd5b61009d6101d1565b6040516100aa9190610f16565b60405180910390f35b6100cd60048036038101906100c89190610f9b565b61036a565b005b6100e960048036038101906100e49190610fd9565b61052f565b6040516100f69190610f16565b60405180910390f35b61011960048036038101906101149190610f9b565b6106ca565b005b61013560048036038101906101309190611130565b6107ef565b005b610151600480360381019061014c9190611177565b6109a3565b005b61015b610a3a565b60405161016891906111b1565b60405180910390f35b61018b60048036038101906101869190611177565b610a61565b604051610198919061123d565b60405180910390f35b6101bb60048036038101906101b69190611177565b610bd8565b6040516101c891906112a5565b60405180910390f35b606060025f3373ffffffffffffffffffffffffffffffffffffffff1673ffffffffffffffffffffffffffffffffffffffff1681526020019081526020015f20805480602002602001604051908101604052809291908181526020015f905b82821015610361578382905f5260205f2090600502016040518060a00160405290815f82015f9054906101000a900473ffffffffffffffffffffffffffffffffffffffff1673ffffffffffffffffffffffffffffffffffffffff1673ffffffffffffffffffffffffffffffffffffffff1681526020016001820180546102b4906112f2565b80601f01602080910402602001604051908101604052809291908181526020018280546102e0906112f2565b801561032b5780601f106103025761010080835404028352916020019161032b565b820191905f5260205f20905b81548152906001019060200180831161030e57829003601f168201915b5050505050815260200160028201548152602001600382015481526020016004820154815250508152602001906001019061022f565b50505050905090565b8060025f8473ffffffffffffffffffffffffffffffffffffffff1673ffffffffffffffffffffffffffffffffffffffff1681526020019081526020015f2082815481106103ba576103b9611322565b5b905f5260205f209060050201600401541461040a576040517f08c379a000000000000000000000000000000000000000000000000000000000815260040161040190611399565b60405180910390fd5b5f60025f8473ffffffffffffffffffffffffffffffffffffffff1673ffffffffffffffffffffffffffffffffffffffff1681526020019081526020015f2060018361045591906113e4565b8154811061046657610465611322565b5b905f5260205f20906005020160030154116104b6576040517f08c379a00000000000000000000000000000000000000000000000000000000081526004016104ad90611461565b60405180910390fd5b600160025f8473ffffffffffffffffffffffffffffffffffffffff1673ffffffffffffffffffffffffffffffffffffffff1681526020019081526020015f20828154811061050757610506611322565b5b905f5260205f2090600502016003015f82825461052491906113e4565b925050819055505050565b606060025f8373ffffffffffffffffffffffffffffffffffffffff1673ffffffffffffffffffffffffffffffffffffffff1681526020019081526020015f20805480602002602001604051908101604052809291908181526020015f905b828210156106bf578382905f5260205f2090600502016040518060a00160405290815f82015f9054906101000a900473ffffffffffffffffffffffffffffffffffffffff1673ffffffffffffffffffffffffffffffffffffffff1673ffffffffffffffffffffffffffffffffffffffff168152602001600182018054610612906112f2565b80601f016020809104026020016040519081016040528092919081815260200182805461063e906112f2565b80156106895780601f1061066057610100808354040283529160200191610689565b820191905f5260205f20905b81548152906001019060200180831161066c57829003601f168201915b5050505050815260200160028201548152602001600382015481526020016004820154815250508152602001906001019061058d565b505050509050919050565b8060025f8473ffffffffffffffffffffffffffffffffffffffff1673ffffffffffffffffffffffffffffffffffffffff1681526020019081526020015f20828154811061071a57610719611322565b5b905f5260205f209060050201600401541461076a576040517f08c379a000000000000000000000000000000000000000000000000000000000815260040161076190611399565b60405180910390fd5b600160025f8473ffffffffffffffffffffffffffffffffffffffff1673ffffffffffffffffffffffffffffffffffffffff1681526020019081526020015f206001836107b691906113e4565b815481106107c7576107c6611322565b5b905f5260205f2090600502016003015f8282546107e4919061147f565b925050819055505050565b60015481511115610835576040517f08c379a000000000000000000000000000000000000000000000000000000000815260040161082c906114fc565b60405180910390fd5b5f6040518060a001604052803373ffffffffffffffffffffffffffffffffffffffff1681526020018381526020014281526020015f8152602001600160025f3373ffffffffffffffffffffffffffffffffffffffff1673ffffffffffffffffffffffffffffffffffffffff1681526020019081526020015f20805490506108bc919061147f565b815250905060025f3373ffffffffffffffffffffffffffffffffffffffff1673ffffffffffffffffffffffffffffffffffffffff1681526020019081526020015f2081908060018154018082558091505060019003905f5260205f2090600502015f909190919091505f820151815f015f6101000a81548173ffffffffffffffffffffffffffffffffffffffff021916908373ffffffffffffffffffffffffffffffffffffffff160217905550602082015181600101908161097e91906116b7565b5060408201518160020155606082015181600301556080820151816004015550505050565b5f8054906101000a900473ffffffffffffffffffffffffffffffffffffffff1673ffffffffffffffffffffffffffffffffffffffff163373ffffffffffffffffffffffffffffffffffffffff1614610a30576040517f08c379a0000000000000000000000000000000000000000000000000000000008152600401610a27906117f6565b60405180910390fd5b8060018190555050565b5f805f9054906101000a900473ffffffffffffffffffffffffffffffffffffffff16905090565b610a69610cc6565b60025f3373ffffffffffffffffffffffffffffffffffffffff1673ffffffffffffffffffffffffffffffffffffffff1681526020019081526020015f208281548110610ab857610ab7611322565b5b905f5260205f2090600502016040518060a00160405290815f82015f9054906101000a900473ffffffffffffffffffffffffffffffffffffffff1673ffffffffffffffffffffffffffffffffffffffff1673ffffffffffffffffffffffffffffffffffffffff168152602001600182018054610b33906112f2565b80601f0160208091040260200160405190810160405280929190818152602001828054610b5f906112f2565b8015610baa5780601f10610b8157610100808354040283529160200191610baa565b820191905f5260205f20905b815481529060010190602001808311610b8d57829003601f168201915b5050505050815260200160028201548152602001600382015481526020016004820154815250509050919050565b606060025f3373ffffffffffffffffffffffffffffffffffffffff1673ffffffffffffffffffffffffffffffffffffffff1681526020019081526020015f208281548110610c2957610c28611322565b5b905f5260205f2090600502016001018054610c43906112f2565b80601f0160208091040260200160405190810160405280929190818152602001828054610c6f906112f2565b8015610cba5780601f10610c9157610100808354040283529160200191610cba565b820191905f5260205f20905b815481529060010190602001808311610c9d57829003601f168201915b50505050509050919050565b6040518060a001604052805f73ffffffffffffffffffffffffffffffffffffffff168152602001606081526020015f81526020015f81526020015f81525090565b5f81519050919050565b5f82825260208201905092915050565b5f819050602082019050919050565b5f73ffffffffffffffffffffffffffffffffffffffff82169050919050565b5f610d5982610d30565b9050919050565b610d6981610d4f565b82525050565b5f81519050919050565b5f82825260208201905092915050565b5f5b83811015610da6578082015181840152602081019050610d8b565b5f8484015250505050565b5f601f19601f8301169050919050565b5f610dcb82610d6f565b610dd58185610d79565b9350610de5818560208601610d89565b610dee81610db1565b840191505092915050565b5f819050919050565b610e0b81610df9565b82525050565b5f60a083015f830151610e265f860182610d60565b5060208301518482036020860152610e3e8282610dc1565b9150506040830151610e536040860182610e02565b506060830151610e666060860182610e02565b506080830151610e796080860182610e02565b508091505092915050565b5f610e8f8383610e11565b905092915050565b5f602082019050919050565b5f610ead82610d07565b610eb78185610d11565b935083602082028501610ec985610d21565b805f5b85811015610f045784840389528151610ee58582610e84565b9450610ef083610e97565b925060208a01995050600181019050610ecc565b50829750879550505050505092915050565b5f6020820190508181035f830152610f2e8184610ea3565b905092915050565b5f604051905090565b5f80fd5b5f80fd5b610f5081610d4f565b8114610f5a575f80fd5b50565b5f81359050610f6b81610f47565b92915050565b610f7a81610df9565b8114610f84575f80fd5b50565b5f81359050610f9581610f71565b92915050565b5f8060408385031215610fb157610fb0610f3f565b5b5f610fbe85828601610f5d565b9250506020610fcf85828601610f87565b9150509250929050565b5f60208284031215610fee57610fed610f3f565b5b5f610ffb84828501610f5d565b91505092915050565b5f80fd5b5f80fd5b7f4e487b71000000000000000000000000000000000000000000000000000000005f52604160045260245ffd5b61104282610db1565b810181811067ffffffffffffffff821117156110615761106061100c565b5b80604052505050565b5f611073610f36565b905061107f8282611039565b919050565b5f67ffffffffffffffff82111561109e5761109d61100c565b5b6110a782610db1565b9050602081019050919050565b828183375f83830152505050565b5f6110d46110cf84611084565b61106a565b9050828152602081018484840111156110f0576110ef611008565b5b6110fb8482856110b4565b509392505050565b5f82601f83011261111757611116611004565b5b81356111278482602086016110c2565b91505092915050565b5f6020828403121561114557611144610f3f565b5b5f82013567ffffffffffffffff81111561116257611161610f43565b5b61116e84828501611103565b91505092915050565b5f6020828403121561118c5761118b610f3f565b5b5f61119984828501610f87565b91505092915050565b6111ab81610d4f565b82525050565b5f6020820190506111c45f8301846111a2565b92915050565b5f60a083015f8301516111df5f860182610d60565b50602083015184820360208601526111f78282610dc1565b915050604083015161120c6040860182610e02565b50606083015161121f6060860182610e02565b5060808301516112326080860182610e02565b508091505092915050565b5f6020820190508181035f83015261125581846111ca565b905092915050565b5f82825260208201905092915050565b5f61127782610d6f565b611281818561125d565b9350611291818560208601610d89565b61129a81610db1565b840191505092915050565b5f6020820190508181035f8301526112bd818461126d565b905092915050565b7f4e487b71000000000000000000000000000000000000000000000000000000005f52602260045260245ffd5b5f600282049050600182168061130957607f821691505b60208210810361131c5761131b6112c5565b5b50919050565b7f4e487b71000000000000000000000000000000000000000000000000000000005f52603260045260245ffd5b7f4e6f20747765657420666f756e640000000000000000000000000000000000005f82015250565b5f611383600e8361125d565b915061138e8261134f565b602082019050919050565b5f6020820190508181035f8301526113b081611377565b9050919050565b7f4e487b71000000000000000000000000000000000000000000000000000000005f52601160045260245ffd5b5f6113ee82610df9565b91506113f983610df9565b9250828203905081811115611411576114106113b7565b5b92915050565b7f4e6f206c696b6520666f722074686973207477656574000000000000000000005f82015250565b5f61144b60168361125d565b915061145682611417565b602082019050919050565b5f6020820190508181035f8301526114788161143f565b9050919050565b5f61148982610df9565b915061149483610df9565b92508282019050808211156114ac576114ab6113b7565b5b92915050565b7f657863656564206d61782074657874206c696d697400000000000000000000005f82015250565b5f6114e660158361125d565b91506114f1826114b2565b602082019050919050565b5f6020820190508181035f830152611513816114da565b9050919050565b5f819050815f5260205f209050919050565b5f6020601f8301049050919050565b5f82821b905092915050565b5f600883026115767fffffffffffffffffffffffffffffffffffffffffffffffffffffffffffffffff8261153b565b611580868361153b565b95508019841693508086168417925050509392505050565b5f819050919050565b5f6115bb6115b66115b184610df9565b611598565b610df9565b9050919050565b5f819050919050565b6115d4836115a1565b6115e86115e0826115c2565b848454611547565b825550505050565b5f90565b6115fc6115f0565b6116078184846115cb565b505050565b5b8181101561162a5761161f5f826115f4565b60018101905061160d565b5050565b601f82111561166f576116408161151a565b6116498461152c565b81016020851015611658578190505b61166c6116648561152c565b83018261160c565b50505b505050565b5f82821c905092915050565b5f61168f5f1984600802611674565b1980831691505092915050565b5f6116a78383611680565b9150826002028217905092915050565b6116c082610d6f565b67ffffffffffffffff8111156116d9576116d861100c565b5b6116e382546112f2565b6116ee82828561162e565b5f60209050601f83116001811461171f575f841561170d578287015190505b611717858261169c565b86555061177e565b601f19841661172d8661151a565b5f5b828110156117545784890151825560018201915060208501945060208101905061172f565b86831015611771578489015161176d601f891682611680565b8355505b6001600288020188555050505b505050505050565b7f4f6e6c79206f776e657220616c6c6f77656420746f20706572666f726d2061635f8201527f74696f6e00000000000000000000000000000000000000000000000000000000602082015250565b5f6117e060248361125d565b91506117eb82611786565b604082019050919050565b5f6020820190508181035f83015261180d816117d4565b905091905056fea2646970667358221220b62d8b8a07c016a9ffdd0a04735419e68f95dffb0e1bc1fa3935b1267451aa8864736f6c63430008160033",
					"opcodes": "PUSH1 0x80 PUSH1 0x40 MSTORE CALLVALUE DUP1 ISZERO PUSH2 0xF JUMPI PUSH0 DUP1 REVERT JUMPDEST POP CALLER PUSH0 DUP1 PUSH2 0x100 EXP DUP2 SLOAD DUP2 PUSH20 0xFFFFFFFFFFFFFFFFFFFFFFFFFFFFFFFFFFFFFFFF MUL NOT AND SWAP1 DUP4 PUSH20 0xFFFFFFFFFFFFFFFFFFFFFFFFFFFFFFFFFFFFFFFF AND MUL OR SWAP1 SSTORE POP PUSH2 0x12C PUSH1 0x1 DUP2 SWAP1 SSTORE POP PUSH2 0x184A DUP1 PUSH2 0x65 PUSH0 CODECOPY PUSH0 RETURN INVALID PUSH1 0x80 PUSH1 0x40 MSTORE CALLVALUE DUP1 ISZERO PUSH2 0xF JUMPI PUSH0 DUP1 REVERT JUMPDEST POP PUSH1 0x4 CALLDATASIZE LT PUSH2 0x91 JUMPI PUSH0 CALLDATALOAD PUSH1 0xE0 SHR DUP1 PUSH4 0x7C9CD2BC GT PUSH2 0x64 JUMPI DUP1 PUSH4 0x7C9CD2BC EQ PUSH2 0x11B JUMPI DUP1 PUSH4 0x888A7880 EQ PUSH2 0x137 JUMPI DUP1 PUSH4 0x893D20E8 EQ PUSH2 0x153 JUMPI DUP1 PUSH4 0xA1575F92 EQ PUSH2 0x171 JUMPI DUP1 PUSH4 0xC2E25658 EQ PUSH2 0x1A1 JUMPI PUSH2 0x91 JUMP JUMPDEST DUP1 PUSH4 0x3A756BD6 EQ PUSH2 0x95 JUMPI DUP1 PUSH4 0x3D9B569F EQ PUSH2 0xB3 JUMPI DUP1 PUSH4 0x4ED33ACE EQ PUSH2 0xCF JUMPI DUP1 PUSH4 0x63378216 EQ PUSH2 0xFF JUMPI JUMPDEST PUSH0 DUP1 REVERT JUMPDEST PUSH2 0x9D PUSH2 0x1D1 JUMP JUMPDEST PUSH1 0x40 MLOAD PUSH2 0xAA SWAP2 SWAP1 PUSH2 0xF16 JUMP JUMPDEST PUSH1 0x40 MLOAD DUP1 SWAP2 SUB SWAP1 RETURN JUMPDEST PUSH2 0xCD PUSH1 0x4 DUP1 CALLDATASIZE SUB DUP2 ADD SWAP1 PUSH2 0xC8 SWAP2 SWAP1 PUSH2 0xF9B JUMP JUMPDEST PUSH2 0x36A JUMP JUMPDEST STOP JUMPDEST PUSH2 0xE9 PUSH1 0x4 DUP1 CALLDATASIZE SUB DUP2 ADD SWAP1 PUSH2 0xE4 SWAP2 SWAP1 PUSH2 0xFD9 JUMP JUMPDEST PUSH2 0x52F JUMP JUMPDEST PUSH1 0x40 MLOAD PUSH2 0xF6 SWAP2 SWAP1 PUSH2 0xF16 JUMP JUMPDEST PUSH1 0x40 MLOAD DUP1 SWAP2 SUB SWAP1 RETURN JUMPDEST PUSH2 0x119 PUSH1 0x4 DUP1 CALLDATASIZE SUB DUP2 ADD SWAP1 PUSH2 0x114 SWAP2 SWAP1 PUSH2 0xF9B JUMP JUMPDEST PUSH2 0x6CA JUMP JUMPDEST STOP JUMPDEST PUSH2 0x135 PUSH1 0x4 DUP1 CALLDATASIZE SUB DUP2 ADD SWAP1 PUSH2 0x130 SWAP2 SWAP1 PUSH2 0x1130 JUMP JUMPDEST PUSH2 0x7EF JUMP JUMPDEST STOP JUMPDEST PUSH2 0x151 PUSH1 0x4 DUP1 CALLDATASIZE SUB DUP2 ADD SWAP1 PUSH2 0x14C SWAP2 SWAP1 PUSH2 0x1177 JUMP JUMPDEST PUSH2 0x9A3 JUMP JUMPDEST STOP JUMPDEST PUSH2 0x15B PUSH2 0xA3A JUMP JUMPDEST PUSH1 0x40 MLOAD PUSH2 0x168 SWAP2 SWAP1 PUSH2 0x11B1 JUMP JUMPDEST PUSH1 0x40 MLOAD DUP1 SWAP2 SUB SWAP1 RETURN JUMPDEST PUSH2 0x18B PUSH1 0x4 DUP1 CALLDATASIZE SUB DUP2 ADD SWAP1 PUSH2 0x186 SWAP2 SWAP1 PUSH2 0x1177 JUMP JUMPDEST PUSH2 0xA61 JUMP JUMPDEST PUSH1 0x40 MLOAD PUSH2 0x198 SWAP2 SWAP1 PUSH2 0x123D JUMP JUMPDEST PUSH1 0x40 MLOAD DUP1 SWAP2 SUB SWAP1 RETURN JUMPDEST PUSH2 0x1BB PUSH1 0x4 DUP1 CALLDATASIZE SUB DUP2 ADD SWAP1 PUSH2 0x1B6 SWAP2 SWAP1 PUSH2 0x1177 JUMP JUMPDEST PUSH2 0xBD8 JUMP JUMPDEST PUSH1 0x40 MLOAD PUSH2 0x1C8 SWAP2 SWAP1 PUSH2 0x12A5 JUMP JUMPDEST PUSH1 0x40 MLOAD DUP1 SWAP2 SUB SWAP1 RETURN JUMPDEST PUSH1 0x60 PUSH1 0x2 PUSH0 CALLER PUSH20 0xFFFFFFFFFFFFFFFFFFFFFFFFFFFFFFFFFFFFFFFF AND PUSH20 0xFFFFFFFFFFFFFFFFFFFFFFFFFFFFFFFFFFFFFFFF AND DUP2 MSTORE PUSH1 0x20 ADD SWAP1 DUP2 MSTORE PUSH1 0x20 ADD PUSH0 KECCAK256 DUP1 SLOAD DUP1 PUSH1 0x20 MUL PUSH1 0x20 ADD PUSH1 0x40 MLOAD SWAP1 DUP2 ADD PUSH1 0x40 MSTORE DUP1 SWAP3 SWAP2 SWAP1 DUP2 DUP2 MSTORE PUSH1 0x20 ADD PUSH0 SWAP1 JUMPDEST DUP3 DUP3 LT ISZERO PUSH2 0x361 JUMPI DUP4 DUP3 SWAP1 PUSH0 MSTORE PUSH1 0x20 PUSH0 KECCAK256 SWAP1 PUSH1 0x5 MUL ADD PUSH1 0x40 MLOAD DUP1 PUSH1 0xA0 ADD PUSH1 0x40 MSTORE SWAP1 DUP2 PUSH0 DUP3 ADD PUSH0 SWAP1 SLOAD SWAP1 PUSH2 0x100 EXP SWAP1 DIV PUSH20 0xFFFFFFFFFFFFFFFFFFFFFFFFFFFFFFFFFFFFFFFF AND PUSH20 0xFFFFFFFFFFFFFFFFFFFFFFFFFFFFFFFFFFFFFFFF AND PUSH20 0xFFFFFFFFFFFFFFFFFFFFFFFFFFFFFFFFFFFFFFFF AND DUP2 MSTORE PUSH1 0x20 ADD PUSH1 0x1 DUP3 ADD DUP1 SLOAD PUSH2 0x2B4 SWAP1 PUSH2 0x12F2 JUMP JUMPDEST DUP1 PUSH1 0x1F ADD PUSH1 0x20 DUP1 SWAP2 DIV MUL PUSH1 0x20 ADD PUSH1 0x40 MLOAD SWAP1 DUP2 ADD PUSH1 0x40 MSTORE DUP1 SWAP3 SWAP2 SWAP1 DUP2 DUP2 MSTORE PUSH1 0x20 ADD DUP3 DUP1 SLOAD PUSH2 0x2E0 SWAP1 PUSH2 0x12F2 JUMP JUMPDEST DUP1 ISZERO PUSH2 0x32B JUMPI DUP1 PUSH1 0x1F LT PUSH2 0x302 JUMPI PUSH2 0x100 DUP1 DUP4 SLOAD DIV MUL DUP4 MSTORE SWAP2 PUSH1 0x20 ADD SWAP2 PUSH2 0x32B JUMP JUMPDEST DUP3 ADD SWAP2 SWAP1 PUSH0 MSTORE PUSH1 0x20 PUSH0 KECCAK256 SWAP1 JUMPDEST DUP2 SLOAD DUP2 MSTORE SWAP1 PUSH1 0x1 ADD SWAP1 PUSH1 0x20 ADD DUP1 DUP4 GT PUSH2 0x30E JUMPI DUP3 SWAP1 SUB PUSH1 0x1F AND DUP3 ADD SWAP2 JUMPDEST POP POP POP POP POP DUP2 MSTORE PUSH1 0x20 ADD PUSH1 0x2 DUP3 ADD SLOAD DUP2 MSTORE PUSH1 0x20 ADD PUSH1 0x3 DUP3 ADD SLOAD DUP2 MSTORE PUSH1 0x20 ADD PUSH1 0x4 DUP3 ADD SLOAD DUP2 MSTORE POP POP DUP2 MSTORE PUSH1 0x20 ADD SWAP1 PUSH1 0x1 ADD SWAP1 PUSH2 0x22F JUMP JUMPDEST POP POP POP POP SWAP1 POP SWAP1 JUMP JUMPDEST DUP1 PUSH1 0x2 PUSH0 DUP5 PUSH20 0xFFFFFFFFFFFFFFFFFFFFFFFFFFFFFFFFFFFFFFFF AND PUSH20 0xFFFFFFFFFFFFFFFFFFFFFFFFFFFFFFFFFFFFFFFF AND DUP2 MSTORE PUSH1 0x20 ADD SWAP1 DUP2 MSTORE PUSH1 0x20 ADD PUSH0 KECCAK256 DUP3 DUP2 SLOAD DUP2 LT PUSH2 0x3BA JUMPI PUSH2 0x3B9 PUSH2 0x1322 JUMP JUMPDEST JUMPDEST SWAP1 PUSH0 MSTORE PUSH1 0x20 PUSH0 KECCAK256 SWAP1 PUSH1 0x5 MUL ADD PUSH1 0x4 ADD SLOAD EQ PUSH2 0x40A JUMPI PUSH1 0x40 MLOAD PUSH32 0x8C379A000000000000000000000000000000000000000000000000000000000 DUP2 MSTORE PUSH1 0x4 ADD PUSH2 0x401 SWAP1 PUSH2 0x1399 JUMP JUMPDEST PUSH1 0x40 MLOAD DUP1 SWAP2 SUB SWAP1 REVERT JUMPDEST PUSH0 PUSH1 0x2 PUSH0 DUP5 PUSH20 0xFFFFFFFFFFFFFFFFFFFFFFFFFFFFFFFFFFFFFFFF AND PUSH20 0xFFFFFFFFFFFFFFFFFFFFFFFFFFFFFFFFFFFFFFFF AND DUP2 MSTORE PUSH1 0x20 ADD SWAP1 DUP2 MSTORE PUSH1 0x20 ADD PUSH0 KECCAK256 PUSH1 0x1 DUP4 PUSH2 0x455 SWAP2 SWAP1 PUSH2 0x13E4 JUMP JUMPDEST DUP2 SLOAD DUP2 LT PUSH2 0x466 JUMPI PUSH2 0x465 PUSH2 0x1322 JUMP JUMPDEST JUMPDEST SWAP1 PUSH0 MSTORE PUSH1 0x20 PUSH0 KECCAK256 SWAP1 PUSH1 0x5 MUL ADD PUSH1 0x3 ADD SLOAD GT PUSH2 0x4B6 JUMPI PUSH1 0x40 MLOAD PUSH32 0x8C379A000000000000000000000000000000000000000000000000000000000 DUP2 MSTORE PUSH1 0x4 ADD PUSH2 0x4AD SWAP1 PUSH2 0x1461 JUMP JUMPDEST PUSH1 0x40 MLOAD DUP1 SWAP2 SUB SWAP1 REVERT JUMPDEST PUSH1 0x1 PUSH1 0x2 PUSH0 DUP5 PUSH20 0xFFFFFFFFFFFFFFFFFFFFFFFFFFFFFFFFFFFFFFFF AND PUSH20 0xFFFFFFFFFFFFFFFFFFFFFFFFFFFFFFFFFFFFFFFF AND DUP2 MSTORE PUSH1 0x20 ADD SWAP1 DUP2 MSTORE PUSH1 0x20 ADD PUSH0 KECCAK256 DUP3 DUP2 SLOAD DUP2 LT PUSH2 0x507 JUMPI PUSH2 0x506 PUSH2 0x1322 JUMP JUMPDEST JUMPDEST SWAP1 PUSH0 MSTORE PUSH1 0x20 PUSH0 KECCAK256 SWAP1 PUSH1 0x5 MUL ADD PUSH1 0x3 ADD PUSH0 DUP3 DUP3 SLOAD PUSH2 0x524 SWAP2 SWAP1 PUSH2 0x13E4 JUMP JUMPDEST SWAP3 POP POP DUP2 SWAP1 SSTORE POP POP POP JUMP JUMPDEST PUSH1 0x60 PUSH1 0x2 PUSH0 DUP4 PUSH20 0xFFFFFFFFFFFFFFFFFFFFFFFFFFFFFFFFFFFFFFFF AND PUSH20 0xFFFFFFFFFFFFFFFFFFFFFFFFFFFFFFFFFFFFFFFF AND DUP2 MSTORE PUSH1 0x20 ADD SWAP1 DUP2 MSTORE PUSH1 0x20 ADD PUSH0 KECCAK256 DUP1 SLOAD DUP1 PUSH1 0x20 MUL PUSH1 0x20 ADD PUSH1 0x40 MLOAD SWAP1 DUP2 ADD PUSH1 0x40 MSTORE DUP1 SWAP3 SWAP2 SWAP1 DUP2 DUP2 MSTORE PUSH1 0x20 ADD PUSH0 SWAP1 JUMPDEST DUP3 DUP3 LT ISZERO PUSH2 0x6BF JUMPI DUP4 DUP3 SWAP1 PUSH0 MSTORE PUSH1 0x20 PUSH0 KECCAK256 SWAP1 PUSH1 0x5 MUL ADD PUSH1 0x40 MLOAD DUP1 PUSH1 0xA0 ADD PUSH1 0x40 MSTORE SWAP1 DUP2 PUSH0 DUP3 ADD PUSH0 SWAP1 SLOAD SWAP1 PUSH2 0x100 EXP SWAP1 DIV PUSH20 0xFFFFFFFFFFFFFFFFFFFFFFFFFFFFFFFFFFFFFFFF AND PUSH20 0xFFFFFFFFFFFFFFFFFFFFFFFFFFFFFFFFFFFFFFFF AND PUSH20 0xFFFFFFFFFFFFFFFFFFFFFFFFFFFFFFFFFFFFFFFF AND DUP2 MSTORE PUSH1 0x20 ADD PUSH1 0x1 DUP3 ADD DUP1 SLOAD PUSH2 0x612 SWAP1 PUSH2 0x12F2 JUMP JUMPDEST DUP1 PUSH1 0x1F ADD PUSH1 0x20 DUP1 SWAP2 DIV MUL PUSH1 0x20 ADD PUSH1 0x40 MLOAD SWAP1 DUP2 ADD PUSH1 0x40 MSTORE DUP1 SWAP3 SWAP2 SWAP1 DUP2 DUP2 MSTORE PUSH1 0x20 ADD DUP3 DUP1 SLOAD PUSH2 0x63E SWAP1 PUSH2 0x12F2 JUMP JUMPDEST DUP1 ISZERO PUSH2 0x689 JUMPI DUP1 PUSH1 0x1F LT PUSH2 0x660 JUMPI PUSH2 0x100 DUP1 DUP4 SLOAD DIV MUL DUP4 MSTORE SWAP2 PUSH1 0x20 ADD SWAP2 PUSH2 0x689 JUMP JUMPDEST DUP3 ADD SWAP2 SWAP1 PUSH0 MSTORE PUSH1 0x20 PUSH0 KECCAK256 SWAP1 JUMPDEST DUP2 SLOAD DUP2 MSTORE SWAP1 PUSH1 0x1 ADD SWAP1 PUSH1 0x20 ADD DUP1 DUP4 GT PUSH2 0x66C JUMPI DUP3 SWAP1 SUB PUSH1 0x1F AND DUP3 ADD SWAP2 JUMPDEST POP POP POP POP POP DUP2 MSTORE PUSH1 0x20 ADD PUSH1 0x2 DUP3 ADD SLOAD DUP2 MSTORE PUSH1 0x20 ADD PUSH1 0x3 DUP3 ADD SLOAD DUP2 MSTORE PUSH1 0x20 ADD PUSH1 0x4 DUP3 ADD SLOAD DUP2 MSTORE POP POP DUP2 MSTORE PUSH1 0x20 ADD SWAP1 PUSH1 0x1 ADD SWAP1 PUSH2 0x58D JUMP JUMPDEST POP POP POP POP SWAP1 POP SWAP2 SWAP1 POP JUMP JUMPDEST DUP1 PUSH1 0x2 PUSH0 DUP5 PUSH20 0xFFFFFFFFFFFFFFFFFFFFFFFFFFFFFFFFFFFFFFFF AND PUSH20 0xFFFFFFFFFFFFFFFFFFFFFFFFFFFFFFFFFFFFFFFF AND DUP2 MSTORE PUSH1 0x20 ADD SWAP1 DUP2 MSTORE PUSH1 0x20 ADD PUSH0 KECCAK256 DUP3 DUP2 SLOAD DUP2 LT PUSH2 0x71A JUMPI PUSH2 0x719 PUSH2 0x1322 JUMP JUMPDEST JUMPDEST SWAP1 PUSH0 MSTORE PUSH1 0x20 PUSH0 KECCAK256 SWAP1 PUSH1 0x5 MUL ADD PUSH1 0x4 ADD SLOAD EQ PUSH2 0x76A JUMPI PUSH1 0x40 MLOAD PUSH32 0x8C379A000000000000000000000000000000000000000000000000000000000 DUP2 MSTORE PUSH1 0x4 ADD PUSH2 0x761 SWAP1 PUSH2 0x1399 JUMP JUMPDEST PUSH1 0x40 MLOAD DUP1 SWAP2 SUB SWAP1 REVERT JUMPDEST PUSH1 0x1 PUSH1 0x2 PUSH0 DUP5 PUSH20 0xFFFFFFFFFFFFFFFFFFFFFFFFFFFFFFFFFFFFFFFF AND PUSH20 0xFFFFFFFFFFFFFFFFFFFFFFFFFFFFFFFFFFFFFFFF AND DUP2 MSTORE PUSH1 0x20 ADD SWAP1 DUP2 MSTORE PUSH1 0x20 ADD PUSH0 KECCAK256 PUSH1 0x1 DUP4 PUSH2 0x7B6 SWAP2 SWAP1 PUSH2 0x13E4 JUMP JUMPDEST DUP2 SLOAD DUP2 LT PUSH2 0x7C7 JUMPI PUSH2 0x7C6 PUSH2 0x1322 JUMP JUMPDEST JUMPDEST SWAP1 PUSH0 MSTORE PUSH1 0x20 PUSH0 KECCAK256 SWAP1 PUSH1 0x5 MUL ADD PUSH1 0x3 ADD PUSH0 DUP3 DUP3 SLOAD PUSH2 0x7E4 SWAP2 SWAP1 PUSH2 0x147F JUMP JUMPDEST SWAP3 POP POP DUP2 SWAP1 SSTORE POP POP POP JUMP JUMPDEST PUSH1 0x1 SLOAD DUP2 MLOAD GT ISZERO PUSH2 0x835 JUMPI PUSH1 0x40 MLOAD PUSH32 0x8C379A000000000000000000000000000000000000000000000000000000000 DUP2 MSTORE PUSH1 0x4 ADD PUSH2 0x82C SWAP1 PUSH2 0x14FC JUMP JUMPDEST PUSH1 0x40 MLOAD DUP1 SWAP2 SUB SWAP1 REVERT JUMPDEST PUSH0 PUSH1 0x40 MLOAD DUP1 PUSH1 0xA0 ADD PUSH1 0x40 MSTORE DUP1 CALLER PUSH20 0xFFFFFFFFFFFFFFFFFFFFFFFFFFFFFFFFFFFFFFFF AND DUP2 MSTORE PUSH1 0x20 ADD DUP4 DUP2 MSTORE PUSH1 0x20 ADD TIMESTAMP DUP2 MSTORE PUSH1 0x20 ADD PUSH0 DUP2 MSTORE PUSH1 0x20 ADD PUSH1 0x1 PUSH1 0x2 PUSH0 CALLER PUSH20 0xFFFFFFFFFFFFFFFFFFFFFFFFFFFFFFFFFFFFFFFF AND PUSH20 0xFFFFFFFFFFFFFFFFFFFFFFFFFFFFFFFFFFFFFFFF AND DUP2 MSTORE PUSH1 0x20 ADD SWAP1 DUP2 MSTORE PUSH1 0x20 ADD PUSH0 KECCAK256 DUP1 SLOAD SWAP1 POP PUSH2 0x8BC SWAP2 SWAP1 PUSH2 0x147F JUMP JUMPDEST DUP2 MSTORE POP SWAP1 POP PUSH1 0x2 PUSH0 CALLER PUSH20 0xFFFFFFFFFFFFFFFFFFFFFFFFFFFFFFFFFFFFFFFF AND PUSH20 0xFFFFFFFFFFFFFFFFFFFFFFFFFFFFFFFFFFFFFFFF AND DUP2 MSTORE PUSH1 0x20 ADD SWAP1 DUP2 MSTORE PUSH1 0x20 ADD PUSH0 KECCAK256 DUP2 SWAP1 DUP1 PUSH1 0x1 DUP2 SLOAD ADD DUP1 DUP3 SSTORE DUP1 SWAP2 POP POP PUSH1 0x1 SWAP1 SUB SWAP1 PUSH0 MSTORE PUSH1 0x20 PUSH0 KECCAK256 SWAP1 PUSH1 0x5 MUL ADD PUSH0 SWAP1 SWAP2 SWAP1 SWAP2 SWAP1 SWAP2 POP PUSH0 DUP3 ADD MLOAD DUP2 PUSH0 ADD PUSH0 PUSH2 0x100 EXP DUP2 SLOAD DUP2 PUSH20 0xFFFFFFFFFFFFFFFFFFFFFFFFFFFFFFFFFFFFFFFF MUL NOT AND SWAP1 DUP4 PUSH20 0xFFFFFFFFFFFFFFFFFFFFFFFFFFFFFFFFFFFFFFFF AND MUL OR SWAP1 SSTORE POP PUSH1 0x20 DUP3 ADD MLOAD DUP2 PUSH1 0x1 ADD SWAP1 DUP2 PUSH2 0x97E SWAP2 SWAP1 PUSH2 0x16B7 JUMP JUMPDEST POP PUSH1 0x40 DUP3 ADD MLOAD DUP2 PUSH1 0x2 ADD SSTORE PUSH1 0x60 DUP3 ADD MLOAD DUP2 PUSH1 0x3 ADD SSTORE PUSH1 0x80 DUP3 ADD MLOAD DUP2 PUSH1 0x4 ADD SSTORE POP POP POP POP JUMP JUMPDEST PUSH0 DUP1 SLOAD SWAP1 PUSH2 0x100 EXP SWAP1 DIV PUSH20 0xFFFFFFFFFFFFFFFFFFFFFFFFFFFFFFFFFFFFFFFF AND PUSH20 0xFFFFFFFFFFFFFFFFFFFFFFFFFFFFFFFFFFFFFFFF AND CALLER PUSH20 0xFFFFFFFFFFFFFFFFFFFFFFFFFFFFFFFFFFFFFFFF AND EQ PUSH2 0xA30 JUMPI PUSH1 0x40 MLOAD PUSH32 0x8C379A000000000000000000000000000000000000000000000000000000000 DUP2 MSTORE PUSH1 0x4 ADD PUSH2 0xA27 SWAP1 PUSH2 0x17F6 JUMP JUMPDEST PUSH1 0x40 MLOAD DUP1 SWAP2 SUB SWAP1 REVERT JUMPDEST DUP1 PUSH1 0x1 DUP2 SWAP1 SSTORE POP POP JUMP JUMPDEST PUSH0 DUP1 PUSH0 SWAP1 SLOAD SWAP1 PUSH2 0x100 EXP SWAP1 DIV PUSH20 0xFFFFFFFFFFFFFFFFFFFFFFFFFFFFFFFFFFFFFFFF AND SWAP1 POP SWAP1 JUMP JUMPDEST PUSH2 0xA69 PUSH2 0xCC6 JUMP JUMPDEST PUSH1 0x2 PUSH0 CALLER PUSH20 0xFFFFFFFFFFFFFFFFFFFFFFFFFFFFFFFFFFFFFFFF AND PUSH20 0xFFFFFFFFFFFFFFFFFFFFFFFFFFFFFFFFFFFFFFFF AND DUP2 MSTORE PUSH1 0x20 ADD SWAP1 DUP2 MSTORE PUSH1 0x20 ADD PUSH0 KECCAK256 DUP3 DUP2 SLOAD DUP2 LT PUSH2 0xAB8 JUMPI PUSH2 0xAB7 PUSH2 0x1322 JUMP JUMPDEST JUMPDEST SWAP1 PUSH0 MSTORE PUSH1 0x20 PUSH0 KECCAK256 SWAP1 PUSH1 0x5 MUL ADD PUSH1 0x40 MLOAD DUP1 PUSH1 0xA0 ADD PUSH1 0x40 MSTORE SWAP1 DUP2 PUSH0 DUP3 ADD PUSH0 SWAP1 SLOAD SWAP1 PUSH2 0x100 EXP SWAP1 DIV PUSH20 0xFFFFFFFFFFFFFFFFFFFFFFFFFFFFFFFFFFFFFFFF AND PUSH20 0xFFFFFFFFFFFFFFFFFFFFFFFFFFFFFFFFFFFFFFFF AND PUSH20 0xFFFFFFFFFFFFFFFFFFFFFFFFFFFFFFFFFFFFFFFF AND DUP2 MSTORE PUSH1 0x20 ADD PUSH1 0x1 DUP3 ADD DUP1 SLOAD PUSH2 0xB33 SWAP1 PUSH2 0x12F2 JUMP JUMPDEST DUP1 PUSH1 0x1F ADD PUSH1 0x20 DUP1 SWAP2 DIV MUL PUSH1 0x20 ADD PUSH1 0x40 MLOAD SWAP1 DUP2 ADD PUSH1 0x40 MSTORE DUP1 SWAP3 SWAP2 SWAP1 DUP2 DUP2 MSTORE PUSH1 0x20 ADD DUP3 DUP1 SLOAD PUSH2 0xB5F SWAP1 PUSH2 0x12F2 JUMP JUMPDEST DUP1 ISZERO PUSH2 0xBAA JUMPI DUP1 PUSH1 0x1F LT PUSH2 0xB81 JUMPI PUSH2 0x100 DUP1 DUP4 SLOAD DIV MUL DUP4 MSTORE SWAP2 PUSH1 0x20 ADD SWAP2 PUSH2 0xBAA JUMP JUMPDEST DUP3 ADD SWAP2 SWAP1 PUSH0 MSTORE PUSH1 0x20 PUSH0 KECCAK256 SWAP1 JUMPDEST DUP2 SLOAD DUP2 MSTORE SWAP1 PUSH1 0x1 ADD SWAP1 PUSH1 0x20 ADD DUP1 DUP4 GT PUSH2 0xB8D JUMPI DUP3 SWAP1 SUB PUSH1 0x1F AND DUP3 ADD SWAP2 JUMPDEST POP POP POP POP POP DUP2 MSTORE PUSH1 0x20 ADD PUSH1 0x2 DUP3 ADD SLOAD DUP2 MSTORE PUSH1 0x20 ADD PUSH1 0x3 DUP3 ADD SLOAD DUP2 MSTORE PUSH1 0x20 ADD PUSH1 0x4 DUP3 ADD SLOAD DUP2 MSTORE POP POP SWAP1 POP SWAP2 SWAP1 POP JUMP JUMPDEST PUSH1 0x60 PUSH1 0x2 PUSH0 CALLER PUSH20 0xFFFFFFFFFFFFFFFFFFFFFFFFFFFFFFFFFFFFFFFF AND PUSH20 0xFFFFFFFFFFFFFFFFFFFFFFFFFFFFFFFFFFFFFFFF AND DUP2 MSTORE PUSH1 0x20 ADD SWAP1 DUP2 MSTORE PUSH1 0x20 ADD PUSH0 KECCAK256 DUP3 DUP2 SLOAD DUP2 LT PUSH2 0xC29 JUMPI PUSH2 0xC28 PUSH2 0x1322 JUMP JUMPDEST JUMPDEST SWAP1 PUSH0 MSTORE PUSH1 0x20 PUSH0 KECCAK256 SWAP1 PUSH1 0x5 MUL ADD PUSH1 0x1 ADD DUP1 SLOAD PUSH2 0xC43 SWAP1 PUSH2 0x12F2 JUMP JUMPDEST DUP1 PUSH1 0x1F ADD PUSH1 0x20 DUP1 SWAP2 DIV MUL PUSH1 0x20 ADD PUSH1 0x40 MLOAD SWAP1 DUP2 ADD PUSH1 0x40 MSTORE DUP1 SWAP3 SWAP2 SWAP1 DUP2 DUP2 MSTORE PUSH1 0x20 ADD DUP3 DUP1 SLOAD PUSH2 0xC6F SWAP1 PUSH2 0x12F2 JUMP JUMPDEST DUP1 ISZERO PUSH2 0xCBA JUMPI DUP1 PUSH1 0x1F LT PUSH2 0xC91 JUMPI PUSH2 0x100 DUP1 DUP4 SLOAD DIV MUL DUP4 MSTORE SWAP2 PUSH1 0x20 ADD SWAP2 PUSH2 0xCBA JUMP JUMPDEST DUP3 ADD SWAP2 SWAP1 PUSH0 MSTORE PUSH1 0x20 PUSH0 KECCAK256 SWAP1 JUMPDEST DUP2 SLOAD DUP2 MSTORE SWAP1 PUSH1 0x1 ADD SWAP1 PUSH1 0x20 ADD DUP1 DUP4 GT PUSH2 0xC9D JUMPI DUP3 SWAP1 SUB PUSH1 0x1F AND DUP3 ADD SWAP2 JUMPDEST POP POP POP POP POP SWAP1 POP SWAP2 SWAP1 POP JUMP JUMPDEST PUSH1 0x40 MLOAD DUP1 PUSH1 0xA0 ADD PUSH1 0x40 MSTORE DUP1 PUSH0 PUSH20 0xFFFFFFFFFFFFFFFFFFFFFFFFFFFFFFFFFFFFFFFF AND DUP2 MSTORE PUSH1 0x20 ADD PUSH1 0x60 DUP2 MSTORE PUSH1 0x20 ADD PUSH0 DUP2 MSTORE PUSH1 0x20 ADD PUSH0 DUP2 MSTORE PUSH1 0x20 ADD PUSH0 DUP2 MSTORE POP SWAP1 JUMP JUMPDEST PUSH0 DUP2 MLOAD SWAP1 POP SWAP2 SWAP1 POP JUMP JUMPDEST PUSH0 DUP3 DUP3 MSTORE PUSH1 0x20 DUP3 ADD SWAP1 POP SWAP3 SWAP2 POP POP JUMP JUMPDEST PUSH0 DUP2 SWAP1 POP PUSH1 0x20 DUP3 ADD SWAP1 POP SWAP2 SWAP1 POP JUMP JUMPDEST PUSH0 PUSH20 0xFFFFFFFFFFFFFFFFFFFFFFFFFFFFFFFFFFFFFFFF DUP3 AND SWAP1 POP SWAP2 SWAP1 POP JUMP JUMPDEST PUSH0 PUSH2 0xD59 DUP3 PUSH2 0xD30 JUMP JUMPDEST SWAP1 POP SWAP2 SWAP1 POP JUMP JUMPDEST PUSH2 0xD69 DUP2 PUSH2 0xD4F JUMP JUMPDEST DUP3 MSTORE POP POP JUMP JUMPDEST PUSH0 DUP2 MLOAD SWAP1 POP SWAP2 SWAP1 POP JUMP JUMPDEST PUSH0 DUP3 DUP3 MSTORE PUSH1 0x20 DUP3 ADD SWAP1 POP SWAP3 SWAP2 POP POP JUMP JUMPDEST PUSH0 JUMPDEST DUP4 DUP2 LT ISZERO PUSH2 0xDA6 JUMPI DUP1 DUP3 ADD MLOAD DUP2 DUP5 ADD MSTORE PUSH1 0x20 DUP2 ADD SWAP1 POP PUSH2 0xD8B JUMP JUMPDEST PUSH0 DUP5 DUP5 ADD MSTORE POP POP POP POP JUMP JUMPDEST PUSH0 PUSH1 0x1F NOT PUSH1 0x1F DUP4 ADD AND SWAP1 POP SWAP2 SWAP1 POP JUMP JUMPDEST PUSH0 PUSH2 0xDCB DUP3 PUSH2 0xD6F JUMP JUMPDEST PUSH2 0xDD5 DUP2 DUP6 PUSH2 0xD79 JUMP JUMPDEST SWAP4 POP PUSH2 0xDE5 DUP2 DUP6 PUSH1 0x20 DUP7 ADD PUSH2 0xD89 JUMP JUMPDEST PUSH2 0xDEE DUP2 PUSH2 0xDB1 JUMP JUMPDEST DUP5 ADD SWAP2 POP POP SWAP3 SWAP2 POP POP JUMP JUMPDEST PUSH0 DUP2 SWAP1 POP SWAP2 SWAP1 POP JUMP JUMPDEST PUSH2 0xE0B DUP2 PUSH2 0xDF9 JUMP JUMPDEST DUP3 MSTORE POP POP JUMP JUMPDEST PUSH0 PUSH1 0xA0 DUP4 ADD PUSH0 DUP4 ADD MLOAD PUSH2 0xE26 PUSH0 DUP7 ADD DUP3 PUSH2 0xD60 JUMP JUMPDEST POP PUSH1 0x20 DUP4 ADD MLOAD DUP5 DUP3 SUB PUSH1 0x20 DUP7 ADD MSTORE PUSH2 0xE3E DUP3 DUP3 PUSH2 0xDC1 JUMP JUMPDEST SWAP2 POP POP PUSH1 0x40 DUP4 ADD MLOAD PUSH2 0xE53 PUSH1 0x40 DUP7 ADD DUP3 PUSH2 0xE02 JUMP JUMPDEST POP PUSH1 0x60 DUP4 ADD MLOAD PUSH2 0xE66 PUSH1 0x60 DUP7 ADD DUP3 PUSH2 0xE02 JUMP JUMPDEST POP PUSH1 0x80 DUP4 ADD MLOAD PUSH2 0xE79 PUSH1 0x80 DUP7 ADD DUP3 PUSH2 0xE02 JUMP JUMPDEST POP DUP1 SWAP2 POP POP SWAP3 SWAP2 POP POP JUMP JUMPDEST PUSH0 PUSH2 0xE8F DUP4 DUP4 PUSH2 0xE11 JUMP JUMPDEST SWAP1 POP SWAP3 SWAP2 POP POP JUMP JUMPDEST PUSH0 PUSH1 0x20 DUP3 ADD SWAP1 POP SWAP2 SWAP1 POP JUMP JUMPDEST PUSH0 PUSH2 0xEAD DUP3 PUSH2 0xD07 JUMP JUMPDEST PUSH2 0xEB7 DUP2 DUP6 PUSH2 0xD11 JUMP JUMPDEST SWAP4 POP DUP4 PUSH1 0x20 DUP3 MUL DUP6 ADD PUSH2 0xEC9 DUP6 PUSH2 0xD21 JUMP JUMPDEST DUP1 PUSH0 JUMPDEST DUP6 DUP2 LT ISZERO PUSH2 0xF04 JUMPI DUP5 DUP5 SUB DUP10 MSTORE DUP2 MLOAD PUSH2 0xEE5 DUP6 DUP3 PUSH2 0xE84 JUMP JUMPDEST SWAP5 POP PUSH2 0xEF0 DUP4 PUSH2 0xE97 JUMP JUMPDEST SWAP3 POP PUSH1 0x20 DUP11 ADD SWAP10 POP POP PUSH1 0x1 DUP2 ADD SWAP1 POP PUSH2 0xECC JUMP JUMPDEST POP DUP3 SWAP8 POP DUP8 SWAP6 POP POP POP POP POP POP SWAP3 SWAP2 POP POP JUMP JUMPDEST PUSH0 PUSH1 0x20 DUP3 ADD SWAP1 POP DUP2 DUP2 SUB PUSH0 DUP4 ADD MSTORE PUSH2 0xF2E DUP2 DUP5 PUSH2 0xEA3 JUMP JUMPDEST SWAP1 POP SWAP3 SWAP2 POP POP JUMP JUMPDEST PUSH0 PUSH1 0x40 MLOAD SWAP1 POP SWAP1 JUMP JUMPDEST PUSH0 DUP1 REVERT JUMPDEST PUSH0 DUP1 REVERT JUMPDEST PUSH2 0xF50 DUP2 PUSH2 0xD4F JUMP JUMPDEST DUP2 EQ PUSH2 0xF5A JUMPI PUSH0 DUP1 REVERT JUMPDEST POP JUMP JUMPDEST PUSH0 DUP2 CALLDATALOAD SWAP1 POP PUSH2 0xF6B DUP2 PUSH2 0xF47 JUMP JUMPDEST SWAP3 SWAP2 POP POP JUMP JUMPDEST PUSH2 0xF7A DUP2 PUSH2 0xDF9 JUMP JUMPDEST DUP2 EQ PUSH2 0xF84 JUMPI PUSH0 DUP1 REVERT JUMPDEST POP JUMP JUMPDEST PUSH0 DUP2 CALLDATALOAD SWAP1 POP PUSH2 0xF95 DUP2 PUSH2 0xF71 JUMP JUMPDEST SWAP3 SWAP2 POP POP JUMP JUMPDEST PUSH0 DUP1 PUSH1 0x40 DUP4 DUP6 SUB SLT ISZERO PUSH2 0xFB1 JUMPI PUSH2 0xFB0 PUSH2 0xF3F JUMP JUMPDEST JUMPDEST PUSH0 PUSH2 0xFBE DUP6 DUP3 DUP7 ADD PUSH2 0xF5D JUMP JUMPDEST SWAP3 POP POP PUSH1 0x20 PUSH2 0xFCF DUP6 DUP3 DUP7 ADD PUSH2 0xF87 JUMP JUMPDEST SWAP2 POP POP SWAP3 POP SWAP3 SWAP1 POP JUMP JUMPDEST PUSH0 PUSH1 0x20 DUP3 DUP5 SUB SLT ISZERO PUSH2 0xFEE JUMPI PUSH2 0xFED PUSH2 0xF3F JUMP JUMPDEST JUMPDEST PUSH0 PUSH2 0xFFB DUP5 DUP3 DUP6 ADD PUSH2 0xF5D JUMP JUMPDEST SWAP2 POP POP SWAP3 SWAP2 POP POP JUMP JUMPDEST PUSH0 DUP1 REVERT JUMPDEST PUSH0 DUP1 REVERT JUMPDEST PUSH32 0x4E487B7100000000000000000000000000000000000000000000000000000000 PUSH0 MSTORE PUSH1 0x41 PUSH1 0x4 MSTORE PUSH1 0x24 PUSH0 REVERT JUMPDEST PUSH2 0x1042 DUP3 PUSH2 0xDB1 JUMP JUMPDEST DUP2 ADD DUP2 DUP2 LT PUSH8 0xFFFFFFFFFFFFFFFF DUP3 GT OR ISZERO PUSH2 0x1061 JUMPI PUSH2 0x1060 PUSH2 0x100C JUMP JUMPDEST JUMPDEST DUP1 PUSH1 0x40 MSTORE POP POP POP JUMP JUMPDEST PUSH0 PUSH2 0x1073 PUSH2 0xF36 JUMP JUMPDEST SWAP1 POP PUSH2 0x107F DUP3 DUP3 PUSH2 0x1039 JUMP JUMPDEST SWAP2 SWAP1 POP JUMP JUMPDEST PUSH0 PUSH8 0xFFFFFFFFFFFFFFFF DUP3 GT ISZERO PUSH2 0x109E JUMPI PUSH2 0x109D PUSH2 0x100C JUMP JUMPDEST JUMPDEST PUSH2 0x10A7 DUP3 PUSH2 0xDB1 JUMP JUMPDEST SWAP1 POP PUSH1 0x20 DUP2 ADD SWAP1 POP SWAP2 SWAP1 POP JUMP JUMPDEST DUP3 DUP2 DUP4 CALLDATACOPY PUSH0 DUP4 DUP4 ADD MSTORE POP POP POP JUMP JUMPDEST PUSH0 PUSH2 0x10D4 PUSH2 0x10CF DUP5 PUSH2 0x1084 JUMP JUMPDEST PUSH2 0x106A JUMP JUMPDEST SWAP1 POP DUP3 DUP2 MSTORE PUSH1 0x20 DUP2 ADD DUP5 DUP5 DUP5 ADD GT ISZERO PUSH2 0x10F0 JUMPI PUSH2 0x10EF PUSH2 0x1008 JUMP JUMPDEST JUMPDEST PUSH2 0x10FB DUP5 DUP3 DUP6 PUSH2 0x10B4 JUMP JUMPDEST POP SWAP4 SWAP3 POP POP POP JUMP JUMPDEST PUSH0 DUP3 PUSH1 0x1F DUP4 ADD SLT PUSH2 0x1117 JUMPI PUSH2 0x1116 PUSH2 0x1004 JUMP JUMPDEST JUMPDEST DUP2 CALLDATALOAD PUSH2 0x1127 DUP5 DUP3 PUSH1 0x20 DUP7 ADD PUSH2 0x10C2 JUMP JUMPDEST SWAP2 POP POP SWAP3 SWAP2 POP POP JUMP JUMPDEST PUSH0 PUSH1 0x20 DUP3 DUP5 SUB SLT ISZERO PUSH2 0x1145 JUMPI PUSH2 0x1144 PUSH2 0xF3F JUMP JUMPDEST JUMPDEST PUSH0 DUP3 ADD CALLDATALOAD PUSH8 0xFFFFFFFFFFFFFFFF DUP2 GT ISZERO PUSH2 0x1162 JUMPI PUSH2 0x1161 PUSH2 0xF43 JUMP JUMPDEST JUMPDEST PUSH2 0x116E DUP5 DUP3 DUP6 ADD PUSH2 0x1103 JUMP JUMPDEST SWAP2 POP POP SWAP3 SWAP2 POP POP JUMP JUMPDEST PUSH0 PUSH1 0x20 DUP3 DUP5 SUB SLT ISZERO PUSH2 0x118C JUMPI PUSH2 0x118B PUSH2 0xF3F JUMP JUMPDEST JUMPDEST PUSH0 PUSH2 0x1199 DUP5 DUP3 DUP6 ADD PUSH2 0xF87 JUMP JUMPDEST SWAP2 POP POP SWAP3 SWAP2 POP POP JUMP JUMPDEST PUSH2 0x11AB DUP2 PUSH2 0xD4F JUMP JUMPDEST DUP3 MSTORE POP POP JUMP JUMPDEST PUSH0 PUSH1 0x20 DUP3 ADD SWAP1 POP PUSH2 0x11C4 PUSH0 DUP4 ADD DUP5 PUSH2 0x11A2 JUMP JUMPDEST SWAP3 SWAP2 POP POP JUMP JUMPDEST PUSH0 PUSH1 0xA0 DUP4 ADD PUSH0 DUP4 ADD MLOAD PUSH2 0x11DF PUSH0 DUP7 ADD DUP3 PUSH2 0xD60 JUMP JUMPDEST POP PUSH1 0x20 DUP4 ADD MLOAD DUP5 DUP3 SUB PUSH1 0x20 DUP7 ADD MSTORE PUSH2 0x11F7 DUP3 DUP3 PUSH2 0xDC1 JUMP JUMPDEST SWAP2 POP POP PUSH1 0x40 DUP4 ADD MLOAD PUSH2 0x120C PUSH1 0x40 DUP7 ADD DUP3 PUSH2 0xE02 JUMP JUMPDEST POP PUSH1 0x60 DUP4 ADD MLOAD PUSH2 0x121F PUSH1 0x60 DUP7 ADD DUP3 PUSH2 0xE02 JUMP JUMPDEST POP PUSH1 0x80 DUP4 ADD MLOAD PUSH2 0x1232 PUSH1 0x80 DUP7 ADD DUP3 PUSH2 0xE02 JUMP JUMPDEST POP DUP1 SWAP2 POP POP SWAP3 SWAP2 POP POP JUMP JUMPDEST PUSH0 PUSH1 0x20 DUP3 ADD SWAP1 POP DUP2 DUP2 SUB PUSH0 DUP4 ADD MSTORE PUSH2 0x1255 DUP2 DUP5 PUSH2 0x11CA JUMP JUMPDEST SWAP1 POP SWAP3 SWAP2 POP POP JUMP JUMPDEST PUSH0 DUP3 DUP3 MSTORE PUSH1 0x20 DUP3 ADD SWAP1 POP SWAP3 SWAP2 POP POP JUMP JUMPDEST PUSH0 PUSH2 0x1277 DUP3 PUSH2 0xD6F JUMP JUMPDEST PUSH2 0x1281 DUP2 DUP6 PUSH2 0x125D JUMP JUMPDEST SWAP4 POP PUSH2 0x1291 DUP2 DUP6 PUSH1 0x20 DUP7 ADD PUSH2 0xD89 JUMP JUMPDEST PUSH2 0x129A DUP2 PUSH2 0xDB1 JUMP JUMPDEST DUP5 ADD SWAP2 POP POP SWAP3 SWAP2 POP POP JUMP JUMPDEST PUSH0 PUSH1 0x20 DUP3 ADD SWAP1 POP DUP2 DUP2 SUB PUSH0 DUP4 ADD MSTORE PUSH2 0x12BD DUP2 DUP5 PUSH2 0x126D JUMP JUMPDEST SWAP1 POP SWAP3 SWAP2 POP POP JUMP JUMPDEST PUSH32 0x4E487B7100000000000000000000000000000000000000000000000000000000 PUSH0 MSTORE PUSH1 0x22 PUSH1 0x4 MSTORE PUSH1 0x24 PUSH0 REVERT JUMPDEST PUSH0 PUSH1 0x2 DUP3 DIV SWAP1 POP PUSH1 0x1 DUP3 AND DUP1 PUSH2 0x1309 JUMPI PUSH1 0x7F DUP3 AND SWAP2 POP JUMPDEST PUSH1 0x20 DUP3 LT DUP2 SUB PUSH2 0x131C JUMPI PUSH2 0x131B PUSH2 0x12C5 JUMP JUMPDEST JUMPDEST POP SWAP2 SWAP1 POP JUMP JUMPDEST PUSH32 0x4E487B7100000000000000000000000000000000000000000000000000000000 PUSH0 MSTORE PUSH1 0x32 PUSH1 0x4 MSTORE PUSH1 0x24 PUSH0 REVERT JUMPDEST PUSH32 0x4E6F20747765657420666F756E64000000000000000000000000000000000000 PUSH0 DUP3 ADD MSTORE POP JUMP JUMPDEST PUSH0 PUSH2 0x1383 PUSH1 0xE DUP4 PUSH2 0x125D JUMP JUMPDEST SWAP2 POP PUSH2 0x138E DUP3 PUSH2 0x134F JUMP JUMPDEST PUSH1 0x20 DUP3 ADD SWAP1 POP SWAP2 SWAP1 POP JUMP JUMPDEST PUSH0 PUSH1 0x20 DUP3 ADD SWAP1 POP DUP2 DUP2 SUB PUSH0 DUP4 ADD MSTORE PUSH2 0x13B0 DUP2 PUSH2 0x1377 JUMP JUMPDEST SWAP1 POP SWAP2 SWAP1 POP JUMP JUMPDEST PUSH32 0x4E487B7100000000000000000000000000000000000000000000000000000000 PUSH0 MSTORE PUSH1 0x11 PUSH1 0x4 MSTORE PUSH1 0x24 PUSH0 REVERT JUMPDEST PUSH0 PUSH2 0x13EE DUP3 PUSH2 0xDF9 JUMP JUMPDEST SWAP2 POP PUSH2 0x13F9 DUP4 PUSH2 0xDF9 JUMP JUMPDEST SWAP3 POP DUP3 DUP3 SUB SWAP1 POP DUP2 DUP2 GT ISZERO PUSH2 0x1411 JUMPI PUSH2 0x1410 PUSH2 0x13B7 JUMP JUMPDEST JUMPDEST SWAP3 SWAP2 POP POP JUMP JUMPDEST PUSH32 0x4E6F206C696B6520666F72207468697320747765657400000000000000000000 PUSH0 DUP3 ADD MSTORE POP JUMP JUMPDEST PUSH0 PUSH2 0x144B PUSH1 0x16 DUP4 PUSH2 0x125D JUMP JUMPDEST SWAP2 POP PUSH2 0x1456 DUP3 PUSH2 0x1417 JUMP JUMPDEST PUSH1 0x20 DUP3 ADD SWAP1 POP SWAP2 SWAP1 POP JUMP JUMPDEST PUSH0 PUSH1 0x20 DUP3 ADD SWAP1 POP DUP2 DUP2 SUB PUSH0 DUP4 ADD MSTORE PUSH2 0x1478 DUP2 PUSH2 0x143F JUMP JUMPDEST SWAP1 POP SWAP2 SWAP1 POP JUMP JUMPDEST PUSH0 PUSH2 0x1489 DUP3 PUSH2 0xDF9 JUMP JUMPDEST SWAP2 POP PUSH2 0x1494 DUP4 PUSH2 0xDF9 JUMP JUMPDEST SWAP3 POP DUP3 DUP3 ADD SWAP1 POP DUP1 DUP3 GT ISZERO PUSH2 0x14AC JUMPI PUSH2 0x14AB PUSH2 0x13B7 JUMP JUMPDEST JUMPDEST SWAP3 SWAP2 POP POP JUMP JUMPDEST PUSH32 0x657863656564206D61782074657874206C696D69740000000000000000000000 PUSH0 DUP3 ADD MSTORE POP JUMP JUMPDEST PUSH0 PUSH2 0x14E6 PUSH1 0x15 DUP4 PUSH2 0x125D JUMP JUMPDEST SWAP2 POP PUSH2 0x14F1 DUP3 PUSH2 0x14B2 JUMP JUMPDEST PUSH1 0x20 DUP3 ADD SWAP1 POP SWAP2 SWAP1 POP JUMP JUMPDEST PUSH0 PUSH1 0x20 DUP3 ADD SWAP1 POP DUP2 DUP2 SUB PUSH0 DUP4 ADD MSTORE PUSH2 0x1513 DUP2 PUSH2 0x14DA JUMP JUMPDEST SWAP1 POP SWAP2 SWAP1 POP JUMP JUMPDEST PUSH0 DUP2 SWAP1 POP DUP2 PUSH0 MSTORE PUSH1 0x20 PUSH0 KECCAK256 SWAP1 POP SWAP2 SWAP1 POP JUMP JUMPDEST PUSH0 PUSH1 0x20 PUSH1 0x1F DUP4 ADD DIV SWAP1 POP SWAP2 SWAP1 POP JUMP JUMPDEST PUSH0 DUP3 DUP3 SHL SWAP1 POP SWAP3 SWAP2 POP POP JUMP JUMPDEST PUSH0 PUSH1 0x8 DUP4 MUL PUSH2 0x1576 PUSH32 0xFFFFFFFFFFFFFFFFFFFFFFFFFFFFFFFFFFFFFFFFFFFFFFFFFFFFFFFFFFFFFFFF DUP3 PUSH2 0x153B JUMP JUMPDEST PUSH2 0x1580 DUP7 DUP4 PUSH2 0x153B JUMP JUMPDEST SWAP6 POP DUP1 NOT DUP5 AND SWAP4 POP DUP1 DUP7 AND DUP5 OR SWAP3 POP POP POP SWAP4 SWAP3 POP POP POP JUMP JUMPDEST PUSH0 DUP2 SWAP1 POP SWAP2 SWAP1 POP JUMP JUMPDEST PUSH0 PUSH2 0x15BB PUSH2 0x15B6 PUSH2 0x15B1 DUP5 PUSH2 0xDF9 JUMP JUMPDEST PUSH2 0x1598 JUMP JUMPDEST PUSH2 0xDF9 JUMP JUMPDEST SWAP1 POP SWAP2 SWAP1 POP JUMP JUMPDEST PUSH0 DUP2 SWAP1 POP SWAP2 SWAP1 POP JUMP JUMPDEST PUSH2 0x15D4 DUP4 PUSH2 0x15A1 JUMP JUMPDEST PUSH2 0x15E8 PUSH2 0x15E0 DUP3 PUSH2 0x15C2 JUMP JUMPDEST DUP5 DUP5 SLOAD PUSH2 0x1547 JUMP JUMPDEST DUP3 SSTORE POP POP POP POP JUMP JUMPDEST PUSH0 SWAP1 JUMP JUMPDEST PUSH2 0x15FC PUSH2 0x15F0 JUMP JUMPDEST PUSH2 0x1607 DUP2 DUP5 DUP5 PUSH2 0x15CB JUMP JUMPDEST POP POP POP JUMP JUMPDEST JUMPDEST DUP2 DUP2 LT ISZERO PUSH2 0x162A JUMPI PUSH2 0x161F PUSH0 DUP3 PUSH2 0x15F4 JUMP JUMPDEST PUSH1 0x1 DUP2 ADD SWAP1 POP PUSH2 0x160D JUMP JUMPDEST POP POP JUMP JUMPDEST PUSH1 0x1F DUP3 GT ISZERO PUSH2 0x166F JUMPI PUSH2 0x1640 DUP2 PUSH2 0x151A JUMP JUMPDEST PUSH2 0x1649 DUP5 PUSH2 0x152C JUMP JUMPDEST DUP2 ADD PUSH1 0x20 DUP6 LT ISZERO PUSH2 0x1658 JUMPI DUP2 SWAP1 POP JUMPDEST PUSH2 0x166C PUSH2 0x1664 DUP6 PUSH2 0x152C JUMP JUMPDEST DUP4 ADD DUP3 PUSH2 0x160C JUMP JUMPDEST POP POP JUMPDEST POP POP POP JUMP JUMPDEST PUSH0 DUP3 DUP3 SHR SWAP1 POP SWAP3 SWAP2 POP POP JUMP JUMPDEST PUSH0 PUSH2 0x168F PUSH0 NOT DUP5 PUSH1 0x8 MUL PUSH2 0x1674 JUMP JUMPDEST NOT DUP1 DUP4 AND SWAP2 POP POP SWAP3 SWAP2 POP POP JUMP JUMPDEST PUSH0 PUSH2 0x16A7 DUP4 DUP4 PUSH2 0x1680 JUMP JUMPDEST SWAP2 POP DUP3 PUSH1 0x2 MUL DUP3 OR SWAP1 POP SWAP3 SWAP2 POP POP JUMP JUMPDEST PUSH2 0x16C0 DUP3 PUSH2 0xD6F JUMP JUMPDEST PUSH8 0xFFFFFFFFFFFFFFFF DUP2 GT ISZERO PUSH2 0x16D9 JUMPI PUSH2 0x16D8 PUSH2 0x100C JUMP JUMPDEST JUMPDEST PUSH2 0x16E3 DUP3 SLOAD PUSH2 0x12F2 JUMP JUMPDEST PUSH2 0x16EE DUP3 DUP3 DUP6 PUSH2 0x162E JUMP JUMPDEST PUSH0 PUSH1 0x20 SWAP1 POP PUSH1 0x1F DUP4 GT PUSH1 0x1 DUP2 EQ PUSH2 0x171F JUMPI PUSH0 DUP5 ISZERO PUSH2 0x170D JUMPI DUP3 DUP8 ADD MLOAD SWAP1 POP JUMPDEST PUSH2 0x1717 DUP6 DUP3 PUSH2 0x169C JUMP JUMPDEST DUP7 SSTORE POP PUSH2 0x177E JUMP JUMPDEST PUSH1 0x1F NOT DUP5 AND PUSH2 0x172D DUP7 PUSH2 0x151A JUMP JUMPDEST PUSH0 JUMPDEST DUP3 DUP2 LT ISZERO PUSH2 0x1754 JUMPI DUP5 DUP10 ADD MLOAD DUP3 SSTORE PUSH1 0x1 DUP3 ADD SWAP2 POP PUSH1 0x20 DUP6 ADD SWAP5 POP PUSH1 0x20 DUP2 ADD SWAP1 POP PUSH2 0x172F JUMP JUMPDEST DUP7 DUP4 LT ISZERO PUSH2 0x1771 JUMPI DUP5 DUP10 ADD MLOAD PUSH2 0x176D PUSH1 0x1F DUP10 AND DUP3 PUSH2 0x1680 JUMP JUMPDEST DUP4 SSTORE POP JUMPDEST PUSH1 0x1 PUSH1 0x2 DUP9 MUL ADD DUP9 SSTORE POP POP POP JUMPDEST POP POP POP POP POP POP JUMP JUMPDEST PUSH32 0x4F6E6C79206F776E657220616C6C6F77656420746F20706572666F726D206163 PUSH0 DUP3 ADD MSTORE PUSH32 0x74696F6E00000000000000000000000000000000000000000000000000000000 PUSH1 0x20 DUP3 ADD MSTORE POP JUMP JUMPDEST PUSH0 PUSH2 0x17E0 PUSH1 0x24 DUP4 PUSH2 0x125D JUMP JUMPDEST SWAP2 POP PUSH2 0x17EB DUP3 PUSH2 0x1786 JUMP JUMPDEST PUSH1 0x40 DUP3 ADD SWAP1 POP SWAP2 SWAP1 POP JUMP JUMPDEST PUSH0 PUSH1 0x20 DUP3 ADD SWAP1 POP DUP2 DUP2 SUB PUSH0 DUP4 ADD MSTORE PUSH2 0x180D DUP2 PUSH2 0x17D4 JUMP JUMPDEST SWAP1 POP SWAP2 SWAP1 POP JUMP INVALID LOG2 PUSH5 0x6970667358 0x22 SLT KECCAK256 0xB6 0x2D DUP12 DUP11 SMOD 0xC0 AND 0xA9 SELFDESTRUCT 0xDD EXP DIV PUSH20 0x5419E68F95DFFB0E1BC1FA3935B1267451AA8864 PUSH20 0x6F6C634300081600330000000000000000000000 "
				},
				"gasEstimates": {
					"creation": {
						"codeDepositCost": "1243600",
						"executionCost": "47672",
						"totalCost": "1291272"
					},
					"external": {
						"changeTweetLength(uint256)": "24703",
						"createTweet(string)": "infinite",
						"getA(address)": "infinite",
						"getOwner()": "2559",
						"getTweet()": "infinite",
						"getTweetContent(uint256)": "infinite",
						"getTweetIndex(uint256)": "infinite",
						"likeTweet(address,uint256)": "infinite",
						"unlikeTweet(address,uint256)": "infinite"
					}
				},
				"methodIdentifiers": {
					"changeTweetLength(uint256)": "888a7880",
					"createTweet(string)": "7c9cd2bc",
					"getA(address)": "4ed33ace",
					"getOwner()": "893d20e8",
					"getTweet()": "3a756bd6",
					"getTweetContent(uint256)": "c2e25658",
					"getTweetIndex(uint256)": "a1575f92",
					"likeTweet(address,uint256)": "63378216",
					"unlikeTweet(address,uint256)": "3d9b569f"
				}
			},
			"storageLayout": {
				"storage": [
					{
						"astId": 3,
						"contract": "contracts/twitter/Twitter.sol:Twitter",
						"label": "owner",
						"offset": 0,
						"slot": "0",
						"type": "t_address"
					},
					{
						"astId": 5,
						"contract": "contracts/twitter/Twitter.sol:Twitter",
						"label": "tweetLength",
						"offset": 0,
						"slot": "1",
						"type": "t_uint256"
					},
					{
						"astId": 59,
						"contract": "contracts/twitter/Twitter.sol:Twitter",
						"label": "tweets",
						"offset": 0,
						"slot": "2",
						"type": "t_mapping(t_address,t_array(t_struct(Tweet)29_storage)dyn_storage)"
					}
				],
				"types": {
					"t_address": {
						"encoding": "inplace",
						"label": "address",
						"numberOfBytes": "20"
					},
					"t_array(t_struct(Tweet)29_storage)dyn_storage": {
						"base": "t_struct(Tweet)29_storage",
						"encoding": "dynamic_array",
						"label": "struct Twitter.Tweet[]",
						"numberOfBytes": "32"
					},
					"t_mapping(t_address,t_array(t_struct(Tweet)29_storage)dyn_storage)": {
						"encoding": "mapping",
						"key": "t_address",
						"label": "mapping(address => struct Twitter.Tweet[])",
						"numberOfBytes": "32",
						"value": "t_array(t_struct(Tweet)29_storage)dyn_storage"
					},
					"t_string_storage": {
						"encoding": "bytes",
						"label": "string",
						"numberOfBytes": "32"
					},
					"t_struct(Tweet)29_storage": {
						"encoding": "inplace",
						"label": "struct Twitter.Tweet",
						"members": [
							{
								"astId": 20,
								"contract": "contracts/twitter/Twitter.sol:Twitter",
								"label": "author",
								"offset": 0,
								"slot": "0",
								"type": "t_address"
							},
							{
								"astId": 22,
								"contract": "contracts/twitter/Twitter.sol:Twitter",
								"label": "content",
								"offset": 0,
								"slot": "1",
								"type": "t_string_storage"
							},
							{
								"astId": 24,
								"contract": "contracts/twitter/Twitter.sol:Twitter",
								"label": "timeTweeted",
								"offset": 0,
								"slot": "2",
								"type": "t_uint256"
							},
							{
								"astId": 26,
								"contract": "contracts/twitter/Twitter.sol:Twitter",
								"label": "contentLike",
								"offset": 0,
								"slot": "3",
								"type": "t_uint256"
							},
							{
								"astId": 28,
								"contract": "contracts/twitter/Twitter.sol:Twitter",
								"label": "id",
								"offset": 0,
								"slot": "4",
								"type": "t_uint256"
							}
						],
						"numberOfBytes": "160"
					},
					"t_uint256": {
						"encoding": "inplace",
						"label": "uint256",
						"numberOfBytes": "32"
					}
				}
			},
			"userdoc": {
				"kind": "user",
				"methods": {},
				"version": 1
			}
		}
	}
}